{
	"contracts/LiskGarden.sol": {
		"LiskGarden": {
			"abi": [
				{
					"inputs": [],
					"stateMutability": "nonpayable",
					"type": "constructor"
				},
				{
					"anonymous": false,
					"inputs": [
						{
							"indexed": true,
							"internalType": "uint256",
							"name": "plantId",
							"type": "uint256"
						}
					],
					"name": "PlantDied",
					"type": "event"
				},
				{
					"anonymous": false,
					"inputs": [
						{
							"indexed": true,
							"internalType": "uint256",
							"name": "plantId",
							"type": "uint256"
						},
						{
							"indexed": true,
							"internalType": "address",
							"name": "owner",
							"type": "address"
						},
						{
							"indexed": false,
							"internalType": "uint256",
							"name": "reward",
							"type": "uint256"
						}
					],
					"name": "PlantHarvested",
					"type": "event"
				},
				{
					"anonymous": false,
					"inputs": [
						{
							"indexed": true,
							"internalType": "address",
							"name": "owner",
							"type": "address"
						},
						{
							"indexed": true,
							"internalType": "uint256",
							"name": "plantId",
							"type": "uint256"
						}
					],
					"name": "PlantSeeded",
					"type": "event"
				},
				{
					"anonymous": false,
					"inputs": [
						{
							"indexed": true,
							"internalType": "uint256",
							"name": "plantId",
							"type": "uint256"
						},
						{
							"indexed": false,
							"internalType": "uint8",
							"name": "newWaterLevel",
							"type": "uint8"
						}
					],
					"name": "PlantWatered",
					"type": "event"
				},
				{
					"anonymous": false,
					"inputs": [
						{
							"indexed": true,
							"internalType": "uint256",
							"name": "plantId",
							"type": "uint256"
						},
						{
							"indexed": false,
							"internalType": "enum LiskGarden.GrowthStage",
							"name": "newStage",
							"type": "uint8"
						}
					],
					"name": "StageAdvanced",
					"type": "event"
				},
				{
					"inputs": [],
					"name": "HARVEST_REWARD",
					"outputs": [
						{
							"internalType": "uint256",
							"name": "",
							"type": "uint256"
						}
					],
					"stateMutability": "view",
					"type": "function"
				},
				{
					"inputs": [],
					"name": "PLANT_PRICE",
					"outputs": [
						{
							"internalType": "uint256",
							"name": "",
							"type": "uint256"
						}
					],
					"stateMutability": "view",
					"type": "function"
				},
				{
					"inputs": [],
					"name": "STAGE_DURATION",
					"outputs": [
						{
							"internalType": "uint256",
							"name": "",
							"type": "uint256"
						}
					],
					"stateMutability": "view",
					"type": "function"
				},
				{
					"inputs": [],
					"name": "WATER_DEPLETION_RATE",
					"outputs": [
						{
							"internalType": "uint8",
							"name": "",
							"type": "uint8"
						}
					],
					"stateMutability": "view",
					"type": "function"
				},
				{
					"inputs": [],
					"name": "WATER_DEPLETION_TIME",
					"outputs": [
						{
							"internalType": "uint256",
							"name": "",
							"type": "uint256"
						}
					],
					"stateMutability": "view",
					"type": "function"
				},
				{
					"inputs": [
						{
							"internalType": "uint256",
							"name": "plantId",
							"type": "uint256"
						}
					],
					"name": "calculateWaterLevel",
					"outputs": [
						{
							"internalType": "uint8",
							"name": "",
							"type": "uint8"
						}
					],
					"stateMutability": "view",
					"type": "function"
				},
				{
					"inputs": [
						{
							"internalType": "uint256",
							"name": "plantId",
							"type": "uint256"
						}
					],
					"name": "getPlant",
					"outputs": [
						{
							"components": [
								{
									"internalType": "uint256",
									"name": "id",
									"type": "uint256"
								},
								{
									"internalType": "address",
									"name": "owner",
									"type": "address"
								},
								{
									"internalType": "enum LiskGarden.GrowthStage",
									"name": "stage",
									"type": "uint8"
								},
								{
									"internalType": "uint256",
									"name": "plantedDate",
									"type": "uint256"
								},
								{
									"internalType": "uint256",
									"name": "lastWatered",
									"type": "uint256"
								},
								{
									"internalType": "uint8",
									"name": "waterLevel",
									"type": "uint8"
								},
								{
									"internalType": "bool",
									"name": "exists",
									"type": "bool"
								},
								{
									"internalType": "bool",
									"name": "isDead",
									"type": "bool"
								}
							],
							"internalType": "struct LiskGarden.Plant",
							"name": "",
							"type": "tuple"
						}
					],
					"stateMutability": "view",
					"type": "function"
				},
				{
					"inputs": [
						{
							"internalType": "address",
							"name": "user",
							"type": "address"
						}
					],
					"name": "getUserPlants",
					"outputs": [
						{
							"internalType": "uint256[]",
							"name": "",
							"type": "uint256[]"
						}
					],
					"stateMutability": "view",
					"type": "function"
				},
				{
					"inputs": [
						{
							"internalType": "uint256",
							"name": "plantId",
							"type": "uint256"
						}
					],
					"name": "harvestPlant",
					"outputs": [],
					"stateMutability": "nonpayable",
					"type": "function"
				},
				{
					"inputs": [],
					"name": "owner",
					"outputs": [
						{
							"internalType": "address payable",
							"name": "",
							"type": "address"
						}
					],
					"stateMutability": "view",
					"type": "function"
				},
				{
					"inputs": [],
					"name": "plantCounter",
					"outputs": [
						{
							"internalType": "uint256",
							"name": "",
							"type": "uint256"
						}
					],
					"stateMutability": "view",
					"type": "function"
				},
				{
					"inputs": [],
					"name": "plantSeed",
					"outputs": [
						{
							"internalType": "uint256",
							"name": "",
							"type": "uint256"
						}
					],
					"stateMutability": "payable",
					"type": "function"
				},
				{
					"inputs": [
						{
							"internalType": "uint256",
							"name": "",
							"type": "uint256"
						}
					],
					"name": "plants",
					"outputs": [
						{
							"internalType": "uint256",
							"name": "id",
							"type": "uint256"
						},
						{
							"internalType": "address",
							"name": "owner",
							"type": "address"
						},
						{
							"internalType": "enum LiskGarden.GrowthStage",
							"name": "stage",
							"type": "uint8"
						},
						{
							"internalType": "uint256",
							"name": "plantedDate",
							"type": "uint256"
						},
						{
							"internalType": "uint256",
							"name": "lastWatered",
							"type": "uint256"
						},
						{
							"internalType": "uint8",
							"name": "waterLevel",
							"type": "uint8"
						},
						{
							"internalType": "bool",
							"name": "exists",
							"type": "bool"
						},
						{
							"internalType": "bool",
							"name": "isDead",
							"type": "bool"
						}
					],
					"stateMutability": "view",
					"type": "function"
				},
				{
					"inputs": [
						{
							"internalType": "uint256",
							"name": "plantId",
							"type": "uint256"
						}
					],
					"name": "updatePlantStage",
					"outputs": [],
					"stateMutability": "nonpayable",
					"type": "function"
				},
				{
					"inputs": [
						{
							"internalType": "address",
							"name": "",
							"type": "address"
						},
						{
							"internalType": "uint256",
							"name": "",
							"type": "uint256"
						}
					],
					"name": "userPlants",
					"outputs": [
						{
							"internalType": "uint256",
							"name": "",
							"type": "uint256"
						}
					],
					"stateMutability": "view",
					"type": "function"
				},
				{
					"inputs": [
						{
							"internalType": "uint256",
							"name": "plantId",
							"type": "uint256"
						}
					],
					"name": "waterPlant",
					"outputs": [],
					"stateMutability": "nonpayable",
					"type": "function"
				},
				{
					"inputs": [],
					"name": "withdraw",
					"outputs": [],
					"stateMutability": "nonpayable",
					"type": "function"
				},
				{
					"stateMutability": "payable",
					"type": "receive"
				}
			],
			"devdoc": {
				"kind": "dev",
				"methods": {},
				"version": 1
			},
			"evm": {
				"assembly": "    /* \"contracts/LiskGarden.sol\":61:7512  contract LiskGarden {... */\n  mstore(0x40, 0x80)\n    /* \"contracts/LiskGarden.sol\":1933:1993  constructor() {... */\n  callvalue\n  dup1\n  iszero\n  tag_1\n  jumpi\n  revert(0x00, 0x00)\ntag_1:\n  pop\n    /* \"contracts/LiskGarden.sol\":1974:1984  msg.sender */\n  caller\n    /* \"contracts/LiskGarden.sol\":1958:1963  owner */\n  0x03\n  0x00\n    /* \"contracts/LiskGarden.sol\":1958:1985  owner = payable(msg.sender) */\n  0x0100\n  exp\n  dup2\n  sload\n  dup2\n  0xffffffffffffffffffffffffffffffffffffffff\n  mul\n  not\n  and\n  swap1\n  dup4\n  0xffffffffffffffffffffffffffffffffffffffff\n  and\n  mul\n  or\n  swap1\n  sstore\n  pop\n    /* \"contracts/LiskGarden.sol\":61:7512  contract LiskGarden {... */\n  dataSize(sub_0)\n  dup1\n  dataOffset(sub_0)\n  0x00\n  codecopy\n  0x00\n  return\nstop\n\nsub_0: assembly {\n        /* \"contracts/LiskGarden.sol\":61:7512  contract LiskGarden {... */\n      mstore(0x40, 0x80)\n      jumpi(tag_1, lt(calldatasize, 0x04))\n      shr(0xe0, calldataload(0x00))\n      dup1\n      0x8da5cb5b\n      gt\n      tag_20\n      jumpi\n      dup1\n      0xbacb5ebd\n      gt\n      tag_21\n      jumpi\n      dup1\n      0xbacb5ebd\n      eq\n      tag_15\n      jumpi\n      dup1\n      0xcfc9a5f8\n      eq\n      tag_16\n      jumpi\n      dup1\n      0xddd42596\n      eq\n      tag_17\n      jumpi\n      dup1\n      0xe38f8448\n      eq\n      tag_18\n      jumpi\n      dup1\n      0xed0b1f5f\n      eq\n      tag_19\n      jumpi\n      jump(tag_2)\n    tag_21:\n      dup1\n      0x8da5cb5b\n      eq\n      tag_11\n      jumpi\n      dup1\n      0x8dd2361c\n      eq\n      tag_12\n      jumpi\n      dup1\n      0x9886bcfa\n      eq\n      tag_13\n      jumpi\n      dup1\n      0x9c471749\n      eq\n      tag_14\n      jumpi\n      jump(tag_2)\n    tag_20:\n      dup1\n      0x754e150d\n      gt\n      tag_22\n      jumpi\n      dup1\n      0x754e150d\n      eq\n      tag_7\n      jumpi\n      dup1\n      0x7ed4c5be\n      eq\n      tag_8\n      jumpi\n      dup1\n      0x891c0785\n      eq\n      tag_9\n      jumpi\n      dup1\n      0x8aee578b\n      eq\n      tag_10\n      jumpi\n      jump(tag_2)\n    tag_22:\n      dup1\n      0x30cec0eb\n      eq\n      tag_3\n      jumpi\n      dup1\n      0x3ccfd60b\n      eq\n      tag_4\n      jumpi\n      dup1\n      0x51f9efde\n      eq\n      tag_5\n      jumpi\n      dup1\n      0x74119a38\n      eq\n      tag_6\n      jumpi\n      jump(tag_2)\n    tag_1:\n      jumpi(tag_2, calldatasize)\n      stop\n    tag_2:\n      revert(0x00, 0x00)\n        /* \"contracts/LiskGarden.sol\":7134:7254  function getUserPlants(address user) external view returns (uint256[] memory) {... */\n    tag_3:\n      callvalue\n      dup1\n      iszero\n      tag_25\n      jumpi\n      revert(0x00, 0x00)\n    tag_25:\n      pop\n      tag_26\n      0x04\n      dup1\n      calldatasize\n      sub\n      dup2\n      add\n      swap1\n      tag_27\n      swap2\n      swap1\n      tag_28\n      jump\t// in\n    tag_27:\n      tag_29\n      jump\t// in\n    tag_26:\n      mload(0x40)\n      tag_30\n      swap2\n      swap1\n      tag_31\n      jump\t// in\n    tag_30:\n      mload(0x40)\n      dup1\n      swap2\n      sub\n      swap1\n      return\n        /* \"contracts/LiskGarden.sol\":7262:7472  function withdraw() external {... */\n    tag_4:\n      callvalue\n      dup1\n      iszero\n      tag_32\n      jumpi\n      revert(0x00, 0x00)\n    tag_32:\n      pop\n      tag_33\n      tag_34\n      jump\t// in\n    tag_33:\n      stop\n        /* \"contracts/LiskGarden.sol\":1099:1149  uint256 public constant STAGE_DURATION = 1 minutes */\n    tag_5:\n      callvalue\n      dup1\n      iszero\n      tag_35\n      jumpi\n      revert(0x00, 0x00)\n    tag_35:\n      pop\n      tag_36\n      tag_37\n      jump\t// in\n    tag_36:\n      mload(0x40)\n      tag_38\n      swap2\n      swap1\n      tag_39\n      jump\t// in\n    tag_38:\n      mload(0x40)\n      dup1\n      swap2\n      sub\n      swap1\n      return\n        /* \"contracts/LiskGarden.sol\":2154:2819  function plantSeed() external payable returns (uint256) {... */\n    tag_6:\n      tag_40\n      tag_41\n      jump\t// in\n    tag_40:\n      mload(0x40)\n      tag_42\n      swap2\n      swap1\n      tag_39\n      jump\t// in\n    tag_42:\n      mload(0x40)\n      dup1\n      swap2\n      sub\n      swap1\n      return\n        /* \"contracts/LiskGarden.sol\":2975:3832  function calculateWaterLevel(uint256 plantId) public view returns (uint8) {... */\n    tag_7:\n      callvalue\n      dup1\n      iszero\n      tag_43\n      jumpi\n      revert(0x00, 0x00)\n    tag_43:\n      pop\n      tag_44\n      0x04\n      dup1\n      calldatasize\n      sub\n      dup2\n      add\n      swap1\n      tag_45\n      swap2\n      swap1\n      tag_46\n      jump\t// in\n    tag_45:\n      tag_47\n      jump\t// in\n    tag_44:\n      mload(0x40)\n      tag_48\n      swap2\n      swap1\n      tag_49\n      jump\t// in\n    tag_48:\n      mload(0x40)\n      dup1\n      swap2\n      sub\n      swap1\n      return\n        /* \"contracts/LiskGarden.sol\":1156:1213  uint256 public constant WATER_DEPLETION_TIME = 30 seconds */\n    tag_8:\n      callvalue\n      dup1\n      iszero\n      tag_50\n      jumpi\n      revert(0x00, 0x00)\n    tag_50:\n      pop\n      tag_51\n      tag_52\n      jump\t// in\n    tag_51:\n      mload(0x40)\n      tag_53\n      swap2\n      swap1\n      tag_39\n      jump\t// in\n    tag_53:\n      mload(0x40)\n      dup1\n      swap2\n      sub\n      swap1\n      return\n        /* \"contracts/LiskGarden.sol\":1040:1092  uint256 public constant HARVEST_REWARD = 0.003 ether */\n    tag_9:\n      callvalue\n      dup1\n      iszero\n      tag_54\n      jumpi\n      revert(0x00, 0x00)\n    tag_54:\n      pop\n      tag_55\n      tag_56\n      jump\t// in\n    tag_55:\n      mload(0x40)\n      tag_57\n      swap2\n      swap1\n      tag_39\n      jump\t// in\n    tag_57:\n      mload(0x40)\n      dup1\n      swap2\n      sub\n      swap1\n      return\n        /* \"contracts/LiskGarden.sol\":707:754  mapping(address => uint256[]) public userPlants */\n    tag_10:\n      callvalue\n      dup1\n      iszero\n      tag_58\n      jumpi\n      revert(0x00, 0x00)\n    tag_58:\n      pop\n      tag_59\n      0x04\n      dup1\n      calldatasize\n      sub\n      dup2\n      add\n      swap1\n      tag_60\n      swap2\n      swap1\n      tag_61\n      jump\t// in\n    tag_60:\n      tag_62\n      jump\t// in\n    tag_59:\n      mload(0x40)\n      tag_63\n      swap2\n      swap1\n      tag_39\n      jump\t// in\n    tag_63:\n      mload(0x40)\n      dup1\n      swap2\n      sub\n      swap1\n      return\n        /* \"contracts/LiskGarden.sol\":795:823  address payable public owner */\n    tag_11:\n      callvalue\n      dup1\n      iszero\n      tag_64\n      jumpi\n      revert(0x00, 0x00)\n    tag_64:\n      pop\n      tag_65\n      tag_66\n      jump\t// in\n    tag_65:\n      mload(0x40)\n      tag_67\n      swap2\n      swap1\n      tag_68\n      jump\t// in\n    tag_67:\n      mload(0x40)\n      dup1\n      swap2\n      sub\n      swap1\n      return\n        /* \"contracts/LiskGarden.sol\":661:700  mapping(uint256 => Plant) public plants */\n    tag_12:\n      callvalue\n      dup1\n      iszero\n      tag_69\n      jumpi\n      revert(0x00, 0x00)\n    tag_69:\n      pop\n      tag_70\n      0x04\n      dup1\n      calldatasize\n      sub\n      dup2\n      add\n      swap1\n      tag_71\n      swap2\n      swap1\n      tag_46\n      jump\t// in\n    tag_71:\n      tag_72\n      jump\t// in\n    tag_70:\n      mload(0x40)\n      tag_73\n      swap9\n      swap8\n      swap7\n      swap6\n      swap5\n      swap4\n      swap3\n      swap2\n      swap1\n      tag_74\n      jump\t// in\n    tag_73:\n      mload(0x40)\n      dup1\n      swap2\n      sub\n      swap1\n      return\n        /* \"contracts/LiskGarden.sol\":4274:4821  function waterPlant(uint256 plantId) external {... */\n    tag_13:\n      callvalue\n      dup1\n      iszero\n      tag_75\n      jumpi\n      revert(0x00, 0x00)\n    tag_75:\n      pop\n      tag_76\n      0x04\n      dup1\n      calldatasize\n      sub\n      dup2\n      add\n      swap1\n      tag_77\n      swap2\n      swap1\n      tag_46\n      jump\t// in\n    tag_77:\n      tag_78\n      jump\t// in\n    tag_76:\n      stop\n        /* \"contracts/LiskGarden.sol\":761:788  uint256 public plantCounter */\n    tag_14:\n      callvalue\n      dup1\n      iszero\n      tag_79\n      jumpi\n      revert(0x00, 0x00)\n    tag_79:\n      pop\n      tag_80\n      tag_81\n      jump\t// in\n    tag_80:\n      mload(0x40)\n      tag_82\n      swap2\n      swap1\n      tag_39\n      jump\t// in\n    tag_82:\n      mload(0x40)\n      dup1\n      swap2\n      sub\n      swap1\n      return\n        /* \"contracts/LiskGarden.sol\":1220:1266  uint8 public constant WATER_DEPLETION_RATE = 2 */\n    tag_15:\n      callvalue\n      dup1\n      iszero\n      tag_83\n      jumpi\n      revert(0x00, 0x00)\n    tag_83:\n      pop\n      tag_84\n      tag_85\n      jump\t// in\n    tag_84:\n      mload(0x40)\n      tag_86\n      swap2\n      swap1\n      tag_49\n      jump\t// in\n    tag_86:\n      mload(0x40)\n      dup1\n      swap2\n      sub\n      swap1\n      return\n        /* \"contracts/LiskGarden.sol\":984:1033  uint256 public constant PLANT_PRICE = 0.001 ether */\n    tag_16:\n      callvalue\n      dup1\n      iszero\n      tag_87\n      jumpi\n      revert(0x00, 0x00)\n    tag_87:\n      pop\n      tag_88\n      tag_89\n      jump\t// in\n    tag_88:\n      mload(0x40)\n      tag_90\n      swap2\n      swap1\n      tag_39\n      jump\t// in\n    tag_90:\n      mload(0x40)\n      dup1\n      swap2\n      sub\n      swap1\n      return\n        /* \"contracts/LiskGarden.sol\":4980:5970  function updatePlantStage(uint256 plantId) public {... */\n    tag_17:\n      callvalue\n      dup1\n      iszero\n      tag_91\n      jumpi\n      revert(0x00, 0x00)\n    tag_91:\n      pop\n      tag_92\n      0x04\n      dup1\n      calldatasize\n      sub\n      dup2\n      add\n      swap1\n      tag_93\n      swap2\n      swap1\n      tag_46\n      jump\t// in\n    tag_93:\n      tag_94\n      jump\t// in\n    tag_92:\n      stop\n        /* \"contracts/LiskGarden.sol\":5978:6763  function harvestPlant(uint256 plantId) external {... */\n    tag_18:\n      callvalue\n      dup1\n      iszero\n      tag_95\n      jumpi\n      revert(0x00, 0x00)\n    tag_95:\n      pop\n      tag_96\n      0x04\n      dup1\n      calldatasize\n      sub\n      dup2\n      add\n      swap1\n      tag_97\n      swap2\n      swap1\n      tag_46\n      jump\t// in\n    tag_97:\n      tag_98\n      jump\t// in\n    tag_96:\n      stop\n        /* \"contracts/LiskGarden.sol\":6918:7126  function getPlant(uint256 plantId) external view returns (Plant memory) {... */\n    tag_19:\n      callvalue\n      dup1\n      iszero\n      tag_99\n      jumpi\n      revert(0x00, 0x00)\n    tag_99:\n      pop\n      tag_100\n      0x04\n      dup1\n      calldatasize\n      sub\n      dup2\n      add\n      swap1\n      tag_101\n      swap2\n      swap1\n      tag_46\n      jump\t// in\n    tag_101:\n      tag_102\n      jump\t// in\n    tag_100:\n      mload(0x40)\n      tag_103\n      swap2\n      swap1\n      tag_104\n      jump\t// in\n    tag_103:\n      mload(0x40)\n      dup1\n      swap2\n      sub\n      swap1\n      return\n        /* \"contracts/LiskGarden.sol\":7134:7254  function getUserPlants(address user) external view returns (uint256[] memory) {... */\n    tag_29:\n        /* \"contracts/LiskGarden.sol\":7194:7210  uint256[] memory */\n      0x60\n        /* \"contracts/LiskGarden.sol\":7230:7240  userPlants */\n      0x01\n        /* \"contracts/LiskGarden.sol\":7230:7246  userPlants[user] */\n      0x00\n        /* \"contracts/LiskGarden.sol\":7241:7245  user */\n      dup4\n        /* \"contracts/LiskGarden.sol\":7230:7246  userPlants[user] */\n      0xffffffffffffffffffffffffffffffffffffffff\n      and\n      0xffffffffffffffffffffffffffffffffffffffff\n      and\n      dup2\n      mstore\n      0x20\n      add\n      swap1\n      dup2\n      mstore\n      0x20\n      add\n      0x00\n      keccak256\n        /* \"contracts/LiskGarden.sol\":7223:7246  return userPlants[user] */\n      dup1\n      sload\n      dup1\n      0x20\n      mul\n      0x20\n      add\n      mload(0x40)\n      swap1\n      dup2\n      add\n      0x40\n      mstore\n      dup1\n      swap3\n      swap2\n      swap1\n      dup2\n      dup2\n      mstore\n      0x20\n      add\n      dup3\n      dup1\n      sload\n      dup1\n      iszero\n      tag_106\n      jumpi\n      0x20\n      mul\n      dup3\n      add\n      swap2\n      swap1\n      0x00\n      mstore\n      keccak256(0x00, 0x20)\n      swap1\n    tag_107:\n      dup2\n      sload\n      dup2\n      mstore\n      0x20\n      add\n      swap1\n      0x01\n      add\n      swap1\n      dup1\n      dup4\n      gt\n      tag_107\n      jumpi\n    tag_106:\n      pop\n      pop\n      pop\n      pop\n      pop\n      swap1\n      pop\n        /* \"contracts/LiskGarden.sol\":7134:7254  function getUserPlants(address user) external view returns (uint256[] memory) {... */\n      swap2\n      swap1\n      pop\n      jump\t// out\n        /* \"contracts/LiskGarden.sol\":7262:7472  function withdraw() external {... */\n    tag_34:\n        /* \"contracts/LiskGarden.sol\":7324:7329  owner */\n      0x03\n      0x00\n      swap1\n      sload\n      swap1\n      0x0100\n      exp\n      swap1\n      div\n      0xffffffffffffffffffffffffffffffffffffffff\n      and\n        /* \"contracts/LiskGarden.sol\":7310:7329  msg.sender == owner */\n      0xffffffffffffffffffffffffffffffffffffffff\n      and\n        /* \"contracts/LiskGarden.sol\":7310:7320  msg.sender */\n      caller\n        /* \"contracts/LiskGarden.sol\":7310:7329  msg.sender == owner */\n      0xffffffffffffffffffffffffffffffffffffffff\n      and\n      eq\n        /* \"contracts/LiskGarden.sol\":7302:7345  require(msg.sender == owner, \"Bukan owner\") */\n      tag_109\n      jumpi\n      mload(0x40)\n      0x08c379a000000000000000000000000000000000000000000000000000000000\n      dup2\n      mstore\n      0x04\n      add\n      tag_110\n      swap1\n      tag_111\n      jump\t// in\n    tag_110:\n      mload(0x40)\n      dup1\n      swap2\n      sub\n      swap1\n      revert\n    tag_109:\n        /* \"contracts/LiskGarden.sol\":7357:7369  bool success */\n      0x00\n        /* \"contracts/LiskGarden.sol\":7375:7380  owner */\n      0x03\n      0x00\n      swap1\n      sload\n      swap1\n      0x0100\n      exp\n      swap1\n      div\n      0xffffffffffffffffffffffffffffffffffffffff\n      and\n        /* \"contracts/LiskGarden.sol\":7375:7385  owner.call */\n      0xffffffffffffffffffffffffffffffffffffffff\n      and\n        /* \"contracts/LiskGarden.sol\":7393:7414  address(this).balance */\n      selfbalance\n        /* \"contracts/LiskGarden.sol\":7375:7419  owner.call{value: address(this).balance}(\"\") */\n      mload(0x40)\n      tag_112\n      swap1\n      tag_113\n      jump\t// in\n    tag_112:\n      0x00\n      mload(0x40)\n      dup1\n      dup4\n      sub\n      dup2\n      dup6\n      dup8\n      gas\n      call\n      swap3\n      pop\n      pop\n      pop\n      returndatasize\n      dup1\n      0x00\n      dup2\n      eq\n      tag_116\n      jumpi\n      mload(0x40)\n      swap2\n      pop\n      and(add(returndatasize, 0x3f), not(0x1f))\n      dup3\n      add\n      0x40\n      mstore\n      returndatasize\n      dup3\n      mstore\n      returndatasize\n      0x00\n      0x20\n      dup5\n      add\n      returndatacopy\n      jump(tag_115)\n    tag_116:\n      0x60\n      swap2\n      pop\n    tag_115:\n      pop\n        /* \"contracts/LiskGarden.sol\":7356:7419  (bool success, ) = owner.call{value: address(this).balance}(\"\") */\n      pop\n      swap1\n      pop\n        /* \"contracts/LiskGarden.sol\":7438:7445  success */\n      dup1\n        /* \"contracts/LiskGarden.sol\":7430:7464  require(success, \"Transfer gagal\") */\n      tag_117\n      jumpi\n      mload(0x40)\n      0x08c379a000000000000000000000000000000000000000000000000000000000\n      dup2\n      mstore\n      0x04\n      add\n      tag_118\n      swap1\n      tag_119\n      jump\t// in\n    tag_118:\n      mload(0x40)\n      dup1\n      swap2\n      sub\n      swap1\n      revert\n    tag_117:\n        /* \"contracts/LiskGarden.sol\":7291:7472  {... */\n      pop\n        /* \"contracts/LiskGarden.sol\":7262:7472  function withdraw() external {... */\n      jump\t// out\n        /* \"contracts/LiskGarden.sol\":1099:1149  uint256 public constant STAGE_DURATION = 1 minutes */\n    tag_37:\n        /* \"contracts/LiskGarden.sol\":1140:1149  1 minutes */\n      0x3c\n        /* \"contracts/LiskGarden.sol\":1099:1149  uint256 public constant STAGE_DURATION = 1 minutes */\n      dup2\n      jump\t// out\n        /* \"contracts/LiskGarden.sol\":2154:2819  function plantSeed() external payable returns (uint256) {... */\n    tag_41:\n        /* \"contracts/LiskGarden.sol\":2201:2208  uint256 */\n      0x00\n        /* \"contracts/LiskGarden.sol\":1022:1033  0.001 ether */\n      0x038d7ea4c68000\n        /* \"contracts/LiskGarden.sol\":2229:2238  msg.value */\n      callvalue\n        /* \"contracts/LiskGarden.sol\":2229:2253  msg.value >= PLANT_PRICE */\n      lt\n      iszero\n        /* \"contracts/LiskGarden.sol\":2221:2283  require(msg.value >= PLANT_PRICE, \"Bayar minimal PLANT_PRICE\") */\n      tag_121\n      jumpi\n      mload(0x40)\n      0x08c379a000000000000000000000000000000000000000000000000000000000\n      dup2\n      mstore\n      0x04\n      add\n      tag_122\n      swap1\n      tag_123\n      jump\t// in\n    tag_122:\n      mload(0x40)\n      dup1\n      swap2\n      sub\n      swap1\n      revert\n    tag_121:\n        /* \"contracts/LiskGarden.sol\":2312:2313  1 */\n      0x01\n        /* \"contracts/LiskGarden.sol\":2296:2308  plantCounter */\n      0x02\n      0x00\n        /* \"contracts/LiskGarden.sol\":2296:2313  plantCounter += 1 */\n      dup3\n      dup3\n      sload\n      tag_124\n      swap2\n      swap1\n      tag_125\n      jump\t// in\n    tag_124:\n      swap3\n      pop\n      pop\n      dup2\n      swap1\n      sstore\n      pop\n        /* \"contracts/LiskGarden.sol\":2324:2337  uint256 newId */\n      0x00\n        /* \"contracts/LiskGarden.sol\":2340:2352  plantCounter */\n      sload(0x02)\n        /* \"contracts/LiskGarden.sol\":2324:2352  uint256 newId = plantCounter */\n      swap1\n      pop\n        /* \"contracts/LiskGarden.sol\":2365:2379  Plant memory p */\n      0x00\n        /* \"contracts/LiskGarden.sol\":2382:2665  Plant({... */\n      mload(0x40)\n      dup1\n      0x0100\n      add\n      0x40\n      mstore\n      dup1\n        /* \"contracts/LiskGarden.sol\":2407:2412  newId */\n      dup4\n        /* \"contracts/LiskGarden.sol\":2382:2665  Plant({... */\n      dup2\n      mstore\n      0x20\n      add\n        /* \"contracts/LiskGarden.sol\":2434:2444  msg.sender */\n      caller\n        /* \"contracts/LiskGarden.sol\":2382:2665  Plant({... */\n      0xffffffffffffffffffffffffffffffffffffffff\n      and\n      dup2\n      mstore\n      0x20\n      add\n        /* \"contracts/LiskGarden.sol\":2466:2482  GrowthStage.SEED */\n      0x00\n        /* \"contracts/LiskGarden.sol\":2382:2665  Plant({... */\n      0x03\n      dup2\n      gt\n      iszero\n      tag_126\n      jumpi\n      tag_127\n      tag_128\n      jump\t// in\n    tag_127:\n    tag_126:\n      dup2\n      mstore\n      0x20\n      add\n        /* \"contracts/LiskGarden.sol\":2510:2525  block.timestamp */\n      timestamp\n        /* \"contracts/LiskGarden.sol\":2382:2665  Plant({... */\n      dup2\n      mstore\n      0x20\n      add\n        /* \"contracts/LiskGarden.sol\":2553:2568  block.timestamp */\n      timestamp\n        /* \"contracts/LiskGarden.sol\":2382:2665  Plant({... */\n      dup2\n      mstore\n      0x20\n      add\n        /* \"contracts/LiskGarden.sol\":2595:2598  100 */\n      0x64\n        /* \"contracts/LiskGarden.sol\":2382:2665  Plant({... */\n      0xff\n      and\n      dup2\n      mstore\n      0x20\n      add\n        /* \"contracts/LiskGarden.sol\":2621:2625  true */\n      0x01\n        /* \"contracts/LiskGarden.sol\":2382:2665  Plant({... */\n      iszero\n      iszero\n      dup2\n      mstore\n      0x20\n      add\n        /* \"contracts/LiskGarden.sol\":2648:2653  false */\n      0x00\n        /* \"contracts/LiskGarden.sol\":2382:2665  Plant({... */\n      iszero\n      iszero\n      dup2\n      mstore\n      pop\n        /* \"contracts/LiskGarden.sol\":2365:2665  Plant memory p = Plant({... */\n      swap1\n      pop\n        /* \"contracts/LiskGarden.sol\":2694:2695  p */\n      dup1\n        /* \"contracts/LiskGarden.sol\":2678:2684  plants */\n      0x00\n        /* \"contracts/LiskGarden.sol\":2678:2691  plants[newId] */\n      0x00\n        /* \"contracts/LiskGarden.sol\":2685:2690  newId */\n      dup5\n        /* \"contracts/LiskGarden.sol\":2678:2691  plants[newId] */\n      dup2\n      mstore\n      0x20\n      add\n      swap1\n      dup2\n      mstore\n      0x20\n      add\n      0x00\n      keccak256\n        /* \"contracts/LiskGarden.sol\":2678:2695  plants[newId] = p */\n      0x00\n      dup3\n      add\n      mload\n      dup2\n      0x00\n      add\n      sstore\n      0x20\n      dup3\n      add\n      mload\n      dup2\n      0x01\n      add\n      exp(0x0100, 0x00)\n      dup2\n      sload\n      dup2\n      0xffffffffffffffffffffffffffffffffffffffff\n      mul\n      not\n      and\n      swap1\n      dup4\n      0xffffffffffffffffffffffffffffffffffffffff\n      and\n      mul\n      or\n      swap1\n      sstore\n      pop\n      0x40\n      dup3\n      add\n      mload\n      dup2\n      0x01\n      add\n      exp(0x0100, 0x14)\n      dup2\n      sload\n      dup2\n      0xff\n      mul\n      not\n      and\n      swap1\n      dup4\n      0x03\n      dup2\n      gt\n      iszero\n      tag_129\n      jumpi\n      tag_130\n      tag_128\n      jump\t// in\n    tag_130:\n    tag_129:\n      mul\n      or\n      swap1\n      sstore\n      pop\n      0x60\n      dup3\n      add\n      mload\n      dup2\n      0x02\n      add\n      sstore\n      0x80\n      dup3\n      add\n      mload\n      dup2\n      0x03\n      add\n      sstore\n      0xa0\n      dup3\n      add\n      mload\n      dup2\n      0x04\n      add\n      exp(0x0100, 0x00)\n      dup2\n      sload\n      dup2\n      0xff\n      mul\n      not\n      and\n      swap1\n      dup4\n      0xff\n      and\n      mul\n      or\n      swap1\n      sstore\n      pop\n      0xc0\n      dup3\n      add\n      mload\n      dup2\n      0x04\n      add\n      exp(0x0100, 0x01)\n      dup2\n      sload\n      dup2\n      0xff\n      mul\n      not\n      and\n      swap1\n      dup4\n      iszero\n      iszero\n      mul\n      or\n      swap1\n      sstore\n      pop\n      0xe0\n      dup3\n      add\n      mload\n      dup2\n      0x04\n      add\n      exp(0x0100, 0x02)\n      dup2\n      sload\n      dup2\n      0xff\n      mul\n      not\n      and\n      swap1\n      dup4\n      iszero\n      iszero\n      mul\n      or\n      swap1\n      sstore\n      pop\n      swap1\n      pop\n      pop\n        /* \"contracts/LiskGarden.sol\":2706:2716  userPlants */\n      0x01\n        /* \"contracts/LiskGarden.sol\":2706:2728  userPlants[msg.sender] */\n      0x00\n        /* \"contracts/LiskGarden.sol\":2717:2727  msg.sender */\n      caller\n        /* \"contracts/LiskGarden.sol\":2706:2728  userPlants[msg.sender] */\n      0xffffffffffffffffffffffffffffffffffffffff\n      and\n      0xffffffffffffffffffffffffffffffffffffffff\n      and\n      dup2\n      mstore\n      0x20\n      add\n      swap1\n      dup2\n      mstore\n      0x20\n      add\n      0x00\n      keccak256\n        /* \"contracts/LiskGarden.sol\":2734:2739  newId */\n      dup3\n        /* \"contracts/LiskGarden.sol\":2706:2740  userPlants[msg.sender].push(newId) */\n      swap1\n      dup1\n      0x01\n      dup2\n      sload\n      add\n      dup1\n      dup3\n      sstore\n      dup1\n      swap2\n      pop\n      pop\n      0x01\n      swap1\n      sub\n      swap1\n      0x00\n      mstore\n      keccak256(0x00, 0x20)\n      add\n      0x00\n      swap1\n      swap2\n      swap1\n      swap2\n      swap1\n      swap2\n      pop\n      sstore\n        /* \"contracts/LiskGarden.sol\":2782:2787  newId */\n      dup2\n        /* \"contracts/LiskGarden.sol\":2770:2780  msg.sender */\n      caller\n        /* \"contracts/LiskGarden.sol\":2758:2788  PlantSeeded(msg.sender, newId) */\n      0xffffffffffffffffffffffffffffffffffffffff\n      and\n      0x4f5b22082ac57121703b0b6c1203ef527cfbfa5069616fee6deb979d124adbf0\n      mload(0x40)\n      mload(0x40)\n      dup1\n      swap2\n      sub\n      swap1\n      log3\n        /* \"contracts/LiskGarden.sol\":2806:2811  newId */\n      dup2\n        /* \"contracts/LiskGarden.sol\":2799:2811  return newId */\n      swap3\n      pop\n      pop\n      pop\n        /* \"contracts/LiskGarden.sol\":2154:2819  function plantSeed() external payable returns (uint256) {... */\n      swap1\n      jump\t// out\n        /* \"contracts/LiskGarden.sol\":2975:3832  function calculateWaterLevel(uint256 plantId) public view returns (uint8) {... */\n    tag_47:\n        /* \"contracts/LiskGarden.sol\":3042:3047  uint8 */\n      0x00\n        /* \"contracts/LiskGarden.sol\":3060:3078  Plant memory plant */\n      0x00\n        /* \"contracts/LiskGarden.sol\":3081:3087  plants */\n      0x00\n        /* \"contracts/LiskGarden.sol\":3081:3096  plants[plantId] */\n      0x00\n        /* \"contracts/LiskGarden.sol\":3088:3095  plantId */\n      dup5\n        /* \"contracts/LiskGarden.sol\":3081:3096  plants[plantId] */\n      dup2\n      mstore\n      0x20\n      add\n      swap1\n      dup2\n      mstore\n      0x20\n      add\n      0x00\n      keccak256\n        /* \"contracts/LiskGarden.sol\":3060:3096  Plant memory plant = plants[plantId] */\n      mload(0x40)\n      dup1\n      0x0100\n      add\n      0x40\n      mstore\n      swap1\n      dup2\n      0x00\n      dup3\n      add\n      sload\n      dup2\n      mstore\n      0x20\n      add\n      0x01\n      dup3\n      add\n      0x00\n      swap1\n      sload\n      swap1\n      0x0100\n      exp\n      swap1\n      div\n      0xffffffffffffffffffffffffffffffffffffffff\n      and\n      0xffffffffffffffffffffffffffffffffffffffff\n      and\n      0xffffffffffffffffffffffffffffffffffffffff\n      and\n      dup2\n      mstore\n      0x20\n      add\n      0x01\n      dup3\n      add\n      0x14\n      swap1\n      sload\n      swap1\n      0x0100\n      exp\n      swap1\n      div\n      0xff\n      and\n      0x03\n      dup2\n      gt\n      iszero\n      tag_133\n      jumpi\n      tag_134\n      tag_128\n      jump\t// in\n    tag_134:\n    tag_133:\n      0x03\n      dup2\n      gt\n      iszero\n      tag_135\n      jumpi\n      tag_136\n      tag_128\n      jump\t// in\n    tag_136:\n    tag_135:\n      dup2\n      mstore\n      0x20\n      add\n      0x02\n      dup3\n      add\n      sload\n      dup2\n      mstore\n      0x20\n      add\n      0x03\n      dup3\n      add\n      sload\n      dup2\n      mstore\n      0x20\n      add\n      0x04\n      dup3\n      add\n      0x00\n      swap1\n      sload\n      swap1\n      0x0100\n      exp\n      swap1\n      div\n      0xff\n      and\n      0xff\n      and\n      0xff\n      and\n      dup2\n      mstore\n      0x20\n      add\n      0x04\n      dup3\n      add\n      0x01\n      swap1\n      sload\n      swap1\n      0x0100\n      exp\n      swap1\n      div\n      0xff\n      and\n      iszero\n      iszero\n      iszero\n      iszero\n      dup2\n      mstore\n      0x20\n      add\n      0x04\n      dup3\n      add\n      0x02\n      swap1\n      sload\n      swap1\n      0x0100\n      exp\n      swap1\n      div\n      0xff\n      and\n      iszero\n      iszero\n      iszero\n      iszero\n      dup2\n      mstore\n      pop\n      pop\n      swap1\n      pop\n        /* \"contracts/LiskGarden.sol\":3112:3117  plant */\n      dup1\n        /* \"contracts/LiskGarden.sol\":3112:3124  plant.exists */\n      0xc0\n      add\n      mload\n        /* \"contracts/LiskGarden.sol\":3111:3124  !plant.exists */\n      iszero\n        /* \"contracts/LiskGarden.sol\":3111:3140  !plant.exists || plant.isDead */\n      dup1\n      tag_137\n      jumpi\n      pop\n        /* \"contracts/LiskGarden.sol\":3128:3133  plant */\n      dup1\n        /* \"contracts/LiskGarden.sol\":3128:3140  plant.isDead */\n      0xe0\n      add\n      mload\n        /* \"contracts/LiskGarden.sol\":3111:3140  !plant.exists || plant.isDead */\n    tag_137:\n        /* \"contracts/LiskGarden.sol\":3107:3177  if (!plant.exists || plant.isDead) {... */\n      iszero\n      tag_138\n      jumpi\n        /* \"contracts/LiskGarden.sol\":3164:3165  0 */\n      0x00\n        /* \"contracts/LiskGarden.sol\":3157:3165  return 0 */\n      swap2\n      pop\n      pop\n      jump(tag_132)\n        /* \"contracts/LiskGarden.sol\":3107:3177  if (!plant.exists || plant.isDead) {... */\n    tag_138:\n        /* \"contracts/LiskGarden.sol\":3240:3260  uint256 currentLevel */\n      0x00\n        /* \"contracts/LiskGarden.sol\":3271:3276  plant */\n      dup2\n        /* \"contracts/LiskGarden.sol\":3271:3287  plant.waterLevel */\n      0xa0\n      add\n      mload\n        /* \"contracts/LiskGarden.sol\":3263:3288  uint256(plant.waterLevel) */\n      0xff\n      and\n        /* \"contracts/LiskGarden.sol\":3240:3288  uint256 currentLevel = uint256(plant.waterLevel) */\n      swap1\n      pop\n        /* \"contracts/LiskGarden.sol\":3324:3339  block.timestamp */\n      timestamp\n        /* \"contracts/LiskGarden.sol\":3303:3308  plant */\n      dup3\n        /* \"contracts/LiskGarden.sol\":3303:3320  plant.lastWatered */\n      0x80\n      add\n      mload\n        /* \"contracts/LiskGarden.sol\":3303:3339  plant.lastWatered >= block.timestamp */\n      lt\n        /* \"contracts/LiskGarden.sol\":3299:3425  if (plant.lastWatered >= block.timestamp) {... */\n      tag_139\n      jumpi\n        /* \"contracts/LiskGarden.sol\":3400:3412  currentLevel */\n      dup1\n        /* \"contracts/LiskGarden.sol\":3387:3413  return uint8(currentLevel) */\n      swap3\n      pop\n      pop\n      pop\n      jump(tag_132)\n        /* \"contracts/LiskGarden.sol\":3299:3425  if (plant.lastWatered >= block.timestamp) {... */\n    tag_139:\n        /* \"contracts/LiskGarden.sol\":3437:3461  uint256 timeSinceWatered */\n      0x00\n        /* \"contracts/LiskGarden.sol\":3482:3487  plant */\n      dup3\n        /* \"contracts/LiskGarden.sol\":3482:3499  plant.lastWatered */\n      0x80\n      add\n      mload\n        /* \"contracts/LiskGarden.sol\":3464:3479  block.timestamp */\n      timestamp\n        /* \"contracts/LiskGarden.sol\":3464:3499  block.timestamp - plant.lastWatered */\n      tag_140\n      swap2\n      swap1\n      tag_141\n      jump\t// in\n    tag_140:\n        /* \"contracts/LiskGarden.sol\":3437:3499  uint256 timeSinceWatered = block.timestamp - plant.lastWatered */\n      swap1\n      pop\n        /* \"contracts/LiskGarden.sol\":3510:3536  uint256 depletionIntervals */\n      0x00\n        /* \"contracts/LiskGarden.sol\":1203:1213  30 seconds */\n      0x1e\n        /* \"contracts/LiskGarden.sol\":3539:3555  timeSinceWatered */\n      dup3\n        /* \"contracts/LiskGarden.sol\":3539:3578  timeSinceWatered / WATER_DEPLETION_TIME */\n      tag_142\n      swap2\n      swap1\n      tag_143\n      jump\t// in\n    tag_142:\n        /* \"contracts/LiskGarden.sol\":3510:3578  uint256 depletionIntervals = timeSinceWatered / WATER_DEPLETION_TIME */\n      swap1\n      pop\n        /* \"contracts/LiskGarden.sol\":3589:3606  uint256 waterLost */\n      0x00\n        /* \"contracts/LiskGarden.sol\":1265:1266  2 */\n      0x02\n        /* \"contracts/LiskGarden.sol\":3630:3659  uint256(WATER_DEPLETION_RATE) */\n      0xff\n      and\n        /* \"contracts/LiskGarden.sol\":3609:3627  depletionIntervals */\n      dup3\n        /* \"contracts/LiskGarden.sol\":3609:3659  depletionIntervals * uint256(WATER_DEPLETION_RATE) */\n      tag_144\n      swap2\n      swap1\n      tag_145\n      jump\t// in\n    tag_144:\n        /* \"contracts/LiskGarden.sol\":3589:3659  uint256 waterLost = depletionIntervals * uint256(WATER_DEPLETION_RATE) */\n      swap1\n      pop\n        /* \"contracts/LiskGarden.sol\":3689:3701  currentLevel */\n      dup4\n        /* \"contracts/LiskGarden.sol\":3676:3685  waterLost */\n      dup2\n        /* \"contracts/LiskGarden.sol\":3676:3701  waterLost >= currentLevel */\n      lt\n        /* \"contracts/LiskGarden.sol\":3672:3738  if (waterLost >= currentLevel) {... */\n      tag_146\n      jumpi\n        /* \"contracts/LiskGarden.sol\":3725:3726  0 */\n      0x00\n        /* \"contracts/LiskGarden.sol\":3718:3726  return 0 */\n      swap6\n      pop\n      pop\n      pop\n      pop\n      pop\n      pop\n      jump(tag_132)\n        /* \"contracts/LiskGarden.sol\":3672:3738  if (waterLost >= currentLevel) {... */\n    tag_146:\n        /* \"contracts/LiskGarden.sol\":3748:3764  uint256 newLevel */\n      0x00\n        /* \"contracts/LiskGarden.sol\":3782:3791  waterLost */\n      dup2\n        /* \"contracts/LiskGarden.sol\":3767:3779  currentLevel */\n      dup6\n        /* \"contracts/LiskGarden.sol\":3767:3791  currentLevel - waterLost */\n      tag_147\n      swap2\n      swap1\n      tag_141\n      jump\t// in\n    tag_147:\n        /* \"contracts/LiskGarden.sol\":3748:3791  uint256 newLevel = currentLevel - waterLost */\n      swap1\n      pop\n        /* \"contracts/LiskGarden.sol\":3815:3823  newLevel */\n      dup1\n        /* \"contracts/LiskGarden.sol\":3802:3824  return uint8(newLevel) */\n      swap7\n      pop\n      pop\n      pop\n      pop\n      pop\n      pop\n      pop\n        /* \"contracts/LiskGarden.sol\":2975:3832  function calculateWaterLevel(uint256 plantId) public view returns (uint8) {... */\n    tag_132:\n      swap2\n      swap1\n      pop\n      jump\t// out\n        /* \"contracts/LiskGarden.sol\":1156:1213  uint256 public constant WATER_DEPLETION_TIME = 30 seconds */\n    tag_52:\n        /* \"contracts/LiskGarden.sol\":1203:1213  30 seconds */\n      0x1e\n        /* \"contracts/LiskGarden.sol\":1156:1213  uint256 public constant WATER_DEPLETION_TIME = 30 seconds */\n      dup2\n      jump\t// out\n        /* \"contracts/LiskGarden.sol\":1040:1092  uint256 public constant HARVEST_REWARD = 0.003 ether */\n    tag_56:\n        /* \"contracts/LiskGarden.sol\":1081:1092  0.003 ether */\n      0x0aa87bee538000\n        /* \"contracts/LiskGarden.sol\":1040:1092  uint256 public constant HARVEST_REWARD = 0.003 ether */\n      dup2\n      jump\t// out\n        /* \"contracts/LiskGarden.sol\":707:754  mapping(address => uint256[]) public userPlants */\n    tag_62:\n      mstore(0x20, 0x01)\n      dup2\n      0x00\n      mstore\n      keccak256(0x00, 0x40)\n      dup2\n      dup2\n      sload\n      dup2\n      lt\n      tag_148\n      jumpi\n      0x00\n      dup1\n      revert\n    tag_148:\n      swap1\n      0x00\n      mstore\n      keccak256(0x00, 0x20)\n      add\n      0x00\n      swap2\n      pop\n      swap2\n      pop\n      pop\n      sload\n      dup2\n      jump\t// out\n        /* \"contracts/LiskGarden.sol\":795:823  address payable public owner */\n    tag_66:\n      0x03\n      0x00\n      swap1\n      sload\n      swap1\n      0x0100\n      exp\n      swap1\n      div\n      0xffffffffffffffffffffffffffffffffffffffff\n      and\n      dup2\n      jump\t// out\n        /* \"contracts/LiskGarden.sol\":661:700  mapping(uint256 => Plant) public plants */\n    tag_72:\n      mstore(0x20, 0x00)\n      dup1\n      0x00\n      mstore\n      keccak256(0x00, 0x40)\n      0x00\n      swap2\n      pop\n      swap1\n      pop\n      dup1\n      0x00\n      add\n      sload\n      swap1\n      dup1\n      0x01\n      add\n      0x00\n      swap1\n      sload\n      swap1\n      0x0100\n      exp\n      swap1\n      div\n      0xffffffffffffffffffffffffffffffffffffffff\n      and\n      swap1\n      dup1\n      0x01\n      add\n      0x14\n      swap1\n      sload\n      swap1\n      0x0100\n      exp\n      swap1\n      div\n      0xff\n      and\n      swap1\n      dup1\n      0x02\n      add\n      sload\n      swap1\n      dup1\n      0x03\n      add\n      sload\n      swap1\n      dup1\n      0x04\n      add\n      0x00\n      swap1\n      sload\n      swap1\n      0x0100\n      exp\n      swap1\n      div\n      0xff\n      and\n      swap1\n      dup1\n      0x04\n      add\n      0x01\n      swap1\n      sload\n      swap1\n      0x0100\n      exp\n      swap1\n      div\n      0xff\n      and\n      swap1\n      dup1\n      0x04\n      add\n      0x02\n      swap1\n      sload\n      swap1\n      0x0100\n      exp\n      swap1\n      div\n      0xff\n      and\n      swap1\n      pop\n      dup9\n      jump\t// out\n        /* \"contracts/LiskGarden.sol\":4274:4821  function waterPlant(uint256 plantId) external {... */\n    tag_78:\n        /* \"contracts/LiskGarden.sol\":4331:4350  Plant storage plant */\n      0x00\n        /* \"contracts/LiskGarden.sol\":4353:4359  plants */\n      0x00\n        /* \"contracts/LiskGarden.sol\":4353:4368  plants[plantId] */\n      0x00\n        /* \"contracts/LiskGarden.sol\":4360:4367  plantId */\n      dup4\n        /* \"contracts/LiskGarden.sol\":4353:4368  plants[plantId] */\n      dup2\n      mstore\n      0x20\n      add\n      swap1\n      dup2\n      mstore\n      0x20\n      add\n      0x00\n      keccak256\n        /* \"contracts/LiskGarden.sol\":4331:4368  Plant storage plant = plants[plantId] */\n      swap1\n      pop\n        /* \"contracts/LiskGarden.sol\":4387:4392  plant */\n      dup1\n        /* \"contracts/LiskGarden.sol\":4387:4399  plant.exists */\n      0x04\n      add\n      0x01\n      swap1\n      sload\n      swap1\n      0x0100\n      exp\n      swap1\n      div\n      0xff\n      and\n        /* \"contracts/LiskGarden.sol\":4379:4419  require(plant.exists, \"Plant tidak ada\") */\n      tag_151\n      jumpi\n      mload(0x40)\n      0x08c379a000000000000000000000000000000000000000000000000000000000\n      dup2\n      mstore\n      0x04\n      add\n      tag_152\n      swap1\n      tag_153\n      jump\t// in\n    tag_152:\n      mload(0x40)\n      dup1\n      swap2\n      sub\n      swap1\n      revert\n    tag_151:\n        /* \"contracts/LiskGarden.sol\":4453:4463  msg.sender */\n      caller\n        /* \"contracts/LiskGarden.sol\":4438:4463  plant.owner == msg.sender */\n      0xffffffffffffffffffffffffffffffffffffffff\n      and\n        /* \"contracts/LiskGarden.sol\":4438:4443  plant */\n      dup2\n        /* \"contracts/LiskGarden.sol\":4438:4449  plant.owner */\n      0x01\n      add\n      0x00\n      swap1\n      sload\n      swap1\n      0x0100\n      exp\n      swap1\n      div\n      0xffffffffffffffffffffffffffffffffffffffff\n      and\n        /* \"contracts/LiskGarden.sol\":4438:4463  plant.owner == msg.sender */\n      0xffffffffffffffffffffffffffffffffffffffff\n      and\n      eq\n        /* \"contracts/LiskGarden.sol\":4430:4487  require(plant.owner == msg.sender, \"Bukan pemilik plant\") */\n      tag_154\n      jumpi\n      mload(0x40)\n      0x08c379a000000000000000000000000000000000000000000000000000000000\n      dup2\n      mstore\n      0x04\n      add\n      tag_155\n      swap1\n      tag_156\n      jump\t// in\n    tag_155:\n      mload(0x40)\n      dup1\n      swap2\n      sub\n      swap1\n      revert\n    tag_154:\n        /* \"contracts/LiskGarden.sol\":4507:4512  plant */\n      dup1\n        /* \"contracts/LiskGarden.sol\":4507:4519  plant.isDead */\n      0x04\n      add\n      0x02\n      swap1\n      sload\n      swap1\n      0x0100\n      exp\n      swap1\n      div\n      0xff\n      and\n        /* \"contracts/LiskGarden.sol\":4506:4519  !plant.isDead */\n      iszero\n        /* \"contracts/LiskGarden.sol\":4498:4540  require(!plant.isDead, \"Plant sudah mati\") */\n      tag_157\n      jumpi\n      mload(0x40)\n      0x08c379a000000000000000000000000000000000000000000000000000000000\n      dup2\n      mstore\n      0x04\n      add\n      tag_158\n      swap1\n      tag_159\n      jump\t// in\n    tag_158:\n      mload(0x40)\n      dup1\n      swap2\n      sub\n      swap1\n      revert\n    tag_157:\n        /* \"contracts/LiskGarden.sol\":4572:4575  100 */\n      0x64\n        /* \"contracts/LiskGarden.sol\":4553:4558  plant */\n      dup2\n        /* \"contracts/LiskGarden.sol\":4553:4569  plant.waterLevel */\n      0x04\n      add\n      0x00\n        /* \"contracts/LiskGarden.sol\":4553:4575  plant.waterLevel = 100 */\n      0x0100\n      exp\n      dup2\n      sload\n      dup2\n      0xff\n      mul\n      not\n      and\n      swap1\n      dup4\n      0xff\n      and\n      mul\n      or\n      swap1\n      sstore\n      pop\n        /* \"contracts/LiskGarden.sol\":4606:4621  block.timestamp */\n      timestamp\n        /* \"contracts/LiskGarden.sol\":4586:4591  plant */\n      dup2\n        /* \"contracts/LiskGarden.sol\":4586:4603  plant.lastWatered */\n      0x03\n      add\n        /* \"contracts/LiskGarden.sol\":4586:4621  plant.lastWatered = block.timestamp */\n      dup2\n      swap1\n      sstore\n      pop\n        /* \"contracts/LiskGarden.sol\":4652:4659  plantId */\n      dup2\n        /* \"contracts/LiskGarden.sol\":4639:4678  PlantWatered(plantId, plant.waterLevel) */\n      0xd4b742b9ba48fffa1f14267075a7793851770764117c423fd0a6550dfc8cb574\n        /* \"contracts/LiskGarden.sol\":4661:4666  plant */\n      dup3\n        /* \"contracts/LiskGarden.sol\":4661:4677  plant.waterLevel */\n      0x04\n      add\n      0x00\n      swap1\n      sload\n      swap1\n      0x0100\n      exp\n      swap1\n      div\n      0xff\n      and\n        /* \"contracts/LiskGarden.sol\":4639:4678  PlantWatered(plantId, plant.waterLevel) */\n      mload(0x40)\n      tag_160\n      swap2\n      swap1\n      tag_49\n      jump\t// in\n    tag_160:\n      mload(0x40)\n      dup1\n      swap2\n      sub\n      swap1\n      log2\n        /* \"contracts/LiskGarden.sol\":4788:4813  updatePlantStage(plantId) */\n      tag_161\n        /* \"contracts/LiskGarden.sol\":4805:4812  plantId */\n      dup3\n        /* \"contracts/LiskGarden.sol\":4788:4804  updatePlantStage */\n      tag_94\n        /* \"contracts/LiskGarden.sol\":4788:4813  updatePlantStage(plantId) */\n      jump\t// in\n    tag_161:\n        /* \"contracts/LiskGarden.sol\":4320:4821  {... */\n      pop\n        /* \"contracts/LiskGarden.sol\":4274:4821  function waterPlant(uint256 plantId) external {... */\n      pop\n      jump\t// out\n        /* \"contracts/LiskGarden.sol\":761:788  uint256 public plantCounter */\n    tag_81:\n      sload(0x02)\n      dup2\n      jump\t// out\n        /* \"contracts/LiskGarden.sol\":1220:1266  uint8 public constant WATER_DEPLETION_RATE = 2 */\n    tag_85:\n        /* \"contracts/LiskGarden.sol\":1265:1266  2 */\n      0x02\n        /* \"contracts/LiskGarden.sol\":1220:1266  uint8 public constant WATER_DEPLETION_RATE = 2 */\n      dup2\n      jump\t// out\n        /* \"contracts/LiskGarden.sol\":984:1033  uint256 public constant PLANT_PRICE = 0.001 ether */\n    tag_89:\n        /* \"contracts/LiskGarden.sol\":1022:1033  0.001 ether */\n      0x038d7ea4c68000\n        /* \"contracts/LiskGarden.sol\":984:1033  uint256 public constant PLANT_PRICE = 0.001 ether */\n      dup2\n      jump\t// out\n        /* \"contracts/LiskGarden.sol\":4980:5970  function updatePlantStage(uint256 plantId) public {... */\n    tag_94:\n        /* \"contracts/LiskGarden.sol\":5041:5060  Plant storage plant */\n      0x00\n        /* \"contracts/LiskGarden.sol\":5063:5069  plants */\n      0x00\n        /* \"contracts/LiskGarden.sol\":5063:5078  plants[plantId] */\n      0x00\n        /* \"contracts/LiskGarden.sol\":5070:5077  plantId */\n      dup4\n        /* \"contracts/LiskGarden.sol\":5063:5078  plants[plantId] */\n      dup2\n      mstore\n      0x20\n      add\n      swap1\n      dup2\n      mstore\n      0x20\n      add\n      0x00\n      keccak256\n        /* \"contracts/LiskGarden.sol\":5041:5078  Plant storage plant = plants[plantId] */\n      swap1\n      pop\n        /* \"contracts/LiskGarden.sol\":5097:5102  plant */\n      dup1\n        /* \"contracts/LiskGarden.sol\":5097:5109  plant.exists */\n      0x04\n      add\n      0x01\n      swap1\n      sload\n      swap1\n      0x0100\n      exp\n      swap1\n      div\n      0xff\n      and\n        /* \"contracts/LiskGarden.sol\":5089:5129  require(plant.exists, \"Plant tidak ada\") */\n      tag_163\n      jumpi\n      mload(0x40)\n      0x08c379a000000000000000000000000000000000000000000000000000000000\n      dup2\n      mstore\n      0x04\n      add\n      tag_164\n      swap1\n      tag_153\n      jump\t// in\n    tag_164:\n      mload(0x40)\n      dup1\n      swap2\n      sub\n      swap1\n      revert\n    tag_163:\n        /* \"contracts/LiskGarden.sol\":5188:5213  updateWaterLevel(plantId) */\n      tag_165\n        /* \"contracts/LiskGarden.sol\":5205:5212  plantId */\n      dup3\n        /* \"contracts/LiskGarden.sol\":5188:5204  updateWaterLevel */\n      tag_166\n        /* \"contracts/LiskGarden.sol\":5188:5213  updateWaterLevel(plantId) */\n      jump\t// in\n    tag_165:\n        /* \"contracts/LiskGarden.sol\":5228:5233  plant */\n      dup1\n        /* \"contracts/LiskGarden.sol\":5228:5240  plant.isDead */\n      0x04\n      add\n      0x02\n      swap1\n      sload\n      swap1\n      0x0100\n      exp\n      swap1\n      div\n      0xff\n      and\n        /* \"contracts/LiskGarden.sol\":5224:5275  if (plant.isDead) {... */\n      iszero\n      tag_167\n      jumpi\n        /* \"contracts/LiskGarden.sol\":5257:5264  return; */\n      pop\n      jump(tag_162)\n        /* \"contracts/LiskGarden.sol\":5224:5275  if (plant.isDead) {... */\n    tag_167:\n        /* \"contracts/LiskGarden.sol\":5287:5311  uint256 timeSincePlanted */\n      0x00\n        /* \"contracts/LiskGarden.sol\":5332:5337  plant */\n      dup2\n        /* \"contracts/LiskGarden.sol\":5332:5349  plant.plantedDate */\n      0x02\n      add\n      sload\n        /* \"contracts/LiskGarden.sol\":5314:5329  block.timestamp */\n      timestamp\n        /* \"contracts/LiskGarden.sol\":5314:5349  block.timestamp - plant.plantedDate */\n      tag_168\n      swap2\n      swap1\n      tag_141\n      jump\t// in\n    tag_168:\n        /* \"contracts/LiskGarden.sol\":5287:5349  uint256 timeSincePlanted = block.timestamp - plant.plantedDate */\n      swap1\n      pop\n        /* \"contracts/LiskGarden.sol\":5360:5380  GrowthStage oldStage */\n      0x00\n        /* \"contracts/LiskGarden.sol\":5383:5388  plant */\n      dup3\n        /* \"contracts/LiskGarden.sol\":5383:5394  plant.stage */\n      0x01\n      add\n      0x14\n      swap1\n      sload\n      swap1\n      0x0100\n      exp\n      swap1\n      div\n      0xff\n      and\n        /* \"contracts/LiskGarden.sol\":5360:5394  GrowthStage oldStage = plant.stage */\n      swap1\n      pop\n        /* \"contracts/LiskGarden.sol\":5405:5425  GrowthStage newStage */\n      0x00\n        /* \"contracts/LiskGarden.sol\":5428:5436  oldStage */\n      dup2\n        /* \"contracts/LiskGarden.sol\":5405:5436  GrowthStage newStage = oldStage */\n      swap1\n      pop\n        /* \"contracts/LiskGarden.sol\":1140:1149  1 minutes */\n      0x3c\n        /* \"contracts/LiskGarden.sol\":5473:5474  3 */\n      0x03\n        /* \"contracts/LiskGarden.sol\":5473:5491  3 * STAGE_DURATION */\n      tag_169\n      swap2\n      swap1\n      tag_145\n      jump\t// in\n    tag_169:\n        /* \"contracts/LiskGarden.sol\":5453:5469  timeSincePlanted */\n      dup4\n        /* \"contracts/LiskGarden.sol\":5453:5491  timeSincePlanted >= 3 * STAGE_DURATION */\n      lt\n        /* \"contracts/LiskGarden.sol\":5449:5824  if (timeSincePlanted >= 3 * STAGE_DURATION) {... */\n      tag_170\n      jumpi\n        /* \"contracts/LiskGarden.sol\":5519:5539  GrowthStage.BLOOMING */\n      0x03\n        /* \"contracts/LiskGarden.sol\":5508:5539  newStage = GrowthStage.BLOOMING */\n      swap1\n      pop\n        /* \"contracts/LiskGarden.sol\":5449:5824  if (timeSincePlanted >= 3 * STAGE_DURATION) {... */\n      jump(tag_171)\n    tag_170:\n        /* \"contracts/LiskGarden.sol\":1140:1149  1 minutes */\n      0x3c\n        /* \"contracts/LiskGarden.sol\":5581:5582  2 */\n      0x02\n        /* \"contracts/LiskGarden.sol\":5581:5599  2 * STAGE_DURATION */\n      tag_172\n      swap2\n      swap1\n      tag_145\n      jump\t// in\n    tag_172:\n        /* \"contracts/LiskGarden.sol\":5561:5577  timeSincePlanted */\n      dup4\n        /* \"contracts/LiskGarden.sol\":5561:5599  timeSincePlanted >= 2 * STAGE_DURATION */\n      lt\n        /* \"contracts/LiskGarden.sol\":5557:5824  if (timeSincePlanted >= 2 * STAGE_DURATION) {... */\n      tag_173\n      jumpi\n        /* \"contracts/LiskGarden.sol\":5627:5646  GrowthStage.GROWING */\n      0x02\n        /* \"contracts/LiskGarden.sol\":5616:5646  newStage = GrowthStage.GROWING */\n      swap1\n      pop\n        /* \"contracts/LiskGarden.sol\":5557:5824  if (timeSincePlanted >= 2 * STAGE_DURATION) {... */\n      jump(tag_174)\n    tag_173:\n        /* \"contracts/LiskGarden.sol\":1140:1149  1 minutes */\n      0x3c\n        /* \"contracts/LiskGarden.sol\":5688:5689  1 */\n      0x01\n        /* \"contracts/LiskGarden.sol\":5688:5706  1 * STAGE_DURATION */\n      tag_175\n      swap2\n      swap1\n      tag_145\n      jump\t// in\n    tag_175:\n        /* \"contracts/LiskGarden.sol\":5668:5684  timeSincePlanted */\n      dup4\n        /* \"contracts/LiskGarden.sol\":5668:5706  timeSincePlanted >= 1 * STAGE_DURATION */\n      lt\n        /* \"contracts/LiskGarden.sol\":5664:5824  if (timeSincePlanted >= 1 * STAGE_DURATION) {... */\n      tag_176\n      jumpi\n        /* \"contracts/LiskGarden.sol\":5734:5752  GrowthStage.SPROUT */\n      0x01\n        /* \"contracts/LiskGarden.sol\":5723:5752  newStage = GrowthStage.SPROUT */\n      swap1\n      pop\n        /* \"contracts/LiskGarden.sol\":5664:5824  if (timeSincePlanted >= 1 * STAGE_DURATION) {... */\n      jump(tag_177)\n    tag_176:\n        /* \"contracts/LiskGarden.sol\":5796:5812  GrowthStage.SEED */\n      0x00\n        /* \"contracts/LiskGarden.sol\":5785:5812  newStage = GrowthStage.SEED */\n      swap1\n      pop\n        /* \"contracts/LiskGarden.sol\":5664:5824  if (timeSincePlanted >= 1 * STAGE_DURATION) {... */\n    tag_177:\n        /* \"contracts/LiskGarden.sol\":5557:5824  if (timeSincePlanted >= 2 * STAGE_DURATION) {... */\n    tag_174:\n        /* \"contracts/LiskGarden.sol\":5449:5824  if (timeSincePlanted >= 3 * STAGE_DURATION) {... */\n    tag_171:\n        /* \"contracts/LiskGarden.sol\":5852:5860  oldStage */\n      dup2\n        /* \"contracts/LiskGarden.sol\":5840:5860  newStage != oldStage */\n      0x03\n      dup2\n      gt\n      iszero\n      tag_178\n      jumpi\n      tag_179\n      tag_128\n      jump\t// in\n    tag_179:\n    tag_178:\n        /* \"contracts/LiskGarden.sol\":5840:5848  newStage */\n      dup2\n        /* \"contracts/LiskGarden.sol\":5840:5860  newStage != oldStage */\n      0x03\n      dup2\n      gt\n      iszero\n      tag_180\n      jumpi\n      tag_181\n      tag_128\n      jump\t// in\n    tag_181:\n    tag_180:\n      eq\n        /* \"contracts/LiskGarden.sol\":5836:5963  if (newStage != oldStage) {... */\n      tag_182\n      jumpi\n        /* \"contracts/LiskGarden.sol\":5891:5899  newStage */\n      dup1\n        /* \"contracts/LiskGarden.sol\":5877:5882  plant */\n      dup5\n        /* \"contracts/LiskGarden.sol\":5877:5888  plant.stage */\n      0x01\n      add\n      0x14\n        /* \"contracts/LiskGarden.sol\":5877:5899  plant.stage = newStage */\n      0x0100\n      exp\n      dup2\n      sload\n      dup2\n      0xff\n      mul\n      not\n      and\n      swap1\n      dup4\n      0x03\n      dup2\n      gt\n      iszero\n      tag_183\n      jumpi\n      tag_184\n      tag_128\n      jump\t// in\n    tag_184:\n    tag_183:\n      mul\n      or\n      swap1\n      sstore\n      pop\n        /* \"contracts/LiskGarden.sol\":5933:5940  plantId */\n      dup5\n        /* \"contracts/LiskGarden.sol\":5919:5951  StageAdvanced(plantId, newStage) */\n      0x338b8976706f9da67298dddfa1ea4ff7d99cce68b9ca39c4f348994f8e2124a8\n        /* \"contracts/LiskGarden.sol\":5942:5950  newStage */\n      dup3\n        /* \"contracts/LiskGarden.sol\":5919:5951  StageAdvanced(plantId, newStage) */\n      mload(0x40)\n      tag_185\n      swap2\n      swap1\n      tag_186\n      jump\t// in\n    tag_185:\n      mload(0x40)\n      dup1\n      swap2\n      sub\n      swap1\n      log2\n        /* \"contracts/LiskGarden.sol\":5836:5963  if (newStage != oldStage) {... */\n    tag_182:\n        /* \"contracts/LiskGarden.sol\":5030:5970  {... */\n      pop\n      pop\n      pop\n      pop\n        /* \"contracts/LiskGarden.sol\":4980:5970  function updatePlantStage(uint256 plantId) public {... */\n    tag_162:\n      pop\n      jump\t// out\n        /* \"contracts/LiskGarden.sol\":5978:6763  function harvestPlant(uint256 plantId) external {... */\n    tag_98:\n        /* \"contracts/LiskGarden.sol\":6037:6056  Plant storage plant */\n      0x00\n        /* \"contracts/LiskGarden.sol\":6059:6065  plants */\n      0x00\n        /* \"contracts/LiskGarden.sol\":6059:6074  plants[plantId] */\n      0x00\n        /* \"contracts/LiskGarden.sol\":6066:6073  plantId */\n      dup4\n        /* \"contracts/LiskGarden.sol\":6059:6074  plants[plantId] */\n      dup2\n      mstore\n      0x20\n      add\n      swap1\n      dup2\n      mstore\n      0x20\n      add\n      0x00\n      keccak256\n        /* \"contracts/LiskGarden.sol\":6037:6074  Plant storage plant = plants[plantId] */\n      swap1\n      pop\n        /* \"contracts/LiskGarden.sol\":6093:6098  plant */\n      dup1\n        /* \"contracts/LiskGarden.sol\":6093:6105  plant.exists */\n      0x04\n      add\n      0x01\n      swap1\n      sload\n      swap1\n      0x0100\n      exp\n      swap1\n      div\n      0xff\n      and\n        /* \"contracts/LiskGarden.sol\":6085:6125  require(plant.exists, \"Plant tidak ada\") */\n      tag_188\n      jumpi\n      mload(0x40)\n      0x08c379a000000000000000000000000000000000000000000000000000000000\n      dup2\n      mstore\n      0x04\n      add\n      tag_189\n      swap1\n      tag_153\n      jump\t// in\n    tag_189:\n      mload(0x40)\n      dup1\n      swap2\n      sub\n      swap1\n      revert\n    tag_188:\n        /* \"contracts/LiskGarden.sol\":6159:6169  msg.sender */\n      caller\n        /* \"contracts/LiskGarden.sol\":6144:6169  plant.owner == msg.sender */\n      0xffffffffffffffffffffffffffffffffffffffff\n      and\n        /* \"contracts/LiskGarden.sol\":6144:6149  plant */\n      dup2\n        /* \"contracts/LiskGarden.sol\":6144:6155  plant.owner */\n      0x01\n      add\n      0x00\n      swap1\n      sload\n      swap1\n      0x0100\n      exp\n      swap1\n      div\n      0xffffffffffffffffffffffffffffffffffffffff\n      and\n        /* \"contracts/LiskGarden.sol\":6144:6169  plant.owner == msg.sender */\n      0xffffffffffffffffffffffffffffffffffffffff\n      and\n      eq\n        /* \"contracts/LiskGarden.sol\":6136:6193  require(plant.owner == msg.sender, \"Bukan pemilik plant\") */\n      tag_190\n      jumpi\n      mload(0x40)\n      0x08c379a000000000000000000000000000000000000000000000000000000000\n      dup2\n      mstore\n      0x04\n      add\n      tag_191\n      swap1\n      tag_156\n      jump\t// in\n    tag_191:\n      mload(0x40)\n      dup1\n      swap2\n      sub\n      swap1\n      revert\n    tag_190:\n        /* \"contracts/LiskGarden.sol\":6213:6218  plant */\n      dup1\n        /* \"contracts/LiskGarden.sol\":6213:6225  plant.isDead */\n      0x04\n      add\n      0x02\n      swap1\n      sload\n      swap1\n      0x0100\n      exp\n      swap1\n      div\n      0xff\n      and\n        /* \"contracts/LiskGarden.sol\":6212:6225  !plant.isDead */\n      iszero\n        /* \"contracts/LiskGarden.sol\":6204:6246  require(!plant.isDead, \"Plant sudah mati\") */\n      tag_192\n      jumpi\n      mload(0x40)\n      0x08c379a000000000000000000000000000000000000000000000000000000000\n      dup2\n      mstore\n      0x04\n      add\n      tag_193\n      swap1\n      tag_159\n      jump\t// in\n    tag_193:\n      mload(0x40)\n      dup1\n      swap2\n      sub\n      swap1\n      revert\n    tag_192:\n        /* \"contracts/LiskGarden.sol\":6259:6284  updatePlantStage(plantId) */\n      tag_194\n        /* \"contracts/LiskGarden.sol\":6276:6283  plantId */\n      dup3\n        /* \"contracts/LiskGarden.sol\":6259:6275  updatePlantStage */\n      tag_94\n        /* \"contracts/LiskGarden.sol\":6259:6284  updatePlantStage(plantId) */\n      jump\t// in\n    tag_194:\n        /* \"contracts/LiskGarden.sol\":6318:6338  GrowthStage.BLOOMING */\n      0x03\n        /* \"contracts/LiskGarden.sol\":6303:6338  plant.stage == GrowthStage.BLOOMING */\n      dup1\n      dup2\n      gt\n      iszero\n      tag_195\n      jumpi\n      tag_196\n      tag_128\n      jump\t// in\n    tag_196:\n    tag_195:\n        /* \"contracts/LiskGarden.sol\":6303:6308  plant */\n      dup2\n        /* \"contracts/LiskGarden.sol\":6303:6314  plant.stage */\n      0x01\n      add\n      0x14\n      swap1\n      sload\n      swap1\n      0x0100\n      exp\n      swap1\n      div\n      0xff\n      and\n        /* \"contracts/LiskGarden.sol\":6303:6338  plant.stage == GrowthStage.BLOOMING */\n      0x03\n      dup2\n      gt\n      iszero\n      tag_197\n      jumpi\n      tag_198\n      tag_128\n      jump\t// in\n    tag_198:\n    tag_197:\n      eq\n        /* \"contracts/LiskGarden.sol\":6295:6363  require(plant.stage == GrowthStage.BLOOMING, \"Plant belum blooming\") */\n      tag_199\n      jumpi\n      mload(0x40)\n      0x08c379a000000000000000000000000000000000000000000000000000000000\n      dup2\n      mstore\n      0x04\n      add\n      tag_200\n      swap1\n      tag_201\n      jump\t// in\n    tag_200:\n      mload(0x40)\n      dup1\n      swap2\n      sub\n      swap1\n      revert\n    tag_199:\n        /* \"contracts/LiskGarden.sol\":6416:6421  false */\n      0x00\n        /* \"contracts/LiskGarden.sol\":6401:6406  plant */\n      dup2\n        /* \"contracts/LiskGarden.sol\":6401:6413  plant.exists */\n      0x04\n      add\n      0x01\n        /* \"contracts/LiskGarden.sol\":6401:6421  plant.exists = false */\n      0x0100\n      exp\n      dup2\n      sload\n      dup2\n      0xff\n      mul\n      not\n      and\n      swap1\n      dup4\n      iszero\n      iszero\n      mul\n      or\n      swap1\n      sstore\n      pop\n        /* \"contracts/LiskGarden.sol\":6463:6473  msg.sender */\n      caller\n        /* \"contracts/LiskGarden.sol\":6439:6490  PlantHarvested(plantId, msg.sender, HARVEST_REWARD) */\n      0xffffffffffffffffffffffffffffffffffffffff\n      and\n        /* \"contracts/LiskGarden.sol\":6454:6461  plantId */\n      dup3\n        /* \"contracts/LiskGarden.sol\":6439:6490  PlantHarvested(plantId, msg.sender, HARVEST_REWARD) */\n      0x79f2138ea100070ff95b59c265da7aa3c7a0f61595fe1bb2f5fda2762f398847\n        /* \"contracts/LiskGarden.sol\":1081:1092  0.003 ether */\n      0x0aa87bee538000\n        /* \"contracts/LiskGarden.sol\":6439:6490  PlantHarvested(plantId, msg.sender, HARVEST_REWARD) */\n      mload(0x40)\n      tag_202\n      swap2\n      swap1\n      tag_39\n      jump\t// in\n    tag_202:\n      mload(0x40)\n      dup1\n      swap2\n      sub\n      swap1\n      log3\n        /* \"contracts/LiskGarden.sol\":1081:1092  0.003 ether */\n      0x0aa87bee538000\n        /* \"contracts/LiskGarden.sol\":6547:6568  address(this).balance */\n      selfbalance\n        /* \"contracts/LiskGarden.sol\":6547:6586  address(this).balance >= HARVEST_REWARD */\n      lt\n      iszero\n        /* \"contracts/LiskGarden.sol\":6539:6622  require(address(this).balance >= HARVEST_REWARD, \"Kontrak tidak punya cukup saldo\") */\n      tag_203\n      jumpi\n      mload(0x40)\n      0x08c379a000000000000000000000000000000000000000000000000000000000\n      dup2\n      mstore\n      0x04\n      add\n      tag_204\n      swap1\n      tag_205\n      jump\t// in\n    tag_204:\n      mload(0x40)\n      dup1\n      swap2\n      sub\n      swap1\n      revert\n    tag_203:\n        /* \"contracts/LiskGarden.sol\":6634:6646  bool success */\n      0x00\n        /* \"contracts/LiskGarden.sol\":6660:6670  msg.sender */\n      caller\n        /* \"contracts/LiskGarden.sol\":6652:6676  payable(msg.sender).call */\n      0xffffffffffffffffffffffffffffffffffffffff\n      and\n        /* \"contracts/LiskGarden.sol\":1081:1092  0.003 ether */\n      0x0aa87bee538000\n        /* \"contracts/LiskGarden.sol\":6652:6703  payable(msg.sender).call{value: HARVEST_REWARD}(\"\") */\n      mload(0x40)\n      tag_206\n      swap1\n      tag_113\n      jump\t// in\n    tag_206:\n      0x00\n      mload(0x40)\n      dup1\n      dup4\n      sub\n      dup2\n      dup6\n      dup8\n      gas\n      call\n      swap3\n      pop\n      pop\n      pop\n      returndatasize\n      dup1\n      0x00\n      dup2\n      eq\n      tag_209\n      jumpi\n      mload(0x40)\n      swap2\n      pop\n      and(add(returndatasize, 0x3f), not(0x1f))\n      dup3\n      add\n      0x40\n      mstore\n      returndatasize\n      dup3\n      mstore\n      returndatasize\n      0x00\n      0x20\n      dup5\n      add\n      returndatacopy\n      jump(tag_208)\n    tag_209:\n      0x60\n      swap2\n      pop\n    tag_208:\n      pop\n        /* \"contracts/LiskGarden.sol\":6633:6703  (bool success, ) = payable(msg.sender).call{value: HARVEST_REWARD}(\"\") */\n      pop\n      swap1\n      pop\n        /* \"contracts/LiskGarden.sol\":6722:6729  success */\n      dup1\n        /* \"contracts/LiskGarden.sol\":6714:6755  require(success, \"Transfer reward gagal\") */\n      tag_210\n      jumpi\n      mload(0x40)\n      0x08c379a000000000000000000000000000000000000000000000000000000000\n      dup2\n      mstore\n      0x04\n      add\n      tag_211\n      swap1\n      tag_212\n      jump\t// in\n    tag_211:\n      mload(0x40)\n      dup1\n      swap2\n      sub\n      swap1\n      revert\n    tag_210:\n        /* \"contracts/LiskGarden.sol\":6026:6763  {... */\n      pop\n      pop\n        /* \"contracts/LiskGarden.sol\":5978:6763  function harvestPlant(uint256 plantId) external {... */\n      pop\n      jump\t// out\n        /* \"contracts/LiskGarden.sol\":6918:7126  function getPlant(uint256 plantId) external view returns (Plant memory) {... */\n    tag_102:\n        /* \"contracts/LiskGarden.sol\":6976:6988  Plant memory */\n      tag_213\n      tag_214\n      jump\t// in\n    tag_213:\n        /* \"contracts/LiskGarden.sol\":7001:7019  Plant memory plant */\n      0x00\n        /* \"contracts/LiskGarden.sol\":7022:7028  plants */\n      0x00\n        /* \"contracts/LiskGarden.sol\":7022:7037  plants[plantId] */\n      0x00\n        /* \"contracts/LiskGarden.sol\":7029:7036  plantId */\n      dup5\n        /* \"contracts/LiskGarden.sol\":7022:7037  plants[plantId] */\n      dup2\n      mstore\n      0x20\n      add\n      swap1\n      dup2\n      mstore\n      0x20\n      add\n      0x00\n      keccak256\n        /* \"contracts/LiskGarden.sol\":7001:7037  Plant memory plant = plants[plantId] */\n      mload(0x40)\n      dup1\n      0x0100\n      add\n      0x40\n      mstore\n      swap1\n      dup2\n      0x00\n      dup3\n      add\n      sload\n      dup2\n      mstore\n      0x20\n      add\n      0x01\n      dup3\n      add\n      0x00\n      swap1\n      sload\n      swap1\n      0x0100\n      exp\n      swap1\n      div\n      0xffffffffffffffffffffffffffffffffffffffff\n      and\n      0xffffffffffffffffffffffffffffffffffffffff\n      and\n      0xffffffffffffffffffffffffffffffffffffffff\n      and\n      dup2\n      mstore\n      0x20\n      add\n      0x01\n      dup3\n      add\n      0x14\n      swap1\n      sload\n      swap1\n      0x0100\n      exp\n      swap1\n      div\n      0xff\n      and\n      0x03\n      dup2\n      gt\n      iszero\n      tag_216\n      jumpi\n      tag_217\n      tag_128\n      jump\t// in\n    tag_217:\n    tag_216:\n      0x03\n      dup2\n      gt\n      iszero\n      tag_218\n      jumpi\n      tag_219\n      tag_128\n      jump\t// in\n    tag_219:\n    tag_218:\n      dup2\n      mstore\n      0x20\n      add\n      0x02\n      dup3\n      add\n      sload\n      dup2\n      mstore\n      0x20\n      add\n      0x03\n      dup3\n      add\n      sload\n      dup2\n      mstore\n      0x20\n      add\n      0x04\n      dup3\n      add\n      0x00\n      swap1\n      sload\n      swap1\n      0x0100\n      exp\n      swap1\n      div\n      0xff\n      and\n      0xff\n      and\n      0xff\n      and\n      dup2\n      mstore\n      0x20\n      add\n      0x04\n      dup3\n      add\n      0x01\n      swap1\n      sload\n      swap1\n      0x0100\n      exp\n      swap1\n      div\n      0xff\n      and\n      iszero\n      iszero\n      iszero\n      iszero\n      dup2\n      mstore\n      0x20\n      add\n      0x04\n      dup3\n      add\n      0x02\n      swap1\n      sload\n      swap1\n      0x0100\n      exp\n      swap1\n      div\n      0xff\n      and\n      iszero\n      iszero\n      iszero\n      iszero\n      dup2\n      mstore\n      pop\n      pop\n      swap1\n      pop\n        /* \"contracts/LiskGarden.sol\":7067:7095  calculateWaterLevel(plantId) */\n      tag_220\n        /* \"contracts/LiskGarden.sol\":7087:7094  plantId */\n      dup4\n        /* \"contracts/LiskGarden.sol\":7067:7086  calculateWaterLevel */\n      tag_47\n        /* \"contracts/LiskGarden.sol\":7067:7095  calculateWaterLevel(plantId) */\n      jump\t// in\n    tag_220:\n        /* \"contracts/LiskGarden.sol\":7048:7053  plant */\n      dup2\n        /* \"contracts/LiskGarden.sol\":7048:7064  plant.waterLevel */\n      0xa0\n      add\n        /* \"contracts/LiskGarden.sol\":7048:7095  plant.waterLevel = calculateWaterLevel(plantId) */\n      swap1\n      0xff\n      and\n      swap1\n      dup2\n      0xff\n      and\n      dup2\n      mstore\n      pop\n      pop\n        /* \"contracts/LiskGarden.sol\":7113:7118  plant */\n      dup1\n        /* \"contracts/LiskGarden.sol\":7106:7118  return plant */\n      swap2\n      pop\n      pop\n        /* \"contracts/LiskGarden.sol\":6918:7126  function getPlant(uint256 plantId) external view returns (Plant memory) {... */\n      swap2\n      swap1\n      pop\n      jump\t// out\n        /* \"contracts/LiskGarden.sol\":3840:4266  function updateWaterLevel(uint256 plantId) internal {... */\n    tag_166:\n        /* \"contracts/LiskGarden.sol\":3903:3922  Plant storage plant */\n      0x00\n        /* \"contracts/LiskGarden.sol\":3925:3931  plants */\n      0x00\n        /* \"contracts/LiskGarden.sol\":3925:3940  plants[plantId] */\n      0x00\n        /* \"contracts/LiskGarden.sol\":3932:3939  plantId */\n      dup4\n        /* \"contracts/LiskGarden.sol\":3925:3940  plants[plantId] */\n      dup2\n      mstore\n      0x20\n      add\n      swap1\n      dup2\n      mstore\n      0x20\n      add\n      0x00\n      keccak256\n        /* \"contracts/LiskGarden.sol\":3903:3940  Plant storage plant = plants[plantId] */\n      swap1\n      pop\n        /* \"contracts/LiskGarden.sol\":3956:3961  plant */\n      dup1\n        /* \"contracts/LiskGarden.sol\":3956:3968  plant.exists */\n      0x04\n      add\n      0x01\n      swap1\n      sload\n      swap1\n      0x0100\n      exp\n      swap1\n      div\n      0xff\n      and\n        /* \"contracts/LiskGarden.sol\":3955:3968  !plant.exists */\n      iszero\n        /* \"contracts/LiskGarden.sol\":3955:3984  !plant.exists || plant.isDead */\n      dup1\n      tag_222\n      jumpi\n      pop\n        /* \"contracts/LiskGarden.sol\":3972:3977  plant */\n      dup1\n        /* \"contracts/LiskGarden.sol\":3972:3984  plant.isDead */\n      0x04\n      add\n      0x02\n      swap1\n      sload\n      swap1\n      0x0100\n      exp\n      swap1\n      div\n      0xff\n      and\n        /* \"contracts/LiskGarden.sol\":3955:3984  !plant.exists || plant.isDead */\n    tag_222:\n        /* \"contracts/LiskGarden.sol\":3951:4019  if (!plant.exists || plant.isDead) {... */\n      iszero\n      tag_223\n      jumpi\n        /* \"contracts/LiskGarden.sol\":4001:4008  return; */\n      pop\n      jump(tag_221)\n        /* \"contracts/LiskGarden.sol\":3951:4019  if (!plant.exists || plant.isDead) {... */\n    tag_223:\n        /* \"contracts/LiskGarden.sol\":4031:4049  uint8 currentWater */\n      0x00\n        /* \"contracts/LiskGarden.sol\":4052:4080  calculateWaterLevel(plantId) */\n      tag_224\n        /* \"contracts/LiskGarden.sol\":4072:4079  plantId */\n      dup4\n        /* \"contracts/LiskGarden.sol\":4052:4071  calculateWaterLevel */\n      tag_47\n        /* \"contracts/LiskGarden.sol\":4052:4080  calculateWaterLevel(plantId) */\n      jump\t// in\n    tag_224:\n        /* \"contracts/LiskGarden.sol\":4031:4080  uint8 currentWater = calculateWaterLevel(plantId) */\n      swap1\n      pop\n        /* \"contracts/LiskGarden.sol\":4110:4122  currentWater */\n      dup1\n        /* \"contracts/LiskGarden.sol\":4091:4096  plant */\n      dup3\n        /* \"contracts/LiskGarden.sol\":4091:4107  plant.waterLevel */\n      0x04\n      add\n      0x00\n        /* \"contracts/LiskGarden.sol\":4091:4122  plant.waterLevel = currentWater */\n      0x0100\n      exp\n      dup2\n      sload\n      dup2\n      0xff\n      mul\n      not\n      and\n      swap1\n      dup4\n      0xff\n      and\n      mul\n      or\n      swap1\n      sstore\n      pop\n        /* \"contracts/LiskGarden.sol\":4155:4156  0 */\n      0x00\n        /* \"contracts/LiskGarden.sol\":4139:4151  currentWater */\n      dup2\n        /* \"contracts/LiskGarden.sol\":4139:4156  currentWater == 0 */\n      0xff\n      and\n      eq\n        /* \"contracts/LiskGarden.sol\":4139:4173  currentWater == 0 && !plant.isDead */\n      dup1\n      iszero\n      tag_225\n      jumpi\n      pop\n        /* \"contracts/LiskGarden.sol\":4161:4166  plant */\n      dup2\n        /* \"contracts/LiskGarden.sol\":4161:4173  plant.isDead */\n      0x04\n      add\n      0x02\n      swap1\n      sload\n      swap1\n      0x0100\n      exp\n      swap1\n      div\n      0xff\n      and\n        /* \"contracts/LiskGarden.sol\":4160:4173  !plant.isDead */\n      iszero\n        /* \"contracts/LiskGarden.sol\":4139:4173  currentWater == 0 && !plant.isDead */\n    tag_225:\n        /* \"contracts/LiskGarden.sol\":4135:4259  if (currentWater == 0 && !plant.isDead) {... */\n      iszero\n      tag_226\n      jumpi\n        /* \"contracts/LiskGarden.sol\":4205:4209  true */\n      0x01\n        /* \"contracts/LiskGarden.sol\":4190:4195  plant */\n      dup3\n        /* \"contracts/LiskGarden.sol\":4190:4202  plant.isDead */\n      0x04\n      add\n      0x02\n        /* \"contracts/LiskGarden.sol\":4190:4209  plant.isDead = true */\n      0x0100\n      exp\n      dup2\n      sload\n      dup2\n      0xff\n      mul\n      not\n      and\n      swap1\n      dup4\n      iszero\n      iszero\n      mul\n      or\n      swap1\n      sstore\n      pop\n        /* \"contracts/LiskGarden.sol\":4239:4246  plantId */\n      dup3\n        /* \"contracts/LiskGarden.sol\":4229:4247  PlantDied(plantId) */\n      0xcc296a21951f3e57f21afb08547d835a0a9f0f06cc2867009cbe0cae44d36be9\n      mload(0x40)\n      mload(0x40)\n      dup1\n      swap2\n      sub\n      swap1\n      log2\n        /* \"contracts/LiskGarden.sol\":4135:4259  if (currentWater == 0 && !plant.isDead) {... */\n    tag_226:\n        /* \"contracts/LiskGarden.sol\":3892:4266  {... */\n      pop\n      pop\n        /* \"contracts/LiskGarden.sol\":3840:4266  function updateWaterLevel(uint256 plantId) internal {... */\n    tag_221:\n      pop\n      jump\t// out\n    tag_214:\n      mload(0x40)\n      dup1\n      0x0100\n      add\n      0x40\n      mstore\n      dup1\n      0x00\n      dup2\n      mstore\n      0x20\n      add\n      and(0xffffffffffffffffffffffffffffffffffffffff, 0x00)\n      dup2\n      mstore\n      0x20\n      add\n      0x00\n      0x03\n      dup2\n      gt\n      iszero\n      tag_227\n      jumpi\n      tag_228\n      tag_128\n      jump\t// in\n    tag_228:\n    tag_227:\n      dup2\n      mstore\n      0x20\n      add\n      0x00\n      dup2\n      mstore\n      0x20\n      add\n      0x00\n      dup2\n      mstore\n      0x20\n      add\n      and(0xff, 0x00)\n      dup2\n      mstore\n      0x20\n      add\n      iszero(iszero(0x00))\n      dup2\n      mstore\n      0x20\n      add\n      iszero(iszero(0x00))\n      dup2\n      mstore\n      pop\n      swap1\n      jump\t// out\n        /* \"#utility.yul\":88:205   */\n    tag_230:\n        /* \"#utility.yul\":197:198   */\n      0x00\n        /* \"#utility.yul\":194:195   */\n      0x00\n        /* \"#utility.yul\":187:199   */\n      revert\n        /* \"#utility.yul\":334:460   */\n    tag_232:\n        /* \"#utility.yul\":371:378   */\n      0x00\n        /* \"#utility.yul\":411:453   */\n      0xffffffffffffffffffffffffffffffffffffffff\n        /* \"#utility.yul\":404:409   */\n      dup3\n        /* \"#utility.yul\":400:454   */\n      and\n        /* \"#utility.yul\":389:454   */\n      swap1\n      pop\n        /* \"#utility.yul\":334:460   */\n      swap2\n      swap1\n      pop\n      jump\t// out\n        /* \"#utility.yul\":466:562   */\n    tag_233:\n        /* \"#utility.yul\":503:510   */\n      0x00\n        /* \"#utility.yul\":532:556   */\n      tag_293\n        /* \"#utility.yul\":550:555   */\n      dup3\n        /* \"#utility.yul\":532:556   */\n      tag_232\n      jump\t// in\n    tag_293:\n        /* \"#utility.yul\":521:556   */\n      swap1\n      pop\n        /* \"#utility.yul\":466:562   */\n      swap2\n      swap1\n      pop\n      jump\t// out\n        /* \"#utility.yul\":568:690   */\n    tag_234:\n        /* \"#utility.yul\":641:665   */\n      tag_295\n        /* \"#utility.yul\":659:664   */\n      dup2\n        /* \"#utility.yul\":641:665   */\n      tag_233\n      jump\t// in\n    tag_295:\n        /* \"#utility.yul\":634:639   */\n      dup2\n        /* \"#utility.yul\":631:666   */\n      eq\n        /* \"#utility.yul\":621:684   */\n      tag_296\n      jumpi\n        /* \"#utility.yul\":680:681   */\n      0x00\n        /* \"#utility.yul\":677:678   */\n      0x00\n        /* \"#utility.yul\":670:682   */\n      revert\n        /* \"#utility.yul\":621:684   */\n    tag_296:\n        /* \"#utility.yul\":568:690   */\n      pop\n      jump\t// out\n        /* \"#utility.yul\":696:835   */\n    tag_235:\n        /* \"#utility.yul\":742:747   */\n      0x00\n        /* \"#utility.yul\":780:786   */\n      dup2\n        /* \"#utility.yul\":767:787   */\n      calldataload\n        /* \"#utility.yul\":758:787   */\n      swap1\n      pop\n        /* \"#utility.yul\":796:829   */\n      tag_298\n        /* \"#utility.yul\":823:828   */\n      dup2\n        /* \"#utility.yul\":796:829   */\n      tag_234\n      jump\t// in\n    tag_298:\n        /* \"#utility.yul\":696:835   */\n      swap3\n      swap2\n      pop\n      pop\n      jump\t// out\n        /* \"#utility.yul\":841:1170   */\n    tag_28:\n        /* \"#utility.yul\":900:906   */\n      0x00\n        /* \"#utility.yul\":949:951   */\n      0x20\n        /* \"#utility.yul\":937:946   */\n      dup3\n        /* \"#utility.yul\":928:935   */\n      dup5\n        /* \"#utility.yul\":924:947   */\n      sub\n        /* \"#utility.yul\":920:952   */\n      slt\n        /* \"#utility.yul\":917:1036   */\n      iszero\n      tag_300\n      jumpi\n        /* \"#utility.yul\":955:1034   */\n      tag_301\n      tag_230\n      jump\t// in\n    tag_301:\n        /* \"#utility.yul\":917:1036   */\n    tag_300:\n        /* \"#utility.yul\":1075:1076   */\n      0x00\n        /* \"#utility.yul\":1100:1153   */\n      tag_302\n        /* \"#utility.yul\":1145:1152   */\n      dup5\n        /* \"#utility.yul\":1136:1142   */\n      dup3\n        /* \"#utility.yul\":1125:1134   */\n      dup6\n        /* \"#utility.yul\":1121:1143   */\n      add\n        /* \"#utility.yul\":1100:1153   */\n      tag_235\n      jump\t// in\n    tag_302:\n        /* \"#utility.yul\":1090:1153   */\n      swap2\n      pop\n        /* \"#utility.yul\":1046:1163   */\n      pop\n        /* \"#utility.yul\":841:1170   */\n      swap3\n      swap2\n      pop\n      pop\n      jump\t// out\n        /* \"#utility.yul\":1176:1290   */\n    tag_236:\n        /* \"#utility.yul\":1243:1249   */\n      0x00\n        /* \"#utility.yul\":1277:1282   */\n      dup2\n        /* \"#utility.yul\":1271:1283   */\n      mload\n        /* \"#utility.yul\":1261:1283   */\n      swap1\n      pop\n        /* \"#utility.yul\":1176:1290   */\n      swap2\n      swap1\n      pop\n      jump\t// out\n        /* \"#utility.yul\":1296:1480   */\n    tag_237:\n        /* \"#utility.yul\":1395:1406   */\n      0x00\n        /* \"#utility.yul\":1429:1435   */\n      dup3\n        /* \"#utility.yul\":1424:1427   */\n      dup3\n        /* \"#utility.yul\":1417:1436   */\n      mstore\n        /* \"#utility.yul\":1469:1473   */\n      0x20\n        /* \"#utility.yul\":1464:1467   */\n      dup3\n        /* \"#utility.yul\":1460:1474   */\n      add\n        /* \"#utility.yul\":1445:1474   */\n      swap1\n      pop\n        /* \"#utility.yul\":1296:1480   */\n      swap3\n      swap2\n      pop\n      pop\n      jump\t// out\n        /* \"#utility.yul\":1486:1618   */\n    tag_238:\n        /* \"#utility.yul\":1553:1557   */\n      0x00\n        /* \"#utility.yul\":1576:1579   */\n      dup2\n        /* \"#utility.yul\":1568:1579   */\n      swap1\n      pop\n        /* \"#utility.yul\":1606:1610   */\n      0x20\n        /* \"#utility.yul\":1601:1604   */\n      dup3\n        /* \"#utility.yul\":1597:1611   */\n      add\n        /* \"#utility.yul\":1589:1611   */\n      swap1\n      pop\n        /* \"#utility.yul\":1486:1618   */\n      swap2\n      swap1\n      pop\n      jump\t// out\n        /* \"#utility.yul\":1624:1701   */\n    tag_239:\n        /* \"#utility.yul\":1661:1668   */\n      0x00\n        /* \"#utility.yul\":1690:1695   */\n      dup2\n        /* \"#utility.yul\":1679:1695   */\n      swap1\n      pop\n        /* \"#utility.yul\":1624:1701   */\n      swap2\n      swap1\n      pop\n      jump\t// out\n        /* \"#utility.yul\":1707:1815   */\n    tag_240:\n        /* \"#utility.yul\":1784:1808   */\n      tag_308\n        /* \"#utility.yul\":1802:1807   */\n      dup2\n        /* \"#utility.yul\":1784:1808   */\n      tag_239\n      jump\t// in\n    tag_308:\n        /* \"#utility.yul\":1779:1782   */\n      dup3\n        /* \"#utility.yul\":1772:1809   */\n      mstore\n        /* \"#utility.yul\":1707:1815   */\n      pop\n      pop\n      jump\t// out\n        /* \"#utility.yul\":1821:2000   */\n    tag_241:\n        /* \"#utility.yul\":1890:1900   */\n      0x00\n        /* \"#utility.yul\":1911:1957   */\n      tag_310\n        /* \"#utility.yul\":1953:1956   */\n      dup4\n        /* \"#utility.yul\":1945:1951   */\n      dup4\n        /* \"#utility.yul\":1911:1957   */\n      tag_240\n      jump\t// in\n    tag_310:\n        /* \"#utility.yul\":1989:1993   */\n      0x20\n        /* \"#utility.yul\":1984:1987   */\n      dup4\n        /* \"#utility.yul\":1980:1994   */\n      add\n        /* \"#utility.yul\":1966:1994   */\n      swap1\n      pop\n        /* \"#utility.yul\":1821:2000   */\n      swap3\n      swap2\n      pop\n      pop\n      jump\t// out\n        /* \"#utility.yul\":2006:2119   */\n    tag_242:\n        /* \"#utility.yul\":2076:2080   */\n      0x00\n        /* \"#utility.yul\":2108:2112   */\n      0x20\n        /* \"#utility.yul\":2103:2106   */\n      dup3\n        /* \"#utility.yul\":2099:2113   */\n      add\n        /* \"#utility.yul\":2091:2113   */\n      swap1\n      pop\n        /* \"#utility.yul\":2006:2119   */\n      swap2\n      swap1\n      pop\n      jump\t// out\n        /* \"#utility.yul\":2155:2887   */\n    tag_243:\n        /* \"#utility.yul\":2274:2277   */\n      0x00\n        /* \"#utility.yul\":2303:2357   */\n      tag_313\n        /* \"#utility.yul\":2351:2356   */\n      dup3\n        /* \"#utility.yul\":2303:2357   */\n      tag_236\n      jump\t// in\n    tag_313:\n        /* \"#utility.yul\":2373:2459   */\n      tag_314\n        /* \"#utility.yul\":2452:2458   */\n      dup2\n        /* \"#utility.yul\":2447:2450   */\n      dup6\n        /* \"#utility.yul\":2373:2459   */\n      tag_237\n      jump\t// in\n    tag_314:\n        /* \"#utility.yul\":2366:2459   */\n      swap4\n      pop\n        /* \"#utility.yul\":2483:2539   */\n      tag_315\n        /* \"#utility.yul\":2533:2538   */\n      dup4\n        /* \"#utility.yul\":2483:2539   */\n      tag_238\n      jump\t// in\n    tag_315:\n        /* \"#utility.yul\":2562:2569   */\n      dup1\n        /* \"#utility.yul\":2593:2594   */\n      0x00\n        /* \"#utility.yul\":2578:2862   */\n    tag_316:\n        /* \"#utility.yul\":2603:2609   */\n      dup4\n        /* \"#utility.yul\":2600:2601   */\n      dup2\n        /* \"#utility.yul\":2597:2610   */\n      lt\n        /* \"#utility.yul\":2578:2862   */\n      iszero\n      tag_318\n      jumpi\n        /* \"#utility.yul\":2679:2685   */\n      dup2\n        /* \"#utility.yul\":2673:2686   */\n      mload\n        /* \"#utility.yul\":2706:2769   */\n      tag_319\n        /* \"#utility.yul\":2765:2768   */\n      dup9\n        /* \"#utility.yul\":2750:2763   */\n      dup3\n        /* \"#utility.yul\":2706:2769   */\n      tag_241\n      jump\t// in\n    tag_319:\n        /* \"#utility.yul\":2699:2769   */\n      swap8\n      pop\n        /* \"#utility.yul\":2792:2852   */\n      tag_320\n        /* \"#utility.yul\":2845:2851   */\n      dup4\n        /* \"#utility.yul\":2792:2852   */\n      tag_242\n      jump\t// in\n    tag_320:\n        /* \"#utility.yul\":2782:2852   */\n      swap3\n      pop\n        /* \"#utility.yul\":2638:2862   */\n      pop\n        /* \"#utility.yul\":2625:2626   */\n      0x01\n        /* \"#utility.yul\":2622:2623   */\n      dup2\n        /* \"#utility.yul\":2618:2627   */\n      add\n        /* \"#utility.yul\":2613:2627   */\n      swap1\n      pop\n        /* \"#utility.yul\":2578:2862   */\n      jump(tag_316)\n    tag_318:\n        /* \"#utility.yul\":2582:2596   */\n      pop\n        /* \"#utility.yul\":2878:2881   */\n      dup6\n        /* \"#utility.yul\":2871:2881   */\n      swap4\n      pop\n        /* \"#utility.yul\":2279:2887   */\n      pop\n      pop\n      pop\n        /* \"#utility.yul\":2155:2887   */\n      swap3\n      swap2\n      pop\n      pop\n      jump\t// out\n        /* \"#utility.yul\":2893:3266   */\n    tag_31:\n        /* \"#utility.yul\":3036:3040   */\n      0x00\n        /* \"#utility.yul\":3074:3076   */\n      0x20\n        /* \"#utility.yul\":3063:3072   */\n      dup3\n        /* \"#utility.yul\":3059:3077   */\n      add\n        /* \"#utility.yul\":3051:3077   */\n      swap1\n      pop\n        /* \"#utility.yul\":3123:3132   */\n      dup2\n        /* \"#utility.yul\":3117:3121   */\n      dup2\n        /* \"#utility.yul\":3113:3133   */\n      sub\n        /* \"#utility.yul\":3109:3110   */\n      0x00\n        /* \"#utility.yul\":3098:3107   */\n      dup4\n        /* \"#utility.yul\":3094:3111   */\n      add\n        /* \"#utility.yul\":3087:3134   */\n      mstore\n        /* \"#utility.yul\":3151:3259   */\n      tag_322\n        /* \"#utility.yul\":3254:3258   */\n      dup2\n        /* \"#utility.yul\":3245:3251   */\n      dup5\n        /* \"#utility.yul\":3151:3259   */\n      tag_243\n      jump\t// in\n    tag_322:\n        /* \"#utility.yul\":3143:3259   */\n      swap1\n      pop\n        /* \"#utility.yul\":2893:3266   */\n      swap3\n      swap2\n      pop\n      pop\n      jump\t// out\n        /* \"#utility.yul\":3272:3390   */\n    tag_244:\n        /* \"#utility.yul\":3359:3383   */\n      tag_324\n        /* \"#utility.yul\":3377:3382   */\n      dup2\n        /* \"#utility.yul\":3359:3383   */\n      tag_239\n      jump\t// in\n    tag_324:\n        /* \"#utility.yul\":3354:3357   */\n      dup3\n        /* \"#utility.yul\":3347:3384   */\n      mstore\n        /* \"#utility.yul\":3272:3390   */\n      pop\n      pop\n      jump\t// out\n        /* \"#utility.yul\":3396:3618   */\n    tag_39:\n        /* \"#utility.yul\":3489:3493   */\n      0x00\n        /* \"#utility.yul\":3527:3529   */\n      0x20\n        /* \"#utility.yul\":3516:3525   */\n      dup3\n        /* \"#utility.yul\":3512:3530   */\n      add\n        /* \"#utility.yul\":3504:3530   */\n      swap1\n      pop\n        /* \"#utility.yul\":3540:3611   */\n      tag_326\n        /* \"#utility.yul\":3608:3609   */\n      0x00\n        /* \"#utility.yul\":3597:3606   */\n      dup4\n        /* \"#utility.yul\":3593:3610   */\n      add\n        /* \"#utility.yul\":3584:3590   */\n      dup5\n        /* \"#utility.yul\":3540:3611   */\n      tag_244\n      jump\t// in\n    tag_326:\n        /* \"#utility.yul\":3396:3618   */\n      swap3\n      swap2\n      pop\n      pop\n      jump\t// out\n        /* \"#utility.yul\":3624:3746   */\n    tag_245:\n        /* \"#utility.yul\":3697:3721   */\n      tag_328\n        /* \"#utility.yul\":3715:3720   */\n      dup2\n        /* \"#utility.yul\":3697:3721   */\n      tag_239\n      jump\t// in\n    tag_328:\n        /* \"#utility.yul\":3690:3695   */\n      dup2\n        /* \"#utility.yul\":3687:3722   */\n      eq\n        /* \"#utility.yul\":3677:3740   */\n      tag_329\n      jumpi\n        /* \"#utility.yul\":3736:3737   */\n      0x00\n        /* \"#utility.yul\":3733:3734   */\n      0x00\n        /* \"#utility.yul\":3726:3738   */\n      revert\n        /* \"#utility.yul\":3677:3740   */\n    tag_329:\n        /* \"#utility.yul\":3624:3746   */\n      pop\n      jump\t// out\n        /* \"#utility.yul\":3752:3891   */\n    tag_246:\n        /* \"#utility.yul\":3798:3803   */\n      0x00\n        /* \"#utility.yul\":3836:3842   */\n      dup2\n        /* \"#utility.yul\":3823:3843   */\n      calldataload\n        /* \"#utility.yul\":3814:3843   */\n      swap1\n      pop\n        /* \"#utility.yul\":3852:3885   */\n      tag_331\n        /* \"#utility.yul\":3879:3884   */\n      dup2\n        /* \"#utility.yul\":3852:3885   */\n      tag_245\n      jump\t// in\n    tag_331:\n        /* \"#utility.yul\":3752:3891   */\n      swap3\n      swap2\n      pop\n      pop\n      jump\t// out\n        /* \"#utility.yul\":3897:4226   */\n    tag_46:\n        /* \"#utility.yul\":3956:3962   */\n      0x00\n        /* \"#utility.yul\":4005:4007   */\n      0x20\n        /* \"#utility.yul\":3993:4002   */\n      dup3\n        /* \"#utility.yul\":3984:3991   */\n      dup5\n        /* \"#utility.yul\":3980:4003   */\n      sub\n        /* \"#utility.yul\":3976:4008   */\n      slt\n        /* \"#utility.yul\":3973:4092   */\n      iszero\n      tag_333\n      jumpi\n        /* \"#utility.yul\":4011:4090   */\n      tag_334\n      tag_230\n      jump\t// in\n    tag_334:\n        /* \"#utility.yul\":3973:4092   */\n    tag_333:\n        /* \"#utility.yul\":4131:4132   */\n      0x00\n        /* \"#utility.yul\":4156:4209   */\n      tag_335\n        /* \"#utility.yul\":4201:4208   */\n      dup5\n        /* \"#utility.yul\":4192:4198   */\n      dup3\n        /* \"#utility.yul\":4181:4190   */\n      dup6\n        /* \"#utility.yul\":4177:4199   */\n      add\n        /* \"#utility.yul\":4156:4209   */\n      tag_246\n      jump\t// in\n    tag_335:\n        /* \"#utility.yul\":4146:4209   */\n      swap2\n      pop\n        /* \"#utility.yul\":4102:4219   */\n      pop\n        /* \"#utility.yul\":3897:4226   */\n      swap3\n      swap2\n      pop\n      pop\n      jump\t// out\n        /* \"#utility.yul\":4232:4318   */\n    tag_247:\n        /* \"#utility.yul\":4267:4274   */\n      0x00\n        /* \"#utility.yul\":4307:4311   */\n      0xff\n        /* \"#utility.yul\":4300:4305   */\n      dup3\n        /* \"#utility.yul\":4296:4312   */\n      and\n        /* \"#utility.yul\":4285:4312   */\n      swap1\n      pop\n        /* \"#utility.yul\":4232:4318   */\n      swap2\n      swap1\n      pop\n      jump\t// out\n        /* \"#utility.yul\":4324:4436   */\n    tag_248:\n        /* \"#utility.yul\":4407:4429   */\n      tag_338\n        /* \"#utility.yul\":4423:4428   */\n      dup2\n        /* \"#utility.yul\":4407:4429   */\n      tag_247\n      jump\t// in\n    tag_338:\n        /* \"#utility.yul\":4402:4405   */\n      dup3\n        /* \"#utility.yul\":4395:4430   */\n      mstore\n        /* \"#utility.yul\":4324:4436   */\n      pop\n      pop\n      jump\t// out\n        /* \"#utility.yul\":4442:4656   */\n    tag_49:\n        /* \"#utility.yul\":4531:4535   */\n      0x00\n        /* \"#utility.yul\":4569:4571   */\n      0x20\n        /* \"#utility.yul\":4558:4567   */\n      dup3\n        /* \"#utility.yul\":4554:4572   */\n      add\n        /* \"#utility.yul\":4546:4572   */\n      swap1\n      pop\n        /* \"#utility.yul\":4582:4649   */\n      tag_340\n        /* \"#utility.yul\":4646:4647   */\n      0x00\n        /* \"#utility.yul\":4635:4644   */\n      dup4\n        /* \"#utility.yul\":4631:4648   */\n      add\n        /* \"#utility.yul\":4622:4628   */\n      dup5\n        /* \"#utility.yul\":4582:4649   */\n      tag_248\n      jump\t// in\n    tag_340:\n        /* \"#utility.yul\":4442:4656   */\n      swap3\n      swap2\n      pop\n      pop\n      jump\t// out\n        /* \"#utility.yul\":4662:5136   */\n    tag_61:\n        /* \"#utility.yul\":4730:4736   */\n      0x00\n        /* \"#utility.yul\":4738:4744   */\n      0x00\n        /* \"#utility.yul\":4787:4789   */\n      0x40\n        /* \"#utility.yul\":4775:4784   */\n      dup4\n        /* \"#utility.yul\":4766:4773   */\n      dup6\n        /* \"#utility.yul\":4762:4785   */\n      sub\n        /* \"#utility.yul\":4758:4790   */\n      slt\n        /* \"#utility.yul\":4755:4874   */\n      iszero\n      tag_342\n      jumpi\n        /* \"#utility.yul\":4793:4872   */\n      tag_343\n      tag_230\n      jump\t// in\n    tag_343:\n        /* \"#utility.yul\":4755:4874   */\n    tag_342:\n        /* \"#utility.yul\":4913:4914   */\n      0x00\n        /* \"#utility.yul\":4938:4991   */\n      tag_344\n        /* \"#utility.yul\":4983:4990   */\n      dup6\n        /* \"#utility.yul\":4974:4980   */\n      dup3\n        /* \"#utility.yul\":4963:4972   */\n      dup7\n        /* \"#utility.yul\":4959:4981   */\n      add\n        /* \"#utility.yul\":4938:4991   */\n      tag_235\n      jump\t// in\n    tag_344:\n        /* \"#utility.yul\":4928:4991   */\n      swap3\n      pop\n        /* \"#utility.yul\":4884:5001   */\n      pop\n        /* \"#utility.yul\":5040:5042   */\n      0x20\n        /* \"#utility.yul\":5066:5119   */\n      tag_345\n        /* \"#utility.yul\":5111:5118   */\n      dup6\n        /* \"#utility.yul\":5102:5108   */\n      dup3\n        /* \"#utility.yul\":5091:5100   */\n      dup7\n        /* \"#utility.yul\":5087:5109   */\n      add\n        /* \"#utility.yul\":5066:5119   */\n      tag_246\n      jump\t// in\n    tag_345:\n        /* \"#utility.yul\":5056:5119   */\n      swap2\n      pop\n        /* \"#utility.yul\":5011:5129   */\n      pop\n        /* \"#utility.yul\":4662:5136   */\n      swap3\n      pop\n      swap3\n      swap1\n      pop\n      jump\t// out\n        /* \"#utility.yul\":5142:5246   */\n    tag_249:\n        /* \"#utility.yul\":5187:5194   */\n      0x00\n        /* \"#utility.yul\":5216:5240   */\n      tag_347\n        /* \"#utility.yul\":5234:5239   */\n      dup3\n        /* \"#utility.yul\":5216:5240   */\n      tag_232\n      jump\t// in\n    tag_347:\n        /* \"#utility.yul\":5205:5240   */\n      swap1\n      pop\n        /* \"#utility.yul\":5142:5246   */\n      swap2\n      swap1\n      pop\n      jump\t// out\n        /* \"#utility.yul\":5252:5394   */\n    tag_250:\n        /* \"#utility.yul\":5355:5387   */\n      tag_349\n        /* \"#utility.yul\":5381:5386   */\n      dup2\n        /* \"#utility.yul\":5355:5387   */\n      tag_249\n      jump\t// in\n    tag_349:\n        /* \"#utility.yul\":5350:5353   */\n      dup3\n        /* \"#utility.yul\":5343:5388   */\n      mstore\n        /* \"#utility.yul\":5252:5394   */\n      pop\n      pop\n      jump\t// out\n        /* \"#utility.yul\":5400:5654   */\n    tag_68:\n        /* \"#utility.yul\":5509:5513   */\n      0x00\n        /* \"#utility.yul\":5547:5549   */\n      0x20\n        /* \"#utility.yul\":5536:5545   */\n      dup3\n        /* \"#utility.yul\":5532:5550   */\n      add\n        /* \"#utility.yul\":5524:5550   */\n      swap1\n      pop\n        /* \"#utility.yul\":5560:5647   */\n      tag_351\n        /* \"#utility.yul\":5644:5645   */\n      0x00\n        /* \"#utility.yul\":5633:5642   */\n      dup4\n        /* \"#utility.yul\":5629:5646   */\n      add\n        /* \"#utility.yul\":5620:5626   */\n      dup5\n        /* \"#utility.yul\":5560:5647   */\n      tag_250\n      jump\t// in\n    tag_351:\n        /* \"#utility.yul\":5400:5654   */\n      swap3\n      swap2\n      pop\n      pop\n      jump\t// out\n        /* \"#utility.yul\":5660:5778   */\n    tag_251:\n        /* \"#utility.yul\":5747:5771   */\n      tag_353\n        /* \"#utility.yul\":5765:5770   */\n      dup2\n        /* \"#utility.yul\":5747:5771   */\n      tag_233\n      jump\t// in\n    tag_353:\n        /* \"#utility.yul\":5742:5745   */\n      dup3\n        /* \"#utility.yul\":5735:5772   */\n      mstore\n        /* \"#utility.yul\":5660:5778   */\n      pop\n      pop\n      jump\t// out\n        /* \"#utility.yul\":5784:5964   */\n    tag_128:\n        /* \"#utility.yul\":5832:5909   */\n      0x4e487b7100000000000000000000000000000000000000000000000000000000\n        /* \"#utility.yul\":5829:5830   */\n      0x00\n        /* \"#utility.yul\":5822:5910   */\n      mstore\n        /* \"#utility.yul\":5929:5933   */\n      0x21\n        /* \"#utility.yul\":5926:5927   */\n      0x04\n        /* \"#utility.yul\":5919:5934   */\n      mstore\n        /* \"#utility.yul\":5953:5957   */\n      0x24\n        /* \"#utility.yul\":5950:5951   */\n      0x00\n        /* \"#utility.yul\":5943:5958   */\n      revert\n        /* \"#utility.yul\":5970:6088   */\n    tag_252:\n        /* \"#utility.yul\":6056:6057   */\n      0x04\n        /* \"#utility.yul\":6049:6054   */\n      dup2\n        /* \"#utility.yul\":6046:6058   */\n      lt\n        /* \"#utility.yul\":6036:6082   */\n      tag_356\n      jumpi\n        /* \"#utility.yul\":6062:6080   */\n      tag_357\n      tag_128\n      jump\t// in\n    tag_357:\n        /* \"#utility.yul\":6036:6082   */\n    tag_356:\n        /* \"#utility.yul\":5970:6088   */\n      pop\n      jump\t// out\n        /* \"#utility.yul\":6094:6231   */\n    tag_253:\n        /* \"#utility.yul\":6144:6151   */\n      0x00\n        /* \"#utility.yul\":6173:6178   */\n      dup2\n        /* \"#utility.yul\":6162:6178   */\n      swap1\n      pop\n        /* \"#utility.yul\":6179:6225   */\n      tag_359\n        /* \"#utility.yul\":6219:6224   */\n      dup3\n        /* \"#utility.yul\":6179:6225   */\n      tag_252\n      jump\t// in\n    tag_359:\n        /* \"#utility.yul\":6094:6231   */\n      swap2\n      swap1\n      pop\n      jump\t// out\n        /* \"#utility.yul\":6237:6374   */\n    tag_254:\n        /* \"#utility.yul\":6298:6307   */\n      0x00\n        /* \"#utility.yul\":6331:6368   */\n      tag_361\n        /* \"#utility.yul\":6362:6367   */\n      dup3\n        /* \"#utility.yul\":6331:6368   */\n      tag_253\n      jump\t// in\n    tag_361:\n        /* \"#utility.yul\":6318:6368   */\n      swap1\n      pop\n        /* \"#utility.yul\":6237:6374   */\n      swap2\n      swap1\n      pop\n      jump\t// out\n        /* \"#utility.yul\":6380:6533   */\n    tag_255:\n        /* \"#utility.yul\":6478:6526   */\n      tag_363\n        /* \"#utility.yul\":6520:6525   */\n      dup2\n        /* \"#utility.yul\":6478:6526   */\n      tag_254\n      jump\t// in\n    tag_363:\n        /* \"#utility.yul\":6473:6476   */\n      dup3\n        /* \"#utility.yul\":6466:6527   */\n      mstore\n        /* \"#utility.yul\":6380:6533   */\n      pop\n      pop\n      jump\t// out\n        /* \"#utility.yul\":6539:6629   */\n    tag_256:\n        /* \"#utility.yul\":6573:6580   */\n      0x00\n        /* \"#utility.yul\":6616:6621   */\n      dup2\n        /* \"#utility.yul\":6609:6622   */\n      iszero\n        /* \"#utility.yul\":6602:6623   */\n      iszero\n        /* \"#utility.yul\":6591:6623   */\n      swap1\n      pop\n        /* \"#utility.yul\":6539:6629   */\n      swap2\n      swap1\n      pop\n      jump\t// out\n        /* \"#utility.yul\":6635:6744   */\n    tag_257:\n        /* \"#utility.yul\":6716:6737   */\n      tag_366\n        /* \"#utility.yul\":6731:6736   */\n      dup2\n        /* \"#utility.yul\":6716:6737   */\n      tag_256\n      jump\t// in\n    tag_366:\n        /* \"#utility.yul\":6711:6714   */\n      dup3\n        /* \"#utility.yul\":6704:6738   */\n      mstore\n        /* \"#utility.yul\":6635:6744   */\n      pop\n      pop\n      jump\t// out\n        /* \"#utility.yul\":6750:7737   */\n    tag_74:\n        /* \"#utility.yul\":7034:7038   */\n      0x00\n        /* \"#utility.yul\":7072:7075   */\n      0x0100\n        /* \"#utility.yul\":7061:7070   */\n      dup3\n        /* \"#utility.yul\":7057:7076   */\n      add\n        /* \"#utility.yul\":7049:7076   */\n      swap1\n      pop\n        /* \"#utility.yul\":7086:7157   */\n      tag_368\n        /* \"#utility.yul\":7154:7155   */\n      0x00\n        /* \"#utility.yul\":7143:7152   */\n      dup4\n        /* \"#utility.yul\":7139:7156   */\n      add\n        /* \"#utility.yul\":7130:7136   */\n      dup12\n        /* \"#utility.yul\":7086:7157   */\n      tag_244\n      jump\t// in\n    tag_368:\n        /* \"#utility.yul\":7167:7239   */\n      tag_369\n        /* \"#utility.yul\":7235:7237   */\n      0x20\n        /* \"#utility.yul\":7224:7233   */\n      dup4\n        /* \"#utility.yul\":7220:7238   */\n      add\n        /* \"#utility.yul\":7211:7217   */\n      dup11\n        /* \"#utility.yul\":7167:7239   */\n      tag_251\n      jump\t// in\n    tag_369:\n        /* \"#utility.yul\":7249:7332   */\n      tag_370\n        /* \"#utility.yul\":7328:7330   */\n      0x40\n        /* \"#utility.yul\":7317:7326   */\n      dup4\n        /* \"#utility.yul\":7313:7331   */\n      add\n        /* \"#utility.yul\":7304:7310   */\n      dup10\n        /* \"#utility.yul\":7249:7332   */\n      tag_255\n      jump\t// in\n    tag_370:\n        /* \"#utility.yul\":7342:7414   */\n      tag_371\n        /* \"#utility.yul\":7410:7412   */\n      0x60\n        /* \"#utility.yul\":7399:7408   */\n      dup4\n        /* \"#utility.yul\":7395:7413   */\n      add\n        /* \"#utility.yul\":7386:7392   */\n      dup9\n        /* \"#utility.yul\":7342:7414   */\n      tag_244\n      jump\t// in\n    tag_371:\n        /* \"#utility.yul\":7424:7497   */\n      tag_372\n        /* \"#utility.yul\":7492:7495   */\n      0x80\n        /* \"#utility.yul\":7481:7490   */\n      dup4\n        /* \"#utility.yul\":7477:7496   */\n      add\n        /* \"#utility.yul\":7468:7474   */\n      dup8\n        /* \"#utility.yul\":7424:7497   */\n      tag_244\n      jump\t// in\n    tag_372:\n        /* \"#utility.yul\":7507:7576   */\n      tag_373\n        /* \"#utility.yul\":7571:7574   */\n      0xa0\n        /* \"#utility.yul\":7560:7569   */\n      dup4\n        /* \"#utility.yul\":7556:7575   */\n      add\n        /* \"#utility.yul\":7547:7553   */\n      dup7\n        /* \"#utility.yul\":7507:7576   */\n      tag_248\n      jump\t// in\n    tag_373:\n        /* \"#utility.yul\":7586:7653   */\n      tag_374\n        /* \"#utility.yul\":7648:7651   */\n      0xc0\n        /* \"#utility.yul\":7637:7646   */\n      dup4\n        /* \"#utility.yul\":7633:7652   */\n      add\n        /* \"#utility.yul\":7624:7630   */\n      dup6\n        /* \"#utility.yul\":7586:7653   */\n      tag_257\n      jump\t// in\n    tag_374:\n        /* \"#utility.yul\":7663:7730   */\n      tag_375\n        /* \"#utility.yul\":7725:7728   */\n      0xe0\n        /* \"#utility.yul\":7714:7723   */\n      dup4\n        /* \"#utility.yul\":7710:7729   */\n      add\n        /* \"#utility.yul\":7701:7707   */\n      dup5\n        /* \"#utility.yul\":7663:7730   */\n      tag_257\n      jump\t// in\n    tag_375:\n        /* \"#utility.yul\":6750:7737   */\n      swap10\n      swap9\n      pop\n      pop\n      pop\n      pop\n      pop\n      pop\n      pop\n      pop\n      pop\n      jump\t// out\n        /* \"#utility.yul\":7743:7851   */\n    tag_258:\n        /* \"#utility.yul\":7820:7844   */\n      tag_377\n        /* \"#utility.yul\":7838:7843   */\n      dup2\n        /* \"#utility.yul\":7820:7844   */\n      tag_233\n      jump\t// in\n    tag_377:\n        /* \"#utility.yul\":7815:7818   */\n      dup3\n        /* \"#utility.yul\":7808:7845   */\n      mstore\n        /* \"#utility.yul\":7743:7851   */\n      pop\n      pop\n      jump\t// out\n        /* \"#utility.yul\":7857:8000   */\n    tag_259:\n        /* \"#utility.yul\":7945:7993   */\n      tag_379\n        /* \"#utility.yul\":7987:7992   */\n      dup2\n        /* \"#utility.yul\":7945:7993   */\n      tag_254\n      jump\t// in\n    tag_379:\n        /* \"#utility.yul\":7940:7943   */\n      dup3\n        /* \"#utility.yul\":7933:7994   */\n      mstore\n        /* \"#utility.yul\":7857:8000   */\n      pop\n      pop\n      jump\t// out\n        /* \"#utility.yul\":8006:8108   */\n    tag_260:\n        /* \"#utility.yul\":8079:8101   */\n      tag_381\n        /* \"#utility.yul\":8095:8100   */\n      dup2\n        /* \"#utility.yul\":8079:8101   */\n      tag_247\n      jump\t// in\n    tag_381:\n        /* \"#utility.yul\":8074:8077   */\n      dup3\n        /* \"#utility.yul\":8067:8102   */\n      mstore\n        /* \"#utility.yul\":8006:8108   */\n      pop\n      pop\n      jump\t// out\n        /* \"#utility.yul\":8114:8213   */\n    tag_261:\n        /* \"#utility.yul\":8185:8206   */\n      tag_383\n        /* \"#utility.yul\":8200:8205   */\n      dup2\n        /* \"#utility.yul\":8185:8206   */\n      tag_256\n      jump\t// in\n    tag_383:\n        /* \"#utility.yul\":8180:8183   */\n      dup3\n        /* \"#utility.yul\":8173:8207   */\n      mstore\n        /* \"#utility.yul\":8114:8213   */\n      pop\n      pop\n      jump\t// out\n        /* \"#utility.yul\":8277:9841   */\n    tag_262:\n        /* \"#utility.yul\":8416:8422   */\n      0x0100\n        /* \"#utility.yul\":8411:8414   */\n      dup3\n        /* \"#utility.yul\":8407:8423   */\n      add\n        /* \"#utility.yul\":8503:8507   */\n      0x00\n        /* \"#utility.yul\":8496:8501   */\n      dup3\n        /* \"#utility.yul\":8492:8508   */\n      add\n        /* \"#utility.yul\":8486:8509   */\n      mload\n        /* \"#utility.yul\":8522:8585   */\n      tag_385\n        /* \"#utility.yul\":8579:8583   */\n      0x00\n        /* \"#utility.yul\":8574:8577   */\n      dup6\n        /* \"#utility.yul\":8570:8584   */\n      add\n        /* \"#utility.yul\":8556:8568   */\n      dup3\n        /* \"#utility.yul\":8522:8585   */\n      tag_240\n      jump\t// in\n    tag_385:\n        /* \"#utility.yul\":8433:8595   */\n      pop\n        /* \"#utility.yul\":8678:8682   */\n      0x20\n        /* \"#utility.yul\":8671:8676   */\n      dup3\n        /* \"#utility.yul\":8667:8683   */\n      add\n        /* \"#utility.yul\":8661:8684   */\n      mload\n        /* \"#utility.yul\":8697:8760   */\n      tag_386\n        /* \"#utility.yul\":8754:8758   */\n      0x20\n        /* \"#utility.yul\":8749:8752   */\n      dup6\n        /* \"#utility.yul\":8745:8759   */\n      add\n        /* \"#utility.yul\":8731:8743   */\n      dup3\n        /* \"#utility.yul\":8697:8760   */\n      tag_258\n      jump\t// in\n    tag_386:\n        /* \"#utility.yul\":8605:8770   */\n      pop\n        /* \"#utility.yul\":8853:8857   */\n      0x40\n        /* \"#utility.yul\":8846:8851   */\n      dup3\n        /* \"#utility.yul\":8842:8858   */\n      add\n        /* \"#utility.yul\":8836:8859   */\n      mload\n        /* \"#utility.yul\":8872:8946   */\n      tag_387\n        /* \"#utility.yul\":8940:8944   */\n      0x40\n        /* \"#utility.yul\":8935:8938   */\n      dup6\n        /* \"#utility.yul\":8931:8945   */\n      add\n        /* \"#utility.yul\":8917:8929   */\n      dup3\n        /* \"#utility.yul\":8872:8946   */\n      tag_259\n      jump\t// in\n    tag_387:\n        /* \"#utility.yul\":8780:8956   */\n      pop\n        /* \"#utility.yul\":9045:9049   */\n      0x60\n        /* \"#utility.yul\":9038:9043   */\n      dup3\n        /* \"#utility.yul\":9034:9050   */\n      add\n        /* \"#utility.yul\":9028:9051   */\n      mload\n        /* \"#utility.yul\":9064:9127   */\n      tag_388\n        /* \"#utility.yul\":9121:9125   */\n      0x60\n        /* \"#utility.yul\":9116:9119   */\n      dup6\n        /* \"#utility.yul\":9112:9126   */\n      add\n        /* \"#utility.yul\":9098:9110   */\n      dup3\n        /* \"#utility.yul\":9064:9127   */\n      tag_240\n      jump\t// in\n    tag_388:\n        /* \"#utility.yul\":8966:9137   */\n      pop\n        /* \"#utility.yul\":9226:9230   */\n      0x80\n        /* \"#utility.yul\":9219:9224   */\n      dup3\n        /* \"#utility.yul\":9215:9231   */\n      add\n        /* \"#utility.yul\":9209:9232   */\n      mload\n        /* \"#utility.yul\":9245:9308   */\n      tag_389\n        /* \"#utility.yul\":9302:9306   */\n      0x80\n        /* \"#utility.yul\":9297:9300   */\n      dup6\n        /* \"#utility.yul\":9293:9307   */\n      add\n        /* \"#utility.yul\":9279:9291   */\n      dup3\n        /* \"#utility.yul\":9245:9308   */\n      tag_240\n      jump\t// in\n    tag_389:\n        /* \"#utility.yul\":9147:9318   */\n      pop\n        /* \"#utility.yul\":9406:9410   */\n      0xa0\n        /* \"#utility.yul\":9399:9404   */\n      dup3\n        /* \"#utility.yul\":9395:9411   */\n      add\n        /* \"#utility.yul\":9389:9412   */\n      mload\n        /* \"#utility.yul\":9425:9484   */\n      tag_390\n        /* \"#utility.yul\":9478:9482   */\n      0xa0\n        /* \"#utility.yul\":9473:9476   */\n      dup6\n        /* \"#utility.yul\":9469:9483   */\n      add\n        /* \"#utility.yul\":9455:9467   */\n      dup3\n        /* \"#utility.yul\":9425:9484   */\n      tag_260\n      jump\t// in\n    tag_390:\n        /* \"#utility.yul\":9328:9494   */\n      pop\n        /* \"#utility.yul\":9578:9582   */\n      0xc0\n        /* \"#utility.yul\":9571:9576   */\n      dup3\n        /* \"#utility.yul\":9567:9583   */\n      add\n        /* \"#utility.yul\":9561:9584   */\n      mload\n        /* \"#utility.yul\":9597:9654   */\n      tag_391\n        /* \"#utility.yul\":9648:9652   */\n      0xc0\n        /* \"#utility.yul\":9643:9646   */\n      dup6\n        /* \"#utility.yul\":9639:9653   */\n      add\n        /* \"#utility.yul\":9625:9637   */\n      dup3\n        /* \"#utility.yul\":9597:9654   */\n      tag_261\n      jump\t// in\n    tag_391:\n        /* \"#utility.yul\":9504:9664   */\n      pop\n        /* \"#utility.yul\":9748:9752   */\n      0xe0\n        /* \"#utility.yul\":9741:9746   */\n      dup3\n        /* \"#utility.yul\":9737:9753   */\n      add\n        /* \"#utility.yul\":9731:9754   */\n      mload\n        /* \"#utility.yul\":9767:9824   */\n      tag_392\n        /* \"#utility.yul\":9818:9822   */\n      0xe0\n        /* \"#utility.yul\":9813:9816   */\n      dup6\n        /* \"#utility.yul\":9809:9823   */\n      add\n        /* \"#utility.yul\":9795:9807   */\n      dup3\n        /* \"#utility.yul\":9767:9824   */\n      tag_261\n      jump\t// in\n    tag_392:\n        /* \"#utility.yul\":9674:9834   */\n      pop\n        /* \"#utility.yul\":8385:9841   */\n      pop\n        /* \"#utility.yul\":8277:9841   */\n      pop\n      pop\n      jump\t// out\n        /* \"#utility.yul\":9847:10154   */\n    tag_104:\n        /* \"#utility.yul\":9982:9986   */\n      0x00\n        /* \"#utility.yul\":10020:10023   */\n      0x0100\n        /* \"#utility.yul\":10009:10018   */\n      dup3\n        /* \"#utility.yul\":10005:10024   */\n      add\n        /* \"#utility.yul\":9997:10024   */\n      swap1\n      pop\n        /* \"#utility.yul\":10034:10147   */\n      tag_394\n        /* \"#utility.yul\":10144:10145   */\n      0x00\n        /* \"#utility.yul\":10133:10142   */\n      dup4\n        /* \"#utility.yul\":10129:10146   */\n      add\n        /* \"#utility.yul\":10120:10126   */\n      dup5\n        /* \"#utility.yul\":10034:10147   */\n      tag_262\n      jump\t// in\n    tag_394:\n        /* \"#utility.yul\":9847:10154   */\n      swap3\n      swap2\n      pop\n      pop\n      jump\t// out\n        /* \"#utility.yul\":10160:10329   */\n    tag_263:\n        /* \"#utility.yul\":10244:10255   */\n      0x00\n        /* \"#utility.yul\":10278:10284   */\n      dup3\n        /* \"#utility.yul\":10273:10276   */\n      dup3\n        /* \"#utility.yul\":10266:10285   */\n      mstore\n        /* \"#utility.yul\":10318:10322   */\n      0x20\n        /* \"#utility.yul\":10313:10316   */\n      dup3\n        /* \"#utility.yul\":10309:10323   */\n      add\n        /* \"#utility.yul\":10294:10323   */\n      swap1\n      pop\n        /* \"#utility.yul\":10160:10329   */\n      swap3\n      swap2\n      pop\n      pop\n      jump\t// out\n        /* \"#utility.yul\":10335:10496   */\n    tag_264:\n        /* \"#utility.yul\":10475:10488   */\n      0x42756b616e206f776e6572000000000000000000000000000000000000000000\n        /* \"#utility.yul\":10471:10472   */\n      0x00\n        /* \"#utility.yul\":10463:10469   */\n      dup3\n        /* \"#utility.yul\":10459:10473   */\n      add\n        /* \"#utility.yul\":10452:10489   */\n      mstore\n        /* \"#utility.yul\":10335:10496   */\n      pop\n      jump\t// out\n        /* \"#utility.yul\":10502:10868   */\n    tag_265:\n        /* \"#utility.yul\":10644:10647   */\n      0x00\n        /* \"#utility.yul\":10665:10732   */\n      tag_398\n        /* \"#utility.yul\":10729:10731   */\n      0x0b\n        /* \"#utility.yul\":10724:10727   */\n      dup4\n        /* \"#utility.yul\":10665:10732   */\n      tag_263\n      jump\t// in\n    tag_398:\n        /* \"#utility.yul\":10658:10732   */\n      swap2\n      pop\n        /* \"#utility.yul\":10741:10834   */\n      tag_399\n        /* \"#utility.yul\":10830:10833   */\n      dup3\n        /* \"#utility.yul\":10741:10834   */\n      tag_264\n      jump\t// in\n    tag_399:\n        /* \"#utility.yul\":10859:10861   */\n      0x20\n        /* \"#utility.yul\":10854:10857   */\n      dup3\n        /* \"#utility.yul\":10850:10862   */\n      add\n        /* \"#utility.yul\":10843:10862   */\n      swap1\n      pop\n        /* \"#utility.yul\":10502:10868   */\n      swap2\n      swap1\n      pop\n      jump\t// out\n        /* \"#utility.yul\":10874:11293   */\n    tag_111:\n        /* \"#utility.yul\":11040:11044   */\n      0x00\n        /* \"#utility.yul\":11078:11080   */\n      0x20\n        /* \"#utility.yul\":11067:11076   */\n      dup3\n        /* \"#utility.yul\":11063:11081   */\n      add\n        /* \"#utility.yul\":11055:11081   */\n      swap1\n      pop\n        /* \"#utility.yul\":11127:11136   */\n      dup2\n        /* \"#utility.yul\":11121:11125   */\n      dup2\n        /* \"#utility.yul\":11117:11137   */\n      sub\n        /* \"#utility.yul\":11113:11114   */\n      0x00\n        /* \"#utility.yul\":11102:11111   */\n      dup4\n        /* \"#utility.yul\":11098:11115   */\n      add\n        /* \"#utility.yul\":11091:11138   */\n      mstore\n        /* \"#utility.yul\":11155:11286   */\n      tag_401\n        /* \"#utility.yul\":11281:11285   */\n      dup2\n        /* \"#utility.yul\":11155:11286   */\n      tag_265\n      jump\t// in\n    tag_401:\n        /* \"#utility.yul\":11147:11286   */\n      swap1\n      pop\n        /* \"#utility.yul\":10874:11293   */\n      swap2\n      swap1\n      pop\n      jump\t// out\n        /* \"#utility.yul\":11299:11446   */\n    tag_266:\n        /* \"#utility.yul\":11400:11411   */\n      0x00\n        /* \"#utility.yul\":11437:11440   */\n      dup2\n        /* \"#utility.yul\":11422:11440   */\n      swap1\n      pop\n        /* \"#utility.yul\":11299:11446   */\n      swap3\n      swap2\n      pop\n      pop\n      jump\t// out\n        /* \"#utility.yul\":11452:11566   */\n    tag_267:\n      pop\n      jump\t// out\n        /* \"#utility.yul\":11572:11970   */\n    tag_268:\n        /* \"#utility.yul\":11731:11734   */\n      0x00\n        /* \"#utility.yul\":11752:11835   */\n      tag_405\n        /* \"#utility.yul\":11833:11834   */\n      0x00\n        /* \"#utility.yul\":11828:11831   */\n      dup4\n        /* \"#utility.yul\":11752:11835   */\n      tag_266\n      jump\t// in\n    tag_405:\n        /* \"#utility.yul\":11745:11835   */\n      swap2\n      pop\n        /* \"#utility.yul\":11844:11937   */\n      tag_406\n        /* \"#utility.yul\":11933:11936   */\n      dup3\n        /* \"#utility.yul\":11844:11937   */\n      tag_267\n      jump\t// in\n    tag_406:\n        /* \"#utility.yul\":11962:11963   */\n      0x00\n        /* \"#utility.yul\":11957:11960   */\n      dup3\n        /* \"#utility.yul\":11953:11964   */\n      add\n        /* \"#utility.yul\":11946:11964   */\n      swap1\n      pop\n        /* \"#utility.yul\":11572:11970   */\n      swap2\n      swap1\n      pop\n      jump\t// out\n        /* \"#utility.yul\":11976:12355   */\n    tag_113:\n        /* \"#utility.yul\":12160:12163   */\n      0x00\n        /* \"#utility.yul\":12182:12329   */\n      tag_408\n        /* \"#utility.yul\":12325:12328   */\n      dup3\n        /* \"#utility.yul\":12182:12329   */\n      tag_268\n      jump\t// in\n    tag_408:\n        /* \"#utility.yul\":12175:12329   */\n      swap2\n      pop\n        /* \"#utility.yul\":12346:12349   */\n      dup2\n        /* \"#utility.yul\":12339:12349   */\n      swap1\n      pop\n        /* \"#utility.yul\":11976:12355   */\n      swap2\n      swap1\n      pop\n      jump\t// out\n        /* \"#utility.yul\":12361:12525   */\n    tag_269:\n        /* \"#utility.yul\":12501:12517   */\n      0x5472616e7366657220676167616c000000000000000000000000000000000000\n        /* \"#utility.yul\":12497:12498   */\n      0x00\n        /* \"#utility.yul\":12489:12495   */\n      dup3\n        /* \"#utility.yul\":12485:12499   */\n      add\n        /* \"#utility.yul\":12478:12518   */\n      mstore\n        /* \"#utility.yul\":12361:12525   */\n      pop\n      jump\t// out\n        /* \"#utility.yul\":12531:12897   */\n    tag_270:\n        /* \"#utility.yul\":12673:12676   */\n      0x00\n        /* \"#utility.yul\":12694:12761   */\n      tag_411\n        /* \"#utility.yul\":12758:12760   */\n      0x0e\n        /* \"#utility.yul\":12753:12756   */\n      dup4\n        /* \"#utility.yul\":12694:12761   */\n      tag_263\n      jump\t// in\n    tag_411:\n        /* \"#utility.yul\":12687:12761   */\n      swap2\n      pop\n        /* \"#utility.yul\":12770:12863   */\n      tag_412\n        /* \"#utility.yul\":12859:12862   */\n      dup3\n        /* \"#utility.yul\":12770:12863   */\n      tag_269\n      jump\t// in\n    tag_412:\n        /* \"#utility.yul\":12888:12890   */\n      0x20\n        /* \"#utility.yul\":12883:12886   */\n      dup3\n        /* \"#utility.yul\":12879:12891   */\n      add\n        /* \"#utility.yul\":12872:12891   */\n      swap1\n      pop\n        /* \"#utility.yul\":12531:12897   */\n      swap2\n      swap1\n      pop\n      jump\t// out\n        /* \"#utility.yul\":12903:13322   */\n    tag_119:\n        /* \"#utility.yul\":13069:13073   */\n      0x00\n        /* \"#utility.yul\":13107:13109   */\n      0x20\n        /* \"#utility.yul\":13096:13105   */\n      dup3\n        /* \"#utility.yul\":13092:13110   */\n      add\n        /* \"#utility.yul\":13084:13110   */\n      swap1\n      pop\n        /* \"#utility.yul\":13156:13165   */\n      dup2\n        /* \"#utility.yul\":13150:13154   */\n      dup2\n        /* \"#utility.yul\":13146:13166   */\n      sub\n        /* \"#utility.yul\":13142:13143   */\n      0x00\n        /* \"#utility.yul\":13131:13140   */\n      dup4\n        /* \"#utility.yul\":13127:13144   */\n      add\n        /* \"#utility.yul\":13120:13167   */\n      mstore\n        /* \"#utility.yul\":13184:13315   */\n      tag_414\n        /* \"#utility.yul\":13310:13314   */\n      dup2\n        /* \"#utility.yul\":13184:13315   */\n      tag_270\n      jump\t// in\n    tag_414:\n        /* \"#utility.yul\":13176:13315   */\n      swap1\n      pop\n        /* \"#utility.yul\":12903:13322   */\n      swap2\n      swap1\n      pop\n      jump\t// out\n        /* \"#utility.yul\":13328:13503   */\n    tag_271:\n        /* \"#utility.yul\":13468:13495   */\n      0x4261796172206d696e696d616c20504c414e545f505249434500000000000000\n        /* \"#utility.yul\":13464:13465   */\n      0x00\n        /* \"#utility.yul\":13456:13462   */\n      dup3\n        /* \"#utility.yul\":13452:13466   */\n      add\n        /* \"#utility.yul\":13445:13496   */\n      mstore\n        /* \"#utility.yul\":13328:13503   */\n      pop\n      jump\t// out\n        /* \"#utility.yul\":13509:13875   */\n    tag_272:\n        /* \"#utility.yul\":13651:13654   */\n      0x00\n        /* \"#utility.yul\":13672:13739   */\n      tag_417\n        /* \"#utility.yul\":13736:13738   */\n      0x19\n        /* \"#utility.yul\":13731:13734   */\n      dup4\n        /* \"#utility.yul\":13672:13739   */\n      tag_263\n      jump\t// in\n    tag_417:\n        /* \"#utility.yul\":13665:13739   */\n      swap2\n      pop\n        /* \"#utility.yul\":13748:13841   */\n      tag_418\n        /* \"#utility.yul\":13837:13840   */\n      dup3\n        /* \"#utility.yul\":13748:13841   */\n      tag_271\n      jump\t// in\n    tag_418:\n        /* \"#utility.yul\":13866:13868   */\n      0x20\n        /* \"#utility.yul\":13861:13864   */\n      dup3\n        /* \"#utility.yul\":13857:13869   */\n      add\n        /* \"#utility.yul\":13850:13869   */\n      swap1\n      pop\n        /* \"#utility.yul\":13509:13875   */\n      swap2\n      swap1\n      pop\n      jump\t// out\n        /* \"#utility.yul\":13881:14300   */\n    tag_123:\n        /* \"#utility.yul\":14047:14051   */\n      0x00\n        /* \"#utility.yul\":14085:14087   */\n      0x20\n        /* \"#utility.yul\":14074:14083   */\n      dup3\n        /* \"#utility.yul\":14070:14088   */\n      add\n        /* \"#utility.yul\":14062:14088   */\n      swap1\n      pop\n        /* \"#utility.yul\":14134:14143   */\n      dup2\n        /* \"#utility.yul\":14128:14132   */\n      dup2\n        /* \"#utility.yul\":14124:14144   */\n      sub\n        /* \"#utility.yul\":14120:14121   */\n      0x00\n        /* \"#utility.yul\":14109:14118   */\n      dup4\n        /* \"#utility.yul\":14105:14122   */\n      add\n        /* \"#utility.yul\":14098:14145   */\n      mstore\n        /* \"#utility.yul\":14162:14293   */\n      tag_420\n        /* \"#utility.yul\":14288:14292   */\n      dup2\n        /* \"#utility.yul\":14162:14293   */\n      tag_272\n      jump\t// in\n    tag_420:\n        /* \"#utility.yul\":14154:14293   */\n      swap1\n      pop\n        /* \"#utility.yul\":13881:14300   */\n      swap2\n      swap1\n      pop\n      jump\t// out\n        /* \"#utility.yul\":14306:14486   */\n    tag_273:\n        /* \"#utility.yul\":14354:14431   */\n      0x4e487b7100000000000000000000000000000000000000000000000000000000\n        /* \"#utility.yul\":14351:14352   */\n      0x00\n        /* \"#utility.yul\":14344:14432   */\n      mstore\n        /* \"#utility.yul\":14451:14455   */\n      0x11\n        /* \"#utility.yul\":14448:14449   */\n      0x04\n        /* \"#utility.yul\":14441:14456   */\n      mstore\n        /* \"#utility.yul\":14475:14479   */\n      0x24\n        /* \"#utility.yul\":14472:14473   */\n      0x00\n        /* \"#utility.yul\":14465:14480   */\n      revert\n        /* \"#utility.yul\":14492:14683   */\n    tag_125:\n        /* \"#utility.yul\":14532:14535   */\n      0x00\n        /* \"#utility.yul\":14551:14571   */\n      tag_423\n        /* \"#utility.yul\":14569:14570   */\n      dup3\n        /* \"#utility.yul\":14551:14571   */\n      tag_239\n      jump\t// in\n    tag_423:\n        /* \"#utility.yul\":14546:14571   */\n      swap2\n      pop\n        /* \"#utility.yul\":14585:14605   */\n      tag_424\n        /* \"#utility.yul\":14603:14604   */\n      dup4\n        /* \"#utility.yul\":14585:14605   */\n      tag_239\n      jump\t// in\n    tag_424:\n        /* \"#utility.yul\":14580:14605   */\n      swap3\n      pop\n        /* \"#utility.yul\":14628:14629   */\n      dup3\n        /* \"#utility.yul\":14625:14626   */\n      dup3\n        /* \"#utility.yul\":14621:14630   */\n      add\n        /* \"#utility.yul\":14614:14630   */\n      swap1\n      pop\n        /* \"#utility.yul\":14649:14652   */\n      dup1\n        /* \"#utility.yul\":14646:14647   */\n      dup3\n        /* \"#utility.yul\":14643:14653   */\n      gt\n        /* \"#utility.yul\":14640:14676   */\n      iszero\n      tag_425\n      jumpi\n        /* \"#utility.yul\":14656:14674   */\n      tag_426\n      tag_273\n      jump\t// in\n    tag_426:\n        /* \"#utility.yul\":14640:14676   */\n    tag_425:\n        /* \"#utility.yul\":14492:14683   */\n      swap3\n      swap2\n      pop\n      pop\n      jump\t// out\n        /* \"#utility.yul\":14689:14883   */\n    tag_141:\n        /* \"#utility.yul\":14729:14733   */\n      0x00\n        /* \"#utility.yul\":14749:14769   */\n      tag_428\n        /* \"#utility.yul\":14767:14768   */\n      dup3\n        /* \"#utility.yul\":14749:14769   */\n      tag_239\n      jump\t// in\n    tag_428:\n        /* \"#utility.yul\":14744:14769   */\n      swap2\n      pop\n        /* \"#utility.yul\":14783:14803   */\n      tag_429\n        /* \"#utility.yul\":14801:14802   */\n      dup4\n        /* \"#utility.yul\":14783:14803   */\n      tag_239\n      jump\t// in\n    tag_429:\n        /* \"#utility.yul\":14778:14803   */\n      swap3\n      pop\n        /* \"#utility.yul\":14827:14828   */\n      dup3\n        /* \"#utility.yul\":14824:14825   */\n      dup3\n        /* \"#utility.yul\":14820:14829   */\n      sub\n        /* \"#utility.yul\":14812:14829   */\n      swap1\n      pop\n        /* \"#utility.yul\":14851:14852   */\n      dup2\n        /* \"#utility.yul\":14845:14849   */\n      dup2\n        /* \"#utility.yul\":14842:14853   */\n      gt\n        /* \"#utility.yul\":14839:14876   */\n      iszero\n      tag_430\n      jumpi\n        /* \"#utility.yul\":14856:14874   */\n      tag_431\n      tag_273\n      jump\t// in\n    tag_431:\n        /* \"#utility.yul\":14839:14876   */\n    tag_430:\n        /* \"#utility.yul\":14689:14883   */\n      swap3\n      swap2\n      pop\n      pop\n      jump\t// out\n        /* \"#utility.yul\":14889:15069   */\n    tag_274:\n        /* \"#utility.yul\":14937:15014   */\n      0x4e487b7100000000000000000000000000000000000000000000000000000000\n        /* \"#utility.yul\":14934:14935   */\n      0x00\n        /* \"#utility.yul\":14927:15015   */\n      mstore\n        /* \"#utility.yul\":15034:15038   */\n      0x12\n        /* \"#utility.yul\":15031:15032   */\n      0x04\n        /* \"#utility.yul\":15024:15039   */\n      mstore\n        /* \"#utility.yul\":15058:15062   */\n      0x24\n        /* \"#utility.yul\":15055:15056   */\n      0x00\n        /* \"#utility.yul\":15048:15063   */\n      revert\n        /* \"#utility.yul\":15075:15260   */\n    tag_143:\n        /* \"#utility.yul\":15115:15116   */\n      0x00\n        /* \"#utility.yul\":15132:15152   */\n      tag_434\n        /* \"#utility.yul\":15150:15151   */\n      dup3\n        /* \"#utility.yul\":15132:15152   */\n      tag_239\n      jump\t// in\n    tag_434:\n        /* \"#utility.yul\":15127:15152   */\n      swap2\n      pop\n        /* \"#utility.yul\":15166:15186   */\n      tag_435\n        /* \"#utility.yul\":15184:15185   */\n      dup4\n        /* \"#utility.yul\":15166:15186   */\n      tag_239\n      jump\t// in\n    tag_435:\n        /* \"#utility.yul\":15161:15186   */\n      swap3\n      pop\n        /* \"#utility.yul\":15205:15206   */\n      dup3\n        /* \"#utility.yul\":15195:15230   */\n      tag_436\n      jumpi\n        /* \"#utility.yul\":15210:15228   */\n      tag_437\n      tag_274\n      jump\t// in\n    tag_437:\n        /* \"#utility.yul\":15195:15230   */\n    tag_436:\n        /* \"#utility.yul\":15252:15253   */\n      dup3\n        /* \"#utility.yul\":15249:15250   */\n      dup3\n        /* \"#utility.yul\":15245:15254   */\n      div\n        /* \"#utility.yul\":15240:15254   */\n      swap1\n      pop\n        /* \"#utility.yul\":15075:15260   */\n      swap3\n      swap2\n      pop\n      pop\n      jump\t// out\n        /* \"#utility.yul\":15266:15676   */\n    tag_145:\n        /* \"#utility.yul\":15306:15313   */\n      0x00\n        /* \"#utility.yul\":15329:15349   */\n      tag_439\n        /* \"#utility.yul\":15347:15348   */\n      dup3\n        /* \"#utility.yul\":15329:15349   */\n      tag_239\n      jump\t// in\n    tag_439:\n        /* \"#utility.yul\":15324:15349   */\n      swap2\n      pop\n        /* \"#utility.yul\":15363:15383   */\n      tag_440\n        /* \"#utility.yul\":15381:15382   */\n      dup4\n        /* \"#utility.yul\":15363:15383   */\n      tag_239\n      jump\t// in\n    tag_440:\n        /* \"#utility.yul\":15358:15383   */\n      swap3\n      pop\n        /* \"#utility.yul\":15418:15419   */\n      dup3\n        /* \"#utility.yul\":15415:15416   */\n      dup3\n        /* \"#utility.yul\":15411:15420   */\n      mul\n        /* \"#utility.yul\":15440:15470   */\n      tag_441\n        /* \"#utility.yul\":15458:15469   */\n      dup2\n        /* \"#utility.yul\":15440:15470   */\n      tag_239\n      jump\t// in\n    tag_441:\n        /* \"#utility.yul\":15429:15470   */\n      swap2\n      pop\n        /* \"#utility.yul\":15619:15620   */\n      dup3\n        /* \"#utility.yul\":15610:15617   */\n      dup3\n        /* \"#utility.yul\":15606:15621   */\n      div\n        /* \"#utility.yul\":15603:15604   */\n      dup5\n        /* \"#utility.yul\":15600:15622   */\n      eq\n        /* \"#utility.yul\":15580:15581   */\n      dup4\n        /* \"#utility.yul\":15573:15582   */\n      iszero\n        /* \"#utility.yul\":15553:15636   */\n      or\n        /* \"#utility.yul\":15530:15669   */\n      tag_442\n      jumpi\n        /* \"#utility.yul\":15649:15667   */\n      tag_443\n      tag_273\n      jump\t// in\n    tag_443:\n        /* \"#utility.yul\":15530:15669   */\n    tag_442:\n        /* \"#utility.yul\":15314:15676   */\n      pop\n        /* \"#utility.yul\":15266:15676   */\n      swap3\n      swap2\n      pop\n      pop\n      jump\t// out\n        /* \"#utility.yul\":15682:15847   */\n    tag_275:\n        /* \"#utility.yul\":15822:15839   */\n      0x506c616e7420746964616b206164610000000000000000000000000000000000\n        /* \"#utility.yul\":15818:15819   */\n      0x00\n        /* \"#utility.yul\":15810:15816   */\n      dup3\n        /* \"#utility.yul\":15806:15820   */\n      add\n        /* \"#utility.yul\":15799:15840   */\n      mstore\n        /* \"#utility.yul\":15682:15847   */\n      pop\n      jump\t// out\n        /* \"#utility.yul\":15853:16219   */\n    tag_276:\n        /* \"#utility.yul\":15995:15998   */\n      0x00\n        /* \"#utility.yul\":16016:16083   */\n      tag_446\n        /* \"#utility.yul\":16080:16082   */\n      0x0f\n        /* \"#utility.yul\":16075:16078   */\n      dup4\n        /* \"#utility.yul\":16016:16083   */\n      tag_263\n      jump\t// in\n    tag_446:\n        /* \"#utility.yul\":16009:16083   */\n      swap2\n      pop\n        /* \"#utility.yul\":16092:16185   */\n      tag_447\n        /* \"#utility.yul\":16181:16184   */\n      dup3\n        /* \"#utility.yul\":16092:16185   */\n      tag_275\n      jump\t// in\n    tag_447:\n        /* \"#utility.yul\":16210:16212   */\n      0x20\n        /* \"#utility.yul\":16205:16208   */\n      dup3\n        /* \"#utility.yul\":16201:16213   */\n      add\n        /* \"#utility.yul\":16194:16213   */\n      swap1\n      pop\n        /* \"#utility.yul\":15853:16219   */\n      swap2\n      swap1\n      pop\n      jump\t// out\n        /* \"#utility.yul\":16225:16644   */\n    tag_153:\n        /* \"#utility.yul\":16391:16395   */\n      0x00\n        /* \"#utility.yul\":16429:16431   */\n      0x20\n        /* \"#utility.yul\":16418:16427   */\n      dup3\n        /* \"#utility.yul\":16414:16432   */\n      add\n        /* \"#utility.yul\":16406:16432   */\n      swap1\n      pop\n        /* \"#utility.yul\":16478:16487   */\n      dup2\n        /* \"#utility.yul\":16472:16476   */\n      dup2\n        /* \"#utility.yul\":16468:16488   */\n      sub\n        /* \"#utility.yul\":16464:16465   */\n      0x00\n        /* \"#utility.yul\":16453:16462   */\n      dup4\n        /* \"#utility.yul\":16449:16466   */\n      add\n        /* \"#utility.yul\":16442:16489   */\n      mstore\n        /* \"#utility.yul\":16506:16637   */\n      tag_449\n        /* \"#utility.yul\":16632:16636   */\n      dup2\n        /* \"#utility.yul\":16506:16637   */\n      tag_276\n      jump\t// in\n    tag_449:\n        /* \"#utility.yul\":16498:16637   */\n      swap1\n      pop\n        /* \"#utility.yul\":16225:16644   */\n      swap2\n      swap1\n      pop\n      jump\t// out\n        /* \"#utility.yul\":16650:16819   */\n    tag_277:\n        /* \"#utility.yul\":16790:16811   */\n      0x42756b616e2070656d696c696b20706c616e7400000000000000000000000000\n        /* \"#utility.yul\":16786:16787   */\n      0x00\n        /* \"#utility.yul\":16778:16784   */\n      dup3\n        /* \"#utility.yul\":16774:16788   */\n      add\n        /* \"#utility.yul\":16767:16812   */\n      mstore\n        /* \"#utility.yul\":16650:16819   */\n      pop\n      jump\t// out\n        /* \"#utility.yul\":16825:17191   */\n    tag_278:\n        /* \"#utility.yul\":16967:16970   */\n      0x00\n        /* \"#utility.yul\":16988:17055   */\n      tag_452\n        /* \"#utility.yul\":17052:17054   */\n      0x13\n        /* \"#utility.yul\":17047:17050   */\n      dup4\n        /* \"#utility.yul\":16988:17055   */\n      tag_263\n      jump\t// in\n    tag_452:\n        /* \"#utility.yul\":16981:17055   */\n      swap2\n      pop\n        /* \"#utility.yul\":17064:17157   */\n      tag_453\n        /* \"#utility.yul\":17153:17156   */\n      dup3\n        /* \"#utility.yul\":17064:17157   */\n      tag_277\n      jump\t// in\n    tag_453:\n        /* \"#utility.yul\":17182:17184   */\n      0x20\n        /* \"#utility.yul\":17177:17180   */\n      dup3\n        /* \"#utility.yul\":17173:17185   */\n      add\n        /* \"#utility.yul\":17166:17185   */\n      swap1\n      pop\n        /* \"#utility.yul\":16825:17191   */\n      swap2\n      swap1\n      pop\n      jump\t// out\n        /* \"#utility.yul\":17197:17616   */\n    tag_156:\n        /* \"#utility.yul\":17363:17367   */\n      0x00\n        /* \"#utility.yul\":17401:17403   */\n      0x20\n        /* \"#utility.yul\":17390:17399   */\n      dup3\n        /* \"#utility.yul\":17386:17404   */\n      add\n        /* \"#utility.yul\":17378:17404   */\n      swap1\n      pop\n        /* \"#utility.yul\":17450:17459   */\n      dup2\n        /* \"#utility.yul\":17444:17448   */\n      dup2\n        /* \"#utility.yul\":17440:17460   */\n      sub\n        /* \"#utility.yul\":17436:17437   */\n      0x00\n        /* \"#utility.yul\":17425:17434   */\n      dup4\n        /* \"#utility.yul\":17421:17438   */\n      add\n        /* \"#utility.yul\":17414:17461   */\n      mstore\n        /* \"#utility.yul\":17478:17609   */\n      tag_455\n        /* \"#utility.yul\":17604:17608   */\n      dup2\n        /* \"#utility.yul\":17478:17609   */\n      tag_278\n      jump\t// in\n    tag_455:\n        /* \"#utility.yul\":17470:17609   */\n      swap1\n      pop\n        /* \"#utility.yul\":17197:17616   */\n      swap2\n      swap1\n      pop\n      jump\t// out\n        /* \"#utility.yul\":17622:17788   */\n    tag_279:\n        /* \"#utility.yul\":17762:17780   */\n      0x506c616e74207375646168206d61746900000000000000000000000000000000\n        /* \"#utility.yul\":17758:17759   */\n      0x00\n        /* \"#utility.yul\":17750:17756   */\n      dup3\n        /* \"#utility.yul\":17746:17760   */\n      add\n        /* \"#utility.yul\":17739:17781   */\n      mstore\n        /* \"#utility.yul\":17622:17788   */\n      pop\n      jump\t// out\n        /* \"#utility.yul\":17794:18160   */\n    tag_280:\n        /* \"#utility.yul\":17936:17939   */\n      0x00\n        /* \"#utility.yul\":17957:18024   */\n      tag_458\n        /* \"#utility.yul\":18021:18023   */\n      0x10\n        /* \"#utility.yul\":18016:18019   */\n      dup4\n        /* \"#utility.yul\":17957:18024   */\n      tag_263\n      jump\t// in\n    tag_458:\n        /* \"#utility.yul\":17950:18024   */\n      swap2\n      pop\n        /* \"#utility.yul\":18033:18126   */\n      tag_459\n        /* \"#utility.yul\":18122:18125   */\n      dup3\n        /* \"#utility.yul\":18033:18126   */\n      tag_279\n      jump\t// in\n    tag_459:\n        /* \"#utility.yul\":18151:18153   */\n      0x20\n        /* \"#utility.yul\":18146:18149   */\n      dup3\n        /* \"#utility.yul\":18142:18154   */\n      add\n        /* \"#utility.yul\":18135:18154   */\n      swap1\n      pop\n        /* \"#utility.yul\":17794:18160   */\n      swap2\n      swap1\n      pop\n      jump\t// out\n        /* \"#utility.yul\":18166:18585   */\n    tag_159:\n        /* \"#utility.yul\":18332:18336   */\n      0x00\n        /* \"#utility.yul\":18370:18372   */\n      0x20\n        /* \"#utility.yul\":18359:18368   */\n      dup3\n        /* \"#utility.yul\":18355:18373   */\n      add\n        /* \"#utility.yul\":18347:18373   */\n      swap1\n      pop\n        /* \"#utility.yul\":18419:18428   */\n      dup2\n        /* \"#utility.yul\":18413:18417   */\n      dup2\n        /* \"#utility.yul\":18409:18429   */\n      sub\n        /* \"#utility.yul\":18405:18406   */\n      0x00\n        /* \"#utility.yul\":18394:18403   */\n      dup4\n        /* \"#utility.yul\":18390:18407   */\n      add\n        /* \"#utility.yul\":18383:18430   */\n      mstore\n        /* \"#utility.yul\":18447:18578   */\n      tag_461\n        /* \"#utility.yul\":18573:18577   */\n      dup2\n        /* \"#utility.yul\":18447:18578   */\n      tag_280\n      jump\t// in\n    tag_461:\n        /* \"#utility.yul\":18439:18578   */\n      swap1\n      pop\n        /* \"#utility.yul\":18166:18585   */\n      swap2\n      swap1\n      pop\n      jump\t// out\n        /* \"#utility.yul\":18591:18835   */\n    tag_186:\n        /* \"#utility.yul\":18695:18699   */\n      0x00\n        /* \"#utility.yul\":18733:18735   */\n      0x20\n        /* \"#utility.yul\":18722:18731   */\n      dup3\n        /* \"#utility.yul\":18718:18736   */\n      add\n        /* \"#utility.yul\":18710:18736   */\n      swap1\n      pop\n        /* \"#utility.yul\":18746:18828   */\n      tag_463\n        /* \"#utility.yul\":18825:18826   */\n      0x00\n        /* \"#utility.yul\":18814:18823   */\n      dup4\n        /* \"#utility.yul\":18810:18827   */\n      add\n        /* \"#utility.yul\":18801:18807   */\n      dup5\n        /* \"#utility.yul\":18746:18828   */\n      tag_255\n      jump\t// in\n    tag_463:\n        /* \"#utility.yul\":18591:18835   */\n      swap3\n      swap2\n      pop\n      pop\n      jump\t// out\n        /* \"#utility.yul\":18841:19011   */\n    tag_281:\n        /* \"#utility.yul\":18981:19003   */\n      0x506c616e742062656c756d20626c6f6f6d696e67000000000000000000000000\n        /* \"#utility.yul\":18977:18978   */\n      0x00\n        /* \"#utility.yul\":18969:18975   */\n      dup3\n        /* \"#utility.yul\":18965:18979   */\n      add\n        /* \"#utility.yul\":18958:19004   */\n      mstore\n        /* \"#utility.yul\":18841:19011   */\n      pop\n      jump\t// out\n        /* \"#utility.yul\":19017:19383   */\n    tag_282:\n        /* \"#utility.yul\":19159:19162   */\n      0x00\n        /* \"#utility.yul\":19180:19247   */\n      tag_466\n        /* \"#utility.yul\":19244:19246   */\n      0x14\n        /* \"#utility.yul\":19239:19242   */\n      dup4\n        /* \"#utility.yul\":19180:19247   */\n      tag_263\n      jump\t// in\n    tag_466:\n        /* \"#utility.yul\":19173:19247   */\n      swap2\n      pop\n        /* \"#utility.yul\":19256:19349   */\n      tag_467\n        /* \"#utility.yul\":19345:19348   */\n      dup3\n        /* \"#utility.yul\":19256:19349   */\n      tag_281\n      jump\t// in\n    tag_467:\n        /* \"#utility.yul\":19374:19376   */\n      0x20\n        /* \"#utility.yul\":19369:19372   */\n      dup3\n        /* \"#utility.yul\":19365:19377   */\n      add\n        /* \"#utility.yul\":19358:19377   */\n      swap1\n      pop\n        /* \"#utility.yul\":19017:19383   */\n      swap2\n      swap1\n      pop\n      jump\t// out\n        /* \"#utility.yul\":19389:19808   */\n    tag_201:\n        /* \"#utility.yul\":19555:19559   */\n      0x00\n        /* \"#utility.yul\":19593:19595   */\n      0x20\n        /* \"#utility.yul\":19582:19591   */\n      dup3\n        /* \"#utility.yul\":19578:19596   */\n      add\n        /* \"#utility.yul\":19570:19596   */\n      swap1\n      pop\n        /* \"#utility.yul\":19642:19651   */\n      dup2\n        /* \"#utility.yul\":19636:19640   */\n      dup2\n        /* \"#utility.yul\":19632:19652   */\n      sub\n        /* \"#utility.yul\":19628:19629   */\n      0x00\n        /* \"#utility.yul\":19617:19626   */\n      dup4\n        /* \"#utility.yul\":19613:19630   */\n      add\n        /* \"#utility.yul\":19606:19653   */\n      mstore\n        /* \"#utility.yul\":19670:19801   */\n      tag_469\n        /* \"#utility.yul\":19796:19800   */\n      dup2\n        /* \"#utility.yul\":19670:19801   */\n      tag_282\n      jump\t// in\n    tag_469:\n        /* \"#utility.yul\":19662:19801   */\n      swap1\n      pop\n        /* \"#utility.yul\":19389:19808   */\n      swap2\n      swap1\n      pop\n      jump\t// out\n        /* \"#utility.yul\":19814:19995   */\n    tag_283:\n        /* \"#utility.yul\":19954:19987   */\n      0x4b6f6e7472616b20746964616b2070756e79612063756b75702073616c646f00\n        /* \"#utility.yul\":19950:19951   */\n      0x00\n        /* \"#utility.yul\":19942:19948   */\n      dup3\n        /* \"#utility.yul\":19938:19952   */\n      add\n        /* \"#utility.yul\":19931:19988   */\n      mstore\n        /* \"#utility.yul\":19814:19995   */\n      pop\n      jump\t// out\n        /* \"#utility.yul\":20001:20367   */\n    tag_284:\n        /* \"#utility.yul\":20143:20146   */\n      0x00\n        /* \"#utility.yul\":20164:20231   */\n      tag_472\n        /* \"#utility.yul\":20228:20230   */\n      0x1f\n        /* \"#utility.yul\":20223:20226   */\n      dup4\n        /* \"#utility.yul\":20164:20231   */\n      tag_263\n      jump\t// in\n    tag_472:\n        /* \"#utility.yul\":20157:20231   */\n      swap2\n      pop\n        /* \"#utility.yul\":20240:20333   */\n      tag_473\n        /* \"#utility.yul\":20329:20332   */\n      dup3\n        /* \"#utility.yul\":20240:20333   */\n      tag_283\n      jump\t// in\n    tag_473:\n        /* \"#utility.yul\":20358:20360   */\n      0x20\n        /* \"#utility.yul\":20353:20356   */\n      dup3\n        /* \"#utility.yul\":20349:20361   */\n      add\n        /* \"#utility.yul\":20342:20361   */\n      swap1\n      pop\n        /* \"#utility.yul\":20001:20367   */\n      swap2\n      swap1\n      pop\n      jump\t// out\n        /* \"#utility.yul\":20373:20792   */\n    tag_205:\n        /* \"#utility.yul\":20539:20543   */\n      0x00\n        /* \"#utility.yul\":20577:20579   */\n      0x20\n        /* \"#utility.yul\":20566:20575   */\n      dup3\n        /* \"#utility.yul\":20562:20580   */\n      add\n        /* \"#utility.yul\":20554:20580   */\n      swap1\n      pop\n        /* \"#utility.yul\":20626:20635   */\n      dup2\n        /* \"#utility.yul\":20620:20624   */\n      dup2\n        /* \"#utility.yul\":20616:20636   */\n      sub\n        /* \"#utility.yul\":20612:20613   */\n      0x00\n        /* \"#utility.yul\":20601:20610   */\n      dup4\n        /* \"#utility.yul\":20597:20614   */\n      add\n        /* \"#utility.yul\":20590:20637   */\n      mstore\n        /* \"#utility.yul\":20654:20785   */\n      tag_475\n        /* \"#utility.yul\":20780:20784   */\n      dup2\n        /* \"#utility.yul\":20654:20785   */\n      tag_284\n      jump\t// in\n    tag_475:\n        /* \"#utility.yul\":20646:20785   */\n      swap1\n      pop\n        /* \"#utility.yul\":20373:20792   */\n      swap2\n      swap1\n      pop\n      jump\t// out\n        /* \"#utility.yul\":20798:20969   */\n    tag_285:\n        /* \"#utility.yul\":20938:20961   */\n      0x5472616e736665722072657761726420676167616c0000000000000000000000\n        /* \"#utility.yul\":20934:20935   */\n      0x00\n        /* \"#utility.yul\":20926:20932   */\n      dup3\n        /* \"#utility.yul\":20922:20936   */\n      add\n        /* \"#utility.yul\":20915:20962   */\n      mstore\n        /* \"#utility.yul\":20798:20969   */\n      pop\n      jump\t// out\n        /* \"#utility.yul\":20975:21341   */\n    tag_286:\n        /* \"#utility.yul\":21117:21120   */\n      0x00\n        /* \"#utility.yul\":21138:21205   */\n      tag_478\n        /* \"#utility.yul\":21202:21204   */\n      0x15\n        /* \"#utility.yul\":21197:21200   */\n      dup4\n        /* \"#utility.yul\":21138:21205   */\n      tag_263\n      jump\t// in\n    tag_478:\n        /* \"#utility.yul\":21131:21205   */\n      swap2\n      pop\n        /* \"#utility.yul\":21214:21307   */\n      tag_479\n        /* \"#utility.yul\":21303:21306   */\n      dup3\n        /* \"#utility.yul\":21214:21307   */\n      tag_285\n      jump\t// in\n    tag_479:\n        /* \"#utility.yul\":21332:21334   */\n      0x20\n        /* \"#utility.yul\":21327:21330   */\n      dup3\n        /* \"#utility.yul\":21323:21335   */\n      add\n        /* \"#utility.yul\":21316:21335   */\n      swap1\n      pop\n        /* \"#utility.yul\":20975:21341   */\n      swap2\n      swap1\n      pop\n      jump\t// out\n        /* \"#utility.yul\":21347:21766   */\n    tag_212:\n        /* \"#utility.yul\":21513:21517   */\n      0x00\n        /* \"#utility.yul\":21551:21553   */\n      0x20\n        /* \"#utility.yul\":21540:21549   */\n      dup3\n        /* \"#utility.yul\":21536:21554   */\n      add\n        /* \"#utility.yul\":21528:21554   */\n      swap1\n      pop\n        /* \"#utility.yul\":21600:21609   */\n      dup2\n        /* \"#utility.yul\":21594:21598   */\n      dup2\n        /* \"#utility.yul\":21590:21610   */\n      sub\n        /* \"#utility.yul\":21586:21587   */\n      0x00\n        /* \"#utility.yul\":21575:21584   */\n      dup4\n        /* \"#utility.yul\":21571:21588   */\n      add\n        /* \"#utility.yul\":21564:21611   */\n      mstore\n        /* \"#utility.yul\":21628:21759   */\n      tag_481\n        /* \"#utility.yul\":21754:21758   */\n      dup2\n        /* \"#utility.yul\":21628:21759   */\n      tag_286\n      jump\t// in\n    tag_481:\n        /* \"#utility.yul\":21620:21759   */\n      swap1\n      pop\n        /* \"#utility.yul\":21347:21766   */\n      swap2\n      swap1\n      pop\n      jump\t// out\n\n    auxdata: 0xa264697066735822122008a7e8375a061a5e403f99e4b8cf98ad6c8b7a4b904de288d9e8b934d3236c4b64736f6c634300081e0033\n}\n",
				"bytecode": {
					"linkReferences": {},
					"object": "6080604052348015600e575f5ffd5b503360035f6101000a81548173ffffffffffffffffffffffffffffffffffffffff021916908373ffffffffffffffffffffffffffffffffffffffff160217905550611ebb8061005c5f395ff3fe608060405260043610610101575f3560e01c80638da5cb5b11610094578063bacb5ebd11610063578063bacb5ebd14610331578063cfc9a5f81461035b578063ddd4259614610385578063e38f8448146103ad578063ed0b1f5f146103d557610108565b80638da5cb5b146102725780638dd2361c1461029c5780639886bcfa146102df5780639c4717491461030757610108565b8063754e150d116100d0578063754e150d146101a65780637ed4c5be146101e2578063891c07851461020c5780638aee578b1461023657610108565b806330cec0eb1461010c5780633ccfd60b1461014857806351f9efde1461015e57806374119a381461018857610108565b3661010857005b5f5ffd5b348015610117575f5ffd5b50610132600480360381019061012d9190611501565b610411565b60405161013f91906115ec565b60405180910390f35b348015610153575f5ffd5b5061015c6104a4565b005b348015610169575f5ffd5b506101726105ff565b60405161017f919061161b565b60405180910390f35b610190610604565b60405161019d919061161b565b60405180910390f35b3480156101b1575f5ffd5b506101cc60048036038101906101c7919061165e565b61088f565b6040516101d991906116a4565b60405180910390f35b3480156101ed575f5ffd5b506101f6610a56565b604051610203919061161b565b60405180910390f35b348015610217575f5ffd5b50610220610a5b565b60405161022d919061161b565b60405180910390f35b348015610241575f5ffd5b5061025c600480360381019061025791906116bd565b610a66565b604051610269919061161b565b60405180910390f35b34801561027d575f5ffd5b50610286610a91565b604051610293919061171b565b60405180910390f35b3480156102a7575f5ffd5b506102c260048036038101906102bd919061165e565b610ab6565b6040516102d69897969594939291906117d0565b60405180910390f35b3480156102ea575f5ffd5b506103056004803603810190610300919061165e565b610b4b565b005b348015610312575f5ffd5b5061031b610d0d565b604051610328919061161b565b60405180910390f35b34801561033c575f5ffd5b50610345610d13565b60405161035291906116a4565b60405180910390f35b348015610366575f5ffd5b5061036f610d18565b60405161037c919061161b565b60405180910390f35b348015610390575f5ffd5b506103ab60048036038101906103a6919061165e565b610d23565b005b3480156103b8575f5ffd5b506103d360048036038101906103ce919061165e565b610ece565b005b3480156103e0575f5ffd5b506103fb60048036038101906103f6919061165e565b611205565b6040516104089190611928565b60405180910390f35b606060015f8373ffffffffffffffffffffffffffffffffffffffff1673ffffffffffffffffffffffffffffffffffffffff1681526020019081526020015f2080548060200260200160405190810160405280929190818152602001828054801561049857602002820191905f5260205f20905b815481526020019060010190808311610484575b50505050509050919050565b60035f9054906101000a900473ffffffffffffffffffffffffffffffffffffffff1673ffffffffffffffffffffffffffffffffffffffff163373ffffffffffffffffffffffffffffffffffffffff1614610533576040517f08c379a000000000000000000000000000000000000000000000000000000000815260040161052a9061199c565b60405180910390fd5b5f60035f9054906101000a900473ffffffffffffffffffffffffffffffffffffffff1673ffffffffffffffffffffffffffffffffffffffff1647604051610579906119e7565b5f6040518083038185875af1925050503d805f81146105b3576040519150601f19603f3d011682016040523d82523d5f602084013e6105b8565b606091505b50509050806105fc576040517f08c379a00000000000000000000000000000000000000000000000000000000081526004016105f390611a45565b60405180910390fd5b50565b603c81565b5f66038d7ea4c6800034101561064f576040517f08c379a000000000000000000000000000000000000000000000000000000000815260040161064690611aad565b60405180910390fd5b600160025f8282546106619190611af8565b925050819055505f60025490505f6040518061010001604052808381526020013373ffffffffffffffffffffffffffffffffffffffff1681526020015f60038111156106b0576106af611743565b5b8152602001428152602001428152602001606460ff1681526020016001151581526020015f15158152509050805f5f8481526020019081526020015f205f820151815f01556020820151816001015f6101000a81548173ffffffffffffffffffffffffffffffffffffffff021916908373ffffffffffffffffffffffffffffffffffffffff16021790555060408201518160010160146101000a81548160ff0219169083600381111561076657610765611743565b5b0217905550606082015181600201556080820151816003015560a0820151816004015f6101000a81548160ff021916908360ff16021790555060c08201518160040160016101000a81548160ff02191690831515021790555060e08201518160040160026101000a81548160ff02191690831515021790555090505060015f3373ffffffffffffffffffffffffffffffffffffffff1673ffffffffffffffffffffffffffffffffffffffff1681526020019081526020015f2082908060018154018082558091505060019003905f5260205f20015f9091909190915055813373ffffffffffffffffffffffffffffffffffffffff167f4f5b22082ac57121703b0b6c1203ef527cfbfa5069616fee6deb979d124adbf060405160405180910390a3819250505090565b5f5f5f5f8481526020019081526020015f20604051806101000160405290815f8201548152602001600182015f9054906101000a900473ffffffffffffffffffffffffffffffffffffffff1673ffffffffffffffffffffffffffffffffffffffff1673ffffffffffffffffffffffffffffffffffffffff1681526020016001820160149054906101000a900460ff1660038111156109305761092f611743565b5b600381111561094257610941611743565b5b81526020016002820154815260200160038201548152602001600482015f9054906101000a900460ff1660ff1660ff1681526020016004820160019054906101000a900460ff161515151581526020016004820160029054906101000a900460ff16151515158152505090508060c0015115806109c057508060e001515b156109ce575f915050610a51565b5f8160a0015160ff169050428260800151106109ee578092505050610a51565b5f8260800151426109ff9190611b2b565b90505f601e82610a0f9190611b8b565b90505f600260ff1682610a229190611bbb565b9050838110610a38575f95505050505050610a51565b5f8185610a459190611b2b565b90508096505050505050505b919050565b601e81565b660aa87bee53800081565b6001602052815f5260405f208181548110610a7f575f80fd5b905f5260205f20015f91509150505481565b60035f9054906101000a900473ffffffffffffffffffffffffffffffffffffffff1681565b5f602052805f5260405f205f91509050805f015490806001015f9054906101000a900473ffffffffffffffffffffffffffffffffffffffff16908060010160149054906101000a900460ff1690806002015490806003015490806004015f9054906101000a900460ff16908060040160019054906101000a900460ff16908060040160029054906101000a900460ff16905088565b5f5f5f8381526020019081526020015f2090508060040160019054906101000a900460ff16610baf576040517f08c379a0000000000000000000000000000000000000000000000000000000008152600401610ba690611c46565b60405180910390fd5b3373ffffffffffffffffffffffffffffffffffffffff16816001015f9054906101000a900473ffffffffffffffffffffffffffffffffffffffff1673ffffffffffffffffffffffffffffffffffffffff1614610c40576040517f08c379a0000000000000000000000000000000000000000000000000000000008152600401610c3790611cae565b60405180910390fd5b8060040160029054906101000a900460ff1615610c92576040517f08c379a0000000000000000000000000000000000000000000000000000000008152600401610c8990611d16565b60405180910390fd5b6064816004015f6101000a81548160ff021916908360ff160217905550428160030181905550817fd4b742b9ba48fffa1f14267075a7793851770764117c423fd0a6550dfc8cb574826004015f9054906101000a900460ff16604051610cf891906116a4565b60405180910390a2610d0982610d23565b5050565b60025481565b600281565b66038d7ea4c6800081565b5f5f5f8381526020019081526020015f2090508060040160019054906101000a900460ff16610d87576040517f08c379a0000000000000000000000000000000000000000000000000000000008152600401610d7e90611c46565b60405180910390fd5b610d908261134e565b8060040160029054906101000a900460ff1615610dad5750610ecb565b5f816002015442610dbe9190611b2b565b90505f8260010160149054906101000a900460ff1690505f819050603c6003610de79190611bbb565b8310610df65760039050610e36565b603c6002610e049190611bbb565b8310610e135760029050610e35565b603c6001610e219190611bbb565b8310610e305760019050610e34565b5f90505b5b5b816003811115610e4957610e48611743565b5b816003811115610e5c57610e5b611743565b5b14610ec657808460010160146101000a81548160ff02191690836003811115610e8857610e87611743565b5b0217905550847f338b8976706f9da67298dddfa1ea4ff7d99cce68b9ca39c4f348994f8e2124a882604051610ebd9190611d34565b60405180910390a25b505050505b50565b5f5f5f8381526020019081526020015f2090508060040160019054906101000a900460ff16610f32576040517f08c379a0000000000000000000000000000000000000000000000000000000008152600401610f2990611c46565b60405180910390fd5b3373ffffffffffffffffffffffffffffffffffffffff16816001015f9054906101000a900473ffffffffffffffffffffffffffffffffffffffff1673ffffffffffffffffffffffffffffffffffffffff1614610fc3576040517f08c379a0000000000000000000000000000000000000000000000000000000008152600401610fba90611cae565b60405180910390fd5b8060040160029054906101000a900460ff1615611015576040517f08c379a000000000000000000000000000000000000000000000000000000000815260040161100c90611d16565b60405180910390fd5b61101e82610d23565b60038081111561103157611030611743565b5b8160010160149054906101000a900460ff16600381111561105557611054611743565b5b14611095576040517f08c379a000000000000000000000000000000000000000000000000000000000815260040161108c90611d97565b60405180910390fd5b5f8160040160016101000a81548160ff0219169083151502179055503373ffffffffffffffffffffffffffffffffffffffff16827f79f2138ea100070ff95b59c265da7aa3c7a0f61595fe1bb2f5fda2762f398847660aa87bee5380006040516110ff919061161b565b60405180910390a3660aa87bee538000471015611151576040517f08c379a000000000000000000000000000000000000000000000000000000000815260040161114890611dff565b60405180910390fd5b5f3373ffffffffffffffffffffffffffffffffffffffff16660aa87bee53800060405161117d906119e7565b5f6040518083038185875af1925050503d805f81146111b7576040519150601f19603f3d011682016040523d82523d5f602084013e6111bc565b606091505b5050905080611200576040517f08c379a00000000000000000000000000000000000000000000000000000000081526004016111f790611e67565b60405180910390fd5b505050565b61120d611437565b5f5f5f8481526020019081526020015f20604051806101000160405290815f8201548152602001600182015f9054906101000a900473ffffffffffffffffffffffffffffffffffffffff1673ffffffffffffffffffffffffffffffffffffffff1673ffffffffffffffffffffffffffffffffffffffff1681526020016001820160149054906101000a900460ff1660038111156112ad576112ac611743565b5b60038111156112bf576112be611743565b5b81526020016002820154815260200160038201548152602001600482015f9054906101000a900460ff1660ff1660ff1681526020016004820160019054906101000a900460ff161515151581526020016004820160029054906101000a900460ff16151515158152505090506113348361088f565b8160a0019060ff16908160ff168152505080915050919050565b5f5f5f8381526020019081526020015f2090508060040160019054906101000a900460ff16158061138d57508060040160029054906101000a900460ff165b156113985750611434565b5f6113a28361088f565b905080826004015f6101000a81548160ff021916908360ff1602179055505f8160ff161480156113e157508160040160029054906101000a900460ff16155b156114315760018260040160026101000a81548160ff021916908315150217905550827fcc296a21951f3e57f21afb08547d835a0a9f0f06cc2867009cbe0cae44d36be960405160405180910390a25b50505b50565b6040518061010001604052805f81526020015f73ffffffffffffffffffffffffffffffffffffffff1681526020015f600381111561147857611477611743565b5b81526020015f81526020015f81526020015f60ff1681526020015f151581526020015f151581525090565b5f5ffd5b5f73ffffffffffffffffffffffffffffffffffffffff82169050919050565b5f6114d0826114a7565b9050919050565b6114e0816114c6565b81146114ea575f5ffd5b50565b5f813590506114fb816114d7565b92915050565b5f60208284031215611516576115156114a3565b5b5f611523848285016114ed565b91505092915050565b5f81519050919050565b5f82825260208201905092915050565b5f819050602082019050919050565b5f819050919050565b61156781611555565b82525050565b5f611578838361155e565b60208301905092915050565b5f602082019050919050565b5f61159a8261152c565b6115a48185611536565b93506115af83611546565b805f5b838110156115df5781516115c6888261156d565b97506115d183611584565b9250506001810190506115b2565b5085935050505092915050565b5f6020820190508181035f8301526116048184611590565b905092915050565b61161581611555565b82525050565b5f60208201905061162e5f83018461160c565b92915050565b61163d81611555565b8114611647575f5ffd5b50565b5f8135905061165881611634565b92915050565b5f60208284031215611673576116726114a3565b5b5f6116808482850161164a565b91505092915050565b5f60ff82169050919050565b61169e81611689565b82525050565b5f6020820190506116b75f830184611695565b92915050565b5f5f604083850312156116d3576116d26114a3565b5b5f6116e0858286016114ed565b92505060206116f18582860161164a565b9150509250929050565b5f611705826114a7565b9050919050565b611715816116fb565b82525050565b5f60208201905061172e5f83018461170c565b92915050565b61173d816114c6565b82525050565b7f4e487b71000000000000000000000000000000000000000000000000000000005f52602160045260245ffd5b6004811061178157611780611743565b5b50565b5f81905061179182611770565b919050565b5f6117a082611784565b9050919050565b6117b081611796565b82525050565b5f8115159050919050565b6117ca816117b6565b82525050565b5f610100820190506117e45f83018b61160c565b6117f1602083018a611734565b6117fe60408301896117a7565b61180b606083018861160c565b611818608083018761160c565b61182560a0830186611695565b61183260c08301856117c1565b61183f60e08301846117c1565b9998505050505050505050565b611855816114c6565b82525050565b61186481611796565b82525050565b61187381611689565b82525050565b611882816117b6565b82525050565b61010082015f82015161189d5f85018261155e565b5060208201516118b0602085018261184c565b5060408201516118c3604085018261185b565b5060608201516118d6606085018261155e565b5060808201516118e9608085018261155e565b5060a08201516118fc60a085018261186a565b5060c082015161190f60c0850182611879565b5060e082015161192260e0850182611879565b50505050565b5f6101008201905061193c5f830184611888565b92915050565b5f82825260208201905092915050565b7f42756b616e206f776e65720000000000000000000000000000000000000000005f82015250565b5f611986600b83611942565b915061199182611952565b602082019050919050565b5f6020820190508181035f8301526119b38161197a565b9050919050565b5f81905092915050565b50565b5f6119d25f836119ba565b91506119dd826119c4565b5f82019050919050565b5f6119f1826119c7565b9150819050919050565b7f5472616e7366657220676167616c0000000000000000000000000000000000005f82015250565b5f611a2f600e83611942565b9150611a3a826119fb565b602082019050919050565b5f6020820190508181035f830152611a5c81611a23565b9050919050565b7f4261796172206d696e696d616c20504c414e545f5052494345000000000000005f82015250565b5f611a97601983611942565b9150611aa282611a63565b602082019050919050565b5f6020820190508181035f830152611ac481611a8b565b9050919050565b7f4e487b71000000000000000000000000000000000000000000000000000000005f52601160045260245ffd5b5f611b0282611555565b9150611b0d83611555565b9250828201905080821115611b2557611b24611acb565b5b92915050565b5f611b3582611555565b9150611b4083611555565b9250828203905081811115611b5857611b57611acb565b5b92915050565b7f4e487b71000000000000000000000000000000000000000000000000000000005f52601260045260245ffd5b5f611b9582611555565b9150611ba083611555565b925082611bb057611baf611b5e565b5b828204905092915050565b5f611bc582611555565b9150611bd083611555565b9250828202611bde81611555565b91508282048414831517611bf557611bf4611acb565b5b5092915050565b7f506c616e7420746964616b2061646100000000000000000000000000000000005f82015250565b5f611c30600f83611942565b9150611c3b82611bfc565b602082019050919050565b5f6020820190508181035f830152611c5d81611c24565b9050919050565b7f42756b616e2070656d696c696b20706c616e74000000000000000000000000005f82015250565b5f611c98601383611942565b9150611ca382611c64565b602082019050919050565b5f6020820190508181035f830152611cc581611c8c565b9050919050565b7f506c616e74207375646168206d617469000000000000000000000000000000005f82015250565b5f611d00601083611942565b9150611d0b82611ccc565b602082019050919050565b5f6020820190508181035f830152611d2d81611cf4565b9050919050565b5f602082019050611d475f8301846117a7565b92915050565b7f506c616e742062656c756d20626c6f6f6d696e670000000000000000000000005f82015250565b5f611d81601483611942565b9150611d8c82611d4d565b602082019050919050565b5f6020820190508181035f830152611dae81611d75565b9050919050565b7f4b6f6e7472616b20746964616b2070756e79612063756b75702073616c646f005f82015250565b5f611de9601f83611942565b9150611df482611db5565b602082019050919050565b5f6020820190508181035f830152611e1681611ddd565b9050919050565b7f5472616e736665722072657761726420676167616c00000000000000000000005f82015250565b5f611e51601583611942565b9150611e5c82611e1d565b602082019050919050565b5f6020820190508181035f830152611e7e81611e45565b905091905056fea264697066735822122008a7e8375a061a5e403f99e4b8cf98ad6c8b7a4b904de288d9e8b934d3236c4b64736f6c634300081e0033",
					"opcodes": "PUSH1 0x80 PUSH1 0x40 MSTORE CALLVALUE DUP1 ISZERO PUSH1 0xE JUMPI PUSH0 PUSH0 REVERT JUMPDEST POP CALLER PUSH1 0x3 PUSH0 PUSH2 0x100 EXP DUP2 SLOAD DUP2 PUSH20 0xFFFFFFFFFFFFFFFFFFFFFFFFFFFFFFFFFFFFFFFF MUL NOT AND SWAP1 DUP4 PUSH20 0xFFFFFFFFFFFFFFFFFFFFFFFFFFFFFFFFFFFFFFFF AND MUL OR SWAP1 SSTORE POP PUSH2 0x1EBB DUP1 PUSH2 0x5C PUSH0 CODECOPY PUSH0 RETURN INVALID PUSH1 0x80 PUSH1 0x40 MSTORE PUSH1 0x4 CALLDATASIZE LT PUSH2 0x101 JUMPI PUSH0 CALLDATALOAD PUSH1 0xE0 SHR DUP1 PUSH4 0x8DA5CB5B GT PUSH2 0x94 JUMPI DUP1 PUSH4 0xBACB5EBD GT PUSH2 0x63 JUMPI DUP1 PUSH4 0xBACB5EBD EQ PUSH2 0x331 JUMPI DUP1 PUSH4 0xCFC9A5F8 EQ PUSH2 0x35B JUMPI DUP1 PUSH4 0xDDD42596 EQ PUSH2 0x385 JUMPI DUP1 PUSH4 0xE38F8448 EQ PUSH2 0x3AD JUMPI DUP1 PUSH4 0xED0B1F5F EQ PUSH2 0x3D5 JUMPI PUSH2 0x108 JUMP JUMPDEST DUP1 PUSH4 0x8DA5CB5B EQ PUSH2 0x272 JUMPI DUP1 PUSH4 0x8DD2361C EQ PUSH2 0x29C JUMPI DUP1 PUSH4 0x9886BCFA EQ PUSH2 0x2DF JUMPI DUP1 PUSH4 0x9C471749 EQ PUSH2 0x307 JUMPI PUSH2 0x108 JUMP JUMPDEST DUP1 PUSH4 0x754E150D GT PUSH2 0xD0 JUMPI DUP1 PUSH4 0x754E150D EQ PUSH2 0x1A6 JUMPI DUP1 PUSH4 0x7ED4C5BE EQ PUSH2 0x1E2 JUMPI DUP1 PUSH4 0x891C0785 EQ PUSH2 0x20C JUMPI DUP1 PUSH4 0x8AEE578B EQ PUSH2 0x236 JUMPI PUSH2 0x108 JUMP JUMPDEST DUP1 PUSH4 0x30CEC0EB EQ PUSH2 0x10C JUMPI DUP1 PUSH4 0x3CCFD60B EQ PUSH2 0x148 JUMPI DUP1 PUSH4 0x51F9EFDE EQ PUSH2 0x15E JUMPI DUP1 PUSH4 0x74119A38 EQ PUSH2 0x188 JUMPI PUSH2 0x108 JUMP JUMPDEST CALLDATASIZE PUSH2 0x108 JUMPI STOP JUMPDEST PUSH0 PUSH0 REVERT JUMPDEST CALLVALUE DUP1 ISZERO PUSH2 0x117 JUMPI PUSH0 PUSH0 REVERT JUMPDEST POP PUSH2 0x132 PUSH1 0x4 DUP1 CALLDATASIZE SUB DUP2 ADD SWAP1 PUSH2 0x12D SWAP2 SWAP1 PUSH2 0x1501 JUMP JUMPDEST PUSH2 0x411 JUMP JUMPDEST PUSH1 0x40 MLOAD PUSH2 0x13F SWAP2 SWAP1 PUSH2 0x15EC JUMP JUMPDEST PUSH1 0x40 MLOAD DUP1 SWAP2 SUB SWAP1 RETURN JUMPDEST CALLVALUE DUP1 ISZERO PUSH2 0x153 JUMPI PUSH0 PUSH0 REVERT JUMPDEST POP PUSH2 0x15C PUSH2 0x4A4 JUMP JUMPDEST STOP JUMPDEST CALLVALUE DUP1 ISZERO PUSH2 0x169 JUMPI PUSH0 PUSH0 REVERT JUMPDEST POP PUSH2 0x172 PUSH2 0x5FF JUMP JUMPDEST PUSH1 0x40 MLOAD PUSH2 0x17F SWAP2 SWAP1 PUSH2 0x161B JUMP JUMPDEST PUSH1 0x40 MLOAD DUP1 SWAP2 SUB SWAP1 RETURN JUMPDEST PUSH2 0x190 PUSH2 0x604 JUMP JUMPDEST PUSH1 0x40 MLOAD PUSH2 0x19D SWAP2 SWAP1 PUSH2 0x161B JUMP JUMPDEST PUSH1 0x40 MLOAD DUP1 SWAP2 SUB SWAP1 RETURN JUMPDEST CALLVALUE DUP1 ISZERO PUSH2 0x1B1 JUMPI PUSH0 PUSH0 REVERT JUMPDEST POP PUSH2 0x1CC PUSH1 0x4 DUP1 CALLDATASIZE SUB DUP2 ADD SWAP1 PUSH2 0x1C7 SWAP2 SWAP1 PUSH2 0x165E JUMP JUMPDEST PUSH2 0x88F JUMP JUMPDEST PUSH1 0x40 MLOAD PUSH2 0x1D9 SWAP2 SWAP1 PUSH2 0x16A4 JUMP JUMPDEST PUSH1 0x40 MLOAD DUP1 SWAP2 SUB SWAP1 RETURN JUMPDEST CALLVALUE DUP1 ISZERO PUSH2 0x1ED JUMPI PUSH0 PUSH0 REVERT JUMPDEST POP PUSH2 0x1F6 PUSH2 0xA56 JUMP JUMPDEST PUSH1 0x40 MLOAD PUSH2 0x203 SWAP2 SWAP1 PUSH2 0x161B JUMP JUMPDEST PUSH1 0x40 MLOAD DUP1 SWAP2 SUB SWAP1 RETURN JUMPDEST CALLVALUE DUP1 ISZERO PUSH2 0x217 JUMPI PUSH0 PUSH0 REVERT JUMPDEST POP PUSH2 0x220 PUSH2 0xA5B JUMP JUMPDEST PUSH1 0x40 MLOAD PUSH2 0x22D SWAP2 SWAP1 PUSH2 0x161B JUMP JUMPDEST PUSH1 0x40 MLOAD DUP1 SWAP2 SUB SWAP1 RETURN JUMPDEST CALLVALUE DUP1 ISZERO PUSH2 0x241 JUMPI PUSH0 PUSH0 REVERT JUMPDEST POP PUSH2 0x25C PUSH1 0x4 DUP1 CALLDATASIZE SUB DUP2 ADD SWAP1 PUSH2 0x257 SWAP2 SWAP1 PUSH2 0x16BD JUMP JUMPDEST PUSH2 0xA66 JUMP JUMPDEST PUSH1 0x40 MLOAD PUSH2 0x269 SWAP2 SWAP1 PUSH2 0x161B JUMP JUMPDEST PUSH1 0x40 MLOAD DUP1 SWAP2 SUB SWAP1 RETURN JUMPDEST CALLVALUE DUP1 ISZERO PUSH2 0x27D JUMPI PUSH0 PUSH0 REVERT JUMPDEST POP PUSH2 0x286 PUSH2 0xA91 JUMP JUMPDEST PUSH1 0x40 MLOAD PUSH2 0x293 SWAP2 SWAP1 PUSH2 0x171B JUMP JUMPDEST PUSH1 0x40 MLOAD DUP1 SWAP2 SUB SWAP1 RETURN JUMPDEST CALLVALUE DUP1 ISZERO PUSH2 0x2A7 JUMPI PUSH0 PUSH0 REVERT JUMPDEST POP PUSH2 0x2C2 PUSH1 0x4 DUP1 CALLDATASIZE SUB DUP2 ADD SWAP1 PUSH2 0x2BD SWAP2 SWAP1 PUSH2 0x165E JUMP JUMPDEST PUSH2 0xAB6 JUMP JUMPDEST PUSH1 0x40 MLOAD PUSH2 0x2D6 SWAP9 SWAP8 SWAP7 SWAP6 SWAP5 SWAP4 SWAP3 SWAP2 SWAP1 PUSH2 0x17D0 JUMP JUMPDEST PUSH1 0x40 MLOAD DUP1 SWAP2 SUB SWAP1 RETURN JUMPDEST CALLVALUE DUP1 ISZERO PUSH2 0x2EA JUMPI PUSH0 PUSH0 REVERT JUMPDEST POP PUSH2 0x305 PUSH1 0x4 DUP1 CALLDATASIZE SUB DUP2 ADD SWAP1 PUSH2 0x300 SWAP2 SWAP1 PUSH2 0x165E JUMP JUMPDEST PUSH2 0xB4B JUMP JUMPDEST STOP JUMPDEST CALLVALUE DUP1 ISZERO PUSH2 0x312 JUMPI PUSH0 PUSH0 REVERT JUMPDEST POP PUSH2 0x31B PUSH2 0xD0D JUMP JUMPDEST PUSH1 0x40 MLOAD PUSH2 0x328 SWAP2 SWAP1 PUSH2 0x161B JUMP JUMPDEST PUSH1 0x40 MLOAD DUP1 SWAP2 SUB SWAP1 RETURN JUMPDEST CALLVALUE DUP1 ISZERO PUSH2 0x33C JUMPI PUSH0 PUSH0 REVERT JUMPDEST POP PUSH2 0x345 PUSH2 0xD13 JUMP JUMPDEST PUSH1 0x40 MLOAD PUSH2 0x352 SWAP2 SWAP1 PUSH2 0x16A4 JUMP JUMPDEST PUSH1 0x40 MLOAD DUP1 SWAP2 SUB SWAP1 RETURN JUMPDEST CALLVALUE DUP1 ISZERO PUSH2 0x366 JUMPI PUSH0 PUSH0 REVERT JUMPDEST POP PUSH2 0x36F PUSH2 0xD18 JUMP JUMPDEST PUSH1 0x40 MLOAD PUSH2 0x37C SWAP2 SWAP1 PUSH2 0x161B JUMP JUMPDEST PUSH1 0x40 MLOAD DUP1 SWAP2 SUB SWAP1 RETURN JUMPDEST CALLVALUE DUP1 ISZERO PUSH2 0x390 JUMPI PUSH0 PUSH0 REVERT JUMPDEST POP PUSH2 0x3AB PUSH1 0x4 DUP1 CALLDATASIZE SUB DUP2 ADD SWAP1 PUSH2 0x3A6 SWAP2 SWAP1 PUSH2 0x165E JUMP JUMPDEST PUSH2 0xD23 JUMP JUMPDEST STOP JUMPDEST CALLVALUE DUP1 ISZERO PUSH2 0x3B8 JUMPI PUSH0 PUSH0 REVERT JUMPDEST POP PUSH2 0x3D3 PUSH1 0x4 DUP1 CALLDATASIZE SUB DUP2 ADD SWAP1 PUSH2 0x3CE SWAP2 SWAP1 PUSH2 0x165E JUMP JUMPDEST PUSH2 0xECE JUMP JUMPDEST STOP JUMPDEST CALLVALUE DUP1 ISZERO PUSH2 0x3E0 JUMPI PUSH0 PUSH0 REVERT JUMPDEST POP PUSH2 0x3FB PUSH1 0x4 DUP1 CALLDATASIZE SUB DUP2 ADD SWAP1 PUSH2 0x3F6 SWAP2 SWAP1 PUSH2 0x165E JUMP JUMPDEST PUSH2 0x1205 JUMP JUMPDEST PUSH1 0x40 MLOAD PUSH2 0x408 SWAP2 SWAP1 PUSH2 0x1928 JUMP JUMPDEST PUSH1 0x40 MLOAD DUP1 SWAP2 SUB SWAP1 RETURN JUMPDEST PUSH1 0x60 PUSH1 0x1 PUSH0 DUP4 PUSH20 0xFFFFFFFFFFFFFFFFFFFFFFFFFFFFFFFFFFFFFFFF AND PUSH20 0xFFFFFFFFFFFFFFFFFFFFFFFFFFFFFFFFFFFFFFFF AND DUP2 MSTORE PUSH1 0x20 ADD SWAP1 DUP2 MSTORE PUSH1 0x20 ADD PUSH0 KECCAK256 DUP1 SLOAD DUP1 PUSH1 0x20 MUL PUSH1 0x20 ADD PUSH1 0x40 MLOAD SWAP1 DUP2 ADD PUSH1 0x40 MSTORE DUP1 SWAP3 SWAP2 SWAP1 DUP2 DUP2 MSTORE PUSH1 0x20 ADD DUP3 DUP1 SLOAD DUP1 ISZERO PUSH2 0x498 JUMPI PUSH1 0x20 MUL DUP3 ADD SWAP2 SWAP1 PUSH0 MSTORE PUSH1 0x20 PUSH0 KECCAK256 SWAP1 JUMPDEST DUP2 SLOAD DUP2 MSTORE PUSH1 0x20 ADD SWAP1 PUSH1 0x1 ADD SWAP1 DUP1 DUP4 GT PUSH2 0x484 JUMPI JUMPDEST POP POP POP POP POP SWAP1 POP SWAP2 SWAP1 POP JUMP JUMPDEST PUSH1 0x3 PUSH0 SWAP1 SLOAD SWAP1 PUSH2 0x100 EXP SWAP1 DIV PUSH20 0xFFFFFFFFFFFFFFFFFFFFFFFFFFFFFFFFFFFFFFFF AND PUSH20 0xFFFFFFFFFFFFFFFFFFFFFFFFFFFFFFFFFFFFFFFF AND CALLER PUSH20 0xFFFFFFFFFFFFFFFFFFFFFFFFFFFFFFFFFFFFFFFF AND EQ PUSH2 0x533 JUMPI PUSH1 0x40 MLOAD PUSH32 0x8C379A000000000000000000000000000000000000000000000000000000000 DUP2 MSTORE PUSH1 0x4 ADD PUSH2 0x52A SWAP1 PUSH2 0x199C JUMP JUMPDEST PUSH1 0x40 MLOAD DUP1 SWAP2 SUB SWAP1 REVERT JUMPDEST PUSH0 PUSH1 0x3 PUSH0 SWAP1 SLOAD SWAP1 PUSH2 0x100 EXP SWAP1 DIV PUSH20 0xFFFFFFFFFFFFFFFFFFFFFFFFFFFFFFFFFFFFFFFF AND PUSH20 0xFFFFFFFFFFFFFFFFFFFFFFFFFFFFFFFFFFFFFFFF AND SELFBALANCE PUSH1 0x40 MLOAD PUSH2 0x579 SWAP1 PUSH2 0x19E7 JUMP JUMPDEST PUSH0 PUSH1 0x40 MLOAD DUP1 DUP4 SUB DUP2 DUP6 DUP8 GAS CALL SWAP3 POP POP POP RETURNDATASIZE DUP1 PUSH0 DUP2 EQ PUSH2 0x5B3 JUMPI PUSH1 0x40 MLOAD SWAP2 POP PUSH1 0x1F NOT PUSH1 0x3F RETURNDATASIZE ADD AND DUP3 ADD PUSH1 0x40 MSTORE RETURNDATASIZE DUP3 MSTORE RETURNDATASIZE PUSH0 PUSH1 0x20 DUP5 ADD RETURNDATACOPY PUSH2 0x5B8 JUMP JUMPDEST PUSH1 0x60 SWAP2 POP JUMPDEST POP POP SWAP1 POP DUP1 PUSH2 0x5FC JUMPI PUSH1 0x40 MLOAD PUSH32 0x8C379A000000000000000000000000000000000000000000000000000000000 DUP2 MSTORE PUSH1 0x4 ADD PUSH2 0x5F3 SWAP1 PUSH2 0x1A45 JUMP JUMPDEST PUSH1 0x40 MLOAD DUP1 SWAP2 SUB SWAP1 REVERT JUMPDEST POP JUMP JUMPDEST PUSH1 0x3C DUP2 JUMP JUMPDEST PUSH0 PUSH7 0x38D7EA4C68000 CALLVALUE LT ISZERO PUSH2 0x64F JUMPI PUSH1 0x40 MLOAD PUSH32 0x8C379A000000000000000000000000000000000000000000000000000000000 DUP2 MSTORE PUSH1 0x4 ADD PUSH2 0x646 SWAP1 PUSH2 0x1AAD JUMP JUMPDEST PUSH1 0x40 MLOAD DUP1 SWAP2 SUB SWAP1 REVERT JUMPDEST PUSH1 0x1 PUSH1 0x2 PUSH0 DUP3 DUP3 SLOAD PUSH2 0x661 SWAP2 SWAP1 PUSH2 0x1AF8 JUMP JUMPDEST SWAP3 POP POP DUP2 SWAP1 SSTORE POP PUSH0 PUSH1 0x2 SLOAD SWAP1 POP PUSH0 PUSH1 0x40 MLOAD DUP1 PUSH2 0x100 ADD PUSH1 0x40 MSTORE DUP1 DUP4 DUP2 MSTORE PUSH1 0x20 ADD CALLER PUSH20 0xFFFFFFFFFFFFFFFFFFFFFFFFFFFFFFFFFFFFFFFF AND DUP2 MSTORE PUSH1 0x20 ADD PUSH0 PUSH1 0x3 DUP2 GT ISZERO PUSH2 0x6B0 JUMPI PUSH2 0x6AF PUSH2 0x1743 JUMP JUMPDEST JUMPDEST DUP2 MSTORE PUSH1 0x20 ADD TIMESTAMP DUP2 MSTORE PUSH1 0x20 ADD TIMESTAMP DUP2 MSTORE PUSH1 0x20 ADD PUSH1 0x64 PUSH1 0xFF AND DUP2 MSTORE PUSH1 0x20 ADD PUSH1 0x1 ISZERO ISZERO DUP2 MSTORE PUSH1 0x20 ADD PUSH0 ISZERO ISZERO DUP2 MSTORE POP SWAP1 POP DUP1 PUSH0 PUSH0 DUP5 DUP2 MSTORE PUSH1 0x20 ADD SWAP1 DUP2 MSTORE PUSH1 0x20 ADD PUSH0 KECCAK256 PUSH0 DUP3 ADD MLOAD DUP2 PUSH0 ADD SSTORE PUSH1 0x20 DUP3 ADD MLOAD DUP2 PUSH1 0x1 ADD PUSH0 PUSH2 0x100 EXP DUP2 SLOAD DUP2 PUSH20 0xFFFFFFFFFFFFFFFFFFFFFFFFFFFFFFFFFFFFFFFF MUL NOT AND SWAP1 DUP4 PUSH20 0xFFFFFFFFFFFFFFFFFFFFFFFFFFFFFFFFFFFFFFFF AND MUL OR SWAP1 SSTORE POP PUSH1 0x40 DUP3 ADD MLOAD DUP2 PUSH1 0x1 ADD PUSH1 0x14 PUSH2 0x100 EXP DUP2 SLOAD DUP2 PUSH1 0xFF MUL NOT AND SWAP1 DUP4 PUSH1 0x3 DUP2 GT ISZERO PUSH2 0x766 JUMPI PUSH2 0x765 PUSH2 0x1743 JUMP JUMPDEST JUMPDEST MUL OR SWAP1 SSTORE POP PUSH1 0x60 DUP3 ADD MLOAD DUP2 PUSH1 0x2 ADD SSTORE PUSH1 0x80 DUP3 ADD MLOAD DUP2 PUSH1 0x3 ADD SSTORE PUSH1 0xA0 DUP3 ADD MLOAD DUP2 PUSH1 0x4 ADD PUSH0 PUSH2 0x100 EXP DUP2 SLOAD DUP2 PUSH1 0xFF MUL NOT AND SWAP1 DUP4 PUSH1 0xFF AND MUL OR SWAP1 SSTORE POP PUSH1 0xC0 DUP3 ADD MLOAD DUP2 PUSH1 0x4 ADD PUSH1 0x1 PUSH2 0x100 EXP DUP2 SLOAD DUP2 PUSH1 0xFF MUL NOT AND SWAP1 DUP4 ISZERO ISZERO MUL OR SWAP1 SSTORE POP PUSH1 0xE0 DUP3 ADD MLOAD DUP2 PUSH1 0x4 ADD PUSH1 0x2 PUSH2 0x100 EXP DUP2 SLOAD DUP2 PUSH1 0xFF MUL NOT AND SWAP1 DUP4 ISZERO ISZERO MUL OR SWAP1 SSTORE POP SWAP1 POP POP PUSH1 0x1 PUSH0 CALLER PUSH20 0xFFFFFFFFFFFFFFFFFFFFFFFFFFFFFFFFFFFFFFFF AND PUSH20 0xFFFFFFFFFFFFFFFFFFFFFFFFFFFFFFFFFFFFFFFF AND DUP2 MSTORE PUSH1 0x20 ADD SWAP1 DUP2 MSTORE PUSH1 0x20 ADD PUSH0 KECCAK256 DUP3 SWAP1 DUP1 PUSH1 0x1 DUP2 SLOAD ADD DUP1 DUP3 SSTORE DUP1 SWAP2 POP POP PUSH1 0x1 SWAP1 SUB SWAP1 PUSH0 MSTORE PUSH1 0x20 PUSH0 KECCAK256 ADD PUSH0 SWAP1 SWAP2 SWAP1 SWAP2 SWAP1 SWAP2 POP SSTORE DUP2 CALLER PUSH20 0xFFFFFFFFFFFFFFFFFFFFFFFFFFFFFFFFFFFFFFFF AND PUSH32 0x4F5B22082AC57121703B0B6C1203EF527CFBFA5069616FEE6DEB979D124ADBF0 PUSH1 0x40 MLOAD PUSH1 0x40 MLOAD DUP1 SWAP2 SUB SWAP1 LOG3 DUP2 SWAP3 POP POP POP SWAP1 JUMP JUMPDEST PUSH0 PUSH0 PUSH0 PUSH0 DUP5 DUP2 MSTORE PUSH1 0x20 ADD SWAP1 DUP2 MSTORE PUSH1 0x20 ADD PUSH0 KECCAK256 PUSH1 0x40 MLOAD DUP1 PUSH2 0x100 ADD PUSH1 0x40 MSTORE SWAP1 DUP2 PUSH0 DUP3 ADD SLOAD DUP2 MSTORE PUSH1 0x20 ADD PUSH1 0x1 DUP3 ADD PUSH0 SWAP1 SLOAD SWAP1 PUSH2 0x100 EXP SWAP1 DIV PUSH20 0xFFFFFFFFFFFFFFFFFFFFFFFFFFFFFFFFFFFFFFFF AND PUSH20 0xFFFFFFFFFFFFFFFFFFFFFFFFFFFFFFFFFFFFFFFF AND PUSH20 0xFFFFFFFFFFFFFFFFFFFFFFFFFFFFFFFFFFFFFFFF AND DUP2 MSTORE PUSH1 0x20 ADD PUSH1 0x1 DUP3 ADD PUSH1 0x14 SWAP1 SLOAD SWAP1 PUSH2 0x100 EXP SWAP1 DIV PUSH1 0xFF AND PUSH1 0x3 DUP2 GT ISZERO PUSH2 0x930 JUMPI PUSH2 0x92F PUSH2 0x1743 JUMP JUMPDEST JUMPDEST PUSH1 0x3 DUP2 GT ISZERO PUSH2 0x942 JUMPI PUSH2 0x941 PUSH2 0x1743 JUMP JUMPDEST JUMPDEST DUP2 MSTORE PUSH1 0x20 ADD PUSH1 0x2 DUP3 ADD SLOAD DUP2 MSTORE PUSH1 0x20 ADD PUSH1 0x3 DUP3 ADD SLOAD DUP2 MSTORE PUSH1 0x20 ADD PUSH1 0x4 DUP3 ADD PUSH0 SWAP1 SLOAD SWAP1 PUSH2 0x100 EXP SWAP1 DIV PUSH1 0xFF AND PUSH1 0xFF AND PUSH1 0xFF AND DUP2 MSTORE PUSH1 0x20 ADD PUSH1 0x4 DUP3 ADD PUSH1 0x1 SWAP1 SLOAD SWAP1 PUSH2 0x100 EXP SWAP1 DIV PUSH1 0xFF AND ISZERO ISZERO ISZERO ISZERO DUP2 MSTORE PUSH1 0x20 ADD PUSH1 0x4 DUP3 ADD PUSH1 0x2 SWAP1 SLOAD SWAP1 PUSH2 0x100 EXP SWAP1 DIV PUSH1 0xFF AND ISZERO ISZERO ISZERO ISZERO DUP2 MSTORE POP POP SWAP1 POP DUP1 PUSH1 0xC0 ADD MLOAD ISZERO DUP1 PUSH2 0x9C0 JUMPI POP DUP1 PUSH1 0xE0 ADD MLOAD JUMPDEST ISZERO PUSH2 0x9CE JUMPI PUSH0 SWAP2 POP POP PUSH2 0xA51 JUMP JUMPDEST PUSH0 DUP2 PUSH1 0xA0 ADD MLOAD PUSH1 0xFF AND SWAP1 POP TIMESTAMP DUP3 PUSH1 0x80 ADD MLOAD LT PUSH2 0x9EE JUMPI DUP1 SWAP3 POP POP POP PUSH2 0xA51 JUMP JUMPDEST PUSH0 DUP3 PUSH1 0x80 ADD MLOAD TIMESTAMP PUSH2 0x9FF SWAP2 SWAP1 PUSH2 0x1B2B JUMP JUMPDEST SWAP1 POP PUSH0 PUSH1 0x1E DUP3 PUSH2 0xA0F SWAP2 SWAP1 PUSH2 0x1B8B JUMP JUMPDEST SWAP1 POP PUSH0 PUSH1 0x2 PUSH1 0xFF AND DUP3 PUSH2 0xA22 SWAP2 SWAP1 PUSH2 0x1BBB JUMP JUMPDEST SWAP1 POP DUP4 DUP2 LT PUSH2 0xA38 JUMPI PUSH0 SWAP6 POP POP POP POP POP POP PUSH2 0xA51 JUMP JUMPDEST PUSH0 DUP2 DUP6 PUSH2 0xA45 SWAP2 SWAP1 PUSH2 0x1B2B JUMP JUMPDEST SWAP1 POP DUP1 SWAP7 POP POP POP POP POP POP POP JUMPDEST SWAP2 SWAP1 POP JUMP JUMPDEST PUSH1 0x1E DUP2 JUMP JUMPDEST PUSH7 0xAA87BEE538000 DUP2 JUMP JUMPDEST PUSH1 0x1 PUSH1 0x20 MSTORE DUP2 PUSH0 MSTORE PUSH1 0x40 PUSH0 KECCAK256 DUP2 DUP2 SLOAD DUP2 LT PUSH2 0xA7F JUMPI PUSH0 DUP1 REVERT JUMPDEST SWAP1 PUSH0 MSTORE PUSH1 0x20 PUSH0 KECCAK256 ADD PUSH0 SWAP2 POP SWAP2 POP POP SLOAD DUP2 JUMP JUMPDEST PUSH1 0x3 PUSH0 SWAP1 SLOAD SWAP1 PUSH2 0x100 EXP SWAP1 DIV PUSH20 0xFFFFFFFFFFFFFFFFFFFFFFFFFFFFFFFFFFFFFFFF AND DUP2 JUMP JUMPDEST PUSH0 PUSH1 0x20 MSTORE DUP1 PUSH0 MSTORE PUSH1 0x40 PUSH0 KECCAK256 PUSH0 SWAP2 POP SWAP1 POP DUP1 PUSH0 ADD SLOAD SWAP1 DUP1 PUSH1 0x1 ADD PUSH0 SWAP1 SLOAD SWAP1 PUSH2 0x100 EXP SWAP1 DIV PUSH20 0xFFFFFFFFFFFFFFFFFFFFFFFFFFFFFFFFFFFFFFFF AND SWAP1 DUP1 PUSH1 0x1 ADD PUSH1 0x14 SWAP1 SLOAD SWAP1 PUSH2 0x100 EXP SWAP1 DIV PUSH1 0xFF AND SWAP1 DUP1 PUSH1 0x2 ADD SLOAD SWAP1 DUP1 PUSH1 0x3 ADD SLOAD SWAP1 DUP1 PUSH1 0x4 ADD PUSH0 SWAP1 SLOAD SWAP1 PUSH2 0x100 EXP SWAP1 DIV PUSH1 0xFF AND SWAP1 DUP1 PUSH1 0x4 ADD PUSH1 0x1 SWAP1 SLOAD SWAP1 PUSH2 0x100 EXP SWAP1 DIV PUSH1 0xFF AND SWAP1 DUP1 PUSH1 0x4 ADD PUSH1 0x2 SWAP1 SLOAD SWAP1 PUSH2 0x100 EXP SWAP1 DIV PUSH1 0xFF AND SWAP1 POP DUP9 JUMP JUMPDEST PUSH0 PUSH0 PUSH0 DUP4 DUP2 MSTORE PUSH1 0x20 ADD SWAP1 DUP2 MSTORE PUSH1 0x20 ADD PUSH0 KECCAK256 SWAP1 POP DUP1 PUSH1 0x4 ADD PUSH1 0x1 SWAP1 SLOAD SWAP1 PUSH2 0x100 EXP SWAP1 DIV PUSH1 0xFF AND PUSH2 0xBAF JUMPI PUSH1 0x40 MLOAD PUSH32 0x8C379A000000000000000000000000000000000000000000000000000000000 DUP2 MSTORE PUSH1 0x4 ADD PUSH2 0xBA6 SWAP1 PUSH2 0x1C46 JUMP JUMPDEST PUSH1 0x40 MLOAD DUP1 SWAP2 SUB SWAP1 REVERT JUMPDEST CALLER PUSH20 0xFFFFFFFFFFFFFFFFFFFFFFFFFFFFFFFFFFFFFFFF AND DUP2 PUSH1 0x1 ADD PUSH0 SWAP1 SLOAD SWAP1 PUSH2 0x100 EXP SWAP1 DIV PUSH20 0xFFFFFFFFFFFFFFFFFFFFFFFFFFFFFFFFFFFFFFFF AND PUSH20 0xFFFFFFFFFFFFFFFFFFFFFFFFFFFFFFFFFFFFFFFF AND EQ PUSH2 0xC40 JUMPI PUSH1 0x40 MLOAD PUSH32 0x8C379A000000000000000000000000000000000000000000000000000000000 DUP2 MSTORE PUSH1 0x4 ADD PUSH2 0xC37 SWAP1 PUSH2 0x1CAE JUMP JUMPDEST PUSH1 0x40 MLOAD DUP1 SWAP2 SUB SWAP1 REVERT JUMPDEST DUP1 PUSH1 0x4 ADD PUSH1 0x2 SWAP1 SLOAD SWAP1 PUSH2 0x100 EXP SWAP1 DIV PUSH1 0xFF AND ISZERO PUSH2 0xC92 JUMPI PUSH1 0x40 MLOAD PUSH32 0x8C379A000000000000000000000000000000000000000000000000000000000 DUP2 MSTORE PUSH1 0x4 ADD PUSH2 0xC89 SWAP1 PUSH2 0x1D16 JUMP JUMPDEST PUSH1 0x40 MLOAD DUP1 SWAP2 SUB SWAP1 REVERT JUMPDEST PUSH1 0x64 DUP2 PUSH1 0x4 ADD PUSH0 PUSH2 0x100 EXP DUP2 SLOAD DUP2 PUSH1 0xFF MUL NOT AND SWAP1 DUP4 PUSH1 0xFF AND MUL OR SWAP1 SSTORE POP TIMESTAMP DUP2 PUSH1 0x3 ADD DUP2 SWAP1 SSTORE POP DUP2 PUSH32 0xD4B742B9BA48FFFA1F14267075A7793851770764117C423FD0A6550DFC8CB574 DUP3 PUSH1 0x4 ADD PUSH0 SWAP1 SLOAD SWAP1 PUSH2 0x100 EXP SWAP1 DIV PUSH1 0xFF AND PUSH1 0x40 MLOAD PUSH2 0xCF8 SWAP2 SWAP1 PUSH2 0x16A4 JUMP JUMPDEST PUSH1 0x40 MLOAD DUP1 SWAP2 SUB SWAP1 LOG2 PUSH2 0xD09 DUP3 PUSH2 0xD23 JUMP JUMPDEST POP POP JUMP JUMPDEST PUSH1 0x2 SLOAD DUP2 JUMP JUMPDEST PUSH1 0x2 DUP2 JUMP JUMPDEST PUSH7 0x38D7EA4C68000 DUP2 JUMP JUMPDEST PUSH0 PUSH0 PUSH0 DUP4 DUP2 MSTORE PUSH1 0x20 ADD SWAP1 DUP2 MSTORE PUSH1 0x20 ADD PUSH0 KECCAK256 SWAP1 POP DUP1 PUSH1 0x4 ADD PUSH1 0x1 SWAP1 SLOAD SWAP1 PUSH2 0x100 EXP SWAP1 DIV PUSH1 0xFF AND PUSH2 0xD87 JUMPI PUSH1 0x40 MLOAD PUSH32 0x8C379A000000000000000000000000000000000000000000000000000000000 DUP2 MSTORE PUSH1 0x4 ADD PUSH2 0xD7E SWAP1 PUSH2 0x1C46 JUMP JUMPDEST PUSH1 0x40 MLOAD DUP1 SWAP2 SUB SWAP1 REVERT JUMPDEST PUSH2 0xD90 DUP3 PUSH2 0x134E JUMP JUMPDEST DUP1 PUSH1 0x4 ADD PUSH1 0x2 SWAP1 SLOAD SWAP1 PUSH2 0x100 EXP SWAP1 DIV PUSH1 0xFF AND ISZERO PUSH2 0xDAD JUMPI POP PUSH2 0xECB JUMP JUMPDEST PUSH0 DUP2 PUSH1 0x2 ADD SLOAD TIMESTAMP PUSH2 0xDBE SWAP2 SWAP1 PUSH2 0x1B2B JUMP JUMPDEST SWAP1 POP PUSH0 DUP3 PUSH1 0x1 ADD PUSH1 0x14 SWAP1 SLOAD SWAP1 PUSH2 0x100 EXP SWAP1 DIV PUSH1 0xFF AND SWAP1 POP PUSH0 DUP2 SWAP1 POP PUSH1 0x3C PUSH1 0x3 PUSH2 0xDE7 SWAP2 SWAP1 PUSH2 0x1BBB JUMP JUMPDEST DUP4 LT PUSH2 0xDF6 JUMPI PUSH1 0x3 SWAP1 POP PUSH2 0xE36 JUMP JUMPDEST PUSH1 0x3C PUSH1 0x2 PUSH2 0xE04 SWAP2 SWAP1 PUSH2 0x1BBB JUMP JUMPDEST DUP4 LT PUSH2 0xE13 JUMPI PUSH1 0x2 SWAP1 POP PUSH2 0xE35 JUMP JUMPDEST PUSH1 0x3C PUSH1 0x1 PUSH2 0xE21 SWAP2 SWAP1 PUSH2 0x1BBB JUMP JUMPDEST DUP4 LT PUSH2 0xE30 JUMPI PUSH1 0x1 SWAP1 POP PUSH2 0xE34 JUMP JUMPDEST PUSH0 SWAP1 POP JUMPDEST JUMPDEST JUMPDEST DUP2 PUSH1 0x3 DUP2 GT ISZERO PUSH2 0xE49 JUMPI PUSH2 0xE48 PUSH2 0x1743 JUMP JUMPDEST JUMPDEST DUP2 PUSH1 0x3 DUP2 GT ISZERO PUSH2 0xE5C JUMPI PUSH2 0xE5B PUSH2 0x1743 JUMP JUMPDEST JUMPDEST EQ PUSH2 0xEC6 JUMPI DUP1 DUP5 PUSH1 0x1 ADD PUSH1 0x14 PUSH2 0x100 EXP DUP2 SLOAD DUP2 PUSH1 0xFF MUL NOT AND SWAP1 DUP4 PUSH1 0x3 DUP2 GT ISZERO PUSH2 0xE88 JUMPI PUSH2 0xE87 PUSH2 0x1743 JUMP JUMPDEST JUMPDEST MUL OR SWAP1 SSTORE POP DUP5 PUSH32 0x338B8976706F9DA67298DDDFA1EA4FF7D99CCE68B9CA39C4F348994F8E2124A8 DUP3 PUSH1 0x40 MLOAD PUSH2 0xEBD SWAP2 SWAP1 PUSH2 0x1D34 JUMP JUMPDEST PUSH1 0x40 MLOAD DUP1 SWAP2 SUB SWAP1 LOG2 JUMPDEST POP POP POP POP JUMPDEST POP JUMP JUMPDEST PUSH0 PUSH0 PUSH0 DUP4 DUP2 MSTORE PUSH1 0x20 ADD SWAP1 DUP2 MSTORE PUSH1 0x20 ADD PUSH0 KECCAK256 SWAP1 POP DUP1 PUSH1 0x4 ADD PUSH1 0x1 SWAP1 SLOAD SWAP1 PUSH2 0x100 EXP SWAP1 DIV PUSH1 0xFF AND PUSH2 0xF32 JUMPI PUSH1 0x40 MLOAD PUSH32 0x8C379A000000000000000000000000000000000000000000000000000000000 DUP2 MSTORE PUSH1 0x4 ADD PUSH2 0xF29 SWAP1 PUSH2 0x1C46 JUMP JUMPDEST PUSH1 0x40 MLOAD DUP1 SWAP2 SUB SWAP1 REVERT JUMPDEST CALLER PUSH20 0xFFFFFFFFFFFFFFFFFFFFFFFFFFFFFFFFFFFFFFFF AND DUP2 PUSH1 0x1 ADD PUSH0 SWAP1 SLOAD SWAP1 PUSH2 0x100 EXP SWAP1 DIV PUSH20 0xFFFFFFFFFFFFFFFFFFFFFFFFFFFFFFFFFFFFFFFF AND PUSH20 0xFFFFFFFFFFFFFFFFFFFFFFFFFFFFFFFFFFFFFFFF AND EQ PUSH2 0xFC3 JUMPI PUSH1 0x40 MLOAD PUSH32 0x8C379A000000000000000000000000000000000000000000000000000000000 DUP2 MSTORE PUSH1 0x4 ADD PUSH2 0xFBA SWAP1 PUSH2 0x1CAE JUMP JUMPDEST PUSH1 0x40 MLOAD DUP1 SWAP2 SUB SWAP1 REVERT JUMPDEST DUP1 PUSH1 0x4 ADD PUSH1 0x2 SWAP1 SLOAD SWAP1 PUSH2 0x100 EXP SWAP1 DIV PUSH1 0xFF AND ISZERO PUSH2 0x1015 JUMPI PUSH1 0x40 MLOAD PUSH32 0x8C379A000000000000000000000000000000000000000000000000000000000 DUP2 MSTORE PUSH1 0x4 ADD PUSH2 0x100C SWAP1 PUSH2 0x1D16 JUMP JUMPDEST PUSH1 0x40 MLOAD DUP1 SWAP2 SUB SWAP1 REVERT JUMPDEST PUSH2 0x101E DUP3 PUSH2 0xD23 JUMP JUMPDEST PUSH1 0x3 DUP1 DUP2 GT ISZERO PUSH2 0x1031 JUMPI PUSH2 0x1030 PUSH2 0x1743 JUMP JUMPDEST JUMPDEST DUP2 PUSH1 0x1 ADD PUSH1 0x14 SWAP1 SLOAD SWAP1 PUSH2 0x100 EXP SWAP1 DIV PUSH1 0xFF AND PUSH1 0x3 DUP2 GT ISZERO PUSH2 0x1055 JUMPI PUSH2 0x1054 PUSH2 0x1743 JUMP JUMPDEST JUMPDEST EQ PUSH2 0x1095 JUMPI PUSH1 0x40 MLOAD PUSH32 0x8C379A000000000000000000000000000000000000000000000000000000000 DUP2 MSTORE PUSH1 0x4 ADD PUSH2 0x108C SWAP1 PUSH2 0x1D97 JUMP JUMPDEST PUSH1 0x40 MLOAD DUP1 SWAP2 SUB SWAP1 REVERT JUMPDEST PUSH0 DUP2 PUSH1 0x4 ADD PUSH1 0x1 PUSH2 0x100 EXP DUP2 SLOAD DUP2 PUSH1 0xFF MUL NOT AND SWAP1 DUP4 ISZERO ISZERO MUL OR SWAP1 SSTORE POP CALLER PUSH20 0xFFFFFFFFFFFFFFFFFFFFFFFFFFFFFFFFFFFFFFFF AND DUP3 PUSH32 0x79F2138EA100070FF95B59C265DA7AA3C7A0F61595FE1BB2F5FDA2762F398847 PUSH7 0xAA87BEE538000 PUSH1 0x40 MLOAD PUSH2 0x10FF SWAP2 SWAP1 PUSH2 0x161B JUMP JUMPDEST PUSH1 0x40 MLOAD DUP1 SWAP2 SUB SWAP1 LOG3 PUSH7 0xAA87BEE538000 SELFBALANCE LT ISZERO PUSH2 0x1151 JUMPI PUSH1 0x40 MLOAD PUSH32 0x8C379A000000000000000000000000000000000000000000000000000000000 DUP2 MSTORE PUSH1 0x4 ADD PUSH2 0x1148 SWAP1 PUSH2 0x1DFF JUMP JUMPDEST PUSH1 0x40 MLOAD DUP1 SWAP2 SUB SWAP1 REVERT JUMPDEST PUSH0 CALLER PUSH20 0xFFFFFFFFFFFFFFFFFFFFFFFFFFFFFFFFFFFFFFFF AND PUSH7 0xAA87BEE538000 PUSH1 0x40 MLOAD PUSH2 0x117D SWAP1 PUSH2 0x19E7 JUMP JUMPDEST PUSH0 PUSH1 0x40 MLOAD DUP1 DUP4 SUB DUP2 DUP6 DUP8 GAS CALL SWAP3 POP POP POP RETURNDATASIZE DUP1 PUSH0 DUP2 EQ PUSH2 0x11B7 JUMPI PUSH1 0x40 MLOAD SWAP2 POP PUSH1 0x1F NOT PUSH1 0x3F RETURNDATASIZE ADD AND DUP3 ADD PUSH1 0x40 MSTORE RETURNDATASIZE DUP3 MSTORE RETURNDATASIZE PUSH0 PUSH1 0x20 DUP5 ADD RETURNDATACOPY PUSH2 0x11BC JUMP JUMPDEST PUSH1 0x60 SWAP2 POP JUMPDEST POP POP SWAP1 POP DUP1 PUSH2 0x1200 JUMPI PUSH1 0x40 MLOAD PUSH32 0x8C379A000000000000000000000000000000000000000000000000000000000 DUP2 MSTORE PUSH1 0x4 ADD PUSH2 0x11F7 SWAP1 PUSH2 0x1E67 JUMP JUMPDEST PUSH1 0x40 MLOAD DUP1 SWAP2 SUB SWAP1 REVERT JUMPDEST POP POP POP JUMP JUMPDEST PUSH2 0x120D PUSH2 0x1437 JUMP JUMPDEST PUSH0 PUSH0 PUSH0 DUP5 DUP2 MSTORE PUSH1 0x20 ADD SWAP1 DUP2 MSTORE PUSH1 0x20 ADD PUSH0 KECCAK256 PUSH1 0x40 MLOAD DUP1 PUSH2 0x100 ADD PUSH1 0x40 MSTORE SWAP1 DUP2 PUSH0 DUP3 ADD SLOAD DUP2 MSTORE PUSH1 0x20 ADD PUSH1 0x1 DUP3 ADD PUSH0 SWAP1 SLOAD SWAP1 PUSH2 0x100 EXP SWAP1 DIV PUSH20 0xFFFFFFFFFFFFFFFFFFFFFFFFFFFFFFFFFFFFFFFF AND PUSH20 0xFFFFFFFFFFFFFFFFFFFFFFFFFFFFFFFFFFFFFFFF AND PUSH20 0xFFFFFFFFFFFFFFFFFFFFFFFFFFFFFFFFFFFFFFFF AND DUP2 MSTORE PUSH1 0x20 ADD PUSH1 0x1 DUP3 ADD PUSH1 0x14 SWAP1 SLOAD SWAP1 PUSH2 0x100 EXP SWAP1 DIV PUSH1 0xFF AND PUSH1 0x3 DUP2 GT ISZERO PUSH2 0x12AD JUMPI PUSH2 0x12AC PUSH2 0x1743 JUMP JUMPDEST JUMPDEST PUSH1 0x3 DUP2 GT ISZERO PUSH2 0x12BF JUMPI PUSH2 0x12BE PUSH2 0x1743 JUMP JUMPDEST JUMPDEST DUP2 MSTORE PUSH1 0x20 ADD PUSH1 0x2 DUP3 ADD SLOAD DUP2 MSTORE PUSH1 0x20 ADD PUSH1 0x3 DUP3 ADD SLOAD DUP2 MSTORE PUSH1 0x20 ADD PUSH1 0x4 DUP3 ADD PUSH0 SWAP1 SLOAD SWAP1 PUSH2 0x100 EXP SWAP1 DIV PUSH1 0xFF AND PUSH1 0xFF AND PUSH1 0xFF AND DUP2 MSTORE PUSH1 0x20 ADD PUSH1 0x4 DUP3 ADD PUSH1 0x1 SWAP1 SLOAD SWAP1 PUSH2 0x100 EXP SWAP1 DIV PUSH1 0xFF AND ISZERO ISZERO ISZERO ISZERO DUP2 MSTORE PUSH1 0x20 ADD PUSH1 0x4 DUP3 ADD PUSH1 0x2 SWAP1 SLOAD SWAP1 PUSH2 0x100 EXP SWAP1 DIV PUSH1 0xFF AND ISZERO ISZERO ISZERO ISZERO DUP2 MSTORE POP POP SWAP1 POP PUSH2 0x1334 DUP4 PUSH2 0x88F JUMP JUMPDEST DUP2 PUSH1 0xA0 ADD SWAP1 PUSH1 0xFF AND SWAP1 DUP2 PUSH1 0xFF AND DUP2 MSTORE POP POP DUP1 SWAP2 POP POP SWAP2 SWAP1 POP JUMP JUMPDEST PUSH0 PUSH0 PUSH0 DUP4 DUP2 MSTORE PUSH1 0x20 ADD SWAP1 DUP2 MSTORE PUSH1 0x20 ADD PUSH0 KECCAK256 SWAP1 POP DUP1 PUSH1 0x4 ADD PUSH1 0x1 SWAP1 SLOAD SWAP1 PUSH2 0x100 EXP SWAP1 DIV PUSH1 0xFF AND ISZERO DUP1 PUSH2 0x138D JUMPI POP DUP1 PUSH1 0x4 ADD PUSH1 0x2 SWAP1 SLOAD SWAP1 PUSH2 0x100 EXP SWAP1 DIV PUSH1 0xFF AND JUMPDEST ISZERO PUSH2 0x1398 JUMPI POP PUSH2 0x1434 JUMP JUMPDEST PUSH0 PUSH2 0x13A2 DUP4 PUSH2 0x88F JUMP JUMPDEST SWAP1 POP DUP1 DUP3 PUSH1 0x4 ADD PUSH0 PUSH2 0x100 EXP DUP2 SLOAD DUP2 PUSH1 0xFF MUL NOT AND SWAP1 DUP4 PUSH1 0xFF AND MUL OR SWAP1 SSTORE POP PUSH0 DUP2 PUSH1 0xFF AND EQ DUP1 ISZERO PUSH2 0x13E1 JUMPI POP DUP2 PUSH1 0x4 ADD PUSH1 0x2 SWAP1 SLOAD SWAP1 PUSH2 0x100 EXP SWAP1 DIV PUSH1 0xFF AND ISZERO JUMPDEST ISZERO PUSH2 0x1431 JUMPI PUSH1 0x1 DUP3 PUSH1 0x4 ADD PUSH1 0x2 PUSH2 0x100 EXP DUP2 SLOAD DUP2 PUSH1 0xFF MUL NOT AND SWAP1 DUP4 ISZERO ISZERO MUL OR SWAP1 SSTORE POP DUP3 PUSH32 0xCC296A21951F3E57F21AFB08547D835A0A9F0F06CC2867009CBE0CAE44D36BE9 PUSH1 0x40 MLOAD PUSH1 0x40 MLOAD DUP1 SWAP2 SUB SWAP1 LOG2 JUMPDEST POP POP JUMPDEST POP JUMP JUMPDEST PUSH1 0x40 MLOAD DUP1 PUSH2 0x100 ADD PUSH1 0x40 MSTORE DUP1 PUSH0 DUP2 MSTORE PUSH1 0x20 ADD PUSH0 PUSH20 0xFFFFFFFFFFFFFFFFFFFFFFFFFFFFFFFFFFFFFFFF AND DUP2 MSTORE PUSH1 0x20 ADD PUSH0 PUSH1 0x3 DUP2 GT ISZERO PUSH2 0x1478 JUMPI PUSH2 0x1477 PUSH2 0x1743 JUMP JUMPDEST JUMPDEST DUP2 MSTORE PUSH1 0x20 ADD PUSH0 DUP2 MSTORE PUSH1 0x20 ADD PUSH0 DUP2 MSTORE PUSH1 0x20 ADD PUSH0 PUSH1 0xFF AND DUP2 MSTORE PUSH1 0x20 ADD PUSH0 ISZERO ISZERO DUP2 MSTORE PUSH1 0x20 ADD PUSH0 ISZERO ISZERO DUP2 MSTORE POP SWAP1 JUMP JUMPDEST PUSH0 PUSH0 REVERT JUMPDEST PUSH0 PUSH20 0xFFFFFFFFFFFFFFFFFFFFFFFFFFFFFFFFFFFFFFFF DUP3 AND SWAP1 POP SWAP2 SWAP1 POP JUMP JUMPDEST PUSH0 PUSH2 0x14D0 DUP3 PUSH2 0x14A7 JUMP JUMPDEST SWAP1 POP SWAP2 SWAP1 POP JUMP JUMPDEST PUSH2 0x14E0 DUP2 PUSH2 0x14C6 JUMP JUMPDEST DUP2 EQ PUSH2 0x14EA JUMPI PUSH0 PUSH0 REVERT JUMPDEST POP JUMP JUMPDEST PUSH0 DUP2 CALLDATALOAD SWAP1 POP PUSH2 0x14FB DUP2 PUSH2 0x14D7 JUMP JUMPDEST SWAP3 SWAP2 POP POP JUMP JUMPDEST PUSH0 PUSH1 0x20 DUP3 DUP5 SUB SLT ISZERO PUSH2 0x1516 JUMPI PUSH2 0x1515 PUSH2 0x14A3 JUMP JUMPDEST JUMPDEST PUSH0 PUSH2 0x1523 DUP5 DUP3 DUP6 ADD PUSH2 0x14ED JUMP JUMPDEST SWAP2 POP POP SWAP3 SWAP2 POP POP JUMP JUMPDEST PUSH0 DUP2 MLOAD SWAP1 POP SWAP2 SWAP1 POP JUMP JUMPDEST PUSH0 DUP3 DUP3 MSTORE PUSH1 0x20 DUP3 ADD SWAP1 POP SWAP3 SWAP2 POP POP JUMP JUMPDEST PUSH0 DUP2 SWAP1 POP PUSH1 0x20 DUP3 ADD SWAP1 POP SWAP2 SWAP1 POP JUMP JUMPDEST PUSH0 DUP2 SWAP1 POP SWAP2 SWAP1 POP JUMP JUMPDEST PUSH2 0x1567 DUP2 PUSH2 0x1555 JUMP JUMPDEST DUP3 MSTORE POP POP JUMP JUMPDEST PUSH0 PUSH2 0x1578 DUP4 DUP4 PUSH2 0x155E JUMP JUMPDEST PUSH1 0x20 DUP4 ADD SWAP1 POP SWAP3 SWAP2 POP POP JUMP JUMPDEST PUSH0 PUSH1 0x20 DUP3 ADD SWAP1 POP SWAP2 SWAP1 POP JUMP JUMPDEST PUSH0 PUSH2 0x159A DUP3 PUSH2 0x152C JUMP JUMPDEST PUSH2 0x15A4 DUP2 DUP6 PUSH2 0x1536 JUMP JUMPDEST SWAP4 POP PUSH2 0x15AF DUP4 PUSH2 0x1546 JUMP JUMPDEST DUP1 PUSH0 JUMPDEST DUP4 DUP2 LT ISZERO PUSH2 0x15DF JUMPI DUP2 MLOAD PUSH2 0x15C6 DUP9 DUP3 PUSH2 0x156D JUMP JUMPDEST SWAP8 POP PUSH2 0x15D1 DUP4 PUSH2 0x1584 JUMP JUMPDEST SWAP3 POP POP PUSH1 0x1 DUP2 ADD SWAP1 POP PUSH2 0x15B2 JUMP JUMPDEST POP DUP6 SWAP4 POP POP POP POP SWAP3 SWAP2 POP POP JUMP JUMPDEST PUSH0 PUSH1 0x20 DUP3 ADD SWAP1 POP DUP2 DUP2 SUB PUSH0 DUP4 ADD MSTORE PUSH2 0x1604 DUP2 DUP5 PUSH2 0x1590 JUMP JUMPDEST SWAP1 POP SWAP3 SWAP2 POP POP JUMP JUMPDEST PUSH2 0x1615 DUP2 PUSH2 0x1555 JUMP JUMPDEST DUP3 MSTORE POP POP JUMP JUMPDEST PUSH0 PUSH1 0x20 DUP3 ADD SWAP1 POP PUSH2 0x162E PUSH0 DUP4 ADD DUP5 PUSH2 0x160C JUMP JUMPDEST SWAP3 SWAP2 POP POP JUMP JUMPDEST PUSH2 0x163D DUP2 PUSH2 0x1555 JUMP JUMPDEST DUP2 EQ PUSH2 0x1647 JUMPI PUSH0 PUSH0 REVERT JUMPDEST POP JUMP JUMPDEST PUSH0 DUP2 CALLDATALOAD SWAP1 POP PUSH2 0x1658 DUP2 PUSH2 0x1634 JUMP JUMPDEST SWAP3 SWAP2 POP POP JUMP JUMPDEST PUSH0 PUSH1 0x20 DUP3 DUP5 SUB SLT ISZERO PUSH2 0x1673 JUMPI PUSH2 0x1672 PUSH2 0x14A3 JUMP JUMPDEST JUMPDEST PUSH0 PUSH2 0x1680 DUP5 DUP3 DUP6 ADD PUSH2 0x164A JUMP JUMPDEST SWAP2 POP POP SWAP3 SWAP2 POP POP JUMP JUMPDEST PUSH0 PUSH1 0xFF DUP3 AND SWAP1 POP SWAP2 SWAP1 POP JUMP JUMPDEST PUSH2 0x169E DUP2 PUSH2 0x1689 JUMP JUMPDEST DUP3 MSTORE POP POP JUMP JUMPDEST PUSH0 PUSH1 0x20 DUP3 ADD SWAP1 POP PUSH2 0x16B7 PUSH0 DUP4 ADD DUP5 PUSH2 0x1695 JUMP JUMPDEST SWAP3 SWAP2 POP POP JUMP JUMPDEST PUSH0 PUSH0 PUSH1 0x40 DUP4 DUP6 SUB SLT ISZERO PUSH2 0x16D3 JUMPI PUSH2 0x16D2 PUSH2 0x14A3 JUMP JUMPDEST JUMPDEST PUSH0 PUSH2 0x16E0 DUP6 DUP3 DUP7 ADD PUSH2 0x14ED JUMP JUMPDEST SWAP3 POP POP PUSH1 0x20 PUSH2 0x16F1 DUP6 DUP3 DUP7 ADD PUSH2 0x164A JUMP JUMPDEST SWAP2 POP POP SWAP3 POP SWAP3 SWAP1 POP JUMP JUMPDEST PUSH0 PUSH2 0x1705 DUP3 PUSH2 0x14A7 JUMP JUMPDEST SWAP1 POP SWAP2 SWAP1 POP JUMP JUMPDEST PUSH2 0x1715 DUP2 PUSH2 0x16FB JUMP JUMPDEST DUP3 MSTORE POP POP JUMP JUMPDEST PUSH0 PUSH1 0x20 DUP3 ADD SWAP1 POP PUSH2 0x172E PUSH0 DUP4 ADD DUP5 PUSH2 0x170C JUMP JUMPDEST SWAP3 SWAP2 POP POP JUMP JUMPDEST PUSH2 0x173D DUP2 PUSH2 0x14C6 JUMP JUMPDEST DUP3 MSTORE POP POP JUMP JUMPDEST PUSH32 0x4E487B7100000000000000000000000000000000000000000000000000000000 PUSH0 MSTORE PUSH1 0x21 PUSH1 0x4 MSTORE PUSH1 0x24 PUSH0 REVERT JUMPDEST PUSH1 0x4 DUP2 LT PUSH2 0x1781 JUMPI PUSH2 0x1780 PUSH2 0x1743 JUMP JUMPDEST JUMPDEST POP JUMP JUMPDEST PUSH0 DUP2 SWAP1 POP PUSH2 0x1791 DUP3 PUSH2 0x1770 JUMP JUMPDEST SWAP2 SWAP1 POP JUMP JUMPDEST PUSH0 PUSH2 0x17A0 DUP3 PUSH2 0x1784 JUMP JUMPDEST SWAP1 POP SWAP2 SWAP1 POP JUMP JUMPDEST PUSH2 0x17B0 DUP2 PUSH2 0x1796 JUMP JUMPDEST DUP3 MSTORE POP POP JUMP JUMPDEST PUSH0 DUP2 ISZERO ISZERO SWAP1 POP SWAP2 SWAP1 POP JUMP JUMPDEST PUSH2 0x17CA DUP2 PUSH2 0x17B6 JUMP JUMPDEST DUP3 MSTORE POP POP JUMP JUMPDEST PUSH0 PUSH2 0x100 DUP3 ADD SWAP1 POP PUSH2 0x17E4 PUSH0 DUP4 ADD DUP12 PUSH2 0x160C JUMP JUMPDEST PUSH2 0x17F1 PUSH1 0x20 DUP4 ADD DUP11 PUSH2 0x1734 JUMP JUMPDEST PUSH2 0x17FE PUSH1 0x40 DUP4 ADD DUP10 PUSH2 0x17A7 JUMP JUMPDEST PUSH2 0x180B PUSH1 0x60 DUP4 ADD DUP9 PUSH2 0x160C JUMP JUMPDEST PUSH2 0x1818 PUSH1 0x80 DUP4 ADD DUP8 PUSH2 0x160C JUMP JUMPDEST PUSH2 0x1825 PUSH1 0xA0 DUP4 ADD DUP7 PUSH2 0x1695 JUMP JUMPDEST PUSH2 0x1832 PUSH1 0xC0 DUP4 ADD DUP6 PUSH2 0x17C1 JUMP JUMPDEST PUSH2 0x183F PUSH1 0xE0 DUP4 ADD DUP5 PUSH2 0x17C1 JUMP JUMPDEST SWAP10 SWAP9 POP POP POP POP POP POP POP POP POP JUMP JUMPDEST PUSH2 0x1855 DUP2 PUSH2 0x14C6 JUMP JUMPDEST DUP3 MSTORE POP POP JUMP JUMPDEST PUSH2 0x1864 DUP2 PUSH2 0x1796 JUMP JUMPDEST DUP3 MSTORE POP POP JUMP JUMPDEST PUSH2 0x1873 DUP2 PUSH2 0x1689 JUMP JUMPDEST DUP3 MSTORE POP POP JUMP JUMPDEST PUSH2 0x1882 DUP2 PUSH2 0x17B6 JUMP JUMPDEST DUP3 MSTORE POP POP JUMP JUMPDEST PUSH2 0x100 DUP3 ADD PUSH0 DUP3 ADD MLOAD PUSH2 0x189D PUSH0 DUP6 ADD DUP3 PUSH2 0x155E JUMP JUMPDEST POP PUSH1 0x20 DUP3 ADD MLOAD PUSH2 0x18B0 PUSH1 0x20 DUP6 ADD DUP3 PUSH2 0x184C JUMP JUMPDEST POP PUSH1 0x40 DUP3 ADD MLOAD PUSH2 0x18C3 PUSH1 0x40 DUP6 ADD DUP3 PUSH2 0x185B JUMP JUMPDEST POP PUSH1 0x60 DUP3 ADD MLOAD PUSH2 0x18D6 PUSH1 0x60 DUP6 ADD DUP3 PUSH2 0x155E JUMP JUMPDEST POP PUSH1 0x80 DUP3 ADD MLOAD PUSH2 0x18E9 PUSH1 0x80 DUP6 ADD DUP3 PUSH2 0x155E JUMP JUMPDEST POP PUSH1 0xA0 DUP3 ADD MLOAD PUSH2 0x18FC PUSH1 0xA0 DUP6 ADD DUP3 PUSH2 0x186A JUMP JUMPDEST POP PUSH1 0xC0 DUP3 ADD MLOAD PUSH2 0x190F PUSH1 0xC0 DUP6 ADD DUP3 PUSH2 0x1879 JUMP JUMPDEST POP PUSH1 0xE0 DUP3 ADD MLOAD PUSH2 0x1922 PUSH1 0xE0 DUP6 ADD DUP3 PUSH2 0x1879 JUMP JUMPDEST POP POP POP POP JUMP JUMPDEST PUSH0 PUSH2 0x100 DUP3 ADD SWAP1 POP PUSH2 0x193C PUSH0 DUP4 ADD DUP5 PUSH2 0x1888 JUMP JUMPDEST SWAP3 SWAP2 POP POP JUMP JUMPDEST PUSH0 DUP3 DUP3 MSTORE PUSH1 0x20 DUP3 ADD SWAP1 POP SWAP3 SWAP2 POP POP JUMP JUMPDEST PUSH32 0x42756B616E206F776E6572000000000000000000000000000000000000000000 PUSH0 DUP3 ADD MSTORE POP JUMP JUMPDEST PUSH0 PUSH2 0x1986 PUSH1 0xB DUP4 PUSH2 0x1942 JUMP JUMPDEST SWAP2 POP PUSH2 0x1991 DUP3 PUSH2 0x1952 JUMP JUMPDEST PUSH1 0x20 DUP3 ADD SWAP1 POP SWAP2 SWAP1 POP JUMP JUMPDEST PUSH0 PUSH1 0x20 DUP3 ADD SWAP1 POP DUP2 DUP2 SUB PUSH0 DUP4 ADD MSTORE PUSH2 0x19B3 DUP2 PUSH2 0x197A JUMP JUMPDEST SWAP1 POP SWAP2 SWAP1 POP JUMP JUMPDEST PUSH0 DUP2 SWAP1 POP SWAP3 SWAP2 POP POP JUMP JUMPDEST POP JUMP JUMPDEST PUSH0 PUSH2 0x19D2 PUSH0 DUP4 PUSH2 0x19BA JUMP JUMPDEST SWAP2 POP PUSH2 0x19DD DUP3 PUSH2 0x19C4 JUMP JUMPDEST PUSH0 DUP3 ADD SWAP1 POP SWAP2 SWAP1 POP JUMP JUMPDEST PUSH0 PUSH2 0x19F1 DUP3 PUSH2 0x19C7 JUMP JUMPDEST SWAP2 POP DUP2 SWAP1 POP SWAP2 SWAP1 POP JUMP JUMPDEST PUSH32 0x5472616E7366657220676167616C000000000000000000000000000000000000 PUSH0 DUP3 ADD MSTORE POP JUMP JUMPDEST PUSH0 PUSH2 0x1A2F PUSH1 0xE DUP4 PUSH2 0x1942 JUMP JUMPDEST SWAP2 POP PUSH2 0x1A3A DUP3 PUSH2 0x19FB JUMP JUMPDEST PUSH1 0x20 DUP3 ADD SWAP1 POP SWAP2 SWAP1 POP JUMP JUMPDEST PUSH0 PUSH1 0x20 DUP3 ADD SWAP1 POP DUP2 DUP2 SUB PUSH0 DUP4 ADD MSTORE PUSH2 0x1A5C DUP2 PUSH2 0x1A23 JUMP JUMPDEST SWAP1 POP SWAP2 SWAP1 POP JUMP JUMPDEST PUSH32 0x4261796172206D696E696D616C20504C414E545F505249434500000000000000 PUSH0 DUP3 ADD MSTORE POP JUMP JUMPDEST PUSH0 PUSH2 0x1A97 PUSH1 0x19 DUP4 PUSH2 0x1942 JUMP JUMPDEST SWAP2 POP PUSH2 0x1AA2 DUP3 PUSH2 0x1A63 JUMP JUMPDEST PUSH1 0x20 DUP3 ADD SWAP1 POP SWAP2 SWAP1 POP JUMP JUMPDEST PUSH0 PUSH1 0x20 DUP3 ADD SWAP1 POP DUP2 DUP2 SUB PUSH0 DUP4 ADD MSTORE PUSH2 0x1AC4 DUP2 PUSH2 0x1A8B JUMP JUMPDEST SWAP1 POP SWAP2 SWAP1 POP JUMP JUMPDEST PUSH32 0x4E487B7100000000000000000000000000000000000000000000000000000000 PUSH0 MSTORE PUSH1 0x11 PUSH1 0x4 MSTORE PUSH1 0x24 PUSH0 REVERT JUMPDEST PUSH0 PUSH2 0x1B02 DUP3 PUSH2 0x1555 JUMP JUMPDEST SWAP2 POP PUSH2 0x1B0D DUP4 PUSH2 0x1555 JUMP JUMPDEST SWAP3 POP DUP3 DUP3 ADD SWAP1 POP DUP1 DUP3 GT ISZERO PUSH2 0x1B25 JUMPI PUSH2 0x1B24 PUSH2 0x1ACB JUMP JUMPDEST JUMPDEST SWAP3 SWAP2 POP POP JUMP JUMPDEST PUSH0 PUSH2 0x1B35 DUP3 PUSH2 0x1555 JUMP JUMPDEST SWAP2 POP PUSH2 0x1B40 DUP4 PUSH2 0x1555 JUMP JUMPDEST SWAP3 POP DUP3 DUP3 SUB SWAP1 POP DUP2 DUP2 GT ISZERO PUSH2 0x1B58 JUMPI PUSH2 0x1B57 PUSH2 0x1ACB JUMP JUMPDEST JUMPDEST SWAP3 SWAP2 POP POP JUMP JUMPDEST PUSH32 0x4E487B7100000000000000000000000000000000000000000000000000000000 PUSH0 MSTORE PUSH1 0x12 PUSH1 0x4 MSTORE PUSH1 0x24 PUSH0 REVERT JUMPDEST PUSH0 PUSH2 0x1B95 DUP3 PUSH2 0x1555 JUMP JUMPDEST SWAP2 POP PUSH2 0x1BA0 DUP4 PUSH2 0x1555 JUMP JUMPDEST SWAP3 POP DUP3 PUSH2 0x1BB0 JUMPI PUSH2 0x1BAF PUSH2 0x1B5E JUMP JUMPDEST JUMPDEST DUP3 DUP3 DIV SWAP1 POP SWAP3 SWAP2 POP POP JUMP JUMPDEST PUSH0 PUSH2 0x1BC5 DUP3 PUSH2 0x1555 JUMP JUMPDEST SWAP2 POP PUSH2 0x1BD0 DUP4 PUSH2 0x1555 JUMP JUMPDEST SWAP3 POP DUP3 DUP3 MUL PUSH2 0x1BDE DUP2 PUSH2 0x1555 JUMP JUMPDEST SWAP2 POP DUP3 DUP3 DIV DUP5 EQ DUP4 ISZERO OR PUSH2 0x1BF5 JUMPI PUSH2 0x1BF4 PUSH2 0x1ACB JUMP JUMPDEST JUMPDEST POP SWAP3 SWAP2 POP POP JUMP JUMPDEST PUSH32 0x506C616E7420746964616B206164610000000000000000000000000000000000 PUSH0 DUP3 ADD MSTORE POP JUMP JUMPDEST PUSH0 PUSH2 0x1C30 PUSH1 0xF DUP4 PUSH2 0x1942 JUMP JUMPDEST SWAP2 POP PUSH2 0x1C3B DUP3 PUSH2 0x1BFC JUMP JUMPDEST PUSH1 0x20 DUP3 ADD SWAP1 POP SWAP2 SWAP1 POP JUMP JUMPDEST PUSH0 PUSH1 0x20 DUP3 ADD SWAP1 POP DUP2 DUP2 SUB PUSH0 DUP4 ADD MSTORE PUSH2 0x1C5D DUP2 PUSH2 0x1C24 JUMP JUMPDEST SWAP1 POP SWAP2 SWAP1 POP JUMP JUMPDEST PUSH32 0x42756B616E2070656D696C696B20706C616E7400000000000000000000000000 PUSH0 DUP3 ADD MSTORE POP JUMP JUMPDEST PUSH0 PUSH2 0x1C98 PUSH1 0x13 DUP4 PUSH2 0x1942 JUMP JUMPDEST SWAP2 POP PUSH2 0x1CA3 DUP3 PUSH2 0x1C64 JUMP JUMPDEST PUSH1 0x20 DUP3 ADD SWAP1 POP SWAP2 SWAP1 POP JUMP JUMPDEST PUSH0 PUSH1 0x20 DUP3 ADD SWAP1 POP DUP2 DUP2 SUB PUSH0 DUP4 ADD MSTORE PUSH2 0x1CC5 DUP2 PUSH2 0x1C8C JUMP JUMPDEST SWAP1 POP SWAP2 SWAP1 POP JUMP JUMPDEST PUSH32 0x506C616E74207375646168206D61746900000000000000000000000000000000 PUSH0 DUP3 ADD MSTORE POP JUMP JUMPDEST PUSH0 PUSH2 0x1D00 PUSH1 0x10 DUP4 PUSH2 0x1942 JUMP JUMPDEST SWAP2 POP PUSH2 0x1D0B DUP3 PUSH2 0x1CCC JUMP JUMPDEST PUSH1 0x20 DUP3 ADD SWAP1 POP SWAP2 SWAP1 POP JUMP JUMPDEST PUSH0 PUSH1 0x20 DUP3 ADD SWAP1 POP DUP2 DUP2 SUB PUSH0 DUP4 ADD MSTORE PUSH2 0x1D2D DUP2 PUSH2 0x1CF4 JUMP JUMPDEST SWAP1 POP SWAP2 SWAP1 POP JUMP JUMPDEST PUSH0 PUSH1 0x20 DUP3 ADD SWAP1 POP PUSH2 0x1D47 PUSH0 DUP4 ADD DUP5 PUSH2 0x17A7 JUMP JUMPDEST SWAP3 SWAP2 POP POP JUMP JUMPDEST PUSH32 0x506C616E742062656C756D20626C6F6F6D696E67000000000000000000000000 PUSH0 DUP3 ADD MSTORE POP JUMP JUMPDEST PUSH0 PUSH2 0x1D81 PUSH1 0x14 DUP4 PUSH2 0x1942 JUMP JUMPDEST SWAP2 POP PUSH2 0x1D8C DUP3 PUSH2 0x1D4D JUMP JUMPDEST PUSH1 0x20 DUP3 ADD SWAP1 POP SWAP2 SWAP1 POP JUMP JUMPDEST PUSH0 PUSH1 0x20 DUP3 ADD SWAP1 POP DUP2 DUP2 SUB PUSH0 DUP4 ADD MSTORE PUSH2 0x1DAE DUP2 PUSH2 0x1D75 JUMP JUMPDEST SWAP1 POP SWAP2 SWAP1 POP JUMP JUMPDEST PUSH32 0x4B6F6E7472616B20746964616B2070756E79612063756B75702073616C646F00 PUSH0 DUP3 ADD MSTORE POP JUMP JUMPDEST PUSH0 PUSH2 0x1DE9 PUSH1 0x1F DUP4 PUSH2 0x1942 JUMP JUMPDEST SWAP2 POP PUSH2 0x1DF4 DUP3 PUSH2 0x1DB5 JUMP JUMPDEST PUSH1 0x20 DUP3 ADD SWAP1 POP SWAP2 SWAP1 POP JUMP JUMPDEST PUSH0 PUSH1 0x20 DUP3 ADD SWAP1 POP DUP2 DUP2 SUB PUSH0 DUP4 ADD MSTORE PUSH2 0x1E16 DUP2 PUSH2 0x1DDD JUMP JUMPDEST SWAP1 POP SWAP2 SWAP1 POP JUMP JUMPDEST PUSH32 0x5472616E736665722072657761726420676167616C0000000000000000000000 PUSH0 DUP3 ADD MSTORE POP JUMP JUMPDEST PUSH0 PUSH2 0x1E51 PUSH1 0x15 DUP4 PUSH2 0x1942 JUMP JUMPDEST SWAP2 POP PUSH2 0x1E5C DUP3 PUSH2 0x1E1D JUMP JUMPDEST PUSH1 0x20 DUP3 ADD SWAP1 POP SWAP2 SWAP1 POP JUMP JUMPDEST PUSH0 PUSH1 0x20 DUP3 ADD SWAP1 POP DUP2 DUP2 SUB PUSH0 DUP4 ADD MSTORE PUSH2 0x1E7E DUP2 PUSH2 0x1E45 JUMP JUMPDEST SWAP1 POP SWAP2 SWAP1 POP JUMP INVALID LOG2 PUSH5 0x6970667358 0x22 SLT KECCAK256 ADDMOD 0xA7 0xE8 CALLDATACOPY GAS MOD BYTE MCOPY BLOCKHASH EXTCODEHASH SWAP10 RETF 0xB8 0xCF SWAP9 0xAD PUSH13 0x8B7A4B904DE288D9E8B934D323 PUSH13 0x4B64736F6C634300081E003300 "
				},
				"gasEstimates": {
					"creation": {
						"codeDepositCost": "1573400",
						"executionCost": "25908",
						"totalCost": "1599308"
					},
					"external": {
						"HARVEST_REWARD()": "392",
						"PLANT_PRICE()": "369",
						"STAGE_DURATION()": "393",
						"WATER_DEPLETION_RATE()": "353",
						"WATER_DEPLETION_TIME()": "370",
						"calculateWaterLevel(uint256)": "infinite",
						"getPlant(uint256)": "infinite",
						"getUserPlants(address)": "infinite",
						"harvestPlant(uint256)": "infinite",
						"owner()": "2531",
						"plantCounter()": "2514",
						"plantSeed()": "infinite",
						"plants(uint256)": "infinite",
						"updatePlantStage(uint256)": "infinite",
						"userPlants(address,uint256)": "infinite",
						"waterPlant(uint256)": "infinite",
						"withdraw()": "infinite"
					},
					"internal": {
						"updateWaterLevel(uint256)": "infinite"
					}
				},
				"methodIdentifiers": {
					"HARVEST_REWARD()": "891c0785",
					"PLANT_PRICE()": "cfc9a5f8",
					"STAGE_DURATION()": "51f9efde",
					"WATER_DEPLETION_RATE()": "bacb5ebd",
					"WATER_DEPLETION_TIME()": "7ed4c5be",
					"calculateWaterLevel(uint256)": "754e150d",
					"getPlant(uint256)": "ed0b1f5f",
					"getUserPlants(address)": "30cec0eb",
					"harvestPlant(uint256)": "e38f8448",
					"owner()": "8da5cb5b",
					"plantCounter()": "9c471749",
					"plantSeed()": "74119a38",
					"plants(uint256)": "8dd2361c",
					"updatePlantStage(uint256)": "ddd42596",
					"userPlants(address,uint256)": "8aee578b",
					"waterPlant(uint256)": "9886bcfa",
					"withdraw()": "3ccfd60b"
				}
			},
			"storageLayout": {
				"storage": [
					{
						"astId": 29,
						"contract": "contracts/LiskGarden.sol:LiskGarden",
						"label": "plants",
						"offset": 0,
						"slot": "0",
						"type": "t_mapping(t_uint256,t_struct(Plant)24_storage)"
					},
					{
						"astId": 34,
						"contract": "contracts/LiskGarden.sol:LiskGarden",
						"label": "userPlants",
						"offset": 0,
						"slot": "1",
						"type": "t_mapping(t_address,t_array(t_uint256)dyn_storage)"
					},
					{
						"astId": 36,
						"contract": "contracts/LiskGarden.sol:LiskGarden",
						"label": "plantCounter",
						"offset": 0,
						"slot": "2",
						"type": "t_uint256"
					},
					{
						"astId": 38,
						"contract": "contracts/LiskGarden.sol:LiskGarden",
						"label": "owner",
						"offset": 0,
						"slot": "3",
						"type": "t_address_payable"
					}
				],
				"types": {
					"t_address": {
						"encoding": "inplace",
						"label": "address",
						"numberOfBytes": "20"
					},
					"t_address_payable": {
						"encoding": "inplace",
						"label": "address payable",
						"numberOfBytes": "20"
					},
					"t_array(t_uint256)dyn_storage": {
						"base": "t_uint256",
						"encoding": "dynamic_array",
						"label": "uint256[]",
						"numberOfBytes": "32"
					},
					"t_bool": {
						"encoding": "inplace",
						"label": "bool",
						"numberOfBytes": "1"
					},
					"t_enum(GrowthStage)6": {
						"encoding": "inplace",
						"label": "enum LiskGarden.GrowthStage",
						"numberOfBytes": "1"
					},
					"t_mapping(t_address,t_array(t_uint256)dyn_storage)": {
						"encoding": "mapping",
						"key": "t_address",
						"label": "mapping(address => uint256[])",
						"numberOfBytes": "32",
						"value": "t_array(t_uint256)dyn_storage"
					},
					"t_mapping(t_uint256,t_struct(Plant)24_storage)": {
						"encoding": "mapping",
						"key": "t_uint256",
						"label": "mapping(uint256 => struct LiskGarden.Plant)",
						"numberOfBytes": "32",
						"value": "t_struct(Plant)24_storage"
					},
					"t_struct(Plant)24_storage": {
						"encoding": "inplace",
						"label": "struct LiskGarden.Plant",
						"members": [
							{
								"astId": 8,
								"contract": "contracts/LiskGarden.sol:LiskGarden",
								"label": "id",
								"offset": 0,
								"slot": "0",
								"type": "t_uint256"
							},
							{
								"astId": 10,
								"contract": "contracts/LiskGarden.sol:LiskGarden",
								"label": "owner",
								"offset": 0,
								"slot": "1",
								"type": "t_address"
							},
							{
								"astId": 13,
								"contract": "contracts/LiskGarden.sol:LiskGarden",
								"label": "stage",
								"offset": 20,
								"slot": "1",
								"type": "t_enum(GrowthStage)6"
							},
							{
								"astId": 15,
								"contract": "contracts/LiskGarden.sol:LiskGarden",
								"label": "plantedDate",
								"offset": 0,
								"slot": "2",
								"type": "t_uint256"
							},
							{
								"astId": 17,
								"contract": "contracts/LiskGarden.sol:LiskGarden",
								"label": "lastWatered",
								"offset": 0,
								"slot": "3",
								"type": "t_uint256"
							},
							{
								"astId": 19,
								"contract": "contracts/LiskGarden.sol:LiskGarden",
								"label": "waterLevel",
								"offset": 0,
								"slot": "4",
								"type": "t_uint8"
							},
							{
								"astId": 21,
								"contract": "contracts/LiskGarden.sol:LiskGarden",
								"label": "exists",
								"offset": 1,
								"slot": "4",
								"type": "t_bool"
							},
							{
								"astId": 23,
								"contract": "contracts/LiskGarden.sol:LiskGarden",
								"label": "isDead",
								"offset": 2,
								"slot": "4",
								"type": "t_bool"
							}
						],
						"numberOfBytes": "160"
					},
					"t_uint256": {
						"encoding": "inplace",
						"label": "uint256",
						"numberOfBytes": "32"
					},
					"t_uint8": {
						"encoding": "inplace",
						"label": "uint8",
						"numberOfBytes": "1"
					}
				}
			},
			"userdoc": {
				"kind": "user",
				"methods": {},
				"version": 1
			}
		}
	}
}