{
	"contracts/LearnStruct.sol": {
		"LearnStruct": {
			"abi": [
				{
					"inputs": [],
					"stateMutability": "nonpayable",
					"type": "constructor"
				},
				{
					"inputs": [],
					"name": "grow",
					"outputs": [],
					"stateMutability": "nonpayable",
					"type": "function"
				},
				{
					"inputs": [],
					"name": "myPlant",
					"outputs": [
						{
							"internalType": "uint256",
							"name": "id",
							"type": "uint256"
						},
						{
							"internalType": "address",
							"name": "owner",
							"type": "address"
						},
						{
							"internalType": "enum LearnStruct.GrowthStage",
							"name": "stage",
							"type": "uint8"
						},
						{
							"internalType": "uint8",
							"name": "waterLevel",
							"type": "uint8"
						},
						{
							"internalType": "bool",
							"name": "isAlive",
							"type": "bool"
						}
					],
					"stateMutability": "view",
					"type": "function"
				},
				{
					"inputs": [],
					"name": "water",
					"outputs": [],
					"stateMutability": "nonpayable",
					"type": "function"
				}
			],
			"devdoc": {
				"kind": "dev",
				"methods": {},
				"version": 1
			},
			"evm": {
				"assembly": "    /* \"contracts/LearnStruct.sol\":61:1023  contract LearnStruct {... */\n  mstore(0x40, 0x80)\n    /* \"contracts/LearnStruct.sol\":330:539  constructor() {... */\n  callvalue\n  dup1\n  iszero\n  tag_1\n  jumpi\n  revert(0x00, 0x00)\ntag_1:\n  pop\n    /* \"contracts/LearnStruct.sol\":365:531  Plant({... */\n  mload(0x40)\n  dup1\n  0xa0\n  add\n  0x40\n  mstore\n  dup1\n    /* \"contracts/LearnStruct.sol\":390:391  1 */\n  0x01\n    /* \"contracts/LearnStruct.sol\":365:531  Plant({... */\n  dup2\n  mstore\n  0x20\n  add\n    /* \"contracts/LearnStruct.sol\":413:423  msg.sender */\n  caller\n    /* \"contracts/LearnStruct.sol\":365:531  Plant({... */\n  0xffffffffffffffffffffffffffffffffffffffff\n  and\n  dup2\n  mstore\n  0x20\n  add\n    /* \"contracts/LearnStruct.sol\":445:461  GrowthStage.SEED */\n  0x00\n    /* \"contracts/LearnStruct.sol\":365:531  Plant({... */\n  0x03\n  dup2\n  gt\n  iszero\n  tag_4\n  jumpi\n  tag_5\n  tag_6\n  jump\t// in\ntag_5:\ntag_4:\n  dup2\n  mstore\n  0x20\n  add\n    /* \"contracts/LearnStruct.sol\":488:491  100 */\n  0x64\n    /* \"contracts/LearnStruct.sol\":365:531  Plant({... */\n  0xff\n  and\n  dup2\n  mstore\n  0x20\n  add\n    /* \"contracts/LearnStruct.sol\":515:519  true */\n  0x01\n    /* \"contracts/LearnStruct.sol\":365:531  Plant({... */\n  iszero\n  iszero\n  dup2\n  mstore\n  pop\n    /* \"contracts/LearnStruct.sol\":355:362  myPlant */\n  0x00\n    /* \"contracts/LearnStruct.sol\":355:531  myPlant = Plant({... */\n  0x00\n  dup3\n  add\n  mload\n  dup2\n  0x00\n  add\n  sstore\n  0x20\n  dup3\n  add\n  mload\n  dup2\n  0x01\n  add\n  exp(0x0100, 0x00)\n  dup2\n  sload\n  dup2\n  0xffffffffffffffffffffffffffffffffffffffff\n  mul\n  not\n  and\n  swap1\n  dup4\n  0xffffffffffffffffffffffffffffffffffffffff\n  and\n  mul\n  or\n  swap1\n  sstore\n  pop\n  0x40\n  dup3\n  add\n  mload\n  dup2\n  0x01\n  add\n  exp(0x0100, 0x14)\n  dup2\n  sload\n  dup2\n  0xff\n  mul\n  not\n  and\n  swap1\n  dup4\n  0x03\n  dup2\n  gt\n  iszero\n  tag_7\n  jumpi\n  tag_8\n  tag_6\n  jump\t// in\ntag_8:\ntag_7:\n  mul\n  or\n  swap1\n  sstore\n  pop\n  0x60\n  dup3\n  add\n  mload\n  dup2\n  0x01\n  add\n  exp(0x0100, 0x15)\n  dup2\n  sload\n  dup2\n  0xff\n  mul\n  not\n  and\n  swap1\n  dup4\n  0xff\n  and\n  mul\n  or\n  swap1\n  sstore\n  pop\n  0x80\n  dup3\n  add\n  mload\n  dup2\n  0x01\n  add\n  exp(0x0100, 0x16)\n  dup2\n  sload\n  dup2\n  0xff\n  mul\n  not\n  and\n  swap1\n  dup4\n  iszero\n  iszero\n  mul\n  or\n  swap1\n  sstore\n  pop\n  swap1\n  pop\n  pop\n    /* \"contracts/LearnStruct.sol\":61:1023  contract LearnStruct {... */\n  jump(tag_9)\n    /* \"#utility.yul\":7:187   */\ntag_6:\n    /* \"#utility.yul\":55:132   */\n  0x4e487b7100000000000000000000000000000000000000000000000000000000\n    /* \"#utility.yul\":52:53   */\n  0x00\n    /* \"#utility.yul\":45:133   */\n  mstore\n    /* \"#utility.yul\":152:156   */\n  0x21\n    /* \"#utility.yul\":149:150   */\n  0x04\n    /* \"#utility.yul\":142:157   */\n  mstore\n    /* \"#utility.yul\":176:180   */\n  0x24\n    /* \"#utility.yul\":173:174   */\n  0x00\n    /* \"#utility.yul\":166:181   */\n  revert\n    /* \"contracts/LearnStruct.sol\":61:1023  contract LearnStruct {... */\ntag_9:\n  dataSize(sub_0)\n  dup1\n  dataOffset(sub_0)\n  0x00\n  codecopy\n  0x00\n  return\nstop\n\nsub_0: assembly {\n        /* \"contracts/LearnStruct.sol\":61:1023  contract LearnStruct {... */\n      mstore(0x40, 0x80)\n      callvalue\n      dup1\n      iszero\n      tag_1\n      jumpi\n      revert(0x00, 0x00)\n    tag_1:\n      pop\n      jumpi(tag_2, lt(calldatasize, 0x04))\n      shr(0xe0, calldataload(0x00))\n      dup1\n      0x3a8fdff0\n      eq\n      tag_3\n      jumpi\n      dup1\n      0x5298948e\n      eq\n      tag_4\n      jumpi\n      dup1\n      0xffce2210\n      eq\n      tag_5\n      jumpi\n    tag_2:\n      revert(0x00, 0x00)\n        /* \"contracts/LearnStruct.sol\":301:321  Plant public myPlant */\n    tag_3:\n      tag_6\n      tag_7\n      jump\t// in\n    tag_6:\n      mload(0x40)\n      tag_8\n      swap6\n      swap5\n      swap4\n      swap3\n      swap2\n      swap1\n      tag_9\n      jump\t// in\n    tag_8:\n      mload(0x40)\n      dup1\n      swap2\n      sub\n      swap1\n      return\n        /* \"contracts/LearnStruct.sol\":641:1020  function grow() public {... */\n    tag_4:\n      tag_10\n      tag_11\n      jump\t// in\n    tag_10:\n      stop\n        /* \"contracts/LearnStruct.sol\":547:633  function water() public {... */\n    tag_5:\n      tag_12\n      tag_13\n      jump\t// in\n    tag_12:\n      stop\n        /* \"contracts/LearnStruct.sol\":301:321  Plant public myPlant */\n    tag_7:\n      0x00\n      dup1\n      0x00\n      add\n      sload\n      swap1\n      dup1\n      0x01\n      add\n      0x00\n      swap1\n      sload\n      swap1\n      0x0100\n      exp\n      swap1\n      div\n      0xffffffffffffffffffffffffffffffffffffffff\n      and\n      swap1\n      dup1\n      0x01\n      add\n      0x14\n      swap1\n      sload\n      swap1\n      0x0100\n      exp\n      swap1\n      div\n      0xff\n      and\n      swap1\n      dup1\n      0x01\n      add\n      0x15\n      swap1\n      sload\n      swap1\n      0x0100\n      exp\n      swap1\n      div\n      0xff\n      and\n      swap1\n      dup1\n      0x01\n      add\n      0x16\n      swap1\n      sload\n      swap1\n      0x0100\n      exp\n      swap1\n      div\n      0xff\n      and\n      swap1\n      pop\n      dup6\n      jump\t// out\n        /* \"contracts/LearnStruct.sol\":641:1020  function grow() public {... */\n    tag_11:\n        /* \"contracts/LearnStruct.sol\":696:712  GrowthStage.SEED */\n      0x00\n        /* \"contracts/LearnStruct.sol\":679:712  myPlant.stage == GrowthStage.SEED */\n      0x03\n      dup2\n      gt\n      iszero\n      tag_15\n      jumpi\n      tag_16\n      tag_17\n      jump\t// in\n    tag_16:\n    tag_15:\n        /* \"contracts/LearnStruct.sol\":679:686  myPlant */\n      0x00\n        /* \"contracts/LearnStruct.sol\":679:692  myPlant.stage */\n      0x01\n      add\n      0x14\n      swap1\n      sload\n      swap1\n      0x0100\n      exp\n      swap1\n      div\n      0xff\n      and\n        /* \"contracts/LearnStruct.sol\":679:712  myPlant.stage == GrowthStage.SEED */\n      0x03\n      dup2\n      gt\n      iszero\n      tag_18\n      jumpi\n      tag_19\n      tag_17\n      jump\t// in\n    tag_19:\n    tag_18:\n      sub\n        /* \"contracts/LearnStruct.sol\":675:1013  if (myPlant.stage == GrowthStage.SEED) {... */\n      tag_20\n      jumpi\n        /* \"contracts/LearnStruct.sol\":745:763  GrowthStage.SPROUT */\n      0x01\n        /* \"contracts/LearnStruct.sol\":729:736  myPlant */\n      0x00\n        /* \"contracts/LearnStruct.sol\":729:742  myPlant.stage */\n      0x01\n      add\n      0x14\n        /* \"contracts/LearnStruct.sol\":729:763  myPlant.stage = GrowthStage.SPROUT */\n      0x0100\n      exp\n      dup2\n      sload\n      dup2\n      0xff\n      mul\n      not\n      and\n      swap1\n      dup4\n      0x03\n      dup2\n      gt\n      iszero\n      tag_21\n      jumpi\n      tag_22\n      tag_17\n      jump\t// in\n    tag_22:\n    tag_21:\n      mul\n      or\n      swap1\n      sstore\n      pop\n        /* \"contracts/LearnStruct.sol\":675:1013  if (myPlant.stage == GrowthStage.SEED) {... */\n      jump(tag_23)\n    tag_20:\n        /* \"contracts/LearnStruct.sol\":811:829  GrowthStage.SPROUT */\n      0x01\n        /* \"contracts/LearnStruct.sol\":794:829  myPlant.stage == GrowthStage.SPROUT */\n      0x03\n      dup2\n      gt\n      iszero\n      tag_24\n      jumpi\n      tag_25\n      tag_17\n      jump\t// in\n    tag_25:\n    tag_24:\n        /* \"contracts/LearnStruct.sol\":794:801  myPlant */\n      0x00\n        /* \"contracts/LearnStruct.sol\":794:807  myPlant.stage */\n      0x01\n      add\n      0x14\n      swap1\n      sload\n      swap1\n      0x0100\n      exp\n      swap1\n      div\n      0xff\n      and\n        /* \"contracts/LearnStruct.sol\":794:829  myPlant.stage == GrowthStage.SPROUT */\n      0x03\n      dup2\n      gt\n      iszero\n      tag_26\n      jumpi\n      tag_27\n      tag_17\n      jump\t// in\n    tag_27:\n    tag_26:\n      sub\n        /* \"contracts/LearnStruct.sol\":790:1013  if (myPlant.stage == GrowthStage.SPROUT) {... */\n      tag_28\n      jumpi\n        /* \"contracts/LearnStruct.sol\":862:881  GrowthStage.GROWING */\n      0x02\n        /* \"contracts/LearnStruct.sol\":846:853  myPlant */\n      0x00\n        /* \"contracts/LearnStruct.sol\":846:859  myPlant.stage */\n      0x01\n      add\n      0x14\n        /* \"contracts/LearnStruct.sol\":846:881  myPlant.stage = GrowthStage.GROWING */\n      0x0100\n      exp\n      dup2\n      sload\n      dup2\n      0xff\n      mul\n      not\n      and\n      swap1\n      dup4\n      0x03\n      dup2\n      gt\n      iszero\n      tag_29\n      jumpi\n      tag_30\n      tag_17\n      jump\t// in\n    tag_30:\n    tag_29:\n      mul\n      or\n      swap1\n      sstore\n      pop\n        /* \"contracts/LearnStruct.sol\":790:1013  if (myPlant.stage == GrowthStage.SPROUT) {... */\n      jump(tag_31)\n    tag_28:\n        /* \"contracts/LearnStruct.sol\":929:948  GrowthStage.GROWING */\n      0x02\n        /* \"contracts/LearnStruct.sol\":912:948  myPlant.stage == GrowthStage.GROWING */\n      0x03\n      dup2\n      gt\n      iszero\n      tag_32\n      jumpi\n      tag_33\n      tag_17\n      jump\t// in\n    tag_33:\n    tag_32:\n        /* \"contracts/LearnStruct.sol\":912:919  myPlant */\n      0x00\n        /* \"contracts/LearnStruct.sol\":912:925  myPlant.stage */\n      0x01\n      add\n      0x14\n      swap1\n      sload\n      swap1\n      0x0100\n      exp\n      swap1\n      div\n      0xff\n      and\n        /* \"contracts/LearnStruct.sol\":912:948  myPlant.stage == GrowthStage.GROWING */\n      0x03\n      dup2\n      gt\n      iszero\n      tag_34\n      jumpi\n      tag_35\n      tag_17\n      jump\t// in\n    tag_35:\n    tag_34:\n      sub\n        /* \"contracts/LearnStruct.sol\":908:1013  if (myPlant.stage == GrowthStage.GROWING) {... */\n      tag_36\n      jumpi\n        /* \"contracts/LearnStruct.sol\":981:1001  GrowthStage.BLOOMING */\n      0x03\n        /* \"contracts/LearnStruct.sol\":965:972  myPlant */\n      0x00\n        /* \"contracts/LearnStruct.sol\":965:978  myPlant.stage */\n      0x01\n      add\n      0x14\n        /* \"contracts/LearnStruct.sol\":965:1001  myPlant.stage = GrowthStage.BLOOMING */\n      0x0100\n      exp\n      dup2\n      sload\n      dup2\n      0xff\n      mul\n      not\n      and\n      swap1\n      dup4\n      0x03\n      dup2\n      gt\n      iszero\n      tag_37\n      jumpi\n      tag_38\n      tag_17\n      jump\t// in\n    tag_38:\n    tag_37:\n      mul\n      or\n      swap1\n      sstore\n      pop\n        /* \"contracts/LearnStruct.sol\":908:1013  if (myPlant.stage == GrowthStage.GROWING) {... */\n    tag_36:\n        /* \"contracts/LearnStruct.sol\":790:1013  if (myPlant.stage == GrowthStage.SPROUT) {... */\n    tag_31:\n        /* \"contracts/LearnStruct.sol\":675:1013  if (myPlant.stage == GrowthStage.SEED) {... */\n    tag_23:\n        /* \"contracts/LearnStruct.sol\":641:1020  function grow() public {... */\n      jump\t// out\n        /* \"contracts/LearnStruct.sol\":547:633  function water() public {... */\n    tag_13:\n        /* \"contracts/LearnStruct.sol\":623:625  10 */\n      0x0a\n        /* \"contracts/LearnStruct.sol\":603:610  myPlant */\n      0x00\n        /* \"contracts/LearnStruct.sol\":603:621  myPlant.waterLevel */\n      0x01\n      add\n      0x15\n      swap1\n      sload\n      swap1\n      0x0100\n      exp\n      swap1\n      div\n      0xff\n      and\n        /* \"contracts/LearnStruct.sol\":603:625  myPlant.waterLevel +10 */\n      tag_40\n      swap2\n      swap1\n      tag_41\n      jump\t// in\n    tag_40:\n        /* \"contracts/LearnStruct.sol\":582:589  myPlant */\n      0x00\n        /* \"contracts/LearnStruct.sol\":582:600  myPlant.waterLevel */\n      0x01\n      add\n      0x15\n        /* \"contracts/LearnStruct.sol\":582:625  myPlant.waterLevel = myPlant.waterLevel +10 */\n      0x0100\n      exp\n      dup2\n      sload\n      dup2\n      0xff\n      mul\n      not\n      and\n      swap1\n      dup4\n      0xff\n      and\n      mul\n      or\n      swap1\n      sstore\n      pop\n        /* \"contracts/LearnStruct.sol\":547:633  function water() public {... */\n      jump\t// out\n        /* \"#utility.yul\":7:84   */\n    tag_42:\n        /* \"#utility.yul\":44:51   */\n      0x00\n        /* \"#utility.yul\":73:78   */\n      dup2\n        /* \"#utility.yul\":62:78   */\n      swap1\n      pop\n        /* \"#utility.yul\":7:84   */\n      swap2\n      swap1\n      pop\n      jump\t// out\n        /* \"#utility.yul\":90:208   */\n    tag_43:\n        /* \"#utility.yul\":177:201   */\n      tag_59\n        /* \"#utility.yul\":195:200   */\n      dup2\n        /* \"#utility.yul\":177:201   */\n      tag_42\n      jump\t// in\n    tag_59:\n        /* \"#utility.yul\":172:175   */\n      dup3\n        /* \"#utility.yul\":165:202   */\n      mstore\n        /* \"#utility.yul\":90:208   */\n      pop\n      pop\n      jump\t// out\n        /* \"#utility.yul\":214:340   */\n    tag_44:\n        /* \"#utility.yul\":251:258   */\n      0x00\n        /* \"#utility.yul\":291:333   */\n      0xffffffffffffffffffffffffffffffffffffffff\n        /* \"#utility.yul\":284:289   */\n      dup3\n        /* \"#utility.yul\":280:334   */\n      and\n        /* \"#utility.yul\":269:334   */\n      swap1\n      pop\n        /* \"#utility.yul\":214:340   */\n      swap2\n      swap1\n      pop\n      jump\t// out\n        /* \"#utility.yul\":346:442   */\n    tag_45:\n        /* \"#utility.yul\":383:390   */\n      0x00\n        /* \"#utility.yul\":412:436   */\n      tag_62\n        /* \"#utility.yul\":430:435   */\n      dup3\n        /* \"#utility.yul\":412:436   */\n      tag_44\n      jump\t// in\n    tag_62:\n        /* \"#utility.yul\":401:436   */\n      swap1\n      pop\n        /* \"#utility.yul\":346:442   */\n      swap2\n      swap1\n      pop\n      jump\t// out\n        /* \"#utility.yul\":448:566   */\n    tag_46:\n        /* \"#utility.yul\":535:559   */\n      tag_64\n        /* \"#utility.yul\":553:558   */\n      dup2\n        /* \"#utility.yul\":535:559   */\n      tag_45\n      jump\t// in\n    tag_64:\n        /* \"#utility.yul\":530:533   */\n      dup3\n        /* \"#utility.yul\":523:560   */\n      mstore\n        /* \"#utility.yul\":448:566   */\n      pop\n      pop\n      jump\t// out\n        /* \"#utility.yul\":572:752   */\n    tag_17:\n        /* \"#utility.yul\":620:697   */\n      0x4e487b7100000000000000000000000000000000000000000000000000000000\n        /* \"#utility.yul\":617:618   */\n      0x00\n        /* \"#utility.yul\":610:698   */\n      mstore\n        /* \"#utility.yul\":717:721   */\n      0x21\n        /* \"#utility.yul\":714:715   */\n      0x04\n        /* \"#utility.yul\":707:722   */\n      mstore\n        /* \"#utility.yul\":741:745   */\n      0x24\n        /* \"#utility.yul\":738:739   */\n      0x00\n        /* \"#utility.yul\":731:746   */\n      revert\n        /* \"#utility.yul\":758:876   */\n    tag_47:\n        /* \"#utility.yul\":844:845   */\n      0x04\n        /* \"#utility.yul\":837:842   */\n      dup2\n        /* \"#utility.yul\":834:846   */\n      lt\n        /* \"#utility.yul\":824:870   */\n      tag_67\n      jumpi\n        /* \"#utility.yul\":850:868   */\n      tag_68\n      tag_17\n      jump\t// in\n    tag_68:\n        /* \"#utility.yul\":824:870   */\n    tag_67:\n        /* \"#utility.yul\":758:876   */\n      pop\n      jump\t// out\n        /* \"#utility.yul\":882:1019   */\n    tag_48:\n        /* \"#utility.yul\":932:939   */\n      0x00\n        /* \"#utility.yul\":961:966   */\n      dup2\n        /* \"#utility.yul\":950:966   */\n      swap1\n      pop\n        /* \"#utility.yul\":967:1013   */\n      tag_70\n        /* \"#utility.yul\":1007:1012   */\n      dup3\n        /* \"#utility.yul\":967:1013   */\n      tag_47\n      jump\t// in\n    tag_70:\n        /* \"#utility.yul\":882:1019   */\n      swap2\n      swap1\n      pop\n      jump\t// out\n        /* \"#utility.yul\":1025:1162   */\n    tag_49:\n        /* \"#utility.yul\":1086:1095   */\n      0x00\n        /* \"#utility.yul\":1119:1156   */\n      tag_72\n        /* \"#utility.yul\":1150:1155   */\n      dup3\n        /* \"#utility.yul\":1119:1156   */\n      tag_48\n      jump\t// in\n    tag_72:\n        /* \"#utility.yul\":1106:1156   */\n      swap1\n      pop\n        /* \"#utility.yul\":1025:1162   */\n      swap2\n      swap1\n      pop\n      jump\t// out\n        /* \"#utility.yul\":1168:1321   */\n    tag_50:\n        /* \"#utility.yul\":1266:1314   */\n      tag_74\n        /* \"#utility.yul\":1308:1313   */\n      dup2\n        /* \"#utility.yul\":1266:1314   */\n      tag_49\n      jump\t// in\n    tag_74:\n        /* \"#utility.yul\":1261:1264   */\n      dup3\n        /* \"#utility.yul\":1254:1315   */\n      mstore\n        /* \"#utility.yul\":1168:1321   */\n      pop\n      pop\n      jump\t// out\n        /* \"#utility.yul\":1327:1413   */\n    tag_51:\n        /* \"#utility.yul\":1362:1369   */\n      0x00\n        /* \"#utility.yul\":1402:1406   */\n      0xff\n        /* \"#utility.yul\":1395:1400   */\n      dup3\n        /* \"#utility.yul\":1391:1407   */\n      and\n        /* \"#utility.yul\":1380:1407   */\n      swap1\n      pop\n        /* \"#utility.yul\":1327:1413   */\n      swap2\n      swap1\n      pop\n      jump\t// out\n        /* \"#utility.yul\":1419:1531   */\n    tag_52:\n        /* \"#utility.yul\":1502:1524   */\n      tag_77\n        /* \"#utility.yul\":1518:1523   */\n      dup2\n        /* \"#utility.yul\":1502:1524   */\n      tag_51\n      jump\t// in\n    tag_77:\n        /* \"#utility.yul\":1497:1500   */\n      dup3\n        /* \"#utility.yul\":1490:1525   */\n      mstore\n        /* \"#utility.yul\":1419:1531   */\n      pop\n      pop\n      jump\t// out\n        /* \"#utility.yul\":1537:1627   */\n    tag_53:\n        /* \"#utility.yul\":1571:1578   */\n      0x00\n        /* \"#utility.yul\":1614:1619   */\n      dup2\n        /* \"#utility.yul\":1607:1620   */\n      iszero\n        /* \"#utility.yul\":1600:1621   */\n      iszero\n        /* \"#utility.yul\":1589:1621   */\n      swap1\n      pop\n        /* \"#utility.yul\":1537:1627   */\n      swap2\n      swap1\n      pop\n      jump\t// out\n        /* \"#utility.yul\":1633:1742   */\n    tag_54:\n        /* \"#utility.yul\":1714:1735   */\n      tag_80\n        /* \"#utility.yul\":1729:1734   */\n      dup2\n        /* \"#utility.yul\":1714:1735   */\n      tag_53\n      jump\t// in\n    tag_80:\n        /* \"#utility.yul\":1709:1712   */\n      dup3\n        /* \"#utility.yul\":1702:1736   */\n      mstore\n        /* \"#utility.yul\":1633:1742   */\n      pop\n      pop\n      jump\t// out\n        /* \"#utility.yul\":1748:2414   */\n    tag_9:\n        /* \"#utility.yul\":1954:1958   */\n      0x00\n        /* \"#utility.yul\":1992:1995   */\n      0xa0\n        /* \"#utility.yul\":1981:1990   */\n      dup3\n        /* \"#utility.yul\":1977:1996   */\n      add\n        /* \"#utility.yul\":1969:1996   */\n      swap1\n      pop\n        /* \"#utility.yul\":2006:2077   */\n      tag_82\n        /* \"#utility.yul\":2074:2075   */\n      0x00\n        /* \"#utility.yul\":2063:2072   */\n      dup4\n        /* \"#utility.yul\":2059:2076   */\n      add\n        /* \"#utility.yul\":2050:2056   */\n      dup9\n        /* \"#utility.yul\":2006:2077   */\n      tag_43\n      jump\t// in\n    tag_82:\n        /* \"#utility.yul\":2087:2159   */\n      tag_83\n        /* \"#utility.yul\":2155:2157   */\n      0x20\n        /* \"#utility.yul\":2144:2153   */\n      dup4\n        /* \"#utility.yul\":2140:2158   */\n      add\n        /* \"#utility.yul\":2131:2137   */\n      dup8\n        /* \"#utility.yul\":2087:2159   */\n      tag_46\n      jump\t// in\n    tag_83:\n        /* \"#utility.yul\":2169:2252   */\n      tag_84\n        /* \"#utility.yul\":2248:2250   */\n      0x40\n        /* \"#utility.yul\":2237:2246   */\n      dup4\n        /* \"#utility.yul\":2233:2251   */\n      add\n        /* \"#utility.yul\":2224:2230   */\n      dup7\n        /* \"#utility.yul\":2169:2252   */\n      tag_50\n      jump\t// in\n    tag_84:\n        /* \"#utility.yul\":2262:2330   */\n      tag_85\n        /* \"#utility.yul\":2326:2328   */\n      0x60\n        /* \"#utility.yul\":2315:2324   */\n      dup4\n        /* \"#utility.yul\":2311:2329   */\n      add\n        /* \"#utility.yul\":2302:2308   */\n      dup6\n        /* \"#utility.yul\":2262:2330   */\n      tag_52\n      jump\t// in\n    tag_85:\n        /* \"#utility.yul\":2340:2407   */\n      tag_86\n        /* \"#utility.yul\":2402:2405   */\n      0x80\n        /* \"#utility.yul\":2391:2400   */\n      dup4\n        /* \"#utility.yul\":2387:2406   */\n      add\n        /* \"#utility.yul\":2378:2384   */\n      dup5\n        /* \"#utility.yul\":2340:2407   */\n      tag_54\n      jump\t// in\n    tag_86:\n        /* \"#utility.yul\":1748:2414   */\n      swap7\n      swap6\n      pop\n      pop\n      pop\n      pop\n      pop\n      pop\n      jump\t// out\n        /* \"#utility.yul\":2420:2600   */\n    tag_55:\n        /* \"#utility.yul\":2468:2545   */\n      0x4e487b7100000000000000000000000000000000000000000000000000000000\n        /* \"#utility.yul\":2465:2466   */\n      0x00\n        /* \"#utility.yul\":2458:2546   */\n      mstore\n        /* \"#utility.yul\":2565:2569   */\n      0x11\n        /* \"#utility.yul\":2562:2563   */\n      0x04\n        /* \"#utility.yul\":2555:2570   */\n      mstore\n        /* \"#utility.yul\":2589:2593   */\n      0x24\n        /* \"#utility.yul\":2586:2587   */\n      0x00\n        /* \"#utility.yul\":2579:2594   */\n      revert\n        /* \"#utility.yul\":2606:2794   */\n    tag_41:\n        /* \"#utility.yul\":2644:2647   */\n      0x00\n        /* \"#utility.yul\":2663:2681   */\n      tag_89\n        /* \"#utility.yul\":2679:2680   */\n      dup3\n        /* \"#utility.yul\":2663:2681   */\n      tag_51\n      jump\t// in\n    tag_89:\n        /* \"#utility.yul\":2658:2681   */\n      swap2\n      pop\n        /* \"#utility.yul\":2695:2713   */\n      tag_90\n        /* \"#utility.yul\":2711:2712   */\n      dup4\n        /* \"#utility.yul\":2695:2713   */\n      tag_51\n      jump\t// in\n    tag_90:\n        /* \"#utility.yul\":2690:2713   */\n      swap3\n      pop\n        /* \"#utility.yul\":2736:2737   */\n      dup3\n        /* \"#utility.yul\":2733:2734   */\n      dup3\n        /* \"#utility.yul\":2729:2738   */\n      add\n        /* \"#utility.yul\":2722:2738   */\n      swap1\n      pop\n        /* \"#utility.yul\":2759:2763   */\n      0xff\n        /* \"#utility.yul\":2754:2757   */\n      dup2\n        /* \"#utility.yul\":2751:2764   */\n      gt\n        /* \"#utility.yul\":2748:2787   */\n      iszero\n      tag_91\n      jumpi\n        /* \"#utility.yul\":2767:2785   */\n      tag_92\n      tag_55\n      jump\t// in\n    tag_92:\n        /* \"#utility.yul\":2748:2787   */\n    tag_91:\n        /* \"#utility.yul\":2606:2794   */\n      swap3\n      swap2\n      pop\n      pop\n      jump\t// out\n\n    auxdata: 0xa264697066735822122014b9f2e6198f42b60f8010ddba5bd077ca862b40f4fb4e90f1c4710bc60b01c464736f6c634300081e0033\n}\n",
				"bytecode": {
					"linkReferences": {},
					"object": "608060405234801561000f575f5ffd5b506040518060a00160405280600181526020013373ffffffffffffffffffffffffffffffffffffffff1681526020015f60038111156100515761005061012f565b5b8152602001606460ff168152602001600115158152505f5f820151815f01556020820151816001015f6101000a81548173ffffffffffffffffffffffffffffffffffffffff021916908373ffffffffffffffffffffffffffffffffffffffff16021790555060408201518160010160146101000a81548160ff021916908360038111156100e1576100e061012f565b5b021790555060608201518160010160156101000a81548160ff021916908360ff16021790555060808201518160010160166101000a81548160ff02191690831515021790555090505061015c565b7f4e487b71000000000000000000000000000000000000000000000000000000005f52602160045260245ffd5b610450806101695f395ff3fe608060405234801561000f575f5ffd5b506004361061003f575f3560e01c80633a8fdff0146100435780635298948e14610065578063ffce22101461006f575b5f5ffd5b61004b610079565b60405161005c959493929190610368565b60405180910390f35b61006d6100e1565b005b61007761022d565b005b5f805f015490806001015f9054906101000a900473ffffffffffffffffffffffffffffffffffffffff16908060010160149054906101000a900460ff16908060010160159054906101000a900460ff16908060010160169054906101000a900460ff16905085565b5f60038111156100f4576100f36102c0565b5b5f60010160149054906101000a900460ff166003811115610118576101176102c0565b5b0361014f5760015f60010160146101000a81548160ff02191690836003811115610145576101446102c0565b5b021790555061022b565b60016003811115610163576101626102c0565b5b5f60010160149054906101000a900460ff166003811115610187576101866102c0565b5b036101be5760025f60010160146101000a81548160ff021916908360038111156101b4576101b36102c0565b5b021790555061022a565b600260038111156101d2576101d16102c0565b5b5f60010160149054906101000a900460ff1660038111156101f6576101f56102c0565b5b036102295760035f60010160146101000a81548160ff02191690836003811115610223576102226102c0565b5b02179055505b5b5b565b600a5f60010160159054906101000a900460ff1661024b91906103e6565b5f60010160156101000a81548160ff021916908360ff160217905550565b5f819050919050565b61027b81610269565b82525050565b5f73ffffffffffffffffffffffffffffffffffffffff82169050919050565b5f6102aa82610281565b9050919050565b6102ba816102a0565b82525050565b7f4e487b71000000000000000000000000000000000000000000000000000000005f52602160045260245ffd5b600481106102fe576102fd6102c0565b5b50565b5f81905061030e826102ed565b919050565b5f61031d82610301565b9050919050565b61032d81610313565b82525050565b5f60ff82169050919050565b61034881610333565b82525050565b5f8115159050919050565b6103628161034e565b82525050565b5f60a08201905061037b5f830188610272565b61038860208301876102b1565b6103956040830186610324565b6103a2606083018561033f565b6103af6080830184610359565b9695505050505050565b7f4e487b71000000000000000000000000000000000000000000000000000000005f52601160045260245ffd5b5f6103f082610333565b91506103fb83610333565b9250828201905060ff811115610414576104136103b9565b5b9291505056fea264697066735822122014b9f2e6198f42b60f8010ddba5bd077ca862b40f4fb4e90f1c4710bc60b01c464736f6c634300081e0033",
					"opcodes": "PUSH1 0x80 PUSH1 0x40 MSTORE CALLVALUE DUP1 ISZERO PUSH2 0xF JUMPI PUSH0 PUSH0 REVERT JUMPDEST POP PUSH1 0x40 MLOAD DUP1 PUSH1 0xA0 ADD PUSH1 0x40 MSTORE DUP1 PUSH1 0x1 DUP2 MSTORE PUSH1 0x20 ADD CALLER PUSH20 0xFFFFFFFFFFFFFFFFFFFFFFFFFFFFFFFFFFFFFFFF AND DUP2 MSTORE PUSH1 0x20 ADD PUSH0 PUSH1 0x3 DUP2 GT ISZERO PUSH2 0x51 JUMPI PUSH2 0x50 PUSH2 0x12F JUMP JUMPDEST JUMPDEST DUP2 MSTORE PUSH1 0x20 ADD PUSH1 0x64 PUSH1 0xFF AND DUP2 MSTORE PUSH1 0x20 ADD PUSH1 0x1 ISZERO ISZERO DUP2 MSTORE POP PUSH0 PUSH0 DUP3 ADD MLOAD DUP2 PUSH0 ADD SSTORE PUSH1 0x20 DUP3 ADD MLOAD DUP2 PUSH1 0x1 ADD PUSH0 PUSH2 0x100 EXP DUP2 SLOAD DUP2 PUSH20 0xFFFFFFFFFFFFFFFFFFFFFFFFFFFFFFFFFFFFFFFF MUL NOT AND SWAP1 DUP4 PUSH20 0xFFFFFFFFFFFFFFFFFFFFFFFFFFFFFFFFFFFFFFFF AND MUL OR SWAP1 SSTORE POP PUSH1 0x40 DUP3 ADD MLOAD DUP2 PUSH1 0x1 ADD PUSH1 0x14 PUSH2 0x100 EXP DUP2 SLOAD DUP2 PUSH1 0xFF MUL NOT AND SWAP1 DUP4 PUSH1 0x3 DUP2 GT ISZERO PUSH2 0xE1 JUMPI PUSH2 0xE0 PUSH2 0x12F JUMP JUMPDEST JUMPDEST MUL OR SWAP1 SSTORE POP PUSH1 0x60 DUP3 ADD MLOAD DUP2 PUSH1 0x1 ADD PUSH1 0x15 PUSH2 0x100 EXP DUP2 SLOAD DUP2 PUSH1 0xFF MUL NOT AND SWAP1 DUP4 PUSH1 0xFF AND MUL OR SWAP1 SSTORE POP PUSH1 0x80 DUP3 ADD MLOAD DUP2 PUSH1 0x1 ADD PUSH1 0x16 PUSH2 0x100 EXP DUP2 SLOAD DUP2 PUSH1 0xFF MUL NOT AND SWAP1 DUP4 ISZERO ISZERO MUL OR SWAP1 SSTORE POP SWAP1 POP POP PUSH2 0x15C JUMP JUMPDEST PUSH32 0x4E487B7100000000000000000000000000000000000000000000000000000000 PUSH0 MSTORE PUSH1 0x21 PUSH1 0x4 MSTORE PUSH1 0x24 PUSH0 REVERT JUMPDEST PUSH2 0x450 DUP1 PUSH2 0x169 PUSH0 CODECOPY PUSH0 RETURN INVALID PUSH1 0x80 PUSH1 0x40 MSTORE CALLVALUE DUP1 ISZERO PUSH2 0xF JUMPI PUSH0 PUSH0 REVERT JUMPDEST POP PUSH1 0x4 CALLDATASIZE LT PUSH2 0x3F JUMPI PUSH0 CALLDATALOAD PUSH1 0xE0 SHR DUP1 PUSH4 0x3A8FDFF0 EQ PUSH2 0x43 JUMPI DUP1 PUSH4 0x5298948E EQ PUSH2 0x65 JUMPI DUP1 PUSH4 0xFFCE2210 EQ PUSH2 0x6F JUMPI JUMPDEST PUSH0 PUSH0 REVERT JUMPDEST PUSH2 0x4B PUSH2 0x79 JUMP JUMPDEST PUSH1 0x40 MLOAD PUSH2 0x5C SWAP6 SWAP5 SWAP4 SWAP3 SWAP2 SWAP1 PUSH2 0x368 JUMP JUMPDEST PUSH1 0x40 MLOAD DUP1 SWAP2 SUB SWAP1 RETURN JUMPDEST PUSH2 0x6D PUSH2 0xE1 JUMP JUMPDEST STOP JUMPDEST PUSH2 0x77 PUSH2 0x22D JUMP JUMPDEST STOP JUMPDEST PUSH0 DUP1 PUSH0 ADD SLOAD SWAP1 DUP1 PUSH1 0x1 ADD PUSH0 SWAP1 SLOAD SWAP1 PUSH2 0x100 EXP SWAP1 DIV PUSH20 0xFFFFFFFFFFFFFFFFFFFFFFFFFFFFFFFFFFFFFFFF AND SWAP1 DUP1 PUSH1 0x1 ADD PUSH1 0x14 SWAP1 SLOAD SWAP1 PUSH2 0x100 EXP SWAP1 DIV PUSH1 0xFF AND SWAP1 DUP1 PUSH1 0x1 ADD PUSH1 0x15 SWAP1 SLOAD SWAP1 PUSH2 0x100 EXP SWAP1 DIV PUSH1 0xFF AND SWAP1 DUP1 PUSH1 0x1 ADD PUSH1 0x16 SWAP1 SLOAD SWAP1 PUSH2 0x100 EXP SWAP1 DIV PUSH1 0xFF AND SWAP1 POP DUP6 JUMP JUMPDEST PUSH0 PUSH1 0x3 DUP2 GT ISZERO PUSH2 0xF4 JUMPI PUSH2 0xF3 PUSH2 0x2C0 JUMP JUMPDEST JUMPDEST PUSH0 PUSH1 0x1 ADD PUSH1 0x14 SWAP1 SLOAD SWAP1 PUSH2 0x100 EXP SWAP1 DIV PUSH1 0xFF AND PUSH1 0x3 DUP2 GT ISZERO PUSH2 0x118 JUMPI PUSH2 0x117 PUSH2 0x2C0 JUMP JUMPDEST JUMPDEST SUB PUSH2 0x14F JUMPI PUSH1 0x1 PUSH0 PUSH1 0x1 ADD PUSH1 0x14 PUSH2 0x100 EXP DUP2 SLOAD DUP2 PUSH1 0xFF MUL NOT AND SWAP1 DUP4 PUSH1 0x3 DUP2 GT ISZERO PUSH2 0x145 JUMPI PUSH2 0x144 PUSH2 0x2C0 JUMP JUMPDEST JUMPDEST MUL OR SWAP1 SSTORE POP PUSH2 0x22B JUMP JUMPDEST PUSH1 0x1 PUSH1 0x3 DUP2 GT ISZERO PUSH2 0x163 JUMPI PUSH2 0x162 PUSH2 0x2C0 JUMP JUMPDEST JUMPDEST PUSH0 PUSH1 0x1 ADD PUSH1 0x14 SWAP1 SLOAD SWAP1 PUSH2 0x100 EXP SWAP1 DIV PUSH1 0xFF AND PUSH1 0x3 DUP2 GT ISZERO PUSH2 0x187 JUMPI PUSH2 0x186 PUSH2 0x2C0 JUMP JUMPDEST JUMPDEST SUB PUSH2 0x1BE JUMPI PUSH1 0x2 PUSH0 PUSH1 0x1 ADD PUSH1 0x14 PUSH2 0x100 EXP DUP2 SLOAD DUP2 PUSH1 0xFF MUL NOT AND SWAP1 DUP4 PUSH1 0x3 DUP2 GT ISZERO PUSH2 0x1B4 JUMPI PUSH2 0x1B3 PUSH2 0x2C0 JUMP JUMPDEST JUMPDEST MUL OR SWAP1 SSTORE POP PUSH2 0x22A JUMP JUMPDEST PUSH1 0x2 PUSH1 0x3 DUP2 GT ISZERO PUSH2 0x1D2 JUMPI PUSH2 0x1D1 PUSH2 0x2C0 JUMP JUMPDEST JUMPDEST PUSH0 PUSH1 0x1 ADD PUSH1 0x14 SWAP1 SLOAD SWAP1 PUSH2 0x100 EXP SWAP1 DIV PUSH1 0xFF AND PUSH1 0x3 DUP2 GT ISZERO PUSH2 0x1F6 JUMPI PUSH2 0x1F5 PUSH2 0x2C0 JUMP JUMPDEST JUMPDEST SUB PUSH2 0x229 JUMPI PUSH1 0x3 PUSH0 PUSH1 0x1 ADD PUSH1 0x14 PUSH2 0x100 EXP DUP2 SLOAD DUP2 PUSH1 0xFF MUL NOT AND SWAP1 DUP4 PUSH1 0x3 DUP2 GT ISZERO PUSH2 0x223 JUMPI PUSH2 0x222 PUSH2 0x2C0 JUMP JUMPDEST JUMPDEST MUL OR SWAP1 SSTORE POP JUMPDEST JUMPDEST JUMPDEST JUMP JUMPDEST PUSH1 0xA PUSH0 PUSH1 0x1 ADD PUSH1 0x15 SWAP1 SLOAD SWAP1 PUSH2 0x100 EXP SWAP1 DIV PUSH1 0xFF AND PUSH2 0x24B SWAP2 SWAP1 PUSH2 0x3E6 JUMP JUMPDEST PUSH0 PUSH1 0x1 ADD PUSH1 0x15 PUSH2 0x100 EXP DUP2 SLOAD DUP2 PUSH1 0xFF MUL NOT AND SWAP1 DUP4 PUSH1 0xFF AND MUL OR SWAP1 SSTORE POP JUMP JUMPDEST PUSH0 DUP2 SWAP1 POP SWAP2 SWAP1 POP JUMP JUMPDEST PUSH2 0x27B DUP2 PUSH2 0x269 JUMP JUMPDEST DUP3 MSTORE POP POP JUMP JUMPDEST PUSH0 PUSH20 0xFFFFFFFFFFFFFFFFFFFFFFFFFFFFFFFFFFFFFFFF DUP3 AND SWAP1 POP SWAP2 SWAP1 POP JUMP JUMPDEST PUSH0 PUSH2 0x2AA DUP3 PUSH2 0x281 JUMP JUMPDEST SWAP1 POP SWAP2 SWAP1 POP JUMP JUMPDEST PUSH2 0x2BA DUP2 PUSH2 0x2A0 JUMP JUMPDEST DUP3 MSTORE POP POP JUMP JUMPDEST PUSH32 0x4E487B7100000000000000000000000000000000000000000000000000000000 PUSH0 MSTORE PUSH1 0x21 PUSH1 0x4 MSTORE PUSH1 0x24 PUSH0 REVERT JUMPDEST PUSH1 0x4 DUP2 LT PUSH2 0x2FE JUMPI PUSH2 0x2FD PUSH2 0x2C0 JUMP JUMPDEST JUMPDEST POP JUMP JUMPDEST PUSH0 DUP2 SWAP1 POP PUSH2 0x30E DUP3 PUSH2 0x2ED JUMP JUMPDEST SWAP2 SWAP1 POP JUMP JUMPDEST PUSH0 PUSH2 0x31D DUP3 PUSH2 0x301 JUMP JUMPDEST SWAP1 POP SWAP2 SWAP1 POP JUMP JUMPDEST PUSH2 0x32D DUP2 PUSH2 0x313 JUMP JUMPDEST DUP3 MSTORE POP POP JUMP JUMPDEST PUSH0 PUSH1 0xFF DUP3 AND SWAP1 POP SWAP2 SWAP1 POP JUMP JUMPDEST PUSH2 0x348 DUP2 PUSH2 0x333 JUMP JUMPDEST DUP3 MSTORE POP POP JUMP JUMPDEST PUSH0 DUP2 ISZERO ISZERO SWAP1 POP SWAP2 SWAP1 POP JUMP JUMPDEST PUSH2 0x362 DUP2 PUSH2 0x34E JUMP JUMPDEST DUP3 MSTORE POP POP JUMP JUMPDEST PUSH0 PUSH1 0xA0 DUP3 ADD SWAP1 POP PUSH2 0x37B PUSH0 DUP4 ADD DUP9 PUSH2 0x272 JUMP JUMPDEST PUSH2 0x388 PUSH1 0x20 DUP4 ADD DUP8 PUSH2 0x2B1 JUMP JUMPDEST PUSH2 0x395 PUSH1 0x40 DUP4 ADD DUP7 PUSH2 0x324 JUMP JUMPDEST PUSH2 0x3A2 PUSH1 0x60 DUP4 ADD DUP6 PUSH2 0x33F JUMP JUMPDEST PUSH2 0x3AF PUSH1 0x80 DUP4 ADD DUP5 PUSH2 0x359 JUMP JUMPDEST SWAP7 SWAP6 POP POP POP POP POP POP JUMP JUMPDEST PUSH32 0x4E487B7100000000000000000000000000000000000000000000000000000000 PUSH0 MSTORE PUSH1 0x11 PUSH1 0x4 MSTORE PUSH1 0x24 PUSH0 REVERT JUMPDEST PUSH0 PUSH2 0x3F0 DUP3 PUSH2 0x333 JUMP JUMPDEST SWAP2 POP PUSH2 0x3FB DUP4 PUSH2 0x333 JUMP JUMPDEST SWAP3 POP DUP3 DUP3 ADD SWAP1 POP PUSH1 0xFF DUP2 GT ISZERO PUSH2 0x414 JUMPI PUSH2 0x413 PUSH2 0x3B9 JUMP JUMPDEST JUMPDEST SWAP3 SWAP2 POP POP JUMP INVALID LOG2 PUSH5 0x6970667358 0x22 SLT KECCAK256 EQ 0xB9 CALLCODE DUPN 0x19 DUP16 TIMESTAMP 0xB6 0xF DUP1 LT 0xDD 0xBA JUMPDEST 0xD0 PUSH24 0xCA862B40F4FB4E90F1C4710BC60B01C464736F6C63430008 0x1E STOP CALLER "
				},
				"gasEstimates": {
					"creation": {
						"codeDepositCost": "220800",
						"executionCost": "119835",
						"totalCost": "340635"
					},
					"external": {
						"grow()": "31284",
						"myPlant()": "11706",
						"water()": "infinite"
					}
				},
				"methodIdentifiers": {
					"grow()": "5298948e",
					"myPlant()": "3a8fdff0",
					"water()": "ffce2210"
				}
			},
			"storageLayout": {
				"storage": [
					{
						"astId": 21,
						"contract": "contracts/LearnStruct.sol:LearnStruct",
						"label": "myPlant",
						"offset": 0,
						"slot": "0",
						"type": "t_struct(Plant)18_storage"
					}
				],
				"types": {
					"t_address": {
						"encoding": "inplace",
						"label": "address",
						"numberOfBytes": "20"
					},
					"t_bool": {
						"encoding": "inplace",
						"label": "bool",
						"numberOfBytes": "1"
					},
					"t_enum(GrowthStage)6": {
						"encoding": "inplace",
						"label": "enum LearnStruct.GrowthStage",
						"numberOfBytes": "1"
					},
					"t_struct(Plant)18_storage": {
						"encoding": "inplace",
						"label": "struct LearnStruct.Plant",
						"members": [
							{
								"astId": 8,
								"contract": "contracts/LearnStruct.sol:LearnStruct",
								"label": "id",
								"offset": 0,
								"slot": "0",
								"type": "t_uint256"
							},
							{
								"astId": 10,
								"contract": "contracts/LearnStruct.sol:LearnStruct",
								"label": "owner",
								"offset": 0,
								"slot": "1",
								"type": "t_address"
							},
							{
								"astId": 13,
								"contract": "contracts/LearnStruct.sol:LearnStruct",
								"label": "stage",
								"offset": 20,
								"slot": "1",
								"type": "t_enum(GrowthStage)6"
							},
							{
								"astId": 15,
								"contract": "contracts/LearnStruct.sol:LearnStruct",
								"label": "waterLevel",
								"offset": 21,
								"slot": "1",
								"type": "t_uint8"
							},
							{
								"astId": 17,
								"contract": "contracts/LearnStruct.sol:LearnStruct",
								"label": "isAlive",
								"offset": 22,
								"slot": "1",
								"type": "t_bool"
							}
						],
						"numberOfBytes": "64"
					},
					"t_uint256": {
						"encoding": "inplace",
						"label": "uint256",
						"numberOfBytes": "32"
					},
					"t_uint8": {
						"encoding": "inplace",
						"label": "uint8",
						"numberOfBytes": "1"
					}
				}
			},
			"userdoc": {
				"kind": "user",
				"methods": {},
				"version": 1
			}
		}
	}
}