{
	"data": {
		"bytecode": {
			"linkReferences": {},
			"object": "6080604052348015600e575f5ffd5b503360035f6101000a81548173ffffffffffffffffffffffffffffffffffffffff021916908373ffffffffffffffffffffffffffffffffffffffff160217905550611ebb8061005c5f395ff3fe608060405260043610610101575f3560e01c80638da5cb5b11610094578063bacb5ebd11610063578063bacb5ebd14610331578063cfc9a5f81461035b578063ddd4259614610385578063e38f8448146103ad578063ed0b1f5f146103d557610108565b80638da5cb5b146102725780638dd2361c1461029c5780639886bcfa146102df5780639c4717491461030757610108565b8063754e150d116100d0578063754e150d146101a65780637ed4c5be146101e2578063891c07851461020c5780638aee578b1461023657610108565b806330cec0eb1461010c5780633ccfd60b1461014857806351f9efde1461015e57806374119a381461018857610108565b3661010857005b5f5ffd5b348015610117575f5ffd5b50610132600480360381019061012d9190611501565b610411565b60405161013f91906115ec565b60405180910390f35b348015610153575f5ffd5b5061015c6104a4565b005b348015610169575f5ffd5b506101726105ff565b60405161017f919061161b565b60405180910390f35b610190610604565b60405161019d919061161b565b60405180910390f35b3480156101b1575f5ffd5b506101cc60048036038101906101c7919061165e565b61088f565b6040516101d991906116a4565b60405180910390f35b3480156101ed575f5ffd5b506101f6610a56565b604051610203919061161b565b60405180910390f35b348015610217575f5ffd5b50610220610a5b565b60405161022d919061161b565b60405180910390f35b348015610241575f5ffd5b5061025c600480360381019061025791906116bd565b610a66565b604051610269919061161b565b60405180910390f35b34801561027d575f5ffd5b50610286610a91565b604051610293919061171b565b60405180910390f35b3480156102a7575f5ffd5b506102c260048036038101906102bd919061165e565b610ab6565b6040516102d69897969594939291906117d0565b60405180910390f35b3480156102ea575f5ffd5b506103056004803603810190610300919061165e565b610b4b565b005b348015610312575f5ffd5b5061031b610d0d565b604051610328919061161b565b60405180910390f35b34801561033c575f5ffd5b50610345610d13565b60405161035291906116a4565b60405180910390f35b348015610366575f5ffd5b5061036f610d18565b60405161037c919061161b565b60405180910390f35b348015610390575f5ffd5b506103ab60048036038101906103a6919061165e565b610d23565b005b3480156103b8575f5ffd5b506103d360048036038101906103ce919061165e565b610ece565b005b3480156103e0575f5ffd5b506103fb60048036038101906103f6919061165e565b611205565b6040516104089190611928565b60405180910390f35b606060015f8373ffffffffffffffffffffffffffffffffffffffff1673ffffffffffffffffffffffffffffffffffffffff1681526020019081526020015f2080548060200260200160405190810160405280929190818152602001828054801561049857602002820191905f5260205f20905b815481526020019060010190808311610484575b50505050509050919050565b60035f9054906101000a900473ffffffffffffffffffffffffffffffffffffffff1673ffffffffffffffffffffffffffffffffffffffff163373ffffffffffffffffffffffffffffffffffffffff1614610533576040517f08c379a000000000000000000000000000000000000000000000000000000000815260040161052a9061199c565b60405180910390fd5b5f60035f9054906101000a900473ffffffffffffffffffffffffffffffffffffffff1673ffffffffffffffffffffffffffffffffffffffff1647604051610579906119e7565b5f6040518083038185875af1925050503d805f81146105b3576040519150601f19603f3d011682016040523d82523d5f602084013e6105b8565b606091505b50509050806105fc576040517f08c379a00000000000000000000000000000000000000000000000000000000081526004016105f390611a45565b60405180910390fd5b50565b603c81565b5f66038d7ea4c6800034101561064f576040517f08c379a000000000000000000000000000000000000000000000000000000000815260040161064690611aad565b60405180910390fd5b600160025f8282546106619190611af8565b925050819055505f60025490505f6040518061010001604052808381526020013373ffffffffffffffffffffffffffffffffffffffff1681526020015f60038111156106b0576106af611743565b5b8152602001428152602001428152602001606460ff1681526020016001151581526020015f15158152509050805f5f8481526020019081526020015f205f820151815f01556020820151816001015f6101000a81548173ffffffffffffffffffffffffffffffffffffffff021916908373ffffffffffffffffffffffffffffffffffffffff16021790555060408201518160010160146101000a81548160ff0219169083600381111561076657610765611743565b5b0217905550606082015181600201556080820151816003015560a0820151816004015f6101000a81548160ff021916908360ff16021790555060c08201518160040160016101000a81548160ff02191690831515021790555060e08201518160040160026101000a81548160ff02191690831515021790555090505060015f3373ffffffffffffffffffffffffffffffffffffffff1673ffffffffffffffffffffffffffffffffffffffff1681526020019081526020015f2082908060018154018082558091505060019003905f5260205f20015f9091909190915055813373ffffffffffffffffffffffffffffffffffffffff167f4f5b22082ac57121703b0b6c1203ef527cfbfa5069616fee6deb979d124adbf060405160405180910390a3819250505090565b5f5f5f5f8481526020019081526020015f20604051806101000160405290815f8201548152602001600182015f9054906101000a900473ffffffffffffffffffffffffffffffffffffffff1673ffffffffffffffffffffffffffffffffffffffff1673ffffffffffffffffffffffffffffffffffffffff1681526020016001820160149054906101000a900460ff1660038111156109305761092f611743565b5b600381111561094257610941611743565b5b81526020016002820154815260200160038201548152602001600482015f9054906101000a900460ff1660ff1660ff1681526020016004820160019054906101000a900460ff161515151581526020016004820160029054906101000a900460ff16151515158152505090508060c0015115806109c057508060e001515b156109ce575f915050610a51565b5f8160a0015160ff169050428260800151106109ee578092505050610a51565b5f8260800151426109ff9190611b2b565b90505f601e82610a0f9190611b8b565b90505f600260ff1682610a229190611bbb565b9050838110610a38575f95505050505050610a51565b5f8185610a459190611b2b565b90508096505050505050505b919050565b601e81565b660aa87bee53800081565b6001602052815f5260405f208181548110610a7f575f80fd5b905f5260205f20015f91509150505481565b60035f9054906101000a900473ffffffffffffffffffffffffffffffffffffffff1681565b5f602052805f5260405f205f91509050805f015490806001015f9054906101000a900473ffffffffffffffffffffffffffffffffffffffff16908060010160149054906101000a900460ff1690806002015490806003015490806004015f9054906101000a900460ff16908060040160019054906101000a900460ff16908060040160029054906101000a900460ff16905088565b5f5f5f8381526020019081526020015f2090508060040160019054906101000a900460ff16610baf576040517f08c379a0000000000000000000000000000000000000000000000000000000008152600401610ba690611c46565b60405180910390fd5b3373ffffffffffffffffffffffffffffffffffffffff16816001015f9054906101000a900473ffffffffffffffffffffffffffffffffffffffff1673ffffffffffffffffffffffffffffffffffffffff1614610c40576040517f08c379a0000000000000000000000000000000000000000000000000000000008152600401610c3790611cae565b60405180910390fd5b8060040160029054906101000a900460ff1615610c92576040517f08c379a0000000000000000000000000000000000000000000000000000000008152600401610c8990611d16565b60405180910390fd5b6064816004015f6101000a81548160ff021916908360ff160217905550428160030181905550817fd4b742b9ba48fffa1f14267075a7793851770764117c423fd0a6550dfc8cb574826004015f9054906101000a900460ff16604051610cf891906116a4565b60405180910390a2610d0982610d23565b5050565b60025481565b600281565b66038d7ea4c6800081565b5f5f5f8381526020019081526020015f2090508060040160019054906101000a900460ff16610d87576040517f08c379a0000000000000000000000000000000000000000000000000000000008152600401610d7e90611c46565b60405180910390fd5b610d908261134e565b8060040160029054906101000a900460ff1615610dad5750610ecb565b5f816002015442610dbe9190611b2b565b90505f8260010160149054906101000a900460ff1690505f819050603c6003610de79190611bbb565b8310610df65760039050610e36565b603c6002610e049190611bbb565b8310610e135760029050610e35565b603c6001610e219190611bbb565b8310610e305760019050610e34565b5f90505b5b5b816003811115610e4957610e48611743565b5b816003811115610e5c57610e5b611743565b5b14610ec657808460010160146101000a81548160ff02191690836003811115610e8857610e87611743565b5b0217905550847f338b8976706f9da67298dddfa1ea4ff7d99cce68b9ca39c4f348994f8e2124a882604051610ebd9190611d34565b60405180910390a25b505050505b50565b5f5f5f8381526020019081526020015f2090508060040160019054906101000a900460ff16610f32576040517f08c379a0000000000000000000000000000000000000000000000000000000008152600401610f2990611c46565b60405180910390fd5b3373ffffffffffffffffffffffffffffffffffffffff16816001015f9054906101000a900473ffffffffffffffffffffffffffffffffffffffff1673ffffffffffffffffffffffffffffffffffffffff1614610fc3576040517f08c379a0000000000000000000000000000000000000000000000000000000008152600401610fba90611cae565b60405180910390fd5b8060040160029054906101000a900460ff1615611015576040517f08c379a000000000000000000000000000000000000000000000000000000000815260040161100c90611d16565b60405180910390fd5b61101e82610d23565b60038081111561103157611030611743565b5b8160010160149054906101000a900460ff16600381111561105557611054611743565b5b14611095576040517f08c379a000000000000000000000000000000000000000000000000000000000815260040161108c90611d97565b60405180910390fd5b5f8160040160016101000a81548160ff0219169083151502179055503373ffffffffffffffffffffffffffffffffffffffff16827f79f2138ea100070ff95b59c265da7aa3c7a0f61595fe1bb2f5fda2762f398847660aa87bee5380006040516110ff919061161b565b60405180910390a3660aa87bee538000471015611151576040517f08c379a000000000000000000000000000000000000000000000000000000000815260040161114890611dff565b60405180910390fd5b5f3373ffffffffffffffffffffffffffffffffffffffff16660aa87bee53800060405161117d906119e7565b5f6040518083038185875af1925050503d805f81146111b7576040519150601f19603f3d011682016040523d82523d5f602084013e6111bc565b606091505b5050905080611200576040517f08c379a00000000000000000000000000000000000000000000000000000000081526004016111f790611e67565b60405180910390fd5b505050565b61120d611437565b5f5f5f8481526020019081526020015f20604051806101000160405290815f8201548152602001600182015f9054906101000a900473ffffffffffffffffffffffffffffffffffffffff1673ffffffffffffffffffffffffffffffffffffffff1673ffffffffffffffffffffffffffffffffffffffff1681526020016001820160149054906101000a900460ff1660038111156112ad576112ac611743565b5b60038111156112bf576112be611743565b5b81526020016002820154815260200160038201548152602001600482015f9054906101000a900460ff1660ff1660ff1681526020016004820160019054906101000a900460ff161515151581526020016004820160029054906101000a900460ff16151515158152505090506113348361088f565b8160a0019060ff16908160ff168152505080915050919050565b5f5f5f8381526020019081526020015f2090508060040160019054906101000a900460ff16158061138d57508060040160029054906101000a900460ff165b156113985750611434565b5f6113a28361088f565b905080826004015f6101000a81548160ff021916908360ff1602179055505f8160ff161480156113e157508160040160029054906101000a900460ff16155b156114315760018260040160026101000a81548160ff021916908315150217905550827fcc296a21951f3e57f21afb08547d835a0a9f0f06cc2867009cbe0cae44d36be960405160405180910390a25b50505b50565b6040518061010001604052805f81526020015f73ffffffffffffffffffffffffffffffffffffffff1681526020015f600381111561147857611477611743565b5b81526020015f81526020015f81526020015f60ff1681526020015f151581526020015f151581525090565b5f5ffd5b5f73ffffffffffffffffffffffffffffffffffffffff82169050919050565b5f6114d0826114a7565b9050919050565b6114e0816114c6565b81146114ea575f5ffd5b50565b5f813590506114fb816114d7565b92915050565b5f60208284031215611516576115156114a3565b5b5f611523848285016114ed565b91505092915050565b5f81519050919050565b5f82825260208201905092915050565b5f819050602082019050919050565b5f819050919050565b61156781611555565b82525050565b5f611578838361155e565b60208301905092915050565b5f602082019050919050565b5f61159a8261152c565b6115a48185611536565b93506115af83611546565b805f5b838110156115df5781516115c6888261156d565b97506115d183611584565b9250506001810190506115b2565b5085935050505092915050565b5f6020820190508181035f8301526116048184611590565b905092915050565b61161581611555565b82525050565b5f60208201905061162e5f83018461160c565b92915050565b61163d81611555565b8114611647575f5ffd5b50565b5f8135905061165881611634565b92915050565b5f60208284031215611673576116726114a3565b5b5f6116808482850161164a565b91505092915050565b5f60ff82169050919050565b61169e81611689565b82525050565b5f6020820190506116b75f830184611695565b92915050565b5f5f604083850312156116d3576116d26114a3565b5b5f6116e0858286016114ed565b92505060206116f18582860161164a565b9150509250929050565b5f611705826114a7565b9050919050565b611715816116fb565b82525050565b5f60208201905061172e5f83018461170c565b92915050565b61173d816114c6565b82525050565b7f4e487b71000000000000000000000000000000000000000000000000000000005f52602160045260245ffd5b6004811061178157611780611743565b5b50565b5f81905061179182611770565b919050565b5f6117a082611784565b9050919050565b6117b081611796565b82525050565b5f8115159050919050565b6117ca816117b6565b82525050565b5f610100820190506117e45f83018b61160c565b6117f1602083018a611734565b6117fe60408301896117a7565b61180b606083018861160c565b611818608083018761160c565b61182560a0830186611695565b61183260c08301856117c1565b61183f60e08301846117c1565b9998505050505050505050565b611855816114c6565b82525050565b61186481611796565b82525050565b61187381611689565b82525050565b611882816117b6565b82525050565b61010082015f82015161189d5f85018261155e565b5060208201516118b0602085018261184c565b5060408201516118c3604085018261185b565b5060608201516118d6606085018261155e565b5060808201516118e9608085018261155e565b5060a08201516118fc60a085018261186a565b5060c082015161190f60c0850182611879565b5060e082015161192260e0850182611879565b50505050565b5f6101008201905061193c5f830184611888565b92915050565b5f82825260208201905092915050565b7f42756b616e206f776e65720000000000000000000000000000000000000000005f82015250565b5f611986600b83611942565b915061199182611952565b602082019050919050565b5f6020820190508181035f8301526119b38161197a565b9050919050565b5f81905092915050565b50565b5f6119d25f836119ba565b91506119dd826119c4565b5f82019050919050565b5f6119f1826119c7565b9150819050919050565b7f5472616e7366657220676167616c0000000000000000000000000000000000005f82015250565b5f611a2f600e83611942565b9150611a3a826119fb565b602082019050919050565b5f6020820190508181035f830152611a5c81611a23565b9050919050565b7f4261796172206d696e696d616c20504c414e545f5052494345000000000000005f82015250565b5f611a97601983611942565b9150611aa282611a63565b602082019050919050565b5f6020820190508181035f830152611ac481611a8b565b9050919050565b7f4e487b71000000000000000000000000000000000000000000000000000000005f52601160045260245ffd5b5f611b0282611555565b9150611b0d83611555565b9250828201905080821115611b2557611b24611acb565b5b92915050565b5f611b3582611555565b9150611b4083611555565b9250828203905081811115611b5857611b57611acb565b5b92915050565b7f4e487b71000000000000000000000000000000000000000000000000000000005f52601260045260245ffd5b5f611b9582611555565b9150611ba083611555565b925082611bb057611baf611b5e565b5b828204905092915050565b5f611bc582611555565b9150611bd083611555565b9250828202611bde81611555565b91508282048414831517611bf557611bf4611acb565b5b5092915050565b7f506c616e7420746964616b2061646100000000000000000000000000000000005f82015250565b5f611c30600f83611942565b9150611c3b82611bfc565b602082019050919050565b5f6020820190508181035f830152611c5d81611c24565b9050919050565b7f42756b616e2070656d696c696b20706c616e74000000000000000000000000005f82015250565b5f611c98601383611942565b9150611ca382611c64565b602082019050919050565b5f6020820190508181035f830152611cc581611c8c565b9050919050565b7f506c616e74207375646168206d617469000000000000000000000000000000005f82015250565b5f611d00601083611942565b9150611d0b82611ccc565b602082019050919050565b5f6020820190508181035f830152611d2d81611cf4565b9050919050565b5f602082019050611d475f8301846117a7565b92915050565b7f506c616e742062656c756d20626c6f6f6d696e670000000000000000000000005f82015250565b5f611d81601483611942565b9150611d8c82611d4d565b602082019050919050565b5f6020820190508181035f830152611dae81611d75565b9050919050565b7f4b6f6e7472616b20746964616b2070756e79612063756b75702073616c646f005f82015250565b5f611de9601f83611942565b9150611df482611db5565b602082019050919050565b5f6020820190508181035f830152611e1681611ddd565b9050919050565b7f5472616e736665722072657761726420676167616c00000000000000000000005f82015250565b5f611e51601583611942565b9150611e5c82611e1d565b602082019050919050565b5f6020820190508181035f830152611e7e81611e45565b905091905056fea264697066735822122008a7e8375a061a5e403f99e4b8cf98ad6c8b7a4b904de288d9e8b934d3236c4b64736f6c634300081e0033",
			"opcodes": "PUSH1 0x80 PUSH1 0x40 MSTORE CALLVALUE DUP1 ISZERO PUSH1 0xE JUMPI PUSH0 PUSH0 REVERT JUMPDEST POP CALLER PUSH1 0x3 PUSH0 PUSH2 0x100 EXP DUP2 SLOAD DUP2 PUSH20 0xFFFFFFFFFFFFFFFFFFFFFFFFFFFFFFFFFFFFFFFF MUL NOT AND SWAP1 DUP4 PUSH20 0xFFFFFFFFFFFFFFFFFFFFFFFFFFFFFFFFFFFFFFFF AND MUL OR SWAP1 SSTORE POP PUSH2 0x1EBB DUP1 PUSH2 0x5C PUSH0 CODECOPY PUSH0 RETURN INVALID PUSH1 0x80 PUSH1 0x40 MSTORE PUSH1 0x4 CALLDATASIZE LT PUSH2 0x101 JUMPI PUSH0 CALLDATALOAD PUSH1 0xE0 SHR DUP1 PUSH4 0x8DA5CB5B GT PUSH2 0x94 JUMPI DUP1 PUSH4 0xBACB5EBD GT PUSH2 0x63 JUMPI DUP1 PUSH4 0xBACB5EBD EQ PUSH2 0x331 JUMPI DUP1 PUSH4 0xCFC9A5F8 EQ PUSH2 0x35B JUMPI DUP1 PUSH4 0xDDD42596 EQ PUSH2 0x385 JUMPI DUP1 PUSH4 0xE38F8448 EQ PUSH2 0x3AD JUMPI DUP1 PUSH4 0xED0B1F5F EQ PUSH2 0x3D5 JUMPI PUSH2 0x108 JUMP JUMPDEST DUP1 PUSH4 0x8DA5CB5B EQ PUSH2 0x272 JUMPI DUP1 PUSH4 0x8DD2361C EQ PUSH2 0x29C JUMPI DUP1 PUSH4 0x9886BCFA EQ PUSH2 0x2DF JUMPI DUP1 PUSH4 0x9C471749 EQ PUSH2 0x307 JUMPI PUSH2 0x108 JUMP JUMPDEST DUP1 PUSH4 0x754E150D GT PUSH2 0xD0 JUMPI DUP1 PUSH4 0x754E150D EQ PUSH2 0x1A6 JUMPI DUP1 PUSH4 0x7ED4C5BE EQ PUSH2 0x1E2 JUMPI DUP1 PUSH4 0x891C0785 EQ PUSH2 0x20C JUMPI DUP1 PUSH4 0x8AEE578B EQ PUSH2 0x236 JUMPI PUSH2 0x108 JUMP JUMPDEST DUP1 PUSH4 0x30CEC0EB EQ PUSH2 0x10C JUMPI DUP1 PUSH4 0x3CCFD60B EQ PUSH2 0x148 JUMPI DUP1 PUSH4 0x51F9EFDE EQ PUSH2 0x15E JUMPI DUP1 PUSH4 0x74119A38 EQ PUSH2 0x188 JUMPI PUSH2 0x108 JUMP JUMPDEST CALLDATASIZE PUSH2 0x108 JUMPI STOP JUMPDEST PUSH0 PUSH0 REVERT JUMPDEST CALLVALUE DUP1 ISZERO PUSH2 0x117 JUMPI PUSH0 PUSH0 REVERT JUMPDEST POP PUSH2 0x132 PUSH1 0x4 DUP1 CALLDATASIZE SUB DUP2 ADD SWAP1 PUSH2 0x12D SWAP2 SWAP1 PUSH2 0x1501 JUMP JUMPDEST PUSH2 0x411 JUMP JUMPDEST PUSH1 0x40 MLOAD PUSH2 0x13F SWAP2 SWAP1 PUSH2 0x15EC JUMP JUMPDEST PUSH1 0x40 MLOAD DUP1 SWAP2 SUB SWAP1 RETURN JUMPDEST CALLVALUE DUP1 ISZERO PUSH2 0x153 JUMPI PUSH0 PUSH0 REVERT JUMPDEST POP PUSH2 0x15C PUSH2 0x4A4 JUMP JUMPDEST STOP JUMPDEST CALLVALUE DUP1 ISZERO PUSH2 0x169 JUMPI PUSH0 PUSH0 REVERT JUMPDEST POP PUSH2 0x172 PUSH2 0x5FF JUMP JUMPDEST PUSH1 0x40 MLOAD PUSH2 0x17F SWAP2 SWAP1 PUSH2 0x161B JUMP JUMPDEST PUSH1 0x40 MLOAD DUP1 SWAP2 SUB SWAP1 RETURN JUMPDEST PUSH2 0x190 PUSH2 0x604 JUMP JUMPDEST PUSH1 0x40 MLOAD PUSH2 0x19D SWAP2 SWAP1 PUSH2 0x161B JUMP JUMPDEST PUSH1 0x40 MLOAD DUP1 SWAP2 SUB SWAP1 RETURN JUMPDEST CALLVALUE DUP1 ISZERO PUSH2 0x1B1 JUMPI PUSH0 PUSH0 REVERT JUMPDEST POP PUSH2 0x1CC PUSH1 0x4 DUP1 CALLDATASIZE SUB DUP2 ADD SWAP1 PUSH2 0x1C7 SWAP2 SWAP1 PUSH2 0x165E JUMP JUMPDEST PUSH2 0x88F JUMP JUMPDEST PUSH1 0x40 MLOAD PUSH2 0x1D9 SWAP2 SWAP1 PUSH2 0x16A4 JUMP JUMPDEST PUSH1 0x40 MLOAD DUP1 SWAP2 SUB SWAP1 RETURN JUMPDEST CALLVALUE DUP1 ISZERO PUSH2 0x1ED JUMPI PUSH0 PUSH0 REVERT JUMPDEST POP PUSH2 0x1F6 PUSH2 0xA56 JUMP JUMPDEST PUSH1 0x40 MLOAD PUSH2 0x203 SWAP2 SWAP1 PUSH2 0x161B JUMP JUMPDEST PUSH1 0x40 MLOAD DUP1 SWAP2 SUB SWAP1 RETURN JUMPDEST CALLVALUE DUP1 ISZERO PUSH2 0x217 JUMPI PUSH0 PUSH0 REVERT JUMPDEST POP PUSH2 0x220 PUSH2 0xA5B JUMP JUMPDEST PUSH1 0x40 MLOAD PUSH2 0x22D SWAP2 SWAP1 PUSH2 0x161B JUMP JUMPDEST PUSH1 0x40 MLOAD DUP1 SWAP2 SUB SWAP1 RETURN JUMPDEST CALLVALUE DUP1 ISZERO PUSH2 0x241 JUMPI PUSH0 PUSH0 REVERT JUMPDEST POP PUSH2 0x25C PUSH1 0x4 DUP1 CALLDATASIZE SUB DUP2 ADD SWAP1 PUSH2 0x257 SWAP2 SWAP1 PUSH2 0x16BD JUMP JUMPDEST PUSH2 0xA66 JUMP JUMPDEST PUSH1 0x40 MLOAD PUSH2 0x269 SWAP2 SWAP1 PUSH2 0x161B JUMP JUMPDEST PUSH1 0x40 MLOAD DUP1 SWAP2 SUB SWAP1 RETURN JUMPDEST CALLVALUE DUP1 ISZERO PUSH2 0x27D JUMPI PUSH0 PUSH0 REVERT JUMPDEST POP PUSH2 0x286 PUSH2 0xA91 JUMP JUMPDEST PUSH1 0x40 MLOAD PUSH2 0x293 SWAP2 SWAP1 PUSH2 0x171B JUMP JUMPDEST PUSH1 0x40 MLOAD DUP1 SWAP2 SUB SWAP1 RETURN JUMPDEST CALLVALUE DUP1 ISZERO PUSH2 0x2A7 JUMPI PUSH0 PUSH0 REVERT JUMPDEST POP PUSH2 0x2C2 PUSH1 0x4 DUP1 CALLDATASIZE SUB DUP2 ADD SWAP1 PUSH2 0x2BD SWAP2 SWAP1 PUSH2 0x165E JUMP JUMPDEST PUSH2 0xAB6 JUMP JUMPDEST PUSH1 0x40 MLOAD PUSH2 0x2D6 SWAP9 SWAP8 SWAP7 SWAP6 SWAP5 SWAP4 SWAP3 SWAP2 SWAP1 PUSH2 0x17D0 JUMP JUMPDEST PUSH1 0x40 MLOAD DUP1 SWAP2 SUB SWAP1 RETURN JUMPDEST CALLVALUE DUP1 ISZERO PUSH2 0x2EA JUMPI PUSH0 PUSH0 REVERT JUMPDEST POP PUSH2 0x305 PUSH1 0x4 DUP1 CALLDATASIZE SUB DUP2 ADD SWAP1 PUSH2 0x300 SWAP2 SWAP1 PUSH2 0x165E JUMP JUMPDEST PUSH2 0xB4B JUMP JUMPDEST STOP JUMPDEST CALLVALUE DUP1 ISZERO PUSH2 0x312 JUMPI PUSH0 PUSH0 REVERT JUMPDEST POP PUSH2 0x31B PUSH2 0xD0D JUMP JUMPDEST PUSH1 0x40 MLOAD PUSH2 0x328 SWAP2 SWAP1 PUSH2 0x161B JUMP JUMPDEST PUSH1 0x40 MLOAD DUP1 SWAP2 SUB SWAP1 RETURN JUMPDEST CALLVALUE DUP1 ISZERO PUSH2 0x33C JUMPI PUSH0 PUSH0 REVERT JUMPDEST POP PUSH2 0x345 PUSH2 0xD13 JUMP JUMPDEST PUSH1 0x40 MLOAD PUSH2 0x352 SWAP2 SWAP1 PUSH2 0x16A4 JUMP JUMPDEST PUSH1 0x40 MLOAD DUP1 SWAP2 SUB SWAP1 RETURN JUMPDEST CALLVALUE DUP1 ISZERO PUSH2 0x366 JUMPI PUSH0 PUSH0 REVERT JUMPDEST POP PUSH2 0x36F PUSH2 0xD18 JUMP JUMPDEST PUSH1 0x40 MLOAD PUSH2 0x37C SWAP2 SWAP1 PUSH2 0x161B JUMP JUMPDEST PUSH1 0x40 MLOAD DUP1 SWAP2 SUB SWAP1 RETURN JUMPDEST CALLVALUE DUP1 ISZERO PUSH2 0x390 JUMPI PUSH0 PUSH0 REVERT JUMPDEST POP PUSH2 0x3AB PUSH1 0x4 DUP1 CALLDATASIZE SUB DUP2 ADD SWAP1 PUSH2 0x3A6 SWAP2 SWAP1 PUSH2 0x165E JUMP JUMPDEST PUSH2 0xD23 JUMP JUMPDEST STOP JUMPDEST CALLVALUE DUP1 ISZERO PUSH2 0x3B8 JUMPI PUSH0 PUSH0 REVERT JUMPDEST POP PUSH2 0x3D3 PUSH1 0x4 DUP1 CALLDATASIZE SUB DUP2 ADD SWAP1 PUSH2 0x3CE SWAP2 SWAP1 PUSH2 0x165E JUMP JUMPDEST PUSH2 0xECE JUMP JUMPDEST STOP JUMPDEST CALLVALUE DUP1 ISZERO PUSH2 0x3E0 JUMPI PUSH0 PUSH0 REVERT JUMPDEST POP PUSH2 0x3FB PUSH1 0x4 DUP1 CALLDATASIZE SUB DUP2 ADD SWAP1 PUSH2 0x3F6 SWAP2 SWAP1 PUSH2 0x165E JUMP JUMPDEST PUSH2 0x1205 JUMP JUMPDEST PUSH1 0x40 MLOAD PUSH2 0x408 SWAP2 SWAP1 PUSH2 0x1928 JUMP JUMPDEST PUSH1 0x40 MLOAD DUP1 SWAP2 SUB SWAP1 RETURN JUMPDEST PUSH1 0x60 PUSH1 0x1 PUSH0 DUP4 PUSH20 0xFFFFFFFFFFFFFFFFFFFFFFFFFFFFFFFFFFFFFFFF AND PUSH20 0xFFFFFFFFFFFFFFFFFFFFFFFFFFFFFFFFFFFFFFFF AND DUP2 MSTORE PUSH1 0x20 ADD SWAP1 DUP2 MSTORE PUSH1 0x20 ADD PUSH0 KECCAK256 DUP1 SLOAD DUP1 PUSH1 0x20 MUL PUSH1 0x20 ADD PUSH1 0x40 MLOAD SWAP1 DUP2 ADD PUSH1 0x40 MSTORE DUP1 SWAP3 SWAP2 SWAP1 DUP2 DUP2 MSTORE PUSH1 0x20 ADD DUP3 DUP1 SLOAD DUP1 ISZERO PUSH2 0x498 JUMPI PUSH1 0x20 MUL DUP3 ADD SWAP2 SWAP1 PUSH0 MSTORE PUSH1 0x20 PUSH0 KECCAK256 SWAP1 JUMPDEST DUP2 SLOAD DUP2 MSTORE PUSH1 0x20 ADD SWAP1 PUSH1 0x1 ADD SWAP1 DUP1 DUP4 GT PUSH2 0x484 JUMPI JUMPDEST POP POP POP POP POP SWAP1 POP SWAP2 SWAP1 POP JUMP JUMPDEST PUSH1 0x3 PUSH0 SWAP1 SLOAD SWAP1 PUSH2 0x100 EXP SWAP1 DIV PUSH20 0xFFFFFFFFFFFFFFFFFFFFFFFFFFFFFFFFFFFFFFFF AND PUSH20 0xFFFFFFFFFFFFFFFFFFFFFFFFFFFFFFFFFFFFFFFF AND CALLER PUSH20 0xFFFFFFFFFFFFFFFFFFFFFFFFFFFFFFFFFFFFFFFF AND EQ PUSH2 0x533 JUMPI PUSH1 0x40 MLOAD PUSH32 0x8C379A000000000000000000000000000000000000000000000000000000000 DUP2 MSTORE PUSH1 0x4 ADD PUSH2 0x52A SWAP1 PUSH2 0x199C JUMP JUMPDEST PUSH1 0x40 MLOAD DUP1 SWAP2 SUB SWAP1 REVERT JUMPDEST PUSH0 PUSH1 0x3 PUSH0 SWAP1 SLOAD SWAP1 PUSH2 0x100 EXP SWAP1 DIV PUSH20 0xFFFFFFFFFFFFFFFFFFFFFFFFFFFFFFFFFFFFFFFF AND PUSH20 0xFFFFFFFFFFFFFFFFFFFFFFFFFFFFFFFFFFFFFFFF AND SELFBALANCE PUSH1 0x40 MLOAD PUSH2 0x579 SWAP1 PUSH2 0x19E7 JUMP JUMPDEST PUSH0 PUSH1 0x40 MLOAD DUP1 DUP4 SUB DUP2 DUP6 DUP8 GAS CALL SWAP3 POP POP POP RETURNDATASIZE DUP1 PUSH0 DUP2 EQ PUSH2 0x5B3 JUMPI PUSH1 0x40 MLOAD SWAP2 POP PUSH1 0x1F NOT PUSH1 0x3F RETURNDATASIZE ADD AND DUP3 ADD PUSH1 0x40 MSTORE RETURNDATASIZE DUP3 MSTORE RETURNDATASIZE PUSH0 PUSH1 0x20 DUP5 ADD RETURNDATACOPY PUSH2 0x5B8 JUMP JUMPDEST PUSH1 0x60 SWAP2 POP JUMPDEST POP POP SWAP1 POP DUP1 PUSH2 0x5FC JUMPI PUSH1 0x40 MLOAD PUSH32 0x8C379A000000000000000000000000000000000000000000000000000000000 DUP2 MSTORE PUSH1 0x4 ADD PUSH2 0x5F3 SWAP1 PUSH2 0x1A45 JUMP JUMPDEST PUSH1 0x40 MLOAD DUP1 SWAP2 SUB SWAP1 REVERT JUMPDEST POP JUMP JUMPDEST PUSH1 0x3C DUP2 JUMP JUMPDEST PUSH0 PUSH7 0x38D7EA4C68000 CALLVALUE LT ISZERO PUSH2 0x64F JUMPI PUSH1 0x40 MLOAD PUSH32 0x8C379A000000000000000000000000000000000000000000000000000000000 DUP2 MSTORE PUSH1 0x4 ADD PUSH2 0x646 SWAP1 PUSH2 0x1AAD JUMP JUMPDEST PUSH1 0x40 MLOAD DUP1 SWAP2 SUB SWAP1 REVERT JUMPDEST PUSH1 0x1 PUSH1 0x2 PUSH0 DUP3 DUP3 SLOAD PUSH2 0x661 SWAP2 SWAP1 PUSH2 0x1AF8 JUMP JUMPDEST SWAP3 POP POP DUP2 SWAP1 SSTORE POP PUSH0 PUSH1 0x2 SLOAD SWAP1 POP PUSH0 PUSH1 0x40 MLOAD DUP1 PUSH2 0x100 ADD PUSH1 0x40 MSTORE DUP1 DUP4 DUP2 MSTORE PUSH1 0x20 ADD CALLER PUSH20 0xFFFFFFFFFFFFFFFFFFFFFFFFFFFFFFFFFFFFFFFF AND DUP2 MSTORE PUSH1 0x20 ADD PUSH0 PUSH1 0x3 DUP2 GT ISZERO PUSH2 0x6B0 JUMPI PUSH2 0x6AF PUSH2 0x1743 JUMP JUMPDEST JUMPDEST DUP2 MSTORE PUSH1 0x20 ADD TIMESTAMP DUP2 MSTORE PUSH1 0x20 ADD TIMESTAMP DUP2 MSTORE PUSH1 0x20 ADD PUSH1 0x64 PUSH1 0xFF AND DUP2 MSTORE PUSH1 0x20 ADD PUSH1 0x1 ISZERO ISZERO DUP2 MSTORE PUSH1 0x20 ADD PUSH0 ISZERO ISZERO DUP2 MSTORE POP SWAP1 POP DUP1 PUSH0 PUSH0 DUP5 DUP2 MSTORE PUSH1 0x20 ADD SWAP1 DUP2 MSTORE PUSH1 0x20 ADD PUSH0 KECCAK256 PUSH0 DUP3 ADD MLOAD DUP2 PUSH0 ADD SSTORE PUSH1 0x20 DUP3 ADD MLOAD DUP2 PUSH1 0x1 ADD PUSH0 PUSH2 0x100 EXP DUP2 SLOAD DUP2 PUSH20 0xFFFFFFFFFFFFFFFFFFFFFFFFFFFFFFFFFFFFFFFF MUL NOT AND SWAP1 DUP4 PUSH20 0xFFFFFFFFFFFFFFFFFFFFFFFFFFFFFFFFFFFFFFFF AND MUL OR SWAP1 SSTORE POP PUSH1 0x40 DUP3 ADD MLOAD DUP2 PUSH1 0x1 ADD PUSH1 0x14 PUSH2 0x100 EXP DUP2 SLOAD DUP2 PUSH1 0xFF MUL NOT AND SWAP1 DUP4 PUSH1 0x3 DUP2 GT ISZERO PUSH2 0x766 JUMPI PUSH2 0x765 PUSH2 0x1743 JUMP JUMPDEST JUMPDEST MUL OR SWAP1 SSTORE POP PUSH1 0x60 DUP3 ADD MLOAD DUP2 PUSH1 0x2 ADD SSTORE PUSH1 0x80 DUP3 ADD MLOAD DUP2 PUSH1 0x3 ADD SSTORE PUSH1 0xA0 DUP3 ADD MLOAD DUP2 PUSH1 0x4 ADD PUSH0 PUSH2 0x100 EXP DUP2 SLOAD DUP2 PUSH1 0xFF MUL NOT AND SWAP1 DUP4 PUSH1 0xFF AND MUL OR SWAP1 SSTORE POP PUSH1 0xC0 DUP3 ADD MLOAD DUP2 PUSH1 0x4 ADD PUSH1 0x1 PUSH2 0x100 EXP DUP2 SLOAD DUP2 PUSH1 0xFF MUL NOT AND SWAP1 DUP4 ISZERO ISZERO MUL OR SWAP1 SSTORE POP PUSH1 0xE0 DUP3 ADD MLOAD DUP2 PUSH1 0x4 ADD PUSH1 0x2 PUSH2 0x100 EXP DUP2 SLOAD DUP2 PUSH1 0xFF MUL NOT AND SWAP1 DUP4 ISZERO ISZERO MUL OR SWAP1 SSTORE POP SWAP1 POP POP PUSH1 0x1 PUSH0 CALLER PUSH20 0xFFFFFFFFFFFFFFFFFFFFFFFFFFFFFFFFFFFFFFFF AND PUSH20 0xFFFFFFFFFFFFFFFFFFFFFFFFFFFFFFFFFFFFFFFF AND DUP2 MSTORE PUSH1 0x20 ADD SWAP1 DUP2 MSTORE PUSH1 0x20 ADD PUSH0 KECCAK256 DUP3 SWAP1 DUP1 PUSH1 0x1 DUP2 SLOAD ADD DUP1 DUP3 SSTORE DUP1 SWAP2 POP POP PUSH1 0x1 SWAP1 SUB SWAP1 PUSH0 MSTORE PUSH1 0x20 PUSH0 KECCAK256 ADD PUSH0 SWAP1 SWAP2 SWAP1 SWAP2 SWAP1 SWAP2 POP SSTORE DUP2 CALLER PUSH20 0xFFFFFFFFFFFFFFFFFFFFFFFFFFFFFFFFFFFFFFFF AND PUSH32 0x4F5B22082AC57121703B0B6C1203EF527CFBFA5069616FEE6DEB979D124ADBF0 PUSH1 0x40 MLOAD PUSH1 0x40 MLOAD DUP1 SWAP2 SUB SWAP1 LOG3 DUP2 SWAP3 POP POP POP SWAP1 JUMP JUMPDEST PUSH0 PUSH0 PUSH0 PUSH0 DUP5 DUP2 MSTORE PUSH1 0x20 ADD SWAP1 DUP2 MSTORE PUSH1 0x20 ADD PUSH0 KECCAK256 PUSH1 0x40 MLOAD DUP1 PUSH2 0x100 ADD PUSH1 0x40 MSTORE SWAP1 DUP2 PUSH0 DUP3 ADD SLOAD DUP2 MSTORE PUSH1 0x20 ADD PUSH1 0x1 DUP3 ADD PUSH0 SWAP1 SLOAD SWAP1 PUSH2 0x100 EXP SWAP1 DIV PUSH20 0xFFFFFFFFFFFFFFFFFFFFFFFFFFFFFFFFFFFFFFFF AND PUSH20 0xFFFFFFFFFFFFFFFFFFFFFFFFFFFFFFFFFFFFFFFF AND PUSH20 0xFFFFFFFFFFFFFFFFFFFFFFFFFFFFFFFFFFFFFFFF AND DUP2 MSTORE PUSH1 0x20 ADD PUSH1 0x1 DUP3 ADD PUSH1 0x14 SWAP1 SLOAD SWAP1 PUSH2 0x100 EXP SWAP1 DIV PUSH1 0xFF AND PUSH1 0x3 DUP2 GT ISZERO PUSH2 0x930 JUMPI PUSH2 0x92F PUSH2 0x1743 JUMP JUMPDEST JUMPDEST PUSH1 0x3 DUP2 GT ISZERO PUSH2 0x942 JUMPI PUSH2 0x941 PUSH2 0x1743 JUMP JUMPDEST JUMPDEST DUP2 MSTORE PUSH1 0x20 ADD PUSH1 0x2 DUP3 ADD SLOAD DUP2 MSTORE PUSH1 0x20 ADD PUSH1 0x3 DUP3 ADD SLOAD DUP2 MSTORE PUSH1 0x20 ADD PUSH1 0x4 DUP3 ADD PUSH0 SWAP1 SLOAD SWAP1 PUSH2 0x100 EXP SWAP1 DIV PUSH1 0xFF AND PUSH1 0xFF AND PUSH1 0xFF AND DUP2 MSTORE PUSH1 0x20 ADD PUSH1 0x4 DUP3 ADD PUSH1 0x1 SWAP1 SLOAD SWAP1 PUSH2 0x100 EXP SWAP1 DIV PUSH1 0xFF AND ISZERO ISZERO ISZERO ISZERO DUP2 MSTORE PUSH1 0x20 ADD PUSH1 0x4 DUP3 ADD PUSH1 0x2 SWAP1 SLOAD SWAP1 PUSH2 0x100 EXP SWAP1 DIV PUSH1 0xFF AND ISZERO ISZERO ISZERO ISZERO DUP2 MSTORE POP POP SWAP1 POP DUP1 PUSH1 0xC0 ADD MLOAD ISZERO DUP1 PUSH2 0x9C0 JUMPI POP DUP1 PUSH1 0xE0 ADD MLOAD JUMPDEST ISZERO PUSH2 0x9CE JUMPI PUSH0 SWAP2 POP POP PUSH2 0xA51 JUMP JUMPDEST PUSH0 DUP2 PUSH1 0xA0 ADD MLOAD PUSH1 0xFF AND SWAP1 POP TIMESTAMP DUP3 PUSH1 0x80 ADD MLOAD LT PUSH2 0x9EE JUMPI DUP1 SWAP3 POP POP POP PUSH2 0xA51 JUMP JUMPDEST PUSH0 DUP3 PUSH1 0x80 ADD MLOAD TIMESTAMP PUSH2 0x9FF SWAP2 SWAP1 PUSH2 0x1B2B JUMP JUMPDEST SWAP1 POP PUSH0 PUSH1 0x1E DUP3 PUSH2 0xA0F SWAP2 SWAP1 PUSH2 0x1B8B JUMP JUMPDEST SWAP1 POP PUSH0 PUSH1 0x2 PUSH1 0xFF AND DUP3 PUSH2 0xA22 SWAP2 SWAP1 PUSH2 0x1BBB JUMP JUMPDEST SWAP1 POP DUP4 DUP2 LT PUSH2 0xA38 JUMPI PUSH0 SWAP6 POP POP POP POP POP POP PUSH2 0xA51 JUMP JUMPDEST PUSH0 DUP2 DUP6 PUSH2 0xA45 SWAP2 SWAP1 PUSH2 0x1B2B JUMP JUMPDEST SWAP1 POP DUP1 SWAP7 POP POP POP POP POP POP POP JUMPDEST SWAP2 SWAP1 POP JUMP JUMPDEST PUSH1 0x1E DUP2 JUMP JUMPDEST PUSH7 0xAA87BEE538000 DUP2 JUMP JUMPDEST PUSH1 0x1 PUSH1 0x20 MSTORE DUP2 PUSH0 MSTORE PUSH1 0x40 PUSH0 KECCAK256 DUP2 DUP2 SLOAD DUP2 LT PUSH2 0xA7F JUMPI PUSH0 DUP1 REVERT JUMPDEST SWAP1 PUSH0 MSTORE PUSH1 0x20 PUSH0 KECCAK256 ADD PUSH0 SWAP2 POP SWAP2 POP POP SLOAD DUP2 JUMP JUMPDEST PUSH1 0x3 PUSH0 SWAP1 SLOAD SWAP1 PUSH2 0x100 EXP SWAP1 DIV PUSH20 0xFFFFFFFFFFFFFFFFFFFFFFFFFFFFFFFFFFFFFFFF AND DUP2 JUMP JUMPDEST PUSH0 PUSH1 0x20 MSTORE DUP1 PUSH0 MSTORE PUSH1 0x40 PUSH0 KECCAK256 PUSH0 SWAP2 POP SWAP1 POP DUP1 PUSH0 ADD SLOAD SWAP1 DUP1 PUSH1 0x1 ADD PUSH0 SWAP1 SLOAD SWAP1 PUSH2 0x100 EXP SWAP1 DIV PUSH20 0xFFFFFFFFFFFFFFFFFFFFFFFFFFFFFFFFFFFFFFFF AND SWAP1 DUP1 PUSH1 0x1 ADD PUSH1 0x14 SWAP1 SLOAD SWAP1 PUSH2 0x100 EXP SWAP1 DIV PUSH1 0xFF AND SWAP1 DUP1 PUSH1 0x2 ADD SLOAD SWAP1 DUP1 PUSH1 0x3 ADD SLOAD SWAP1 DUP1 PUSH1 0x4 ADD PUSH0 SWAP1 SLOAD SWAP1 PUSH2 0x100 EXP SWAP1 DIV PUSH1 0xFF AND SWAP1 DUP1 PUSH1 0x4 ADD PUSH1 0x1 SWAP1 SLOAD SWAP1 PUSH2 0x100 EXP SWAP1 DIV PUSH1 0xFF AND SWAP1 DUP1 PUSH1 0x4 ADD PUSH1 0x2 SWAP1 SLOAD SWAP1 PUSH2 0x100 EXP SWAP1 DIV PUSH1 0xFF AND SWAP1 POP DUP9 JUMP JUMPDEST PUSH0 PUSH0 PUSH0 DUP4 DUP2 MSTORE PUSH1 0x20 ADD SWAP1 DUP2 MSTORE PUSH1 0x20 ADD PUSH0 KECCAK256 SWAP1 POP DUP1 PUSH1 0x4 ADD PUSH1 0x1 SWAP1 SLOAD SWAP1 PUSH2 0x100 EXP SWAP1 DIV PUSH1 0xFF AND PUSH2 0xBAF JUMPI PUSH1 0x40 MLOAD PUSH32 0x8C379A000000000000000000000000000000000000000000000000000000000 DUP2 MSTORE PUSH1 0x4 ADD PUSH2 0xBA6 SWAP1 PUSH2 0x1C46 JUMP JUMPDEST PUSH1 0x40 MLOAD DUP1 SWAP2 SUB SWAP1 REVERT JUMPDEST CALLER PUSH20 0xFFFFFFFFFFFFFFFFFFFFFFFFFFFFFFFFFFFFFFFF AND DUP2 PUSH1 0x1 ADD PUSH0 SWAP1 SLOAD SWAP1 PUSH2 0x100 EXP SWAP1 DIV PUSH20 0xFFFFFFFFFFFFFFFFFFFFFFFFFFFFFFFFFFFFFFFF AND PUSH20 0xFFFFFFFFFFFFFFFFFFFFFFFFFFFFFFFFFFFFFFFF AND EQ PUSH2 0xC40 JUMPI PUSH1 0x40 MLOAD PUSH32 0x8C379A000000000000000000000000000000000000000000000000000000000 DUP2 MSTORE PUSH1 0x4 ADD PUSH2 0xC37 SWAP1 PUSH2 0x1CAE JUMP JUMPDEST PUSH1 0x40 MLOAD DUP1 SWAP2 SUB SWAP1 REVERT JUMPDEST DUP1 PUSH1 0x4 ADD PUSH1 0x2 SWAP1 SLOAD SWAP1 PUSH2 0x100 EXP SWAP1 DIV PUSH1 0xFF AND ISZERO PUSH2 0xC92 JUMPI PUSH1 0x40 MLOAD PUSH32 0x8C379A000000000000000000000000000000000000000000000000000000000 DUP2 MSTORE PUSH1 0x4 ADD PUSH2 0xC89 SWAP1 PUSH2 0x1D16 JUMP JUMPDEST PUSH1 0x40 MLOAD DUP1 SWAP2 SUB SWAP1 REVERT JUMPDEST PUSH1 0x64 DUP2 PUSH1 0x4 ADD PUSH0 PUSH2 0x100 EXP DUP2 SLOAD DUP2 PUSH1 0xFF MUL NOT AND SWAP1 DUP4 PUSH1 0xFF AND MUL OR SWAP1 SSTORE POP TIMESTAMP DUP2 PUSH1 0x3 ADD DUP2 SWAP1 SSTORE POP DUP2 PUSH32 0xD4B742B9BA48FFFA1F14267075A7793851770764117C423FD0A6550DFC8CB574 DUP3 PUSH1 0x4 ADD PUSH0 SWAP1 SLOAD SWAP1 PUSH2 0x100 EXP SWAP1 DIV PUSH1 0xFF AND PUSH1 0x40 MLOAD PUSH2 0xCF8 SWAP2 SWAP1 PUSH2 0x16A4 JUMP JUMPDEST PUSH1 0x40 MLOAD DUP1 SWAP2 SUB SWAP1 LOG2 PUSH2 0xD09 DUP3 PUSH2 0xD23 JUMP JUMPDEST POP POP JUMP JUMPDEST PUSH1 0x2 SLOAD DUP2 JUMP JUMPDEST PUSH1 0x2 DUP2 JUMP JUMPDEST PUSH7 0x38D7EA4C68000 DUP2 JUMP JUMPDEST PUSH0 PUSH0 PUSH0 DUP4 DUP2 MSTORE PUSH1 0x20 ADD SWAP1 DUP2 MSTORE PUSH1 0x20 ADD PUSH0 KECCAK256 SWAP1 POP DUP1 PUSH1 0x4 ADD PUSH1 0x1 SWAP1 SLOAD SWAP1 PUSH2 0x100 EXP SWAP1 DIV PUSH1 0xFF AND PUSH2 0xD87 JUMPI PUSH1 0x40 MLOAD PUSH32 0x8C379A000000000000000000000000000000000000000000000000000000000 DUP2 MSTORE PUSH1 0x4 ADD PUSH2 0xD7E SWAP1 PUSH2 0x1C46 JUMP JUMPDEST PUSH1 0x40 MLOAD DUP1 SWAP2 SUB SWAP1 REVERT JUMPDEST PUSH2 0xD90 DUP3 PUSH2 0x134E JUMP JUMPDEST DUP1 PUSH1 0x4 ADD PUSH1 0x2 SWAP1 SLOAD SWAP1 PUSH2 0x100 EXP SWAP1 DIV PUSH1 0xFF AND ISZERO PUSH2 0xDAD JUMPI POP PUSH2 0xECB JUMP JUMPDEST PUSH0 DUP2 PUSH1 0x2 ADD SLOAD TIMESTAMP PUSH2 0xDBE SWAP2 SWAP1 PUSH2 0x1B2B JUMP JUMPDEST SWAP1 POP PUSH0 DUP3 PUSH1 0x1 ADD PUSH1 0x14 SWAP1 SLOAD SWAP1 PUSH2 0x100 EXP SWAP1 DIV PUSH1 0xFF AND SWAP1 POP PUSH0 DUP2 SWAP1 POP PUSH1 0x3C PUSH1 0x3 PUSH2 0xDE7 SWAP2 SWAP1 PUSH2 0x1BBB JUMP JUMPDEST DUP4 LT PUSH2 0xDF6 JUMPI PUSH1 0x3 SWAP1 POP PUSH2 0xE36 JUMP JUMPDEST PUSH1 0x3C PUSH1 0x2 PUSH2 0xE04 SWAP2 SWAP1 PUSH2 0x1BBB JUMP JUMPDEST DUP4 LT PUSH2 0xE13 JUMPI PUSH1 0x2 SWAP1 POP PUSH2 0xE35 JUMP JUMPDEST PUSH1 0x3C PUSH1 0x1 PUSH2 0xE21 SWAP2 SWAP1 PUSH2 0x1BBB JUMP JUMPDEST DUP4 LT PUSH2 0xE30 JUMPI PUSH1 0x1 SWAP1 POP PUSH2 0xE34 JUMP JUMPDEST PUSH0 SWAP1 POP JUMPDEST JUMPDEST JUMPDEST DUP2 PUSH1 0x3 DUP2 GT ISZERO PUSH2 0xE49 JUMPI PUSH2 0xE48 PUSH2 0x1743 JUMP JUMPDEST JUMPDEST DUP2 PUSH1 0x3 DUP2 GT ISZERO PUSH2 0xE5C JUMPI PUSH2 0xE5B PUSH2 0x1743 JUMP JUMPDEST JUMPDEST EQ PUSH2 0xEC6 JUMPI DUP1 DUP5 PUSH1 0x1 ADD PUSH1 0x14 PUSH2 0x100 EXP DUP2 SLOAD DUP2 PUSH1 0xFF MUL NOT AND SWAP1 DUP4 PUSH1 0x3 DUP2 GT ISZERO PUSH2 0xE88 JUMPI PUSH2 0xE87 PUSH2 0x1743 JUMP JUMPDEST JUMPDEST MUL OR SWAP1 SSTORE POP DUP5 PUSH32 0x338B8976706F9DA67298DDDFA1EA4FF7D99CCE68B9CA39C4F348994F8E2124A8 DUP3 PUSH1 0x40 MLOAD PUSH2 0xEBD SWAP2 SWAP1 PUSH2 0x1D34 JUMP JUMPDEST PUSH1 0x40 MLOAD DUP1 SWAP2 SUB SWAP1 LOG2 JUMPDEST POP POP POP POP JUMPDEST POP JUMP JUMPDEST PUSH0 PUSH0 PUSH0 DUP4 DUP2 MSTORE PUSH1 0x20 ADD SWAP1 DUP2 MSTORE PUSH1 0x20 ADD PUSH0 KECCAK256 SWAP1 POP DUP1 PUSH1 0x4 ADD PUSH1 0x1 SWAP1 SLOAD SWAP1 PUSH2 0x100 EXP SWAP1 DIV PUSH1 0xFF AND PUSH2 0xF32 JUMPI PUSH1 0x40 MLOAD PUSH32 0x8C379A000000000000000000000000000000000000000000000000000000000 DUP2 MSTORE PUSH1 0x4 ADD PUSH2 0xF29 SWAP1 PUSH2 0x1C46 JUMP JUMPDEST PUSH1 0x40 MLOAD DUP1 SWAP2 SUB SWAP1 REVERT JUMPDEST CALLER PUSH20 0xFFFFFFFFFFFFFFFFFFFFFFFFFFFFFFFFFFFFFFFF AND DUP2 PUSH1 0x1 ADD PUSH0 SWAP1 SLOAD SWAP1 PUSH2 0x100 EXP SWAP1 DIV PUSH20 0xFFFFFFFFFFFFFFFFFFFFFFFFFFFFFFFFFFFFFFFF AND PUSH20 0xFFFFFFFFFFFFFFFFFFFFFFFFFFFFFFFFFFFFFFFF AND EQ PUSH2 0xFC3 JUMPI PUSH1 0x40 MLOAD PUSH32 0x8C379A000000000000000000000000000000000000000000000000000000000 DUP2 MSTORE PUSH1 0x4 ADD PUSH2 0xFBA SWAP1 PUSH2 0x1CAE JUMP JUMPDEST PUSH1 0x40 MLOAD DUP1 SWAP2 SUB SWAP1 REVERT JUMPDEST DUP1 PUSH1 0x4 ADD PUSH1 0x2 SWAP1 SLOAD SWAP1 PUSH2 0x100 EXP SWAP1 DIV PUSH1 0xFF AND ISZERO PUSH2 0x1015 JUMPI PUSH1 0x40 MLOAD PUSH32 0x8C379A000000000000000000000000000000000000000000000000000000000 DUP2 MSTORE PUSH1 0x4 ADD PUSH2 0x100C SWAP1 PUSH2 0x1D16 JUMP JUMPDEST PUSH1 0x40 MLOAD DUP1 SWAP2 SUB SWAP1 REVERT JUMPDEST PUSH2 0x101E DUP3 PUSH2 0xD23 JUMP JUMPDEST PUSH1 0x3 DUP1 DUP2 GT ISZERO PUSH2 0x1031 JUMPI PUSH2 0x1030 PUSH2 0x1743 JUMP JUMPDEST JUMPDEST DUP2 PUSH1 0x1 ADD PUSH1 0x14 SWAP1 SLOAD SWAP1 PUSH2 0x100 EXP SWAP1 DIV PUSH1 0xFF AND PUSH1 0x3 DUP2 GT ISZERO PUSH2 0x1055 JUMPI PUSH2 0x1054 PUSH2 0x1743 JUMP JUMPDEST JUMPDEST EQ PUSH2 0x1095 JUMPI PUSH1 0x40 MLOAD PUSH32 0x8C379A000000000000000000000000000000000000000000000000000000000 DUP2 MSTORE PUSH1 0x4 ADD PUSH2 0x108C SWAP1 PUSH2 0x1D97 JUMP JUMPDEST PUSH1 0x40 MLOAD DUP1 SWAP2 SUB SWAP1 REVERT JUMPDEST PUSH0 DUP2 PUSH1 0x4 ADD PUSH1 0x1 PUSH2 0x100 EXP DUP2 SLOAD DUP2 PUSH1 0xFF MUL NOT AND SWAP1 DUP4 ISZERO ISZERO MUL OR SWAP1 SSTORE POP CALLER PUSH20 0xFFFFFFFFFFFFFFFFFFFFFFFFFFFFFFFFFFFFFFFF AND DUP3 PUSH32 0x79F2138EA100070FF95B59C265DA7AA3C7A0F61595FE1BB2F5FDA2762F398847 PUSH7 0xAA87BEE538000 PUSH1 0x40 MLOAD PUSH2 0x10FF SWAP2 SWAP1 PUSH2 0x161B JUMP JUMPDEST PUSH1 0x40 MLOAD DUP1 SWAP2 SUB SWAP1 LOG3 PUSH7 0xAA87BEE538000 SELFBALANCE LT ISZERO PUSH2 0x1151 JUMPI PUSH1 0x40 MLOAD PUSH32 0x8C379A000000000000000000000000000000000000000000000000000000000 DUP2 MSTORE PUSH1 0x4 ADD PUSH2 0x1148 SWAP1 PUSH2 0x1DFF JUMP JUMPDEST PUSH1 0x40 MLOAD DUP1 SWAP2 SUB SWAP1 REVERT JUMPDEST PUSH0 CALLER PUSH20 0xFFFFFFFFFFFFFFFFFFFFFFFFFFFFFFFFFFFFFFFF AND PUSH7 0xAA87BEE538000 PUSH1 0x40 MLOAD PUSH2 0x117D SWAP1 PUSH2 0x19E7 JUMP JUMPDEST PUSH0 PUSH1 0x40 MLOAD DUP1 DUP4 SUB DUP2 DUP6 DUP8 GAS CALL SWAP3 POP POP POP RETURNDATASIZE DUP1 PUSH0 DUP2 EQ PUSH2 0x11B7 JUMPI PUSH1 0x40 MLOAD SWAP2 POP PUSH1 0x1F NOT PUSH1 0x3F RETURNDATASIZE ADD AND DUP3 ADD PUSH1 0x40 MSTORE RETURNDATASIZE DUP3 MSTORE RETURNDATASIZE PUSH0 PUSH1 0x20 DUP5 ADD RETURNDATACOPY PUSH2 0x11BC JUMP JUMPDEST PUSH1 0x60 SWAP2 POP JUMPDEST POP POP SWAP1 POP DUP1 PUSH2 0x1200 JUMPI PUSH1 0x40 MLOAD PUSH32 0x8C379A000000000000000000000000000000000000000000000000000000000 DUP2 MSTORE PUSH1 0x4 ADD PUSH2 0x11F7 SWAP1 PUSH2 0x1E67 JUMP JUMPDEST PUSH1 0x40 MLOAD DUP1 SWAP2 SUB SWAP1 REVERT JUMPDEST POP POP POP JUMP JUMPDEST PUSH2 0x120D PUSH2 0x1437 JUMP JUMPDEST PUSH0 PUSH0 PUSH0 DUP5 DUP2 MSTORE PUSH1 0x20 ADD SWAP1 DUP2 MSTORE PUSH1 0x20 ADD PUSH0 KECCAK256 PUSH1 0x40 MLOAD DUP1 PUSH2 0x100 ADD PUSH1 0x40 MSTORE SWAP1 DUP2 PUSH0 DUP3 ADD SLOAD DUP2 MSTORE PUSH1 0x20 ADD PUSH1 0x1 DUP3 ADD PUSH0 SWAP1 SLOAD SWAP1 PUSH2 0x100 EXP SWAP1 DIV PUSH20 0xFFFFFFFFFFFFFFFFFFFFFFFFFFFFFFFFFFFFFFFF AND PUSH20 0xFFFFFFFFFFFFFFFFFFFFFFFFFFFFFFFFFFFFFFFF AND PUSH20 0xFFFFFFFFFFFFFFFFFFFFFFFFFFFFFFFFFFFFFFFF AND DUP2 MSTORE PUSH1 0x20 ADD PUSH1 0x1 DUP3 ADD PUSH1 0x14 SWAP1 SLOAD SWAP1 PUSH2 0x100 EXP SWAP1 DIV PUSH1 0xFF AND PUSH1 0x3 DUP2 GT ISZERO PUSH2 0x12AD JUMPI PUSH2 0x12AC PUSH2 0x1743 JUMP JUMPDEST JUMPDEST PUSH1 0x3 DUP2 GT ISZERO PUSH2 0x12BF JUMPI PUSH2 0x12BE PUSH2 0x1743 JUMP JUMPDEST JUMPDEST DUP2 MSTORE PUSH1 0x20 ADD PUSH1 0x2 DUP3 ADD SLOAD DUP2 MSTORE PUSH1 0x20 ADD PUSH1 0x3 DUP3 ADD SLOAD DUP2 MSTORE PUSH1 0x20 ADD PUSH1 0x4 DUP3 ADD PUSH0 SWAP1 SLOAD SWAP1 PUSH2 0x100 EXP SWAP1 DIV PUSH1 0xFF AND PUSH1 0xFF AND PUSH1 0xFF AND DUP2 MSTORE PUSH1 0x20 ADD PUSH1 0x4 DUP3 ADD PUSH1 0x1 SWAP1 SLOAD SWAP1 PUSH2 0x100 EXP SWAP1 DIV PUSH1 0xFF AND ISZERO ISZERO ISZERO ISZERO DUP2 MSTORE PUSH1 0x20 ADD PUSH1 0x4 DUP3 ADD PUSH1 0x2 SWAP1 SLOAD SWAP1 PUSH2 0x100 EXP SWAP1 DIV PUSH1 0xFF AND ISZERO ISZERO ISZERO ISZERO DUP2 MSTORE POP POP SWAP1 POP PUSH2 0x1334 DUP4 PUSH2 0x88F JUMP JUMPDEST DUP2 PUSH1 0xA0 ADD SWAP1 PUSH1 0xFF AND SWAP1 DUP2 PUSH1 0xFF AND DUP2 MSTORE POP POP DUP1 SWAP2 POP POP SWAP2 SWAP1 POP JUMP JUMPDEST PUSH0 PUSH0 PUSH0 DUP4 DUP2 MSTORE PUSH1 0x20 ADD SWAP1 DUP2 MSTORE PUSH1 0x20 ADD PUSH0 KECCAK256 SWAP1 POP DUP1 PUSH1 0x4 ADD PUSH1 0x1 SWAP1 SLOAD SWAP1 PUSH2 0x100 EXP SWAP1 DIV PUSH1 0xFF AND ISZERO DUP1 PUSH2 0x138D JUMPI POP DUP1 PUSH1 0x4 ADD PUSH1 0x2 SWAP1 SLOAD SWAP1 PUSH2 0x100 EXP SWAP1 DIV PUSH1 0xFF AND JUMPDEST ISZERO PUSH2 0x1398 JUMPI POP PUSH2 0x1434 JUMP JUMPDEST PUSH0 PUSH2 0x13A2 DUP4 PUSH2 0x88F JUMP JUMPDEST SWAP1 POP DUP1 DUP3 PUSH1 0x4 ADD PUSH0 PUSH2 0x100 EXP DUP2 SLOAD DUP2 PUSH1 0xFF MUL NOT AND SWAP1 DUP4 PUSH1 0xFF AND MUL OR SWAP1 SSTORE POP PUSH0 DUP2 PUSH1 0xFF AND EQ DUP1 ISZERO PUSH2 0x13E1 JUMPI POP DUP2 PUSH1 0x4 ADD PUSH1 0x2 SWAP1 SLOAD SWAP1 PUSH2 0x100 EXP SWAP1 DIV PUSH1 0xFF AND ISZERO JUMPDEST ISZERO PUSH2 0x1431 JUMPI PUSH1 0x1 DUP3 PUSH1 0x4 ADD PUSH1 0x2 PUSH2 0x100 EXP DUP2 SLOAD DUP2 PUSH1 0xFF MUL NOT AND SWAP1 DUP4 ISZERO ISZERO MUL OR SWAP1 SSTORE POP DUP3 PUSH32 0xCC296A21951F3E57F21AFB08547D835A0A9F0F06CC2867009CBE0CAE44D36BE9 PUSH1 0x40 MLOAD PUSH1 0x40 MLOAD DUP1 SWAP2 SUB SWAP1 LOG2 JUMPDEST POP POP JUMPDEST POP JUMP JUMPDEST PUSH1 0x40 MLOAD DUP1 PUSH2 0x100 ADD PUSH1 0x40 MSTORE DUP1 PUSH0 DUP2 MSTORE PUSH1 0x20 ADD PUSH0 PUSH20 0xFFFFFFFFFFFFFFFFFFFFFFFFFFFFFFFFFFFFFFFF AND DUP2 MSTORE PUSH1 0x20 ADD PUSH0 PUSH1 0x3 DUP2 GT ISZERO PUSH2 0x1478 JUMPI PUSH2 0x1477 PUSH2 0x1743 JUMP JUMPDEST JUMPDEST DUP2 MSTORE PUSH1 0x20 ADD PUSH0 DUP2 MSTORE PUSH1 0x20 ADD PUSH0 DUP2 MSTORE PUSH1 0x20 ADD PUSH0 PUSH1 0xFF AND DUP2 MSTORE PUSH1 0x20 ADD PUSH0 ISZERO ISZERO DUP2 MSTORE PUSH1 0x20 ADD PUSH0 ISZERO ISZERO DUP2 MSTORE POP SWAP1 JUMP JUMPDEST PUSH0 PUSH0 REVERT JUMPDEST PUSH0 PUSH20 0xFFFFFFFFFFFFFFFFFFFFFFFFFFFFFFFFFFFFFFFF DUP3 AND SWAP1 POP SWAP2 SWAP1 POP JUMP JUMPDEST PUSH0 PUSH2 0x14D0 DUP3 PUSH2 0x14A7 JUMP JUMPDEST SWAP1 POP SWAP2 SWAP1 POP JUMP JUMPDEST PUSH2 0x14E0 DUP2 PUSH2 0x14C6 JUMP JUMPDEST DUP2 EQ PUSH2 0x14EA JUMPI PUSH0 PUSH0 REVERT JUMPDEST POP JUMP JUMPDEST PUSH0 DUP2 CALLDATALOAD SWAP1 POP PUSH2 0x14FB DUP2 PUSH2 0x14D7 JUMP JUMPDEST SWAP3 SWAP2 POP POP JUMP JUMPDEST PUSH0 PUSH1 0x20 DUP3 DUP5 SUB SLT ISZERO PUSH2 0x1516 JUMPI PUSH2 0x1515 PUSH2 0x14A3 JUMP JUMPDEST JUMPDEST PUSH0 PUSH2 0x1523 DUP5 DUP3 DUP6 ADD PUSH2 0x14ED JUMP JUMPDEST SWAP2 POP POP SWAP3 SWAP2 POP POP JUMP JUMPDEST PUSH0 DUP2 MLOAD SWAP1 POP SWAP2 SWAP1 POP JUMP JUMPDEST PUSH0 DUP3 DUP3 MSTORE PUSH1 0x20 DUP3 ADD SWAP1 POP SWAP3 SWAP2 POP POP JUMP JUMPDEST PUSH0 DUP2 SWAP1 POP PUSH1 0x20 DUP3 ADD SWAP1 POP SWAP2 SWAP1 POP JUMP JUMPDEST PUSH0 DUP2 SWAP1 POP SWAP2 SWAP1 POP JUMP JUMPDEST PUSH2 0x1567 DUP2 PUSH2 0x1555 JUMP JUMPDEST DUP3 MSTORE POP POP JUMP JUMPDEST PUSH0 PUSH2 0x1578 DUP4 DUP4 PUSH2 0x155E JUMP JUMPDEST PUSH1 0x20 DUP4 ADD SWAP1 POP SWAP3 SWAP2 POP POP JUMP JUMPDEST PUSH0 PUSH1 0x20 DUP3 ADD SWAP1 POP SWAP2 SWAP1 POP JUMP JUMPDEST PUSH0 PUSH2 0x159A DUP3 PUSH2 0x152C JUMP JUMPDEST PUSH2 0x15A4 DUP2 DUP6 PUSH2 0x1536 JUMP JUMPDEST SWAP4 POP PUSH2 0x15AF DUP4 PUSH2 0x1546 JUMP JUMPDEST DUP1 PUSH0 JUMPDEST DUP4 DUP2 LT ISZERO PUSH2 0x15DF JUMPI DUP2 MLOAD PUSH2 0x15C6 DUP9 DUP3 PUSH2 0x156D JUMP JUMPDEST SWAP8 POP PUSH2 0x15D1 DUP4 PUSH2 0x1584 JUMP JUMPDEST SWAP3 POP POP PUSH1 0x1 DUP2 ADD SWAP1 POP PUSH2 0x15B2 JUMP JUMPDEST POP DUP6 SWAP4 POP POP POP POP SWAP3 SWAP2 POP POP JUMP JUMPDEST PUSH0 PUSH1 0x20 DUP3 ADD SWAP1 POP DUP2 DUP2 SUB PUSH0 DUP4 ADD MSTORE PUSH2 0x1604 DUP2 DUP5 PUSH2 0x1590 JUMP JUMPDEST SWAP1 POP SWAP3 SWAP2 POP POP JUMP JUMPDEST PUSH2 0x1615 DUP2 PUSH2 0x1555 JUMP JUMPDEST DUP3 MSTORE POP POP JUMP JUMPDEST PUSH0 PUSH1 0x20 DUP3 ADD SWAP1 POP PUSH2 0x162E PUSH0 DUP4 ADD DUP5 PUSH2 0x160C JUMP JUMPDEST SWAP3 SWAP2 POP POP JUMP JUMPDEST PUSH2 0x163D DUP2 PUSH2 0x1555 JUMP JUMPDEST DUP2 EQ PUSH2 0x1647 JUMPI PUSH0 PUSH0 REVERT JUMPDEST POP JUMP JUMPDEST PUSH0 DUP2 CALLDATALOAD SWAP1 POP PUSH2 0x1658 DUP2 PUSH2 0x1634 JUMP JUMPDEST SWAP3 SWAP2 POP POP JUMP JUMPDEST PUSH0 PUSH1 0x20 DUP3 DUP5 SUB SLT ISZERO PUSH2 0x1673 JUMPI PUSH2 0x1672 PUSH2 0x14A3 JUMP JUMPDEST JUMPDEST PUSH0 PUSH2 0x1680 DUP5 DUP3 DUP6 ADD PUSH2 0x164A JUMP JUMPDEST SWAP2 POP POP SWAP3 SWAP2 POP POP JUMP JUMPDEST PUSH0 PUSH1 0xFF DUP3 AND SWAP1 POP SWAP2 SWAP1 POP JUMP JUMPDEST PUSH2 0x169E DUP2 PUSH2 0x1689 JUMP JUMPDEST DUP3 MSTORE POP POP JUMP JUMPDEST PUSH0 PUSH1 0x20 DUP3 ADD SWAP1 POP PUSH2 0x16B7 PUSH0 DUP4 ADD DUP5 PUSH2 0x1695 JUMP JUMPDEST SWAP3 SWAP2 POP POP JUMP JUMPDEST PUSH0 PUSH0 PUSH1 0x40 DUP4 DUP6 SUB SLT ISZERO PUSH2 0x16D3 JUMPI PUSH2 0x16D2 PUSH2 0x14A3 JUMP JUMPDEST JUMPDEST PUSH0 PUSH2 0x16E0 DUP6 DUP3 DUP7 ADD PUSH2 0x14ED JUMP JUMPDEST SWAP3 POP POP PUSH1 0x20 PUSH2 0x16F1 DUP6 DUP3 DUP7 ADD PUSH2 0x164A JUMP JUMPDEST SWAP2 POP POP SWAP3 POP SWAP3 SWAP1 POP JUMP JUMPDEST PUSH0 PUSH2 0x1705 DUP3 PUSH2 0x14A7 JUMP JUMPDEST SWAP1 POP SWAP2 SWAP1 POP JUMP JUMPDEST PUSH2 0x1715 DUP2 PUSH2 0x16FB JUMP JUMPDEST DUP3 MSTORE POP POP JUMP JUMPDEST PUSH0 PUSH1 0x20 DUP3 ADD SWAP1 POP PUSH2 0x172E PUSH0 DUP4 ADD DUP5 PUSH2 0x170C JUMP JUMPDEST SWAP3 SWAP2 POP POP JUMP JUMPDEST PUSH2 0x173D DUP2 PUSH2 0x14C6 JUMP JUMPDEST DUP3 MSTORE POP POP JUMP JUMPDEST PUSH32 0x4E487B7100000000000000000000000000000000000000000000000000000000 PUSH0 MSTORE PUSH1 0x21 PUSH1 0x4 MSTORE PUSH1 0x24 PUSH0 REVERT JUMPDEST PUSH1 0x4 DUP2 LT PUSH2 0x1781 JUMPI PUSH2 0x1780 PUSH2 0x1743 JUMP JUMPDEST JUMPDEST POP JUMP JUMPDEST PUSH0 DUP2 SWAP1 POP PUSH2 0x1791 DUP3 PUSH2 0x1770 JUMP JUMPDEST SWAP2 SWAP1 POP JUMP JUMPDEST PUSH0 PUSH2 0x17A0 DUP3 PUSH2 0x1784 JUMP JUMPDEST SWAP1 POP SWAP2 SWAP1 POP JUMP JUMPDEST PUSH2 0x17B0 DUP2 PUSH2 0x1796 JUMP JUMPDEST DUP3 MSTORE POP POP JUMP JUMPDEST PUSH0 DUP2 ISZERO ISZERO SWAP1 POP SWAP2 SWAP1 POP JUMP JUMPDEST PUSH2 0x17CA DUP2 PUSH2 0x17B6 JUMP JUMPDEST DUP3 MSTORE POP POP JUMP JUMPDEST PUSH0 PUSH2 0x100 DUP3 ADD SWAP1 POP PUSH2 0x17E4 PUSH0 DUP4 ADD DUP12 PUSH2 0x160C JUMP JUMPDEST PUSH2 0x17F1 PUSH1 0x20 DUP4 ADD DUP11 PUSH2 0x1734 JUMP JUMPDEST PUSH2 0x17FE PUSH1 0x40 DUP4 ADD DUP10 PUSH2 0x17A7 JUMP JUMPDEST PUSH2 0x180B PUSH1 0x60 DUP4 ADD DUP9 PUSH2 0x160C JUMP JUMPDEST PUSH2 0x1818 PUSH1 0x80 DUP4 ADD DUP8 PUSH2 0x160C JUMP JUMPDEST PUSH2 0x1825 PUSH1 0xA0 DUP4 ADD DUP7 PUSH2 0x1695 JUMP JUMPDEST PUSH2 0x1832 PUSH1 0xC0 DUP4 ADD DUP6 PUSH2 0x17C1 JUMP JUMPDEST PUSH2 0x183F PUSH1 0xE0 DUP4 ADD DUP5 PUSH2 0x17C1 JUMP JUMPDEST SWAP10 SWAP9 POP POP POP POP POP POP POP POP POP JUMP JUMPDEST PUSH2 0x1855 DUP2 PUSH2 0x14C6 JUMP JUMPDEST DUP3 MSTORE POP POP JUMP JUMPDEST PUSH2 0x1864 DUP2 PUSH2 0x1796 JUMP JUMPDEST DUP3 MSTORE POP POP JUMP JUMPDEST PUSH2 0x1873 DUP2 PUSH2 0x1689 JUMP JUMPDEST DUP3 MSTORE POP POP JUMP JUMPDEST PUSH2 0x1882 DUP2 PUSH2 0x17B6 JUMP JUMPDEST DUP3 MSTORE POP POP JUMP JUMPDEST PUSH2 0x100 DUP3 ADD PUSH0 DUP3 ADD MLOAD PUSH2 0x189D PUSH0 DUP6 ADD DUP3 PUSH2 0x155E JUMP JUMPDEST POP PUSH1 0x20 DUP3 ADD MLOAD PUSH2 0x18B0 PUSH1 0x20 DUP6 ADD DUP3 PUSH2 0x184C JUMP JUMPDEST POP PUSH1 0x40 DUP3 ADD MLOAD PUSH2 0x18C3 PUSH1 0x40 DUP6 ADD DUP3 PUSH2 0x185B JUMP JUMPDEST POP PUSH1 0x60 DUP3 ADD MLOAD PUSH2 0x18D6 PUSH1 0x60 DUP6 ADD DUP3 PUSH2 0x155E JUMP JUMPDEST POP PUSH1 0x80 DUP3 ADD MLOAD PUSH2 0x18E9 PUSH1 0x80 DUP6 ADD DUP3 PUSH2 0x155E JUMP JUMPDEST POP PUSH1 0xA0 DUP3 ADD MLOAD PUSH2 0x18FC PUSH1 0xA0 DUP6 ADD DUP3 PUSH2 0x186A JUMP JUMPDEST POP PUSH1 0xC0 DUP3 ADD MLOAD PUSH2 0x190F PUSH1 0xC0 DUP6 ADD DUP3 PUSH2 0x1879 JUMP JUMPDEST POP PUSH1 0xE0 DUP3 ADD MLOAD PUSH2 0x1922 PUSH1 0xE0 DUP6 ADD DUP3 PUSH2 0x1879 JUMP JUMPDEST POP POP POP POP JUMP JUMPDEST PUSH0 PUSH2 0x100 DUP3 ADD SWAP1 POP PUSH2 0x193C PUSH0 DUP4 ADD DUP5 PUSH2 0x1888 JUMP JUMPDEST SWAP3 SWAP2 POP POP JUMP JUMPDEST PUSH0 DUP3 DUP3 MSTORE PUSH1 0x20 DUP3 ADD SWAP1 POP SWAP3 SWAP2 POP POP JUMP JUMPDEST PUSH32 0x42756B616E206F776E6572000000000000000000000000000000000000000000 PUSH0 DUP3 ADD MSTORE POP JUMP JUMPDEST PUSH0 PUSH2 0x1986 PUSH1 0xB DUP4 PUSH2 0x1942 JUMP JUMPDEST SWAP2 POP PUSH2 0x1991 DUP3 PUSH2 0x1952 JUMP JUMPDEST PUSH1 0x20 DUP3 ADD SWAP1 POP SWAP2 SWAP1 POP JUMP JUMPDEST PUSH0 PUSH1 0x20 DUP3 ADD SWAP1 POP DUP2 DUP2 SUB PUSH0 DUP4 ADD MSTORE PUSH2 0x19B3 DUP2 PUSH2 0x197A JUMP JUMPDEST SWAP1 POP SWAP2 SWAP1 POP JUMP JUMPDEST PUSH0 DUP2 SWAP1 POP SWAP3 SWAP2 POP POP JUMP JUMPDEST POP JUMP JUMPDEST PUSH0 PUSH2 0x19D2 PUSH0 DUP4 PUSH2 0x19BA JUMP JUMPDEST SWAP2 POP PUSH2 0x19DD DUP3 PUSH2 0x19C4 JUMP JUMPDEST PUSH0 DUP3 ADD SWAP1 POP SWAP2 SWAP1 POP JUMP JUMPDEST PUSH0 PUSH2 0x19F1 DUP3 PUSH2 0x19C7 JUMP JUMPDEST SWAP2 POP DUP2 SWAP1 POP SWAP2 SWAP1 POP JUMP JUMPDEST PUSH32 0x5472616E7366657220676167616C000000000000000000000000000000000000 PUSH0 DUP3 ADD MSTORE POP JUMP JUMPDEST PUSH0 PUSH2 0x1A2F PUSH1 0xE DUP4 PUSH2 0x1942 JUMP JUMPDEST SWAP2 POP PUSH2 0x1A3A DUP3 PUSH2 0x19FB JUMP JUMPDEST PUSH1 0x20 DUP3 ADD SWAP1 POP SWAP2 SWAP1 POP JUMP JUMPDEST PUSH0 PUSH1 0x20 DUP3 ADD SWAP1 POP DUP2 DUP2 SUB PUSH0 DUP4 ADD MSTORE PUSH2 0x1A5C DUP2 PUSH2 0x1A23 JUMP JUMPDEST SWAP1 POP SWAP2 SWAP1 POP JUMP JUMPDEST PUSH32 0x4261796172206D696E696D616C20504C414E545F505249434500000000000000 PUSH0 DUP3 ADD MSTORE POP JUMP JUMPDEST PUSH0 PUSH2 0x1A97 PUSH1 0x19 DUP4 PUSH2 0x1942 JUMP JUMPDEST SWAP2 POP PUSH2 0x1AA2 DUP3 PUSH2 0x1A63 JUMP JUMPDEST PUSH1 0x20 DUP3 ADD SWAP1 POP SWAP2 SWAP1 POP JUMP JUMPDEST PUSH0 PUSH1 0x20 DUP3 ADD SWAP1 POP DUP2 DUP2 SUB PUSH0 DUP4 ADD MSTORE PUSH2 0x1AC4 DUP2 PUSH2 0x1A8B JUMP JUMPDEST SWAP1 POP SWAP2 SWAP1 POP JUMP JUMPDEST PUSH32 0x4E487B7100000000000000000000000000000000000000000000000000000000 PUSH0 MSTORE PUSH1 0x11 PUSH1 0x4 MSTORE PUSH1 0x24 PUSH0 REVERT JUMPDEST PUSH0 PUSH2 0x1B02 DUP3 PUSH2 0x1555 JUMP JUMPDEST SWAP2 POP PUSH2 0x1B0D DUP4 PUSH2 0x1555 JUMP JUMPDEST SWAP3 POP DUP3 DUP3 ADD SWAP1 POP DUP1 DUP3 GT ISZERO PUSH2 0x1B25 JUMPI PUSH2 0x1B24 PUSH2 0x1ACB JUMP JUMPDEST JUMPDEST SWAP3 SWAP2 POP POP JUMP JUMPDEST PUSH0 PUSH2 0x1B35 DUP3 PUSH2 0x1555 JUMP JUMPDEST SWAP2 POP PUSH2 0x1B40 DUP4 PUSH2 0x1555 JUMP JUMPDEST SWAP3 POP DUP3 DUP3 SUB SWAP1 POP DUP2 DUP2 GT ISZERO PUSH2 0x1B58 JUMPI PUSH2 0x1B57 PUSH2 0x1ACB JUMP JUMPDEST JUMPDEST SWAP3 SWAP2 POP POP JUMP JUMPDEST PUSH32 0x4E487B7100000000000000000000000000000000000000000000000000000000 PUSH0 MSTORE PUSH1 0x12 PUSH1 0x4 MSTORE PUSH1 0x24 PUSH0 REVERT JUMPDEST PUSH0 PUSH2 0x1B95 DUP3 PUSH2 0x1555 JUMP JUMPDEST SWAP2 POP PUSH2 0x1BA0 DUP4 PUSH2 0x1555 JUMP JUMPDEST SWAP3 POP DUP3 PUSH2 0x1BB0 JUMPI PUSH2 0x1BAF PUSH2 0x1B5E JUMP JUMPDEST JUMPDEST DUP3 DUP3 DIV SWAP1 POP SWAP3 SWAP2 POP POP JUMP JUMPDEST PUSH0 PUSH2 0x1BC5 DUP3 PUSH2 0x1555 JUMP JUMPDEST SWAP2 POP PUSH2 0x1BD0 DUP4 PUSH2 0x1555 JUMP JUMPDEST SWAP3 POP DUP3 DUP3 MUL PUSH2 0x1BDE DUP2 PUSH2 0x1555 JUMP JUMPDEST SWAP2 POP DUP3 DUP3 DIV DUP5 EQ DUP4 ISZERO OR PUSH2 0x1BF5 JUMPI PUSH2 0x1BF4 PUSH2 0x1ACB JUMP JUMPDEST JUMPDEST POP SWAP3 SWAP2 POP POP JUMP JUMPDEST PUSH32 0x506C616E7420746964616B206164610000000000000000000000000000000000 PUSH0 DUP3 ADD MSTORE POP JUMP JUMPDEST PUSH0 PUSH2 0x1C30 PUSH1 0xF DUP4 PUSH2 0x1942 JUMP JUMPDEST SWAP2 POP PUSH2 0x1C3B DUP3 PUSH2 0x1BFC JUMP JUMPDEST PUSH1 0x20 DUP3 ADD SWAP1 POP SWAP2 SWAP1 POP JUMP JUMPDEST PUSH0 PUSH1 0x20 DUP3 ADD SWAP1 POP DUP2 DUP2 SUB PUSH0 DUP4 ADD MSTORE PUSH2 0x1C5D DUP2 PUSH2 0x1C24 JUMP JUMPDEST SWAP1 POP SWAP2 SWAP1 POP JUMP JUMPDEST PUSH32 0x42756B616E2070656D696C696B20706C616E7400000000000000000000000000 PUSH0 DUP3 ADD MSTORE POP JUMP JUMPDEST PUSH0 PUSH2 0x1C98 PUSH1 0x13 DUP4 PUSH2 0x1942 JUMP JUMPDEST SWAP2 POP PUSH2 0x1CA3 DUP3 PUSH2 0x1C64 JUMP JUMPDEST PUSH1 0x20 DUP3 ADD SWAP1 POP SWAP2 SWAP1 POP JUMP JUMPDEST PUSH0 PUSH1 0x20 DUP3 ADD SWAP1 POP DUP2 DUP2 SUB PUSH0 DUP4 ADD MSTORE PUSH2 0x1CC5 DUP2 PUSH2 0x1C8C JUMP JUMPDEST SWAP1 POP SWAP2 SWAP1 POP JUMP JUMPDEST PUSH32 0x506C616E74207375646168206D61746900000000000000000000000000000000 PUSH0 DUP3 ADD MSTORE POP JUMP JUMPDEST PUSH0 PUSH2 0x1D00 PUSH1 0x10 DUP4 PUSH2 0x1942 JUMP JUMPDEST SWAP2 POP PUSH2 0x1D0B DUP3 PUSH2 0x1CCC JUMP JUMPDEST PUSH1 0x20 DUP3 ADD SWAP1 POP SWAP2 SWAP1 POP JUMP JUMPDEST PUSH0 PUSH1 0x20 DUP3 ADD SWAP1 POP DUP2 DUP2 SUB PUSH0 DUP4 ADD MSTORE PUSH2 0x1D2D DUP2 PUSH2 0x1CF4 JUMP JUMPDEST SWAP1 POP SWAP2 SWAP1 POP JUMP JUMPDEST PUSH0 PUSH1 0x20 DUP3 ADD SWAP1 POP PUSH2 0x1D47 PUSH0 DUP4 ADD DUP5 PUSH2 0x17A7 JUMP JUMPDEST SWAP3 SWAP2 POP POP JUMP JUMPDEST PUSH32 0x506C616E742062656C756D20626C6F6F6D696E67000000000000000000000000 PUSH0 DUP3 ADD MSTORE POP JUMP JUMPDEST PUSH0 PUSH2 0x1D81 PUSH1 0x14 DUP4 PUSH2 0x1942 JUMP JUMPDEST SWAP2 POP PUSH2 0x1D8C DUP3 PUSH2 0x1D4D JUMP JUMPDEST PUSH1 0x20 DUP3 ADD SWAP1 POP SWAP2 SWAP1 POP JUMP JUMPDEST PUSH0 PUSH1 0x20 DUP3 ADD SWAP1 POP DUP2 DUP2 SUB PUSH0 DUP4 ADD MSTORE PUSH2 0x1DAE DUP2 PUSH2 0x1D75 JUMP JUMPDEST SWAP1 POP SWAP2 SWAP1 POP JUMP JUMPDEST PUSH32 0x4B6F6E7472616B20746964616B2070756E79612063756B75702073616C646F00 PUSH0 DUP3 ADD MSTORE POP JUMP JUMPDEST PUSH0 PUSH2 0x1DE9 PUSH1 0x1F DUP4 PUSH2 0x1942 JUMP JUMPDEST SWAP2 POP PUSH2 0x1DF4 DUP3 PUSH2 0x1DB5 JUMP JUMPDEST PUSH1 0x20 DUP3 ADD SWAP1 POP SWAP2 SWAP1 POP JUMP JUMPDEST PUSH0 PUSH1 0x20 DUP3 ADD SWAP1 POP DUP2 DUP2 SUB PUSH0 DUP4 ADD MSTORE PUSH2 0x1E16 DUP2 PUSH2 0x1DDD JUMP JUMPDEST SWAP1 POP SWAP2 SWAP1 POP JUMP JUMPDEST PUSH32 0x5472616E736665722072657761726420676167616C0000000000000000000000 PUSH0 DUP3 ADD MSTORE POP JUMP JUMPDEST PUSH0 PUSH2 0x1E51 PUSH1 0x15 DUP4 PUSH2 0x1942 JUMP JUMPDEST SWAP2 POP PUSH2 0x1E5C DUP3 PUSH2 0x1E1D JUMP JUMPDEST PUSH1 0x20 DUP3 ADD SWAP1 POP SWAP2 SWAP1 POP JUMP JUMPDEST PUSH0 PUSH1 0x20 DUP3 ADD SWAP1 POP DUP2 DUP2 SUB PUSH0 DUP4 ADD MSTORE PUSH2 0x1E7E DUP2 PUSH2 0x1E45 JUMP JUMPDEST SWAP1 POP SWAP2 SWAP1 POP JUMP INVALID LOG2 PUSH5 0x6970667358 0x22 SLT KECCAK256 ADDMOD 0xA7 0xE8 CALLDATACOPY GAS MOD BYTE MCOPY BLOCKHASH EXTCODEHASH SWAP10 RETF 0xB8 0xCF SWAP9 0xAD PUSH13 0x8B7A4B904DE288D9E8B934D323 PUSH13 0x4B64736F6C634300081E003300 "
		},
		"gasEstimates": {
			"creation": {
				"codeDepositCost": "1573400",
				"executionCost": "25908",
				"totalCost": "1599308"
			},
			"external": {
				"HARVEST_REWARD()": "392",
				"PLANT_PRICE()": "369",
				"STAGE_DURATION()": "393",
				"WATER_DEPLETION_RATE()": "353",
				"WATER_DEPLETION_TIME()": "370",
				"calculateWaterLevel(uint256)": "infinite",
				"getPlant(uint256)": "infinite",
				"getUserPlants(address)": "infinite",
				"harvestPlant(uint256)": "infinite",
				"owner()": "2531",
				"plantCounter()": "2514",
				"plantSeed()": "infinite",
				"plants(uint256)": "infinite",
				"updatePlantStage(uint256)": "infinite",
				"userPlants(address,uint256)": "infinite",
				"waterPlant(uint256)": "infinite",
				"withdraw()": "infinite"
			},
			"internal": {
				"updateWaterLevel(uint256)": "infinite"
			}
		},
		"methodIdentifiers": {
			"HARVEST_REWARD()": "891c0785",
			"PLANT_PRICE()": "cfc9a5f8",
			"STAGE_DURATION()": "51f9efde",
			"WATER_DEPLETION_RATE()": "bacb5ebd",
			"WATER_DEPLETION_TIME()": "7ed4c5be",
			"calculateWaterLevel(uint256)": "754e150d",
			"getPlant(uint256)": "ed0b1f5f",
			"getUserPlants(address)": "30cec0eb",
			"harvestPlant(uint256)": "e38f8448",
			"owner()": "8da5cb5b",
			"plantCounter()": "9c471749",
			"plantSeed()": "74119a38",
			"plants(uint256)": "8dd2361c",
			"updatePlantStage(uint256)": "ddd42596",
			"userPlants(address,uint256)": "8aee578b",
			"waterPlant(uint256)": "9886bcfa",
			"withdraw()": "3ccfd60b"
		}
	},
	"abi": [
		{
			"inputs": [],
			"stateMutability": "nonpayable",
			"type": "constructor"
		},
		{
			"anonymous": false,
			"inputs": [
				{
					"indexed": true,
					"internalType": "uint256",
					"name": "plantId",
					"type": "uint256"
				}
			],
			"name": "PlantDied",
			"type": "event"
		},
		{
			"anonymous": false,
			"inputs": [
				{
					"indexed": true,
					"internalType": "uint256",
					"name": "plantId",
					"type": "uint256"
				},
				{
					"indexed": true,
					"internalType": "address",
					"name": "owner",
					"type": "address"
				},
				{
					"indexed": false,
					"internalType": "uint256",
					"name": "reward",
					"type": "uint256"
				}
			],
			"name": "PlantHarvested",
			"type": "event"
		},
		{
			"anonymous": false,
			"inputs": [
				{
					"indexed": true,
					"internalType": "address",
					"name": "owner",
					"type": "address"
				},
				{
					"indexed": true,
					"internalType": "uint256",
					"name": "plantId",
					"type": "uint256"
				}
			],
			"name": "PlantSeeded",
			"type": "event"
		},
		{
			"anonymous": false,
			"inputs": [
				{
					"indexed": true,
					"internalType": "uint256",
					"name": "plantId",
					"type": "uint256"
				},
				{
					"indexed": false,
					"internalType": "uint8",
					"name": "newWaterLevel",
					"type": "uint8"
				}
			],
			"name": "PlantWatered",
			"type": "event"
		},
		{
			"anonymous": false,
			"inputs": [
				{
					"indexed": true,
					"internalType": "uint256",
					"name": "plantId",
					"type": "uint256"
				},
				{
					"indexed": false,
					"internalType": "enum LiskGarden.GrowthStage",
					"name": "newStage",
					"type": "uint8"
				}
			],
			"name": "StageAdvanced",
			"type": "event"
		},
		{
			"inputs": [],
			"name": "HARVEST_REWARD",
			"outputs": [
				{
					"internalType": "uint256",
					"name": "",
					"type": "uint256"
				}
			],
			"stateMutability": "view",
			"type": "function"
		},
		{
			"inputs": [],
			"name": "PLANT_PRICE",
			"outputs": [
				{
					"internalType": "uint256",
					"name": "",
					"type": "uint256"
				}
			],
			"stateMutability": "view",
			"type": "function"
		},
		{
			"inputs": [],
			"name": "STAGE_DURATION",
			"outputs": [
				{
					"internalType": "uint256",
					"name": "",
					"type": "uint256"
				}
			],
			"stateMutability": "view",
			"type": "function"
		},
		{
			"inputs": [],
			"name": "WATER_DEPLETION_RATE",
			"outputs": [
				{
					"internalType": "uint8",
					"name": "",
					"type": "uint8"
				}
			],
			"stateMutability": "view",
			"type": "function"
		},
		{
			"inputs": [],
			"name": "WATER_DEPLETION_TIME",
			"outputs": [
				{
					"internalType": "uint256",
					"name": "",
					"type": "uint256"
				}
			],
			"stateMutability": "view",
			"type": "function"
		},
		{
			"inputs": [
				{
					"internalType": "uint256",
					"name": "plantId",
					"type": "uint256"
				}
			],
			"name": "calculateWaterLevel",
			"outputs": [
				{
					"internalType": "uint8",
					"name": "",
					"type": "uint8"
				}
			],
			"stateMutability": "view",
			"type": "function"
		},
		{
			"inputs": [
				{
					"internalType": "uint256",
					"name": "plantId",
					"type": "uint256"
				}
			],
			"name": "getPlant",
			"outputs": [
				{
					"components": [
						{
							"internalType": "uint256",
							"name": "id",
							"type": "uint256"
						},
						{
							"internalType": "address",
							"name": "owner",
							"type": "address"
						},
						{
							"internalType": "enum LiskGarden.GrowthStage",
							"name": "stage",
							"type": "uint8"
						},
						{
							"internalType": "uint256",
							"name": "plantedDate",
							"type": "uint256"
						},
						{
							"internalType": "uint256",
							"name": "lastWatered",
							"type": "uint256"
						},
						{
							"internalType": "uint8",
							"name": "waterLevel",
							"type": "uint8"
						},
						{
							"internalType": "bool",
							"name": "exists",
							"type": "bool"
						},
						{
							"internalType": "bool",
							"name": "isDead",
							"type": "bool"
						}
					],
					"internalType": "struct LiskGarden.Plant",
					"name": "",
					"type": "tuple"
				}
			],
			"stateMutability": "view",
			"type": "function"
		},
		{
			"inputs": [
				{
					"internalType": "address",
					"name": "user",
					"type": "address"
				}
			],
			"name": "getUserPlants",
			"outputs": [
				{
					"internalType": "uint256[]",
					"name": "",
					"type": "uint256[]"
				}
			],
			"stateMutability": "view",
			"type": "function"
		},
		{
			"inputs": [
				{
					"internalType": "uint256",
					"name": "plantId",
					"type": "uint256"
				}
			],
			"name": "harvestPlant",
			"outputs": [],
			"stateMutability": "nonpayable",
			"type": "function"
		},
		{
			"inputs": [],
			"name": "owner",
			"outputs": [
				{
					"internalType": "address payable",
					"name": "",
					"type": "address"
				}
			],
			"stateMutability": "view",
			"type": "function"
		},
		{
			"inputs": [],
			"name": "plantCounter",
			"outputs": [
				{
					"internalType": "uint256",
					"name": "",
					"type": "uint256"
				}
			],
			"stateMutability": "view",
			"type": "function"
		},
		{
			"inputs": [],
			"name": "plantSeed",
			"outputs": [
				{
					"internalType": "uint256",
					"name": "",
					"type": "uint256"
				}
			],
			"stateMutability": "payable",
			"type": "function"
		},
		{
			"inputs": [
				{
					"internalType": "uint256",
					"name": "",
					"type": "uint256"
				}
			],
			"name": "plants",
			"outputs": [
				{
					"internalType": "uint256",
					"name": "id",
					"type": "uint256"
				},
				{
					"internalType": "address",
					"name": "owner",
					"type": "address"
				},
				{
					"internalType": "enum LiskGarden.GrowthStage",
					"name": "stage",
					"type": "uint8"
				},
				{
					"internalType": "uint256",
					"name": "plantedDate",
					"type": "uint256"
				},
				{
					"internalType": "uint256",
					"name": "lastWatered",
					"type": "uint256"
				},
				{
					"internalType": "uint8",
					"name": "waterLevel",
					"type": "uint8"
				},
				{
					"internalType": "bool",
					"name": "exists",
					"type": "bool"
				},
				{
					"internalType": "bool",
					"name": "isDead",
					"type": "bool"
				}
			],
			"stateMutability": "view",
			"type": "function"
		},
		{
			"inputs": [
				{
					"internalType": "uint256",
					"name": "plantId",
					"type": "uint256"
				}
			],
			"name": "updatePlantStage",
			"outputs": [],
			"stateMutability": "nonpayable",
			"type": "function"
		},
		{
			"inputs": [
				{
					"internalType": "address",
					"name": "",
					"type": "address"
				},
				{
					"internalType": "uint256",
					"name": "",
					"type": "uint256"
				}
			],
			"name": "userPlants",
			"outputs": [
				{
					"internalType": "uint256",
					"name": "",
					"type": "uint256"
				}
			],
			"stateMutability": "view",
			"type": "function"
		},
		{
			"inputs": [
				{
					"internalType": "uint256",
					"name": "plantId",
					"type": "uint256"
				}
			],
			"name": "waterPlant",
			"outputs": [],
			"stateMutability": "nonpayable",
			"type": "function"
		},
		{
			"inputs": [],
			"name": "withdraw",
			"outputs": [],
			"stateMutability": "nonpayable",
			"type": "function"
		},
		{
			"stateMutability": "payable",
			"type": "receive"
		}
	]
}